{
    "contractName": "Escrow",
    "abi": [
        {
            "constant": false,
            "inputs": [
                {
                    "name": "recipient",
                    "type": "address"
                }
            ],
            "name": "transferPrimary",
            "outputs": [],
            "payable": false,
            "stateMutability": "nonpayable",
            "type": "function"
        },
        {
            "constant": false,
            "inputs": [
                {
                    "name": "payee",
                    "type": "address"
                }
            ],
            "name": "withdraw",
            "outputs": [],
            "payable": false,
            "stateMutability": "nonpayable",
            "type": "function"
        },
        {
            "constant": true,
            "inputs": [],
            "name": "primary",
            "outputs": [
                {
                    "name": "",
                    "type": "address"
                }
            ],
            "payable": false,
            "stateMutability": "view",
            "type": "function"
        },
        {
            "constant": true,
            "inputs": [
                {
                    "name": "payee",
                    "type": "address"
                }
            ],
            "name": "depositsOf",
            "outputs": [
                {
                    "name": "",
                    "type": "uint256"
                }
            ],
            "payable": false,
            "stateMutability": "view",
            "type": "function"
        },
        {
            "constant": false,
            "inputs": [
                {
                    "name": "payee",
                    "type": "address"
                }
            ],
            "name": "deposit",
            "outputs": [],
            "payable": true,
            "stateMutability": "payable",
            "type": "function"
        },
        {
            "anonymous": false,
            "inputs": [
                {
                    "indexed": true,
                    "name": "payee",
                    "type": "address"
                },
                {
                    "indexed": false,
                    "name": "weiAmount",
                    "type": "uint256"
                }
            ],
            "name": "Deposited",
            "type": "event"
        },
        {
            "anonymous": false,
            "inputs": [
                {
                    "indexed": true,
                    "name": "payee",
                    "type": "address"
                },
                {
                    "indexed": false,
                    "name": "weiAmount",
                    "type": "uint256"
                }
            ],
            "name": "Withdrawn",
            "type": "event"
        },
        {
            "anonymous": false,
            "inputs": [
                {
                    "indexed": false,
                    "name": "recipient",
                    "type": "address"
                }
            ],
            "name": "PrimaryTransferred",
            "type": "event"
        }
    ],
    "bytecode": "6080604081905260008054600160a060020a031916331790819055600160a060020a031681527f4101e71e974f68df5e9730cc223280b41654676bbb052cdcc735c3337e64d2d990602090a16105238061005a6000396000f3fe608060405260043610610066577c010000000000000000000000000000000000000000000000000000000060003504632348238c811461006b57806351cff8d9146100a0578063c6dbdf61146100d3578063e3a9db1a14610104578063f340fa0114610149575b600080fd5b34801561007757600080fd5b5061009e6004803603602081101561008e57600080fd5b5035600160a060020a031661016f565b005b3480156100ac57600080fd5b5061009e600480360360208110156100c357600080fd5b5035600160a060020a031661026c565b3480156100df57600080fd5b506100e8610346565b60408051600160a060020a039092168252519081900360200190f35b34801561011057600080fd5b506101376004803603602081101561012757600080fd5b5035600160a060020a0316610355565b60408051918252519081900360200190f35b61009e6004803603602081101561015f57600080fd5b5035600160a060020a0316610370565b600054600160a060020a031633146101bb5760405160e560020a62461bcd02815260040180806020018281038252602c8152602001806104cc602c913960400191505060405180910390fd5b600160a060020a03811615156102055760405160e560020a62461bcd02815260040180806020018281038252602a8152602001806104a2602a913960400191505060405180910390fd5b6000805473ffffffffffffffffffffffffffffffffffffffff1916600160a060020a03838116919091179182905560408051929091168252517f4101e71e974f68df5e9730cc223280b41654676bbb052cdcc735c3337e64d2d9916020908290030190a150565b600054600160a060020a031633146102b85760405160e560020a62461bcd02815260040180806020018281038252602c8152602001806104cc602c913960400191505060405180910390fd5b600160a060020a038116600081815260016020526040808220805490839055905190929183156108fc02918491818181858888f19350505050158015610302573d6000803e3d6000fd5b50604080518281529051600160a060020a038416917f7084f5476618d8e60b11ef0d7d3f06914655adb8793e28ff7f018d4c76d505d5919081900360200190a25050565b600054600160a060020a031690565b600160a060020a031660009081526001602052604090205490565b600054600160a060020a031633146103bc5760405160e560020a62461bcd02815260040180806020018281038252602c8152602001806104cc602c913960400191505060405180910390fd5b600160a060020a03811660009081526001602052604090205434906103e7908263ffffffff61043d16565b600160a060020a038316600081815260016020908152604091829020939093558051848152905191927f2da466a7b24304f47e87fa2e1e5a81b9831ce54fec19055ce277ca2f39ba42c492918290030190a25050565b60008282018381101561049a576040805160e560020a62461bcd02815260206004820152601b60248201527f536166654d6174683a206164646974696f6e206f766572666c6f770000000000604482015290519081900360640190fd5b939250505056fe5365636f6e646172793a206e6577207072696d61727920697320746865207a65726f20616464726573735365636f6e646172793a2063616c6c6572206973206e6f7420746865207072696d617279206163636f756e74a165627a7a723058200bd581ef3b42e6b9ddf39a9a46e36d10587432657c6c34db3bff48429177df950029",
    "sourcePath": "c:/Users/franc/Desktop/ReMuS/example_content/contracts/openzeppelin-solidity/contracts/payment/escrow/Escrow.sol",
    "compiler": {
        "name": "solc",
        "version": "0.5.2+commit.1df8f40c"
    },
    "functionHashes": {
        "deposit(address)": "f340fa01",
        "depositsOf(address)": "e3a9db1a",
        "primary()": "c6dbdf61",
        "transferPrimary(address)": "2348238c",
        "withdraw(address)": "51cff8d9"
    },
    "gasEstimates": {
        "creation": {
            "codeDepositCost": "263000",
            "executionCost": "21685",
            "totalCost": "284685"
        },
        "external": {
            "deposit(address)": "infinite",
            "depositsOf(address)": "702",
            "primary()": "575",
            "transferPrimary(address)": "infinite",
            "withdraw(address)": "infinite"
        }
    }
}