{
    "contractName": "RefundEscrow",
    "abi": [
        {
            "constant": false,
            "inputs": [
                {
                    "name": "recipient",
                    "type": "address"
                }
            ],
            "name": "transferPrimary",
            "outputs": [],
            "payable": false,
            "stateMutability": "nonpayable",
            "type": "function"
        },
        {
            "constant": true,
            "inputs": [],
            "name": "beneficiary",
            "outputs": [
                {
                    "name": "",
                    "type": "address"
                }
            ],
            "payable": false,
            "stateMutability": "view",
            "type": "function"
        },
        {
            "constant": false,
            "inputs": [],
            "name": "close",
            "outputs": [],
            "payable": false,
            "stateMutability": "nonpayable",
            "type": "function"
        },
        {
            "constant": false,
            "inputs": [
                {
                    "name": "payee",
                    "type": "address"
                }
            ],
            "name": "withdraw",
            "outputs": [],
            "payable": false,
            "stateMutability": "nonpayable",
            "type": "function"
        },
        {
            "constant": true,
            "inputs": [
                {
                    "name": "",
                    "type": "address"
                }
            ],
            "name": "withdrawalAllowed",
            "outputs": [
                {
                    "name": "",
                    "type": "bool"
                }
            ],
            "payable": false,
            "stateMutability": "view",
            "type": "function"
        },
        {
            "constant": false,
            "inputs": [],
            "name": "enableRefunds",
            "outputs": [],
            "payable": false,
            "stateMutability": "nonpayable",
            "type": "function"
        },
        {
            "constant": false,
            "inputs": [],
            "name": "beneficiaryWithdraw",
            "outputs": [],
            "payable": false,
            "stateMutability": "nonpayable",
            "type": "function"
        },
        {
            "constant": true,
            "inputs": [],
            "name": "state",
            "outputs": [
                {
                    "name": "",
                    "type": "uint8"
                }
            ],
            "payable": false,
            "stateMutability": "view",
            "type": "function"
        },
        {
            "constant": true,
            "inputs": [],
            "name": "primary",
            "outputs": [
                {
                    "name": "",
                    "type": "address"
                }
            ],
            "payable": false,
            "stateMutability": "view",
            "type": "function"
        },
        {
            "constant": true,
            "inputs": [
                {
                    "name": "payee",
                    "type": "address"
                }
            ],
            "name": "depositsOf",
            "outputs": [
                {
                    "name": "",
                    "type": "uint256"
                }
            ],
            "payable": false,
            "stateMutability": "view",
            "type": "function"
        },
        {
            "constant": false,
            "inputs": [
                {
                    "name": "refundee",
                    "type": "address"
                }
            ],
            "name": "deposit",
            "outputs": [],
            "payable": true,
            "stateMutability": "payable",
            "type": "function"
        },
        {
            "inputs": [
                {
                    "name": "beneficiary",
                    "type": "address"
                }
            ],
            "payable": false,
            "stateMutability": "nonpayable",
            "type": "constructor"
        },
        {
            "anonymous": false,
            "inputs": [],
            "name": "RefundsClosed",
            "type": "event"
        },
        {
            "anonymous": false,
            "inputs": [],
            "name": "RefundsEnabled",
            "type": "event"
        },
        {
            "anonymous": false,
            "inputs": [
                {
                    "indexed": true,
                    "name": "payee",
                    "type": "address"
                },
                {
                    "indexed": false,
                    "name": "weiAmount",
                    "type": "uint256"
                }
            ],
            "name": "Deposited",
            "type": "event"
        },
        {
            "anonymous": false,
            "inputs": [
                {
                    "indexed": true,
                    "name": "payee",
                    "type": "address"
                },
                {
                    "indexed": false,
                    "name": "weiAmount",
                    "type": "uint256"
                }
            ],
            "name": "Withdrawn",
            "type": "event"
        },
        {
            "anonymous": false,
            "inputs": [
                {
                    "indexed": false,
                    "name": "recipient",
                    "type": "address"
                }
            ],
            "name": "PrimaryTransferred",
            "type": "event"
        }
    ],
    "bytecode": "608060405234801561001057600080fd5b50604051602080610bab8339810180604052602081101561003057600080fd5b505160008054600160a060020a03191633179081905560408051600160a060020a03929092168252517f4101e71e974f68df5e9730cc223280b41654676bbb052cdcc735c3337e64d2d99181900360200190a1600160a060020a03811615156100e4576040517f08c379a000000000000000000000000000000000000000000000000000000000815260040180806020018281038252602d815260200180610b7e602d913960400191505060405180910390fd5b6002805460ff19600160a060020a03939093166101000261010060a860020a031990911617919091169055610a608061011e6000396000f3fe6080604052600436106100b9576000357c0100000000000000000000000000000000000000000000000000000000900480638c52dc41116100815780638c52dc41146101b35780639af6549a146101c8578063c19d93fb146101dd578063c6dbdf6114610216578063e3a9db1a1461022b578063f340fa0114610270576100b9565b80632348238c146100be57806338af3eed146100f357806343d726d61461012457806351cff8d914610139578063685ca1941461016c575b600080fd5b3480156100ca57600080fd5b506100f1600480360360208110156100e157600080fd5b5035600160a060020a0316610296565b005b3480156100ff57600080fd5b50610108610393565b60408051600160a060020a039092168252519081900360200190f35b34801561013057600080fd5b506100f16103a7565b34801561014557600080fd5b506100f16004803603602081101561015c57600080fd5b5035600160a060020a031661047c565b34801561017857600080fd5b5061019f6004803603602081101561018f57600080fd5b5035600160a060020a03166104d1565b604080519115158252519081900360200190f35b3480156101bf57600080fd5b506100f16104ed565b3480156101d457600080fd5b506100f16105c3565b3480156101e957600080fd5b506101f2610654565b6040518082600281111561020257fe5b60ff16815260200191505060405180910390f35b34801561022257600080fd5b5061010861065d565b34801561023757600080fd5b5061025e6004803603602081101561024e57600080fd5b5035600160a060020a031661066c565b60408051918252519081900360200190f35b6100f16004803603602081101561028657600080fd5b5035600160a060020a0316610687565b600054600160a060020a031633146102e25760405160e560020a62461bcd02815260040180806020018281038252602c8152602001806109d7602c913960400191505060405180910390fd5b600160a060020a038116151561032c5760405160e560020a62461bcd02815260040180806020018281038252602a8152602001806109ad602a913960400191505060405180910390fd5b6000805473ffffffffffffffffffffffffffffffffffffffff1916600160a060020a03838116919091179182905560408051929091168252517f4101e71e974f68df5e9730cc223280b41654676bbb052cdcc735c3337e64d2d9916020908290030190a150565b6002546101009004600160a060020a031690565b600054600160a060020a031633146103f35760405160e560020a62461bcd02815260040180806020018281038252602c8152602001806109d7602c913960400191505060405180910390fd5b60006002805460ff169081111561040657fe5b146104455760405160e560020a62461bcd0281526004018080602001828103825260298152602001806109846029913960400191505060405180910390fd5b6002805460ff1916811790556040517f088672c3a6e342f7cd94a65ba63b79df24a8973927b4d05d803c44bbf787d12f90600090a1565b610485816104d1565b15156104c55760405160e560020a62461bcd0281526004018080602001828103825260338152602001806109516033913960400191505060405180910390fd5b6104ce816106e2565b50565b600060016002805460ff16908111156104e657fe5b1492915050565b600054600160a060020a031633146105395760405160e560020a62461bcd02815260040180806020018281038252602c8152602001806109d7602c913960400191505060405180910390fd5b60006002805460ff169081111561054c57fe5b1461058b5760405160e560020a62461bcd028152600401808060200182810382526032815260200180610a036032913960400191505060405180910390fd5b6002805460ff191660011790556040517f599d8e5a83cffb867d051598c4d70e805d59802d8081c1c7d6dffc5b6aca2b8990600090a1565b6002805460ff16818111156105d457fe5b146106135760405160e560020a62461bcd0281526004018080602001828103825260388152602001806108ee6038913960400191505060405180910390fd5b600254604051600160a060020a036101009092049190911690303180156108fc02916000818181858888f193505050501580156104ce573d6000803e3d6000fd5b60025460ff1690565b600054600160a060020a031690565b600160a060020a031660009081526001602052604090205490565b60006002805460ff169081111561069a57fe5b146106d95760405160e560020a62461bcd02815260040180806020018281038252602b815260200180610926602b913960400191505060405180910390fd5b6104ce816107bc565b600054600160a060020a0316331461072e5760405160e560020a62461bcd02815260040180806020018281038252602c8152602001806109d7602c913960400191505060405180910390fd5b600160a060020a038116600081815260016020526040808220805490839055905190929183156108fc02918491818181858888f19350505050158015610778573d6000803e3d6000fd5b50604080518281529051600160a060020a038416917f7084f5476618d8e60b11ef0d7d3f06914655adb8793e28ff7f018d4c76d505d5919081900360200190a25050565b600054600160a060020a031633146108085760405160e560020a62461bcd02815260040180806020018281038252602c8152602001806109d7602c913960400191505060405180910390fd5b600160a060020a0381166000908152600160205260409020543490610833908263ffffffff61088916565b600160a060020a038316600081815260016020908152604091829020939093558051848152905191927f2da466a7b24304f47e87fa2e1e5a81b9831ce54fec19055ce277ca2f39ba42c492918290030190a25050565b6000828201838110156108e6576040805160e560020a62461bcd02815260206004820152601b60248201527f536166654d6174683a206164646974696f6e206f766572666c6f770000000000604482015290519081900360640190fd5b939250505056fe526566756e64457363726f773a2062656e65666963696172792063616e206f6e6c79207769746864726177207768696c6520636c6f736564526566756e64457363726f773a2063616e206f6e6c79206465706f736974207768696c6520616374697665436f6e646974696f6e616c457363726f773a207061796565206973206e6f7420616c6c6f77656420746f207769746864726177526566756e64457363726f773a2063616e206f6e6c7920636c6f7365207768696c65206163746976655365636f6e646172793a206e6577207072696d61727920697320746865207a65726f20616464726573735365636f6e646172793a2063616c6c6572206973206e6f7420746865207072696d617279206163636f756e74526566756e64457363726f773a2063616e206f6e6c7920656e61626c6520726566756e6473207768696c6520616374697665a165627a7a7230582091a8aaab670e26ab26e2d685d4cae7d24b3c1758f76ae06e747fbdc743f2fb2c0029526566756e64457363726f773a2062656e656669636961727920697320746865207a65726f2061646472657373",
    "sourcePath": "c:/Users/franc/Desktop/ReMuS/example_content/contracts/openzeppelin-solidity/contracts/payment/escrow/RefundEscrow.sol",
    "compiler": {
        "name": "solc",
        "version": "0.5.2+commit.1df8f40c"
    },
    "functionHashes": {
        "beneficiary()": "38af3eed",
        "beneficiaryWithdraw()": "9af6549a",
        "close()": "43d726d6",
        "deposit(address)": "f340fa01",
        "depositsOf(address)": "e3a9db1a",
        "enableRefunds()": "8c52dc41",
        "primary()": "c6dbdf61",
        "state()": "c19d93fb",
        "transferPrimary(address)": "2348238c",
        "withdraw(address)": "51cff8d9",
        "withdrawalAllowed(address)": "685ca194"
    },
    "gasEstimates": {
        "creation": {
            "codeDepositCost": "531200",
            "executionCost": "infinite",
            "totalCost": "infinite"
        },
        "external": {
            "beneficiary()": "590",
            "beneficiaryWithdraw()": "infinite",
            "close()": "infinite",
            "deposit(address)": "infinite",
            "depositsOf(address)": "749",
            "enableRefunds()": "infinite",
            "primary()": "622",
            "state()": "492",
            "transferPrimary(address)": "infinite",
            "withdraw(address)": "infinite",
            "withdrawalAllowed(address)": "666"
        }
    }
}