{
    "contractName": "Migrations",
    "abi": [
        {
            "constant": false,
            "inputs": [
                {
                    "name": "newAddress",
                    "type": "address"
                }
            ],
            "name": "upgrade",
            "outputs": [],
            "payable": false,
            "stateMutability": "nonpayable",
            "type": "function"
        },
        {
            "constant": true,
            "inputs": [],
            "name": "owner",
            "outputs": [
                {
                    "name": "",
                    "type": "address"
                }
            ],
            "payable": false,
            "stateMutability": "view",
            "type": "function"
        },
        {
            "constant": true,
            "inputs": [],
            "name": "lastCompletedMigration",
            "outputs": [
                {
                    "name": "",
                    "type": "uint256"
                }
            ],
            "payable": false,
            "stateMutability": "view",
            "type": "function"
        },
        {
            "constant": false,
            "inputs": [
                {
                    "name": "completed",
                    "type": "uint256"
                }
            ],
            "name": "setCompleted",
            "outputs": [],
            "payable": false,
            "stateMutability": "nonpayable",
            "type": "function"
        },
        {
            "inputs": [],
            "payable": false,
            "stateMutability": "nonpayable",
            "type": "constructor"
        }
    ],
    "bytecode": "608060405234801561001057600080fd5b5060008054600160a060020a03191633179055610230806100326000396000f3fe608060405234801561001057600080fd5b5060043610610068577c010000000000000000000000000000000000000000000000000000000060003504630900f010811461006d5780638da5cb5b146100a2578063fbdbad3c146100d3578063fdacd576146100ed575b600080fd5b6100a06004803603602081101561008357600080fd5b503573ffffffffffffffffffffffffffffffffffffffff1661010a565b005b6100aa6101bd565b6040805173ffffffffffffffffffffffffffffffffffffffff9092168252519081900360200190f35b6100db6101d9565b60408051918252519081900360200190f35b6100a06004803603602081101561010357600080fd5b50356101df565b60005473ffffffffffffffffffffffffffffffffffffffff163314156101ba5760008190508073ffffffffffffffffffffffffffffffffffffffff1663fdacd5766001546040518263ffffffff167c010000000000000000000000000000000000000000000000000000000002815260040180828152602001915050600060405180830381600087803b1580156101a057600080fd5b505af11580156101b4573d6000803e3d6000fd5b50505050505b50565b60005473ffffffffffffffffffffffffffffffffffffffff1681565b60015481565b60005473ffffffffffffffffffffffffffffffffffffffff163314156101ba5760015556fea165627a7a723058200459030e6c4b8b944c43f88261cd9555f221e13a2a56c8d15bc234e3f23e342d0029",
    "sourcePath": "c:/Users/franc/Desktop/ReMuS/example_content/contracts/@gnosis.pm/hg-contracts/contracts/Migrations.sol",
    "compiler": {
        "name": "solc",
        "version": "0.5.2+commit.1df8f40c"
    },
    "functionHashes": {
        "lastCompletedMigration()": "fbdbad3c",
        "owner()": "8da5cb5b",
        "setCompleted(uint256)": "fdacd576",
        "upgrade(address)": "0900f010"
    },
    "gasEstimates": {
        "creation": {
            "codeDepositCost": "112000",
            "executionCost": "20451",
            "totalCost": "132451"
        },
        "external": {
            "lastCompletedMigration()": "422",
            "owner()": "415",
            "setCompleted(uint256)": "20465",
            "upgrade(address)": "infinite"
        }
    }
}