{
    "contractName": "ERC1155Mock",
    "abi": [
        {
            "constant": true,
            "inputs": [
                {
                    "name": "owner",
                    "type": "address"
                },
                {
                    "name": "id",
                    "type": "uint256"
                }
            ],
            "name": "balanceOf",
            "outputs": [
                {
                    "name": "",
                    "type": "uint256"
                }
            ],
            "payable": false,
            "stateMutability": "view",
            "type": "function"
        },
        {
            "constant": true,
            "inputs": [
                {
                    "name": "interfaceId",
                    "type": "bytes4"
                }
            ],
            "name": "supportsInterface",
            "outputs": [
                {
                    "name": "",
                    "type": "bool"
                }
            ],
            "payable": false,
            "stateMutability": "view",
            "type": "function"
        },
        {
            "constant": false,
            "inputs": [
                {
                    "name": "from",
                    "type": "address"
                },
                {
                    "name": "to",
                    "type": "address"
                },
                {
                    "name": "ids",
                    "type": "uint256[]"
                },
                {
                    "name": "values",
                    "type": "uint256[]"
                },
                {
                    "name": "data",
                    "type": "bytes"
                }
            ],
            "name": "safeBatchTransferFrom",
            "outputs": [],
            "payable": false,
            "stateMutability": "nonpayable",
            "type": "function"
        },
        {
            "constant": false,
            "inputs": [
                {
                    "name": "operator",
                    "type": "address"
                },
                {
                    "name": "from",
                    "type": "address"
                },
                {
                    "name": "to",
                    "type": "address"
                },
                {
                    "name": "ids",
                    "type": "uint256[]"
                },
                {
                    "name": "values",
                    "type": "uint256[]"
                },
                {
                    "name": "data",
                    "type": "bytes"
                }
            ],
            "name": "doSafeBatchTransferAcceptanceCheck",
            "outputs": [],
            "payable": false,
            "stateMutability": "nonpayable",
            "type": "function"
        },
        {
            "constant": true,
            "inputs": [
                {
                    "name": "owners",
                    "type": "address[]"
                },
                {
                    "name": "ids",
                    "type": "uint256[]"
                }
            ],
            "name": "balanceOfBatch",
            "outputs": [
                {
                    "name": "",
                    "type": "uint256[]"
                }
            ],
            "payable": false,
            "stateMutability": "view",
            "type": "function"
        },
        {
            "constant": false,
            "inputs": [
                {
                    "name": "to",
                    "type": "address"
                },
                {
                    "name": "id",
                    "type": "uint256"
                },
                {
                    "name": "value",
                    "type": "uint256"
                },
                {
                    "name": "data",
                    "type": "bytes"
                }
            ],
            "name": "mint",
            "outputs": [],
            "payable": false,
            "stateMutability": "nonpayable",
            "type": "function"
        },
        {
            "constant": false,
            "inputs": [
                {
                    "name": "operator",
                    "type": "address"
                },
                {
                    "name": "from",
                    "type": "address"
                },
                {
                    "name": "to",
                    "type": "address"
                },
                {
                    "name": "id",
                    "type": "uint256"
                },
                {
                    "name": "value",
                    "type": "uint256"
                },
                {
                    "name": "data",
                    "type": "bytes"
                }
            ],
            "name": "doSafeTransferAcceptanceCheck",
            "outputs": [],
            "payable": false,
            "stateMutability": "nonpayable",
            "type": "function"
        },
        {
            "constant": false,
            "inputs": [
                {
                    "name": "operator",
                    "type": "address"
                },
                {
                    "name": "approved",
                    "type": "bool"
                }
            ],
            "name": "setApprovalForAll",
            "outputs": [],
            "payable": false,
            "stateMutability": "nonpayable",
            "type": "function"
        },
        {
            "constant": true,
            "inputs": [
                {
                    "name": "owner",
                    "type": "address"
                },
                {
                    "name": "operator",
                    "type": "address"
                }
            ],
            "name": "isApprovedForAll",
            "outputs": [
                {
                    "name": "",
                    "type": "bool"
                }
            ],
            "payable": false,
            "stateMutability": "view",
            "type": "function"
        },
        {
            "constant": false,
            "inputs": [
                {
                    "name": "from",
                    "type": "address"
                },
                {
                    "name": "to",
                    "type": "address"
                },
                {
                    "name": "id",
                    "type": "uint256"
                },
                {
                    "name": "value",
                    "type": "uint256"
                },
                {
                    "name": "data",
                    "type": "bytes"
                }
            ],
            "name": "safeTransferFrom",
            "outputs": [],
            "payable": false,
            "stateMutability": "nonpayable",
            "type": "function"
        },
        {
            "constant": false,
            "inputs": [
                {
                    "name": "owner",
                    "type": "address"
                },
                {
                    "name": "id",
                    "type": "uint256"
                },
                {
                    "name": "value",
                    "type": "uint256"
                }
            ],
            "name": "burn",
            "outputs": [],
            "payable": false,
            "stateMutability": "nonpayable",
            "type": "function"
        },
        {
            "anonymous": false,
            "inputs": [
                {
                    "indexed": true,
                    "name": "operator",
                    "type": "address"
                },
                {
                    "indexed": true,
                    "name": "from",
                    "type": "address"
                },
                {
                    "indexed": true,
                    "name": "to",
                    "type": "address"
                },
                {
                    "indexed": false,
                    "name": "id",
                    "type": "uint256"
                },
                {
                    "indexed": false,
                    "name": "value",
                    "type": "uint256"
                }
            ],
            "name": "TransferSingle",
            "type": "event"
        },
        {
            "anonymous": false,
            "inputs": [
                {
                    "indexed": true,
                    "name": "operator",
                    "type": "address"
                },
                {
                    "indexed": true,
                    "name": "from",
                    "type": "address"
                },
                {
                    "indexed": true,
                    "name": "to",
                    "type": "address"
                },
                {
                    "indexed": false,
                    "name": "ids",
                    "type": "uint256[]"
                },
                {
                    "indexed": false,
                    "name": "values",
                    "type": "uint256[]"
                }
            ],
            "name": "TransferBatch",
            "type": "event"
        },
        {
            "anonymous": false,
            "inputs": [
                {
                    "indexed": true,
                    "name": "owner",
                    "type": "address"
                },
                {
                    "indexed": true,
                    "name": "operator",
                    "type": "address"
                },
                {
                    "indexed": false,
                    "name": "approved",
                    "type": "bool"
                }
            ],
            "name": "ApprovalForAll",
            "type": "event"
        },
        {
            "anonymous": false,
            "inputs": [
                {
                    "indexed": false,
                    "name": "value",
                    "type": "string"
                },
                {
                    "indexed": true,
                    "name": "id",
                    "type": "uint256"
                }
            ],
            "name": "URI",
            "type": "event"
        }
    ],
    "bytecode": "60806040526100367f01ffc9a70000000000000000000000000000000000000000000000000000000064010000000061006d810204565b6100687fd9b67a260000000000000000000000000000000000000000000000000000000064010000000061006d810204565b61013b565b7fffffffff0000000000000000000000000000000000000000000000000000000080821614156100fe57604080517f08c379a000000000000000000000000000000000000000000000000000000000815260206004820152601c60248201527f4552433136353a20696e76616c696420696e7465726661636520696400000000604482015290519081900360640190fd5b7fffffffff00000000000000000000000000000000000000000000000000000000166000908152602081905260409020805460ff19166001179055565b6118688061014a6000396000f3fe608060405234801561001057600080fd5b50600436106100c5576000357c010000000000000000000000000000000000000000000000000000000090048063731133e91161008e578063731133e9146105b85780637f2c00d31461067a578063a22cb4651461074d578063e985e9c51461077b578063f242432a146107a9578063f5298aca1461083e576100c5565b8062fdd58e146100ca57806301ffc9a7146101085780632eb2c2d614610143578063395649f6146102725780634e1273f414610441575b600080fd5b6100f6600480360360408110156100e057600080fd5b50600160a060020a038135169060200135610870565b60408051918252519081900360200190f35b61012f6004803603602081101561011e57600080fd5b5035600160e060020a0319166108e4565b604080519115158252519081900360200190f35b610270600480360360a081101561015957600080fd5b600160a060020a03823581169260208101359091169181019060608101604082013564010000000081111561018d57600080fd5b82018360208201111561019f57600080fd5b803590602001918460208302840111640100000000831117156101c157600080fd5b9193909290916020810190356401000000008111156101df57600080fd5b8201836020820111156101f157600080fd5b8035906020019184602083028401116401000000008311171561021357600080fd5b91939092909160208101903564010000000081111561023157600080fd5b82018360208201111561024357600080fd5b8035906020019184600183028401116401000000008311171561026557600080fd5b509092509050610903565b005b610270600480360360c081101561028857600080fd5b600160a060020a03823581169260208101358216926040820135909216918101906080810160608201356401000000008111156102c457600080fd5b8201836020820111156102d657600080fd5b803590602001918460208302840111640100000000831117156102f857600080fd5b919080806020026020016040519081016040528093929190818152602001838360200280828437600092019190915250929594936020810193503591505064010000000081111561034857600080fd5b82018360208201111561035a57600080fd5b8035906020019184602083028401116401000000008311171561037c57600080fd5b91908080602002602001604051908101604052809392919081815260200183836020028082843760009201919091525092959493602081019350359150506401000000008111156103cc57600080fd5b8201836020820111156103de57600080fd5b8035906020019184600183028401116401000000008311171561040057600080fd5b91908080601f016020809104026020016040519081016040528093929190818152602001838380828437600092019190915250929550610c9f945050505050565b6105686004803603604081101561045757600080fd5b81019060208101813564010000000081111561047257600080fd5b82018360208201111561048457600080fd5b803590602001918460208302840111640100000000831117156104a657600080fd5b91908080602002602001604051908101604052809392919081815260200183836020028082843760009201919091525092959493602081019350359150506401000000008111156104f657600080fd5b82018360208201111561050857600080fd5b8035906020019184602083028401116401000000008311171561052a57600080fd5b919080806020026020016040519081016040528093929190818152602001838360200280828437600092019190915250929550610cb5945050505050565b60408051602080825283518183015283519192839290830191858101910280838360005b838110156105a457818101518382015260200161058c565b505050509050019250505060405180910390f35b610270600480360360808110156105ce57600080fd5b600160a060020a03823516916020810135916040820135919081019060808101606082013564010000000081111561060557600080fd5b82018360208201111561061757600080fd5b8035906020019184600183028401116401000000008311171561063957600080fd5b91908080601f016020809104026020016040519081016040528093929190818152602001838380828437600092019190915250929550610e28945050505050565b610270600480360360c081101561069057600080fd5b600160a060020a038235811692602081013582169260408201359092169160608201359160808101359181019060c0810160a08201356401000000008111156106d857600080fd5b8201836020820111156106ea57600080fd5b8035906020019184600183028401116401000000008311171561070c57600080fd5b91908080601f016020809104026020016040519081016040528093929190818152602001838380828437600092019190915250929550610e3a945050505050565b6102706004803603604081101561076357600080fd5b50600160a060020a0381351690602001351515610e48565b61012f6004803603604081101561079157600080fd5b50600160a060020a0381358116916020013516610eb6565b610270600480360360a08110156107bf57600080fd5b600160a060020a03823581169260208101359091169160408201359160608101359181019060a0810160808201356401000000008111156107ff57600080fd5b82018360208201111561081157600080fd5b8035906020019184600183028401116401000000008311171561083357600080fd5b509092509050610ee4565b6102706004803603606081101561085457600080fd5b50600160a060020a0381351690602081013590604001356110c2565b6000600160a060020a03831615156108bc5760405160e560020a62461bcd02815260040180806020018281038252602b81526020018061169a602b913960400191505060405180910390fd5b506000908152600160209081526040808320600160a060020a03949094168352929052205490565b600160e060020a03191660009081526020819052604090205460ff1690565b8483146109445760405160e560020a62461bcd02815260040180806020018281038252602e815260200180611785602e913960400191505060405180910390fd5b600160a060020a038716151561098e5760405160e560020a62461bcd0281526004018080602001828103825260288152602001806116c56028913960400191505060405180910390fd5b600160a060020a0388163314806109cd5750600160a060020a038816600090815260026020908152604080832033845290915290205460ff1615156001145b1515610a0d5760405160e560020a62461bcd0281526004018080602001828103825260388152602001806117b36038913960400191505060405180910390fd5b60005b85811015610b3f576000878783818110610a2657fe5b90506020020135905060008686848181101515610a3f57fe5b905060200201359050610a91816001600085815260200190815260200160002060008e600160a060020a0316600160a060020a03168152602001908152602001600020546110d290919063ffffffff16565b6001600084815260200190815260200160002060008d600160a060020a0316600160a060020a0316815260200190815260200160002081905550610b146001600084815260200190815260200160002060008c600160a060020a0316600160a060020a03168152602001908152602001600020548261113290919063ffffffff16565b6000928352600160208181526040808620600160a060020a038f168752909152909320555001610a10565b5086600160a060020a031688600160a060020a031633600160a060020a03167f4a39dc06d4c0dbc64b70af90fd698a233a518aa5d07e595d983b8c0526c8f7fb898989896040518080602001806020018381038352878782818152602001925060200280828437600083820152601f01601f19169091018481038352858152602090810191508690860280828437600083820152604051601f909101601f19169092018290039850909650505050505050a4610c9533898989898080602002602001604051908101604052809392919081815260200183836020028082843760009201919091525050604080516020808d0282810182019093528c82529093508c92508b91829185019084908082843760009201919091525050604080516020601f8c018190048102820181019092528a815292508a915089908190840183828082843760009201919091525061119692505050565b5050505050505050565b610cad868686868686611196565b505050505050565b8051825160609114610cfb5760405160e560020a62461bcd02815260040180806020018281038252602e815260200180611757602e913960400191505060405180910390fd5b60608351604051908082528060200260200182016040528015610d28578160200160208202803883390190505b50905060005b8451811015610e20578451600090869083908110610d4857fe5b60209081029091010151600160a060020a03161415610d9b5760405160e560020a62461bcd0281526004018080602001828103825260348152602001806117236034913960400191505060405180910390fd5b600160008583815181101515610dad57fe5b90602001906020020151815260200190815260200160002060008683815181101515610dd557fe5b90602001906020020151600160a060020a0316600160a060020a03168152602001908152602001600020548282815181101515610e0e57fe5b60209081029091010152600101610d2e565b509392505050565b610e348484848461138f565b50505050565b610cad868686868686611478565b336000818152600260209081526040808320600160a060020a03871680855290835292819020805460ff1916861515908117909155815190815290519293927f17307eab39ab6107e8899845ad3d59bd9653f200f220920489ca2b5937696c31929181900390910190a35050565b600160a060020a03918216600090815260026020908152604080832093909416825291909152205460ff1690565b600160a060020a0385161515610f2e5760405160e560020a62461bcd0281526004018080602001828103825260288152602001806116c56028913960400191505060405180910390fd5b600160a060020a038616331480610f6d5750600160a060020a038616600090815260026020908152604080832033845290915290205460ff1615156001145b1515610fad5760405160e560020a62461bcd0281526004018080602001828103825260388152602001806117b36038913960400191505060405180910390fd5b6000848152600160209081526040808320600160a060020a038a168452909152902054610fe0908463ffffffff6110d216565b6000858152600160209081526040808320600160a060020a038b81168552925280832093909355871681522054611018908490611132565b6000858152600160209081526040808320600160a060020a03808b16808652918452938290209490945580518881529182018790528051928a169233927fc3d58168c5ae7397731d063d5bbf3d657854427343f4c083240f7aacaa2d0f6292908290030190a4610cad338787878787878080601f01602080910402602001604051908101604052809392919081815260200183838082843760009201919091525061147892505050565b6110cd8383836115f6565b505050565b60008282111561112c576040805160e560020a62461bcd02815260206004820152601e60248201527f536166654d6174683a207375627472616374696f6e206f766572666c6f770000604482015290519081900360640190fd5b50900390565b60008282018381101561118f576040805160e560020a62461bcd02815260206004820152601b60248201527f536166654d6174683a206164646974696f6e206f766572666c6f770000000000604482015290519081900360640190fd5b9392505050565b6111a884600160a060020a0316611691565b15610cad576040517fbc197c8100000000000000000000000000000000000000000000000000000000808252600160a060020a0388811660048401908152888216602485015260a060448501908152875160a4860152875193949289169363bc197c81938c938c938b938b938b9392916064820191608481019160c4909101906020808a01910280838360005b8381101561124d578181015183820152602001611235565b50505050905001848103835286818151815260200191508051906020019060200280838360005b8381101561128c578181015183820152602001611274565b50505050905001848103825285818151815260200191508051906020019080838360005b838110156112c85781810151838201526020016112b0565b50505050905090810190601f1680156112f55780820380516001836020036101000a031916815260200191505b5098505050505050505050602060405180830381600087803b15801561131a57600080fd5b505af115801561132e573d6000803e3d6000fd5b505050506040513d602081101561134457600080fd5b5051600160e060020a03191614610cad5760405160e560020a62461bcd0281526004018080602001828103825260368152602001806116ed6036913960400191505060405180910390fd5b600160a060020a03841615156113d95760405160e560020a62461bcd0281526004018080602001828103825260218152602001806117eb6021913960400191505060405180910390fd5b6000838152600160209081526040808320600160a060020a038816845290915290205461140d90839063ffffffff61113216565b6000848152600160209081526040808320600160a060020a038916808552908352818420949094558051878152918201869052805133927fc3d58168c5ae7397731d063d5bbf3d657854427343f4c083240f7aacaa2d0f6292908290030190a4610e34336000868686865b61148a84600160a060020a0316611691565b15610cad576040517ff23a6e6100000000000000000000000000000000000000000000000000000000808252600160a060020a03888116600484019081528882166024850152604484018790526064840186905260a060848501908152855160a4860152855193949289169363f23a6e61938c938c938b938b938b93929160c490910190602085019080838360005b83811015611531578181015183820152602001611519565b50505050905090810190601f16801561155e5780820380516001836020036101000a031916815260200191505b509650505050505050602060405180830381600087803b15801561158157600080fd5b505af1158015611595573d6000803e3d6000fd5b505050506040513d60208110156115ab57600080fd5b5051600160e060020a03191614610cad5760405160e560020a62461bcd02815260040180806020018281038252603181526020018061180c6031913960400191505060405180910390fd5b6000828152600160209081526040808320600160a060020a0387168452909152902054611629908263ffffffff6110d216565b6000838152600160209081526040808320600160a060020a038816808552908352818420949094558051868152918201859052805192939233927fc3d58168c5ae7397731d063d5bbf3d657854427343f4c083240f7aacaa2d0f6292908290030190a4505050565b6000903b119056fe455243313135353a2062616c616e636520717565727920666f7220746865207a65726f2061646472657373455243313135353a207461726765742061646472657373206d757374206265206e6f6e2d7a65726f455243313135353a20676f7420756e6b6e6f776e2076616c75652066726f6d206f6e4552433131353542617463685265636569766564455243313135353a20736f6d65206164647265737320696e2062617463682062616c616e6365207175657279206973207a65726f455243313135353a206f776e65727320616e6420494473206d75737420686176652073616d65206c656e67746873455243313135353a2049447320616e642076616c756573206d75737420686176652073616d65206c656e67746873455243313135353a206e656564206f70657261746f7220617070726f76616c20666f7220337264207061727479207472616e73666572732e455243313135353a206d696e7420746f20746865207a65726f2061646472657373455243313135353a20676f7420756e6b6e6f776e2076616c75652066726f6d206f6e455243313135355265636569766564a165627a7a72305820e34713fc2656ed3a3212d83d7a6256a41e3734f58d84ee45a52d2002ac34ee960029",
    "sourcePath": "c:/Users/franc/Desktop/ReMuS/example_content/contracts/@gnosis.pm/hg-contracts/test/ERC1155Mock.sol",
    "compiler": {
        "name": "solc",
        "version": "0.5.2+commit.1df8f40c"
    },
    "functionHashes": {
        "balanceOf(address,uint256)": "00fdd58e",
        "balanceOfBatch(address[],uint256[])": "4e1273f4",
        "burn(address,uint256,uint256)": "f5298aca",
        "doSafeBatchTransferAcceptanceCheck(address,address,address,uint256[],uint256[],bytes)": "395649f6",
        "doSafeTransferAcceptanceCheck(address,address,address,uint256,uint256,bytes)": "7f2c00d3",
        "isApprovedForAll(address,address)": "e985e9c5",
        "mint(address,uint256,uint256,bytes)": "731133e9",
        "safeBatchTransferFrom(address,address,uint256[],uint256[],bytes)": "2eb2c2d6",
        "safeTransferFrom(address,address,uint256,uint256,bytes)": "f242432a",
        "setApprovalForAll(address,bool)": "a22cb465",
        "supportsInterface(bytes4)": "01ffc9a7"
    },
    "gasEstimates": {
        "creation": {
            "codeDepositCost": "1249600",
            "executionCost": "infinite",
            "totalCost": "infinite"
        },
        "external": {
            "balanceOf(address,uint256)": "infinite",
            "balanceOfBatch(address[],uint256[])": "infinite",
            "burn(address,uint256,uint256)": "infinite",
            "doSafeBatchTransferAcceptanceCheck(address,address,address,uint256[],uint256[],bytes)": "infinite",
            "doSafeTransferAcceptanceCheck(address,address,address,uint256,uint256,bytes)": "infinite",
            "isApprovedForAll(address,address)": "847",
            "mint(address,uint256,uint256,bytes)": "infinite",
            "safeBatchTransferFrom(address,address,uint256[],uint256[],bytes)": "infinite",
            "safeTransferFrom(address,address,uint256,uint256,bytes)": "infinite",
            "setApprovalForAll(address,bool)": "22620",
            "supportsInterface(bytes4)": "705"
        }
    }
}