{
    "contractName": "ERC1155TokenReceiverMock",
    "abi": [
        {
            "constant": true,
            "inputs": [],
            "name": "isERC1155TokenReceiver",
            "outputs": [
                {
                    "name": "",
                    "type": "bytes4"
                }
            ],
            "payable": false,
            "stateMutability": "view",
            "type": "function"
        },
        {
            "constant": false,
            "inputs": [
                {
                    "name": "operator",
                    "type": "address"
                },
                {
                    "name": "from",
                    "type": "address"
                },
                {
                    "name": "ids",
                    "type": "uint256[]"
                },
                {
                    "name": "values",
                    "type": "uint256[]"
                },
                {
                    "name": "data",
                    "type": "bytes"
                }
            ],
            "name": "onERC1155BatchReceived",
            "outputs": [
                {
                    "name": "",
                    "type": "bytes4"
                }
            ],
            "payable": false,
            "stateMutability": "nonpayable",
            "type": "function"
        },
        {
            "constant": false,
            "inputs": [
                {
                    "name": "operator",
                    "type": "address"
                },
                {
                    "name": "from",
                    "type": "address"
                },
                {
                    "name": "id",
                    "type": "uint256"
                },
                {
                    "name": "value",
                    "type": "uint256"
                },
                {
                    "name": "data",
                    "type": "bytes"
                }
            ],
            "name": "onERC1155Received",
            "outputs": [
                {
                    "name": "",
                    "type": "bytes4"
                }
            ],
            "payable": false,
            "stateMutability": "nonpayable",
            "type": "function"
        },
        {
            "inputs": [
                {
                    "name": "recRetval",
                    "type": "bytes4"
                },
                {
                    "name": "recReverts",
                    "type": "bool"
                },
                {
                    "name": "batRetval",
                    "type": "bytes4"
                },
                {
                    "name": "batReverts",
                    "type": "bool"
                },
                {
                    "name": "isRetval",
                    "type": "bytes4"
                },
                {
                    "name": "isReverts",
                    "type": "bool"
                }
            ],
            "payable": false,
            "stateMutability": "nonpayable",
            "type": "constructor"
        },
        {
            "anonymous": false,
            "inputs": [
                {
                    "indexed": false,
                    "name": "operator",
                    "type": "address"
                },
                {
                    "indexed": false,
                    "name": "from",
                    "type": "address"
                },
                {
                    "indexed": false,
                    "name": "id",
                    "type": "uint256"
                },
                {
                    "indexed": false,
                    "name": "value",
                    "type": "uint256"
                },
                {
                    "indexed": false,
                    "name": "data",
                    "type": "bytes"
                },
                {
                    "indexed": false,
                    "name": "gas",
                    "type": "uint256"
                }
            ],
            "name": "Received",
            "type": "event"
        },
        {
            "anonymous": false,
            "inputs": [
                {
                    "indexed": false,
                    "name": "operator",
                    "type": "address"
                },
                {
                    "indexed": false,
                    "name": "from",
                    "type": "address"
                },
                {
                    "indexed": false,
                    "name": "ids",
                    "type": "uint256[]"
                },
                {
                    "indexed": false,
                    "name": "values",
                    "type": "uint256[]"
                },
                {
                    "indexed": false,
                    "name": "data",
                    "type": "bytes"
                },
                {
                    "indexed": false,
                    "name": "gas",
                    "type": "uint256"
                }
            ],
            "name": "BatchReceived",
            "type": "event"
        }
    ],
    "bytecode": "608060405234801561001057600080fd5b5060405160c08061075c833981018060405260c081101561003057600080fd5b508051602082015160408301516060840151608085015160a0909501516000805463ffffffff19167c0100000000000000000000000000000000000000000000000000000000968790041764ff000000001916640100000000951515959095029490941768ffffffff0000000000191665010000000000938690049390930292909217604860020a60ff02191669010000000000000000009115159190910217605060020a63ffffffff0219166a0100000000000000000000939094049290920292909217607060020a60ff0219166e0100000000000000000000000000009115159190910217815561063390819061012990396000f3fe608060405234801561001057600080fd5b50600436106100445760e060020a60003504630d9124428114610049578063bc197c8114610086578063f23a6e61146101b3575b600080fd5b610051610248565b604080517fffffffff000000000000000000000000000000000000000000000000000000009092168252519081900360200190f35b610051600480360360a081101561009c57600080fd5b600160a060020a0382358116926020810135909116918101906060810160408201356401000000008111156100d057600080fd5b8201836020820111156100e257600080fd5b8035906020019184602083028401116401000000008311171561010457600080fd5b91939092909160208101903564010000000081111561012257600080fd5b82018360208201111561013457600080fd5b8035906020019184602083028401116401000000008311171561015657600080fd5b91939092909160208101903564010000000081111561017457600080fd5b82018360208201111561018657600080fd5b803590602001918460018302840111640100000000831117156101a857600080fd5b5090925090506102d2565b610051600480360360a08110156101c957600080fd5b600160a060020a03823581169260208101359091169160408201359160608101359181019060a08101608082013564010000000081111561020957600080fd5b82018360208201111561021b57600080fd5b8035906020019184600183028401116401000000008311171561023d57600080fd5b509092509050610456565b600080546e010000000000000000000000000000900460ff16156102b7576040517f08c379a00000000000000000000000000000000000000000000000000000000081526004018080602001828103825260438152602001806105c56043913960600191505060405180910390fd5b506000546a0100000000000000000000900460e060020a0290565b600080546901000000000000000000900460ff161561033c576040517f08c379a00000000000000000000000000000000000000000000000000000000081526004018080602001828103825260348152602001806105916034913960400191505060405180910390fd5b7f0bcad9224ba33b574e9c85298de2f44b4c80015a21aa5df474896444909863d889898989898989895a604051808a600160a060020a0316600160a060020a0316815260200189600160a060020a0316600160a060020a0316815260200180602001806020018060200185815260200184810384528b8b82818152602001925060200280828437600083820152601f01601f19169091018581038452898152602090810191508a908a0280828437600083820152601f01601f191690910185810383528781526020019050878780828437600083820152604051601f909101601f19169092018290039e50909c50505050505050505050505050a1505060005465010000000000900460e060020a02979650505050505050565b60008054640100000000900460ff16156104bb576040517f08c379a000000000000000000000000000000000000000000000000000000000815260040180806020018281038252602e815260200180610563602e913960400191505060405180910390fd5b7f20dfa9f79060c8c4d7fe892c97c71bcf6e3b63d1dcf66fea7aefc0211628cf298787878787875a60408051600160a060020a03808a168252881660208201529081018690526060810185905260a0810182905260c06080820181815290820184905260e08201858580828437600083820152604051601f909101601f19169092018290039a509098505050505050505050a15060005460e060020a02969550505050505056fe45524331313535546f6b656e52656365697665724d6f636b3a20726576657274696e67206f6e207265636569766545524331313535546f6b656e52656365697665724d6f636b3a20726576657274696e67206f6e206261746368207265636569766545524331313535546f6b656e52656365697665724d6f636b3a20726576657274696e67206f6e20697345524331313535546f6b656e526563656976657220636865636ba165627a7a72305820ebd1e2950d156f9eb28176e89541f87e8bbadc10993f089cce4958ba40a3a6970029",
    "sourcePath": "c:/Users/franc/Desktop/ReMuS/example_content/contracts/@gnosis.pm/hg-contracts/test/ERC1155TokenReceiverMock.sol",
    "compiler": {
        "name": "solc",
        "version": "0.5.2+commit.1df8f40c"
    },
    "functionHashes": {
        "isERC1155TokenReceiver()": "0d912442",
        "onERC1155BatchReceived(address,address,uint256[],uint256[],bytes)": "bc197c81",
        "onERC1155Received(address,address,uint256,uint256,bytes)": "f23a6e61"
    },
    "gasEstimates": {
        "creation": {
            "codeDepositCost": "317400",
            "executionCost": "21190",
            "totalCost": "338590"
        },
        "external": {
            "isERC1155TokenReceiver()": "infinite",
            "onERC1155BatchReceived(address,address,uint256[],uint256[],bytes)": "infinite",
            "onERC1155Received(address,address,uint256,uint256,bytes)": "infinite"
        }
    }
}