{
    "contractName": "Forwarder",
    "abi": [
        {
            "constant": false,
            "inputs": [
                {
                    "name": "to",
                    "type": "address"
                },
                {
                    "name": "data",
                    "type": "bytes"
                }
            ],
            "name": "call",
            "outputs": [],
            "payable": false,
            "stateMutability": "nonpayable",
            "type": "function"
        }
    ],
    "bytecode": "608060405234801561001057600080fd5b5061022d806100206000396000f3fe608060405234801561001057600080fd5b5060043610610047577c010000000000000000000000000000000000000000000000000000000060003504631b8b921d811461004c575b600080fd5b6100d96004803603604081101561006257600080fd5b73ffffffffffffffffffffffffffffffffffffffff823516919081019060408101602082013564010000000081111561009a57600080fd5b8201836020820111156100ac57600080fd5b803590602001918460018302840111640100000000831117156100ce57600080fd5b5090925090506100db565b005b600060608473ffffffffffffffffffffffffffffffffffffffff168484604051808383808284376040519201945060009350909150508083038183865af19150503d8060008114610148576040519150601f19603f3d011682016040523d82523d6000602084013e61014d565b606091505b509150915081819015156101f9576040517f08c379a00000000000000000000000000000000000000000000000000000000081526004018080602001828103825283818151815260200191508051906020019080838360005b838110156101be5781810151838201526020016101a6565b50505050905090810190601f1680156101eb5780820380516001836020036101000a031916815260200191505b509250505060405180910390fd5b50505050505056fea165627a7a72305820c3cf5c2b89515f6e3c09698208c073b1154b10f46802bc48ad7bfa2cf8ffbec10029",
    "sourcePath": "c:/Users/franc/Desktop/ReMuS/example_content/contracts/@gnosis.pm/hg-contracts/test/Forwarder.sol",
    "compiler": {
        "name": "solc",
        "version": "0.5.2+commit.1df8f40c"
    },
    "functionHashes": {
        "call(address,bytes)": "1b8b921d"
    },
    "gasEstimates": {
        "creation": {
            "codeDepositCost": "111400",
            "executionCost": "159",
            "totalCost": "111559"
        },
        "external": {
            "call(address,bytes)": "infinite"
        }
    }
}