{
    "contractName": "ERC20Snapshot",
    "abi": [
        {
            "constant": false,
            "inputs": [
                {
                    "name": "spender",
                    "type": "address"
                },
                {
                    "name": "value",
                    "type": "uint256"
                }
            ],
            "name": "approve",
            "outputs": [
                {
                    "name": "",
                    "type": "bool"
                }
            ],
            "payable": false,
            "stateMutability": "nonpayable",
            "type": "function"
        },
        {
            "constant": true,
            "inputs": [],
            "name": "totalSupply",
            "outputs": [
                {
                    "name": "",
                    "type": "uint256"
                }
            ],
            "payable": false,
            "stateMutability": "view",
            "type": "function"
        },
        {
            "constant": false,
            "inputs": [
                {
                    "name": "sender",
                    "type": "address"
                },
                {
                    "name": "recipient",
                    "type": "address"
                },
                {
                    "name": "amount",
                    "type": "uint256"
                }
            ],
            "name": "transferFrom",
            "outputs": [
                {
                    "name": "",
                    "type": "bool"
                }
            ],
            "payable": false,
            "stateMutability": "nonpayable",
            "type": "function"
        },
        {
            "constant": false,
            "inputs": [
                {
                    "name": "spender",
                    "type": "address"
                },
                {
                    "name": "addedValue",
                    "type": "uint256"
                }
            ],
            "name": "increaseAllowance",
            "outputs": [
                {
                    "name": "",
                    "type": "bool"
                }
            ],
            "payable": false,
            "stateMutability": "nonpayable",
            "type": "function"
        },
        {
            "constant": true,
            "inputs": [
                {
                    "name": "account",
                    "type": "address"
                },
                {
                    "name": "snapshotId",
                    "type": "uint256"
                }
            ],
            "name": "balanceOfAt",
            "outputs": [
                {
                    "name": "",
                    "type": "uint256"
                }
            ],
            "payable": false,
            "stateMutability": "view",
            "type": "function"
        },
        {
            "constant": true,
            "inputs": [
                {
                    "name": "account",
                    "type": "address"
                }
            ],
            "name": "balanceOf",
            "outputs": [
                {
                    "name": "",
                    "type": "uint256"
                }
            ],
            "payable": false,
            "stateMutability": "view",
            "type": "function"
        },
        {
            "constant": false,
            "inputs": [],
            "name": "snapshot",
            "outputs": [
                {
                    "name": "",
                    "type": "uint256"
                }
            ],
            "payable": false,
            "stateMutability": "nonpayable",
            "type": "function"
        },
        {
            "constant": true,
            "inputs": [
                {
                    "name": "snapshotId",
                    "type": "uint256"
                }
            ],
            "name": "totalSupplyAt",
            "outputs": [
                {
                    "name": "",
                    "type": "uint256"
                }
            ],
            "payable": false,
            "stateMutability": "view",
            "type": "function"
        },
        {
            "constant": false,
            "inputs": [
                {
                    "name": "spender",
                    "type": "address"
                },
                {
                    "name": "subtractedValue",
                    "type": "uint256"
                }
            ],
            "name": "decreaseAllowance",
            "outputs": [
                {
                    "name": "",
                    "type": "bool"
                }
            ],
            "payable": false,
            "stateMutability": "nonpayable",
            "type": "function"
        },
        {
            "constant": false,
            "inputs": [
                {
                    "name": "recipient",
                    "type": "address"
                },
                {
                    "name": "amount",
                    "type": "uint256"
                }
            ],
            "name": "transfer",
            "outputs": [
                {
                    "name": "",
                    "type": "bool"
                }
            ],
            "payable": false,
            "stateMutability": "nonpayable",
            "type": "function"
        },
        {
            "constant": true,
            "inputs": [
                {
                    "name": "owner",
                    "type": "address"
                },
                {
                    "name": "spender",
                    "type": "address"
                }
            ],
            "name": "allowance",
            "outputs": [
                {
                    "name": "",
                    "type": "uint256"
                }
            ],
            "payable": false,
            "stateMutability": "view",
            "type": "function"
        },
        {
            "anonymous": false,
            "inputs": [
                {
                    "indexed": false,
                    "name": "id",
                    "type": "uint256"
                }
            ],
            "name": "Snapshot",
            "type": "event"
        },
        {
            "anonymous": false,
            "inputs": [
                {
                    "indexed": true,
                    "name": "from",
                    "type": "address"
                },
                {
                    "indexed": true,
                    "name": "to",
                    "type": "address"
                },
                {
                    "indexed": false,
                    "name": "value",
                    "type": "uint256"
                }
            ],
            "name": "Transfer",
            "type": "event"
        },
        {
            "anonymous": false,
            "inputs": [
                {
                    "indexed": true,
                    "name": "owner",
                    "type": "address"
                },
                {
                    "indexed": true,
                    "name": "spender",
                    "type": "address"
                },
                {
                    "indexed": false,
                    "name": "value",
                    "type": "uint256"
                }
            ],
            "name": "Approval",
            "type": "event"
        }
    ],
    "bytecode": "608060405234801561001057600080fd5b50610b08806100206000396000f3fe608060405234801561001057600080fd5b50600436106100c6576000357c01000000000000000000000000000000000000000000000000000000009004806370a082311161008e57806370a08231146101b35780639711715a146101d9578063981b24d0146101e1578063a457c2d7146101fe578063a9059cbb1461022a578063dd62ed3e14610256576100c6565b8063095ea7b3146100cb57806318160ddd1461010b57806323b872dd14610125578063395093511461015b5780634ee2cd7e14610187575b600080fd5b6100f7600480360360408110156100e157600080fd5b50600160a060020a038135169060200135610284565b604080519115158252519081900360200190f35b61011361029b565b60408051918252519081900360200190f35b6100f76004803603606081101561013b57600080fd5b50600160a060020a038135811691602081013590911690604001356102a1565b6100f76004803603604081101561017157600080fd5b50600160a060020a0381351690602001356102f8565b6101136004803603604081101561019d57600080fd5b50600160a060020a038135169060200135610334565b610113600480360360208110156101c957600080fd5b5035600160a060020a031661037d565b61011361039c565b610113600480360360208110156101f757600080fd5b50356103f0565b6100f76004803603604081101561021457600080fd5b50600160a060020a038135169060200135610420565b6100f76004803603604081101561024057600080fd5b50600160a060020a03813516906020013561045c565b6101136004803603604081101561026c57600080fd5b50600160a060020a0381358116916020013516610469565b6000610291338484610494565b5060015b92915050565b60025490565b60006102ae84848461058a565b600160a060020a0384166000908152600160209081526040808320338085529252909120546102ee9186916102e9908663ffffffff6105ac16565b610494565b5060019392505050565b336000818152600160209081526040808320600160a060020a038716845290915281205490916102919185906102e9908663ffffffff61060c16565b600160a060020a03821660009081526003602052604081208190819061035b908590610670565b91509150816103725761036d8561037d565b610374565b805b95945050505050565b600160a060020a0381166000908152602081905260409020545b919050565b60006103a8600661077f565b60006103b46006610788565b6040805182815290519192507f8030e83b04d87bef53480e26263266d6ca66863aa8506aca6f2559d18aa1cb67919081900360200190a1905090565b6000806000610400846004610670565b91509150816104165761041161029b565b610418565b805b949350505050565b336000818152600160209081526040808320600160a060020a038716845290915281205490916102919185906102e9908663ffffffff6105ac16565b600061029133848461058a565b600160a060020a03918216600090815260016020908152604080832093909416825291909152205490565b600160a060020a03831615156104de5760405160e560020a62461bcd028152600401808060200182810382526024815260200180610ab96024913960400191505060405180910390fd5b600160a060020a03821615156105285760405160e560020a62461bcd028152600401808060200182810382526022815260200180610a726022913960400191505060405180910390fd5b600160a060020a03808416600081815260016020908152604080832094871680845294825291829020859055815185815291517f8c5be1e5ebec7d5bd14f71427d1e84f3dd0314c0f7b2291e5b200ac8c7c3b9259281900390910190a3505050565b6105938361078c565b61059c8261078c565b6105a78383836107b9565b505050565b600082821115610606576040805160e560020a62461bcd02815260206004820152601e60248201527f536166654d6174683a207375627472616374696f6e206f766572666c6f770000604482015290519081900360640190fd5b50900390565b600082820183811015610669576040805160e560020a62461bcd02815260206004820152601b60248201527f536166654d6174683a206164646974696f6e206f766572666c6f770000000000604482015290519081900360640190fd5b9392505050565b6000808084116106ca576040805160e560020a62461bcd02815260206004820152601660248201527f4552433230536e617073686f743a206964206973203000000000000000000000604482015290519081900360640190fd5b6106d46006610788565b84111561072b576040805160e560020a62461bcd02815260206004820152601d60248201527f4552433230536e617073686f743a206e6f6e6578697374656e74206964000000604482015290519081900360640190fd5b600061073d848663ffffffff61090516565b8454909150811415610756575060009150819050610778565b600184810180548390811061076757fe5b906000526020600020015492509250505b9250929050565b80546001019055565b5490565b600160a060020a03811660009081526003602052604090206107b6906107b18361037d565b6109ac565b50565b600160a060020a03831615156108035760405160e560020a62461bcd028152600401808060200182810382526025815260200180610a946025913960400191505060405180910390fd5b600160a060020a038216151561084d5760405160e560020a62461bcd028152600401808060200182810382526023815260200180610a4f6023913960400191505060405180910390fd5b600160a060020a038316600090815260208190526040902054610876908263ffffffff6105ac16565b600160a060020a0380851660009081526020819052604080822093909355908416815220546108ab908263ffffffff61060c16565b600160a060020a038084166000818152602081815260409182902094909455805185815290519193928716927fddf252ad1be2c89b69c2b068fc378daa952ba7f163c4a11628f55a4df523b3ef92918290030190a3505050565b8154600090151561091857506000610295565b82546000905b8082101561096957600061093283836109f8565b905084868281548110151561094357fe5b9060005260206000200154111561095c57809150610963565b8060010192505b5061091e565b600082118015610993575083856001840381548110151561098657fe5b9060005260206000200154145b156109a45750600019019050610295565b509050610295565b60006109b86006610788565b9050806109c484610a17565b10156105a7578254600180820185556000858152602080822090930193909355938401805494850181558252902090910155565b6000600260018481169084160104600283046002850401019392505050565b80546000901515610a2a57506000610397565b815482906000198101908110610a3c57fe5b9060005260206000200154905061039756fe45524332303a207472616e7366657220746f20746865207a65726f206164647265737345524332303a20617070726f766520746f20746865207a65726f206164647265737345524332303a207472616e736665722066726f6d20746865207a65726f206164647265737345524332303a20617070726f76652066726f6d20746865207a65726f2061646472657373a165627a7a72305820acca2f14b6e3193b76e2f086e8fd6b69a81e00e0333deed2d93db0b7501559800029",
    "sourcePath": "c:/Users/franc/Desktop/ReMuS/example_content/contracts/openzeppelin-solidity/contracts/drafts/ERC20Snapshot.sol",
    "compiler": {
        "name": "solc",
        "version": "0.5.2+commit.1df8f40c"
    },
    "functionHashes": {
        "allowance(address,address)": "dd62ed3e",
        "approve(address,uint256)": "095ea7b3",
        "balanceOf(address)": "70a08231",
        "balanceOfAt(address,uint256)": "4ee2cd7e",
        "decreaseAllowance(address,uint256)": "a457c2d7",
        "increaseAllowance(address,uint256)": "39509351",
        "snapshot()": "9711715a",
        "totalSupply()": "18160ddd",
        "totalSupplyAt(uint256)": "981b24d0",
        "transfer(address,uint256)": "a9059cbb",
        "transferFrom(address,address,uint256)": "23b872dd"
    },
    "gasEstimates": {
        "creation": {
            "codeDepositCost": "564800",
            "executionCost": "600",
            "totalCost": "565400"
        },
        "external": {
            "allowance(address,address)": "879",
            "approve(address,uint256)": "infinite",
            "balanceOf(address)": "673",
            "balanceOfAt(address,uint256)": "infinite",
            "decreaseAllowance(address,uint256)": "infinite",
            "increaseAllowance(address,uint256)": "infinite",
            "snapshot()": "21767",
            "totalSupply()": "426",
            "totalSupplyAt(uint256)": "infinite",
            "transfer(address,uint256)": "infinite",
            "transferFrom(address,address,uint256)": "infinite"
        },
        "internal": {
            "_burn(address,uint256)": "infinite",
            "_lastSnapshotId(uint256[] storage pointer)": "764",
            "_mint(address,uint256)": "infinite",
            "_transfer(address,address,uint256)": "infinite",
            "_updateAccountSnapshot(address)": "infinite",
            "_updateSnapshot(struct ERC20Snapshot.Snapshots storage pointer,uint256)": "81622",
            "_updateTotalSupplySnapshot()": "infinite",
            "_valueAt(uint256,struct ERC20Snapshot.Snapshots storage pointer)": "infinite"
        }
    }
}