{
    "contractName": "ERC20Migrator",
    "abi": [
        {
            "constant": false,
            "inputs": [
                {
                    "name": "newToken_",
                    "type": "address"
                }
            ],
            "name": "beginMigration",
            "outputs": [],
            "payable": false,
            "stateMutability": "nonpayable",
            "type": "function"
        },
        {
            "constant": true,
            "inputs": [],
            "name": "legacyToken",
            "outputs": [
                {
                    "name": "",
                    "type": "address"
                }
            ],
            "payable": false,
            "stateMutability": "view",
            "type": "function"
        },
        {
            "constant": false,
            "inputs": [
                {
                    "name": "account",
                    "type": "address"
                }
            ],
            "name": "migrateAll",
            "outputs": [],
            "payable": false,
            "stateMutability": "nonpayable",
            "type": "function"
        },
        {
            "constant": false,
            "inputs": [
                {
                    "name": "account",
                    "type": "address"
                },
                {
                    "name": "amount",
                    "type": "uint256"
                }
            ],
            "name": "migrate",
            "outputs": [],
            "payable": false,
            "stateMutability": "nonpayable",
            "type": "function"
        },
        {
            "constant": true,
            "inputs": [],
            "name": "newToken",
            "outputs": [
                {
                    "name": "",
                    "type": "address"
                }
            ],
            "payable": false,
            "stateMutability": "view",
            "type": "function"
        },
        {
            "inputs": [
                {
                    "name": "legacyToken",
                    "type": "address"
                }
            ],
            "payable": false,
            "stateMutability": "nonpayable",
            "type": "constructor"
        }
    ],
    "bytecode": "608060405234801561001057600080fd5b506040516020806109738339810180604052602081101561003057600080fd5b5051600160a060020a0381161515610093576040517f08c379a000000000000000000000000000000000000000000000000000000000815260040180806020018281038252602f815260200180610944602f913960400191505060405180910390fd5b60008054600160a060020a03909216600160a060020a0319909216919091179055610881806100c36000396000f3fe608060405234801561001057600080fd5b5060043610610073577c01000000000000000000000000000000000000000000000000000000006000350463104d2614811461007857806313155455146100a05780635a8cadb1146100c4578063ad68ebf7146100ea578063c42bd05a14610116575b600080fd5b61009e6004803603602081101561008e57600080fd5b5035600160a060020a031661011e565b005b6100a86102ad565b60408051600160a060020a039092168252519081900360200190f35b61009e600480360360208110156100da57600080fd5b5035600160a060020a03166102bc565b61009e6004803603604081101561010057600080fd5b50600160a060020a03813516906020013561040b565b6100a861050e565b600154600160a060020a0316156101695760405160e560020a62461bcd02815260040180806020018281038252602881526020018061078b6028913960400191505060405180910390fd5b600160a060020a03811615156101b35760405160e560020a62461bcd02815260040180806020018281038252602c815260200180610800602c913960400191505060405180910390fd5b604080517faa271e1a0000000000000000000000000000000000000000000000000000000081523060048201529051600160a060020a0383169163aa271e1a916024808301926020929190829003018186803b15801561021257600080fd5b505afa158015610226573d6000803e3d6000fd5b505050506040513d602081101561023c57600080fd5b5051151561027e5760405160e560020a62461bcd0281526004018080602001828103825260298152602001806107b36029913960400191505060405180910390fd5b6001805473ffffffffffffffffffffffffffffffffffffffff1916600160a060020a0392909216919091179055565b600054600160a060020a031690565b60008054604080517f70a08231000000000000000000000000000000000000000000000000000000008152600160a060020a038581166004830152915191909216916370a08231916024808301926020929190829003018186803b15801561032357600080fd5b505afa158015610337573d6000803e3d6000fd5b505050506040513d602081101561034d57600080fd5b505160008054604080517fdd62ed3e000000000000000000000000000000000000000000000000000000008152600160a060020a0387811660048301523060248301529151949550929391169163dd62ed3e916044808301926020929190829003018186803b1580156103bf57600080fd5b505afa1580156103d3573d6000803e3d6000fd5b505050506040513d60208110156103e957600080fd5b5051905060006103f9838361051d565b9050610405848261040b565b50505050565b600154600160a060020a031615156104575760405160e560020a62461bcd0281526004018080602001828103825260248152602001806107dc6024913960400191505060405180910390fd5b60005461047590600160a060020a031683308463ffffffff61053516565b600154604080517f40c10f19000000000000000000000000000000000000000000000000000000008152600160a060020a03858116600483015260248201859052915191909216916340c10f199160448083019260209291908290030181600087803b1580156104e457600080fd5b505af11580156104f8573d6000803e3d6000fd5b505050506040513d602081101561040557600080fd5b600154600160a060020a031690565b600081831061052c578161052e565b825b9392505050565b60408051600160a060020a0385811660248301528416604482015260648082018490528251808303909101815260849091019091526020810180517bffffffffffffffffffffffffffffffffffffffffffffffffffffffff167f23b872dd000000000000000000000000000000000000000000000000000000001790526104059085906105ca82600160a060020a0316610782565b1515610620576040805160e560020a62461bcd02815260206004820152601f60248201527f5361666545524332303a2063616c6c20746f206e6f6e2d636f6e747261637400604482015290519081900360640190fd5b6000606083600160a060020a0316836040518082805190602001908083835b6020831061065e5780518252601f19909201916020918201910161063f565b6001836020036101000a0380198251168184511680821785525050505050509050019150506000604051808303816000865af19150503d80600081146106c0576040519150601f19603f3d011682016040523d82523d6000602084013e6106c5565b606091505b5091509150811515610721576040805160e560020a62461bcd02815260206004820181905260248201527f5361666545524332303a206c6f772d6c6576656c2063616c6c206661696c6564604482015290519081900360640190fd5b6000815111156104055780806020019051602081101561074057600080fd5b505115156104055760405160e560020a62461bcd02815260040180806020018281038252602a81526020018061082c602a913960400191505060405180910390fd5b6000903b119056fe45524332304d69677261746f723a206d6967726174696f6e20616c7265616479207374617274656445524332304d69677261746f723a206e6f742061206d696e74657220666f72206e657720746f6b656e45524332304d69677261746f723a206d6967726174696f6e206e6f74207374617274656445524332304d69677261746f723a206e657720746f6b656e20697320746865207a65726f20616464726573735361666545524332303a204552433230206f7065726174696f6e20646964206e6f742073756363656564a165627a7a72305820b6052ffb9727ddbcf82d7cebe362dad3940bdbf8fda64309c066b026c8ce1649002945524332304d69677261746f723a206c656761637920746f6b656e20697320746865207a65726f2061646472657373",
    "sourcePath": "c:/Users/franc/Desktop/ReMuS/example_content/contracts/openzeppelin-solidity/contracts/drafts/ERC20Migrator.sol",
    "compiler": {
        "name": "solc",
        "version": "0.5.2+commit.1df8f40c"
    },
    "functionHashes": {
        "beginMigration(address)": "104d2614",
        "legacyToken()": "13155455",
        "migrate(address,uint256)": "ad68ebf7",
        "migrateAll(address)": "5a8cadb1",
        "newToken()": "c42bd05a"
    },
    "gasEstimates": {
        "creation": {
            "codeDepositCost": "435400",
            "executionCost": "infinite",
            "totalCost": "infinite"
        },
        "external": {
            "beginMigration(address)": "infinite",
            "legacyToken()": "553",
            "migrate(address,uint256)": "infinite",
            "migrateAll(address)": "infinite",
            "newToken()": "619"
        }
    }
}