{
    "contractName": "TokenVesting",
    "abi": [
        {
            "constant": true,
            "inputs": [],
            "name": "duration",
            "outputs": [
                {
                    "name": "",
                    "type": "uint256"
                }
            ],
            "payable": false,
            "stateMutability": "view",
            "type": "function"
        },
        {
            "constant": true,
            "inputs": [],
            "name": "cliff",
            "outputs": [
                {
                    "name": "",
                    "type": "uint256"
                }
            ],
            "payable": false,
            "stateMutability": "view",
            "type": "function"
        },
        {
            "constant": false,
            "inputs": [
                {
                    "name": "token",
                    "type": "address"
                }
            ],
            "name": "release",
            "outputs": [],
            "payable": false,
            "stateMutability": "nonpayable",
            "type": "function"
        },
        {
            "constant": true,
            "inputs": [],
            "name": "beneficiary",
            "outputs": [
                {
                    "name": "",
                    "type": "address"
                }
            ],
            "payable": false,
            "stateMutability": "view",
            "type": "function"
        },
        {
            "constant": false,
            "inputs": [],
            "name": "renounceOwnership",
            "outputs": [],
            "payable": false,
            "stateMutability": "nonpayable",
            "type": "function"
        },
        {
            "constant": false,
            "inputs": [
                {
                    "name": "token",
                    "type": "address"
                }
            ],
            "name": "revoke",
            "outputs": [],
            "payable": false,
            "stateMutability": "nonpayable",
            "type": "function"
        },
        {
            "constant": true,
            "inputs": [],
            "name": "revocable",
            "outputs": [
                {
                    "name": "",
                    "type": "bool"
                }
            ],
            "payable": false,
            "stateMutability": "view",
            "type": "function"
        },
        {
            "constant": true,
            "inputs": [],
            "name": "owner",
            "outputs": [
                {
                    "name": "",
                    "type": "address"
                }
            ],
            "payable": false,
            "stateMutability": "view",
            "type": "function"
        },
        {
            "constant": true,
            "inputs": [],
            "name": "isOwner",
            "outputs": [
                {
                    "name": "",
                    "type": "bool"
                }
            ],
            "payable": false,
            "stateMutability": "view",
            "type": "function"
        },
        {
            "constant": true,
            "inputs": [
                {
                    "name": "token",
                    "type": "address"
                }
            ],
            "name": "released",
            "outputs": [
                {
                    "name": "",
                    "type": "uint256"
                }
            ],
            "payable": false,
            "stateMutability": "view",
            "type": "function"
        },
        {
            "constant": true,
            "inputs": [],
            "name": "start",
            "outputs": [
                {
                    "name": "",
                    "type": "uint256"
                }
            ],
            "payable": false,
            "stateMutability": "view",
            "type": "function"
        },
        {
            "constant": false,
            "inputs": [
                {
                    "name": "newOwner",
                    "type": "address"
                }
            ],
            "name": "transferOwnership",
            "outputs": [],
            "payable": false,
            "stateMutability": "nonpayable",
            "type": "function"
        },
        {
            "constant": true,
            "inputs": [
                {
                    "name": "token",
                    "type": "address"
                }
            ],
            "name": "revoked",
            "outputs": [
                {
                    "name": "",
                    "type": "bool"
                }
            ],
            "payable": false,
            "stateMutability": "view",
            "type": "function"
        },
        {
            "inputs": [
                {
                    "name": "beneficiary",
                    "type": "address"
                },
                {
                    "name": "start",
                    "type": "uint256"
                },
                {
                    "name": "cliffDuration",
                    "type": "uint256"
                },
                {
                    "name": "duration",
                    "type": "uint256"
                },
                {
                    "name": "revocable",
                    "type": "bool"
                }
            ],
            "payable": false,
            "stateMutability": "nonpayable",
            "type": "constructor"
        },
        {
            "anonymous": false,
            "inputs": [
                {
                    "indexed": false,
                    "name": "token",
                    "type": "address"
                },
                {
                    "indexed": false,
                    "name": "amount",
                    "type": "uint256"
                }
            ],
            "name": "TokensReleased",
            "type": "event"
        },
        {
            "anonymous": false,
            "inputs": [
                {
                    "indexed": false,
                    "name": "token",
                    "type": "address"
                }
            ],
            "name": "TokenVestingRevoked",
            "type": "event"
        },
        {
            "anonymous": false,
            "inputs": [
                {
                    "indexed": true,
                    "name": "previousOwner",
                    "type": "address"
                },
                {
                    "indexed": true,
                    "name": "newOwner",
                    "type": "address"
                }
            ],
            "name": "OwnershipTransferred",
            "type": "event"
        }
    ],
    "bytecode": "608060405234801561001057600080fd5b5060405160a080620011c1833981018060405260a081101561003157600080fd5b5080516020820151604080840151606085015160809095015160008054600160a060020a03191633178082559351959694959294939192600160a060020a0392909216917f8be0079c531659141344cd1fd0a4f28419497f9722a3daafe3b4186f6b6457e0908290a3600160a060020a03851615156100fc576040517f08c379a000000000000000000000000000000000000000000000000000000000815260040180806020018281038252602d81526020018062001169602d913960400191505060405180910390fd5b81831115610156576040517f08c379a000000000000000000000000000000000000000000000000000000000815260040180806020018281038252602b81526020018062001196602b913960400191505060405180910390fd5b600082116101c557604080517f08c379a000000000000000000000000000000000000000000000000000000000815260206004820152601b60248201527f546f6b656e56657374696e673a206475726174696f6e20697320300000000000604482015290519081900360640190fd5b426101dd858464010000000061076761028882021704565b11610234576040517f08c379a000000000000000000000000000000000000000000000000000000000815260040180806020018281038252602f8152602001806200113a602f913960400191505060405180910390fd5b60018054600160a060020a031916600160a060020a0387161790556005805460ff19168215151790556004829055610279848464010000000061028881026107671704565b60025550505060035550610303565b6000828201838110156102fc57604080517f08c379a000000000000000000000000000000000000000000000000000000000815260206004820152601b60248201527f536166654d6174683a206164646974696f6e206f766572666c6f770000000000604482015290519081900360640190fd5b9392505050565b610e2780620003136000396000f3fe608060405234801561001057600080fd5b50600436106100ec576000357c010000000000000000000000000000000000000000000000000000000090048063872a7810116100a95780639852595c116100835780639852595c146101b9578063be9a6555146101df578063f2fde38b146101e7578063fa01dc061461020d576100ec565b8063872a78101461018d5780638da5cb5b146101a95780638f32d59b146101b1576100ec565b80630fb5a6b4146100f157806313d033c01461010b578063191655871461011357806338af3eed1461013b578063715018a61461015f57806374a8f10314610167575b600080fd5b6100f9610233565b60408051918252519081900360200190f35b6100f9610239565b6101396004803603602081101561012957600080fd5b5035600160a060020a031661023f565b005b610143610347565b60408051600160a060020a039092168252519081900360200190f35b610139610356565b6101396004803603602081101561017d57600080fd5b5035600160a060020a031661040b565b610195610659565b604080519115158252519081900360200190f35b610143610662565b610195610671565b6100f9600480360360208110156101cf57600080fd5b5035600160a060020a0316610682565b6100f96106a1565b610139600480360360208110156101fd57600080fd5b5035600160a060020a03166106a7565b6101956004803603602081101561022357600080fd5b5035600160a060020a0316610711565b60045490565b60025490565b600061024a8261072f565b9050600081116102a4576040805160e560020a62461bcd02815260206004820152601f60248201527f546f6b656e56657374696e673a206e6f20746f6b656e73206172652064756500604482015290519081900360640190fd5b600160a060020a0382166000908152600660205260409020546102cd908263ffffffff61076716565b600160a060020a038084166000818152600660205260409020929092556001546102ff9291168363ffffffff6107cb16565b60408051600160a060020a03841681526020810183905281517fc7798891864187665ac6dd119286e44ec13f014527aeeb2b8eb3fd413df93179929181900390910190a15050565b600154600160a060020a031690565b61035e610671565b15156103b4576040805160e560020a62461bcd02815260206004820181905260248201527f4f776e61626c653a2063616c6c6572206973206e6f7420746865206f776e6572604482015290519081900360640190fd5b60008054604051600160a060020a03909116907f8be0079c531659141344cd1fd0a4f28419497f9722a3daafe3b4186f6b6457e0908390a36000805473ffffffffffffffffffffffffffffffffffffffff19169055565b610413610671565b1515610469576040805160e560020a62461bcd02815260206004820181905260248201527f4f776e61626c653a2063616c6c6572206973206e6f7420746865206f776e6572604482015290519081900360640190fd5b60055460ff1615156104c5576040805160e560020a62461bcd02815260206004820152601b60248201527f546f6b656e56657374696e673a2063616e6e6f74207265766f6b650000000000604482015290519081900360640190fd5b600160a060020a03811660009081526007602052604090205460ff16156105205760405160e560020a62461bcd028152600401808060200182810382526023815260200180610dd96023913960400191505060405180910390fd5b604080517f70a082310000000000000000000000000000000000000000000000000000000081523060048201529051600091600160a060020a038416916370a0823191602480820192602092909190829003018186803b15801561058357600080fd5b505afa158015610597573d6000803e3d6000fd5b505050506040513d60208110156105ad57600080fd5b5051905060006105bc8361072f565b905060006105d0838363ffffffff61085016565b600160a060020a0385166000908152600760205260409020805460ff191660011790559050610617610600610662565b600160a060020a038616908363ffffffff6107cb16565b60408051600160a060020a038616815290517f39983c6d4d174a7aee564f449d4a5c3c7ac9649d72b7793c56901183996f8af69181900360200190a150505050565b60055460ff1690565b600054600160a060020a031690565b600054600160a060020a0316331490565b600160a060020a0381166000908152600660205260409020545b919050565b60035490565b6106af610671565b1515610705576040805160e560020a62461bcd02815260206004820181905260248201527f4f776e61626c653a2063616c6c6572206973206e6f7420746865206f776e6572604482015290519081900360640190fd5b61070e816108b0565b50565b600160a060020a031660009081526007602052604090205460ff1690565b600160a060020a0381166000908152600660205260408120546107619061075584610962565b9063ffffffff61085016565b92915050565b6000828201838110156107c4576040805160e560020a62461bcd02815260206004820152601b60248201527f536166654d6174683a206164646974696f6e206f766572666c6f770000000000604482015290519081900360640190fd5b9392505050565b60408051600160a060020a038416602482015260448082018490528251808303909101815260649091019091526020810180517bffffffffffffffffffffffffffffffffffffffffffffffffffffffff167fa9059cbb0000000000000000000000000000000000000000000000000000000017905261084b908490610ac0565b505050565b6000828211156108aa576040805160e560020a62461bcd02815260206004820152601e60248201527f536166654d6174683a207375627472616374696f6e206f766572666c6f770000604482015290519081900360640190fd5b50900390565b600160a060020a03811615156108fa5760405160e560020a62461bcd028152600401808060200182810382526026815260200180610d686026913960400191505060405180910390fd5b60008054604051600160a060020a03808516939216917f8be0079c531659141344cd1fd0a4f28419497f9722a3daafe3b4186f6b6457e091a36000805473ffffffffffffffffffffffffffffffffffffffff1916600160a060020a0392909216919091179055565b604080517f70a0823100000000000000000000000000000000000000000000000000000000815230600482015290516000918291600160a060020a038516916370a08231916024808301926020929190829003018186803b1580156109c657600080fd5b505afa1580156109da573d6000803e3d6000fd5b505050506040513d60208110156109f057600080fd5b5051600160a060020a03841660009081526006602052604081205491925090610a2090839063ffffffff61076716565b9050600254421015610a375760009250505061069c565b600454600354610a4c9163ffffffff61076716565b42101580610a725750600160a060020a03841660009081526007602052604090205460ff165b15610a8057915061069c9050565b610ab7600454610aab610a9e6003544261085090919063ffffffff16565b849063ffffffff610c9016565b9063ffffffff610cf016565b9250505061069c565b610ad282600160a060020a0316610d5f565b1515610b28576040805160e560020a62461bcd02815260206004820152601f60248201527f5361666545524332303a2063616c6c20746f206e6f6e2d636f6e747261637400604482015290519081900360640190fd5b6000606083600160a060020a0316836040518082805190602001908083835b60208310610b665780518252601f199092019160209182019101610b47565b6001836020036101000a0380198251168184511680821785525050505050509050019150506000604051808303816000865af19150503d8060008114610bc8576040519150601f19603f3d011682016040523d82523d6000602084013e610bcd565b606091505b5091509150811515610c29576040805160e560020a62461bcd02815260206004820181905260248201527f5361666545524332303a206c6f772d6c6576656c2063616c6c206661696c6564604482015290519081900360640190fd5b600081511115610c8a57808060200190516020811015610c4857600080fd5b50511515610c8a5760405160e560020a62461bcd02815260040180806020018281038252602a815260200180610daf602a913960400191505060405180910390fd5b50505050565b6000821515610ca157506000610761565b828202828482811515610cb057fe5b04146107c45760405160e560020a62461bcd028152600401808060200182810382526021815260200180610d8e6021913960400191505060405180910390fd5b6000808211610d49576040805160e560020a62461bcd02815260206004820152601a60248201527f536166654d6174683a206469766973696f6e206279207a65726f000000000000604482015290519081900360640190fd5b60008284811515610d5657fe5b04949350505050565b6000903b119056fe4f776e61626c653a206e6577206f776e657220697320746865207a65726f2061646472657373536166654d6174683a206d756c7469706c69636174696f6e206f766572666c6f775361666545524332303a204552433230206f7065726174696f6e20646964206e6f742073756363656564546f6b656e56657374696e673a20746f6b656e20616c7265616479207265766f6b6564a165627a7a72305820c62eb6d19d2674c4265869fc983abf0417c11a61e0964dc01bacb09592594ddc0029546f6b656e56657374696e673a2066696e616c2074696d65206973206265666f72652063757272656e742074696d65546f6b656e56657374696e673a2062656e656669636961727920697320746865207a65726f2061646472657373546f6b656e56657374696e673a20636c696666206973206c6f6e676572207468616e206475726174696f6e",
    "sourcePath": "c:/Users/franc/Desktop/ReMuS/example_content/contracts/openzeppelin-solidity/contracts/drafts/TokenVesting.sol",
    "compiler": {
        "name": "solc",
        "version": "0.5.2+commit.1df8f40c"
    },
    "functionHashes": {
        "beneficiary()": "38af3eed",
        "cliff()": "13d033c0",
        "duration()": "0fb5a6b4",
        "isOwner()": "8f32d59b",
        "owner()": "8da5cb5b",
        "release(address)": "19165587",
        "released(address)": "9852595c",
        "renounceOwnership()": "715018a6",
        "revocable()": "872a7810",
        "revoke(address)": "74a8f103",
        "revoked(address)": "fa01dc06",
        "start()": "be9a6555",
        "transferOwnership(address)": "f2fde38b"
    },
    "gasEstimates": {
        "creation": {
            "codeDepositCost": "724600",
            "executionCost": "infinite",
            "totalCost": "infinite"
        },
        "external": {
            "beneficiary()": "623",
            "cliff()": "426",
            "duration()": "404",
            "isOwner()": "556",
            "owner()": "601",
            "release(address)": "infinite",
            "released(address)": "692",
            "renounceOwnership()": "22594",
            "revocable()": "438",
            "revoke(address)": "infinite",
            "revoked(address)": "761",
            "start()": "447",
            "transferOwnership(address)": "infinite"
        },
        "internal": {
            "_releasableAmount(contract IERC20)": "infinite",
            "_vestedAmount(contract IERC20)": "infinite"
        }
    }
}