{
    "contractName": "ClaimsRegistry",
    "abi": [
        {
            "constant": true,
            "inputs": [
                {
                    "name": "approver",
                    "type": "address"
                },
                {
                    "name": "issuer",
                    "type": "address"
                },
                {
                    "name": "subject",
                    "type": "address"
                },
                {
                    "name": "key",
                    "type": "bytes32"
                }
            ],
            "name": "isApproved",
            "outputs": [
                {
                    "name": "",
                    "type": "bool"
                }
            ],
            "payable": false,
            "stateMutability": "view",
            "type": "function"
        },
        {
            "constant": false,
            "inputs": [
                {
                    "name": "issuer",
                    "type": "address"
                },
                {
                    "name": "subject",
                    "type": "address"
                },
                {
                    "name": "key",
                    "type": "bytes32"
                }
            ],
            "name": "approveClaim",
            "outputs": [],
            "payable": false,
            "stateMutability": "nonpayable",
            "type": "function"
        },
        {
            "constant": false,
            "inputs": [
                {
                    "name": "key",
                    "type": "bytes32"
                },
                {
                    "name": "value",
                    "type": "bytes32"
                }
            ],
            "name": "setSelfClaim",
            "outputs": [],
            "payable": false,
            "stateMutability": "nonpayable",
            "type": "function"
        },
        {
            "constant": false,
            "inputs": [
                {
                    "name": "subject",
                    "type": "address"
                },
                {
                    "name": "key",
                    "type": "bytes32"
                },
                {
                    "name": "value",
                    "type": "bytes32"
                }
            ],
            "name": "setClaim",
            "outputs": [],
            "payable": false,
            "stateMutability": "nonpayable",
            "type": "function"
        },
        {
            "constant": false,
            "inputs": [
                {
                    "name": "subject",
                    "type": "address"
                },
                {
                    "name": "key",
                    "type": "bytes32"
                }
            ],
            "name": "removeClaim",
            "outputs": [],
            "payable": false,
            "stateMutability": "nonpayable",
            "type": "function"
        },
        {
            "constant": true,
            "inputs": [
                {
                    "name": "issuer",
                    "type": "address"
                },
                {
                    "name": "subject",
                    "type": "address"
                },
                {
                    "name": "key",
                    "type": "bytes32"
                }
            ],
            "name": "getClaim",
            "outputs": [
                {
                    "name": "",
                    "type": "bytes32"
                }
            ],
            "payable": false,
            "stateMutability": "view",
            "type": "function"
        },
        {
            "constant": true,
            "inputs": [
                {
                    "name": "",
                    "type": "address"
                },
                {
                    "name": "",
                    "type": "address"
                },
                {
                    "name": "",
                    "type": "bytes32"
                }
            ],
            "name": "registry",
            "outputs": [
                {
                    "name": "",
                    "type": "bytes32"
                }
            ],
            "payable": false,
            "stateMutability": "view",
            "type": "function"
        },
        {
            "anonymous": false,
            "inputs": [
                {
                    "indexed": true,
                    "name": "issuer",
                    "type": "address"
                },
                {
                    "indexed": true,
                    "name": "subject",
                    "type": "address"
                },
                {
                    "indexed": true,
                    "name": "key",
                    "type": "bytes32"
                },
                {
                    "indexed": false,
                    "name": "value",
                    "type": "bytes32"
                },
                {
                    "indexed": false,
                    "name": "updatedAt",
                    "type": "uint256"
                }
            ],
            "name": "ClaimSet",
            "type": "event"
        },
        {
            "anonymous": false,
            "inputs": [
                {
                    "indexed": false,
                    "name": "approver",
                    "type": "address"
                },
                {
                    "indexed": true,
                    "name": "issuer",
                    "type": "address"
                },
                {
                    "indexed": true,
                    "name": "subject",
                    "type": "address"
                },
                {
                    "indexed": true,
                    "name": "key",
                    "type": "bytes32"
                },
                {
                    "indexed": false,
                    "name": "value",
                    "type": "bytes32"
                },
                {
                    "indexed": false,
                    "name": "approvedAt",
                    "type": "uint256"
                }
            ],
            "name": "ClaimApproved",
            "type": "event"
        },
        {
            "anonymous": false,
            "inputs": [
                {
                    "indexed": true,
                    "name": "issuer",
                    "type": "address"
                },
                {
                    "indexed": true,
                    "name": "subject",
                    "type": "address"
                },
                {
                    "indexed": true,
                    "name": "key",
                    "type": "bytes32"
                },
                {
                    "indexed": false,
                    "name": "removedAt",
                    "type": "uint256"
                }
            ],
            "name": "ClaimRemoved",
            "type": "event"
        }
    ],
    "bytecode": "608060405234801561001057600080fd5b50610462806100206000396000f3fe608060405234801561001057600080fd5b5060043610610099576000357c0100000000000000000000000000000000000000000000000000000000900480639918925d116100785780639918925d14610149578063a1c8ca7e1461017b578063e1661eff146101a7578063e6d970aa146101ef57610099565b8062814a061461009e57806324a8ae84146100ee5780639155b01a14610126575b600080fd5b6100da600480360360808110156100b457600080fd5b50600160a060020a03813581169160208101358216916040820135169060600135610225565b604080519115158252519081900360200190f35b6101246004803603606081101561010457600080fd5b50600160a060020a03813581169160208101359091169060400135610277565b005b6101246004803603604081101561013c57600080fd5b5080359060200135610301565b6101246004803603606081101561015f57600080fd5b50600160a060020a038135169060208101359060400135610310565b6101246004803603604081101561019157600080fd5b50600160a060020a03813516906020013561037f565b6101dd600480360360608110156101bd57600080fd5b50600160a060020a038135811691602081013590911690604001356103e4565b60408051918252519081900360200190f35b6101dd6004803603606081101561020557600080fd5b50600160a060020a03813581169160208101359091169060400135610414565b600160a060020a03938416600090815260208181526040808320948716808452948252808320848452825280832054959096168252818152858220938252928352848120918152915291909120541490565b60006102848484846103e4565b33600081815260208181526040808320600160a060020a03898116808652918452828520898652845293829020869055815194855291840185905242848201525193945085939092918816917fcc1d5cc2da95ba3e4e62fd4fc753229e033b0a3c7700e8f6d084029ad74fe769919081900360600190a450505050565b61030c338383610310565b5050565b33600081815260208181526040808320600160a060020a0388168085529083528184208785528352928190208590558051858152429281019290925280518694927f8c9f893548e8429f9352aba6698e6f4dca2e390604f6e8c5881a7a505d94ae5092908290030190a4505050565b33600081815260208181526040808320600160a060020a038716808552908352818420868552835281842093909355805142815290518594927f7bc046ef9f2fccd4c99778d7e0fbed67ddb16e63e1a266894769de9516b8039a928290030190a45050565b600160a060020a039283166000908152602081815260408083209490951682529283528381209181529152205490565b600060208181529381526040808220855292815282812090935282529020548156fea165627a7a7230582056b005b44652f8695d9ce554f7c86d1a47777fe8502b4b2f06e994c45c2a85540029",
    "sourcePath": "c:/Users/franc/Desktop/ReMuS/example_content/contracts/ClaimsRegistry.sol",
    "compiler": {
        "name": "solc",
        "version": "0.5.2+commit.1df8f40c"
    },
    "functionHashes": {
        "approveClaim(address,address,bytes32)": "24a8ae84",
        "getClaim(address,address,bytes32)": "e1661eff",
        "isApproved(address,address,address,bytes32)": "00814a06",
        "registry(address,address,bytes32)": "e6d970aa",
        "removeClaim(address,bytes32)": "a1c8ca7e",
        "setClaim(address,bytes32,bytes32)": "9918925d",
        "setSelfClaim(bytes32,bytes32)": "9155b01a"
    },
    "gasEstimates": {
        "creation": {
            "codeDepositCost": "224400",
            "executionCost": "269",
            "totalCost": "224669"
        },
        "external": {
            "approveClaim(address,address,bytes32)": "23926",
            "getClaim(address,address,bytes32)": "891",
            "isApproved(address,address,address,bytes32)": "1285",
            "registry(address,address,bytes32)": "823",
            "removeClaim(address,bytes32)": "7787",
            "setClaim(address,bytes32,bytes32)": "23068",
            "setSelfClaim(bytes32,bytes32)": "23059"
        }
    }
}