{
    "contractName": "ConditionalCoupon",
    "abi": [
        {
            "constant": true,
            "inputs": [
                {
                    "name": "owner",
                    "type": "address"
                },
                {
                    "name": "id",
                    "type": "uint256"
                }
            ],
            "name": "balanceOf",
            "outputs": [
                {
                    "name": "",
                    "type": "uint256"
                }
            ],
            "payable": false,
            "stateMutability": "view",
            "type": "function"
        },
        {
            "constant": false,
            "inputs": [
                {
                    "name": "collateralToken",
                    "type": "address"
                },
                {
                    "name": "parentCollectionId",
                    "type": "bytes32"
                },
                {
                    "name": "conditionId",
                    "type": "bytes32"
                },
                {
                    "name": "indexSets",
                    "type": "uint256[]"
                }
            ],
            "name": "redeemPositions",
            "outputs": [],
            "payable": false,
            "stateMutability": "nonpayable",
            "type": "function"
        },
        {
            "constant": true,
            "inputs": [
                {
                    "name": "interfaceId",
                    "type": "bytes4"
                }
            ],
            "name": "supportsInterface",
            "outputs": [
                {
                    "name": "",
                    "type": "bool"
                }
            ],
            "payable": false,
            "stateMutability": "view",
            "type": "function"
        },
        {
            "constant": true,
            "inputs": [
                {
                    "name": "",
                    "type": "bytes32"
                },
                {
                    "name": "",
                    "type": "uint256"
                }
            ],
            "name": "payoutNumerators",
            "outputs": [
                {
                    "name": "",
                    "type": "uint256"
                }
            ],
            "payable": false,
            "stateMutability": "view",
            "type": "function"
        },
        {
            "constant": false,
            "inputs": [
                {
                    "name": "from",
                    "type": "address"
                },
                {
                    "name": "to",
                    "type": "address"
                },
                {
                    "name": "ids",
                    "type": "uint256[]"
                },
                {
                    "name": "values",
                    "type": "uint256[]"
                },
                {
                    "name": "data",
                    "type": "bytes"
                }
            ],
            "name": "safeBatchTransferFrom",
            "outputs": [],
            "payable": false,
            "stateMutability": "nonpayable",
            "type": "function"
        },
        {
            "constant": true,
            "inputs": [
                {
                    "name": "owners",
                    "type": "address[]"
                },
                {
                    "name": "ids",
                    "type": "uint256[]"
                }
            ],
            "name": "balanceOfBatch",
            "outputs": [
                {
                    "name": "",
                    "type": "uint256[]"
                }
            ],
            "payable": false,
            "stateMutability": "view",
            "type": "function"
        },
        {
            "constant": false,
            "inputs": [
                {
                    "name": "questionId",
                    "type": "bytes32"
                },
                {
                    "name": "result",
                    "type": "bytes"
                }
            ],
            "name": "receiveResult",
            "outputs": [],
            "payable": false,
            "stateMutability": "nonpayable",
            "type": "function"
        },
        {
            "constant": false,
            "inputs": [
                {
                    "name": "collateralToken",
                    "type": "address"
                },
                {
                    "name": "parentCollectionId",
                    "type": "bytes32"
                },
                {
                    "name": "conditionId",
                    "type": "bytes32"
                },
                {
                    "name": "partition",
                    "type": "uint256[]"
                },
                {
                    "name": "amount",
                    "type": "uint256"
                }
            ],
            "name": "splitPosition",
            "outputs": [],
            "payable": false,
            "stateMutability": "nonpayable",
            "type": "function"
        },
        {
            "constant": false,
            "inputs": [
                {
                    "name": "collateralToken",
                    "type": "address"
                },
                {
                    "name": "parentCollectionId",
                    "type": "bytes32"
                },
                {
                    "name": "conditionId",
                    "type": "bytes32"
                },
                {
                    "name": "partition",
                    "type": "uint256[]"
                },
                {
                    "name": "amount",
                    "type": "uint256"
                }
            ],
            "name": "mergePositions",
            "outputs": [],
            "payable": false,
            "stateMutability": "nonpayable",
            "type": "function"
        },
        {
            "constant": false,
            "inputs": [
                {
                    "name": "operator",
                    "type": "address"
                },
                {
                    "name": "approved",
                    "type": "bool"
                }
            ],
            "name": "setApprovalForAll",
            "outputs": [],
            "payable": false,
            "stateMutability": "nonpayable",
            "type": "function"
        },
        {
            "constant": true,
            "inputs": [
                {
                    "name": "conditionId",
                    "type": "bytes32"
                }
            ],
            "name": "getOutcomeSlotCount",
            "outputs": [
                {
                    "name": "",
                    "type": "uint256"
                }
            ],
            "payable": false,
            "stateMutability": "view",
            "type": "function"
        },
        {
            "constant": false,
            "inputs": [
                {
                    "name": "oracle",
                    "type": "address"
                },
                {
                    "name": "questionId",
                    "type": "bytes32"
                },
                {
                    "name": "outcomeSlotCount",
                    "type": "uint256"
                }
            ],
            "name": "prepareCondition",
            "outputs": [],
            "payable": false,
            "stateMutability": "nonpayable",
            "type": "function"
        },
        {
            "constant": true,
            "inputs": [
                {
                    "name": "",
                    "type": "bytes32"
                }
            ],
            "name": "payoutDenominator",
            "outputs": [
                {
                    "name": "",
                    "type": "uint256"
                }
            ],
            "payable": false,
            "stateMutability": "view",
            "type": "function"
        },
        {
            "constant": true,
            "inputs": [
                {
                    "name": "owner",
                    "type": "address"
                },
                {
                    "name": "operator",
                    "type": "address"
                }
            ],
            "name": "isApprovedForAll",
            "outputs": [
                {
                    "name": "",
                    "type": "bool"
                }
            ],
            "payable": false,
            "stateMutability": "view",
            "type": "function"
        },
        {
            "constant": false,
            "inputs": [
                {
                    "name": "from",
                    "type": "address"
                },
                {
                    "name": "to",
                    "type": "address"
                },
                {
                    "name": "id",
                    "type": "uint256"
                },
                {
                    "name": "value",
                    "type": "uint256"
                },
                {
                    "name": "data",
                    "type": "bytes"
                }
            ],
            "name": "safeTransferFrom",
            "outputs": [],
            "payable": false,
            "stateMutability": "nonpayable",
            "type": "function"
        },
        {
            "anonymous": false,
            "inputs": [
                {
                    "indexed": true,
                    "name": "conditionId",
                    "type": "bytes32"
                },
                {
                    "indexed": true,
                    "name": "oracle",
                    "type": "address"
                },
                {
                    "indexed": true,
                    "name": "questionId",
                    "type": "bytes32"
                },
                {
                    "indexed": false,
                    "name": "outcomeSlotCount",
                    "type": "uint256"
                }
            ],
            "name": "ConditionPreparation",
            "type": "event"
        },
        {
            "anonymous": false,
            "inputs": [
                {
                    "indexed": true,
                    "name": "conditionId",
                    "type": "bytes32"
                },
                {
                    "indexed": true,
                    "name": "oracle",
                    "type": "address"
                },
                {
                    "indexed": true,
                    "name": "questionId",
                    "type": "bytes32"
                },
                {
                    "indexed": false,
                    "name": "outcomeSlotCount",
                    "type": "uint256"
                },
                {
                    "indexed": false,
                    "name": "payoutNumerators",
                    "type": "uint256[]"
                }
            ],
            "name": "ConditionResolution",
            "type": "event"
        },
        {
            "anonymous": false,
            "inputs": [
                {
                    "indexed": true,
                    "name": "stakeholder",
                    "type": "address"
                },
                {
                    "indexed": false,
                    "name": "collateralToken",
                    "type": "address"
                },
                {
                    "indexed": true,
                    "name": "parentCollectionId",
                    "type": "bytes32"
                },
                {
                    "indexed": true,
                    "name": "conditionId",
                    "type": "bytes32"
                },
                {
                    "indexed": false,
                    "name": "partition",
                    "type": "uint256[]"
                },
                {
                    "indexed": false,
                    "name": "amount",
                    "type": "uint256"
                }
            ],
            "name": "PositionSplit",
            "type": "event"
        },
        {
            "anonymous": false,
            "inputs": [
                {
                    "indexed": true,
                    "name": "stakeholder",
                    "type": "address"
                },
                {
                    "indexed": false,
                    "name": "collateralToken",
                    "type": "address"
                },
                {
                    "indexed": true,
                    "name": "parentCollectionId",
                    "type": "bytes32"
                },
                {
                    "indexed": true,
                    "name": "conditionId",
                    "type": "bytes32"
                },
                {
                    "indexed": false,
                    "name": "partition",
                    "type": "uint256[]"
                },
                {
                    "indexed": false,
                    "name": "amount",
                    "type": "uint256"
                }
            ],
            "name": "PositionsMerge",
            "type": "event"
        },
        {
            "anonymous": false,
            "inputs": [
                {
                    "indexed": true,
                    "name": "redeemer",
                    "type": "address"
                },
                {
                    "indexed": true,
                    "name": "collateralToken",
                    "type": "address"
                },
                {
                    "indexed": true,
                    "name": "parentCollectionId",
                    "type": "bytes32"
                },
                {
                    "indexed": false,
                    "name": "conditionId",
                    "type": "bytes32"
                },
                {
                    "indexed": false,
                    "name": "indexSets",
                    "type": "uint256[]"
                },
                {
                    "indexed": false,
                    "name": "payout",
                    "type": "uint256"
                }
            ],
            "name": "PayoutRedemption",
            "type": "event"
        },
        {
            "anonymous": false,
            "inputs": [
                {
                    "indexed": true,
                    "name": "operator",
                    "type": "address"
                },
                {
                    "indexed": true,
                    "name": "from",
                    "type": "address"
                },
                {
                    "indexed": true,
                    "name": "to",
                    "type": "address"
                },
                {
                    "indexed": false,
                    "name": "id",
                    "type": "uint256"
                },
                {
                    "indexed": false,
                    "name": "value",
                    "type": "uint256"
                }
            ],
            "name": "TransferSingle",
            "type": "event"
        },
        {
            "anonymous": false,
            "inputs": [
                {
                    "indexed": true,
                    "name": "operator",
                    "type": "address"
                },
                {
                    "indexed": true,
                    "name": "from",
                    "type": "address"
                },
                {
                    "indexed": true,
                    "name": "to",
                    "type": "address"
                },
                {
                    "indexed": false,
                    "name": "ids",
                    "type": "uint256[]"
                },
                {
                    "indexed": false,
                    "name": "values",
                    "type": "uint256[]"
                }
            ],
            "name": "TransferBatch",
            "type": "event"
        },
        {
            "anonymous": false,
            "inputs": [
                {
                    "indexed": true,
                    "name": "owner",
                    "type": "address"
                },
                {
                    "indexed": true,
                    "name": "operator",
                    "type": "address"
                },
                {
                    "indexed": false,
                    "name": "approved",
                    "type": "bool"
                }
            ],
            "name": "ApprovalForAll",
            "type": "event"
        },
        {
            "anonymous": false,
            "inputs": [
                {
                    "indexed": false,
                    "name": "value",
                    "type": "string"
                },
                {
                    "indexed": true,
                    "name": "id",
                    "type": "uint256"
                }
            ],
            "name": "URI",
            "type": "event"
        }
    ],
    "bytecode": "6080604052620000387f01ffc9a70000000000000000000000000000000000000000000000000000000064010000000062000072810204565b6200006c7fd9b67a260000000000000000000000000000000000000000000000000000000064010000000062000072810204565b62000141565b7fffffffff0000000000000000000000000000000000000000000000000000000080821614156200010457604080517f08c379a000000000000000000000000000000000000000000000000000000000815260206004820152601c60248201527f4552433136353a20696e76616c696420696e7465726661636520696400000000604482015290519081900360640190fd5b7fffffffff00000000000000000000000000000000000000000000000000000000166000908152602081905260409020805460ff19166001179055565b61344780620001516000396000f3fe608060405234801561001057600080fd5b5060043610610111576000357c01000000000000000000000000000000000000000000000000000000009004806372ce4275116100b4578063d96ee75411610083578063d96ee754146106be578063dd34de67146106f0578063e985e9c51461070d578063f242432a1461073b57610111565b806372ce42751461055b5780639e7212ad146105e7578063a22cb46514610673578063d42dc0c2146106a157610111565b80630504c814116100f05780630504c8141461021d5780632eb2c2d6146102405780634e1273f41461036d5780635dd80855146104e457610111565b8062fdd58e1461011657806301b7037c1461015457806301ffc9a7146101e2575b600080fd5b6101426004803603604081101561012c57600080fd5b50600160a060020a0381351690602001356107d0565b60408051918252519081900360200190f35b6101e06004803603608081101561016a57600080fd5b600160a060020a0382351691602081013591604082013591908101906080810160608201356401000000008111156101a157600080fd5b8201836020820111156101b357600080fd5b803590602001918460208302840111640100000000831117156101d557600080fd5b509092509050610847565b005b610209600480360360208110156101f857600080fd5b5035600160e060020a031916610c8a565b604080519115158252519081900360200190f35b6101426004803603604081101561023357600080fd5b5080359060200135610ca9565b6101e0600480360360a081101561025657600080fd5b600160a060020a03823581169260208101359091169181019060608101604082013564010000000081111561028a57600080fd5b82018360208201111561029c57600080fd5b803590602001918460208302840111640100000000831117156102be57600080fd5b9193909290916020810190356401000000008111156102dc57600080fd5b8201836020820111156102ee57600080fd5b8035906020019184602083028401116401000000008311171561031057600080fd5b91939092909160208101903564010000000081111561032e57600080fd5b82018360208201111561034057600080fd5b8035906020019184600183028401116401000000008311171561036257600080fd5b509092509050610cd9565b6104946004803603604081101561038357600080fd5b81019060208101813564010000000081111561039e57600080fd5b8201836020820111156103b057600080fd5b803590602001918460208302840111640100000000831117156103d257600080fd5b919080806020026020016040519081016040528093929190818152602001838360200280828437600092019190915250929594936020810193503591505064010000000081111561042257600080fd5b82018360208201111561043457600080fd5b8035906020019184602083028401116401000000008311171561045657600080fd5b919080806020026020016040519081016040528093929190818152602001838360200280828437600092019190915250929550611075945050505050565b60408051602080825283518183015283519192839290830191858101910280838360005b838110156104d05781810151838201526020016104b8565b505050509050019250505060405180910390f35b6101e0600480360360408110156104fa57600080fd5b8135919081019060408101602082013564010000000081111561051c57600080fd5b82018360208201111561052e57600080fd5b8035906020019184600183028401116401000000008311171561055057600080fd5b5090925090506111e8565b6101e0600480360360a081101561057157600080fd5b600160a060020a0382351691602081013591604082013591908101906080810160608201356401000000008111156105a857600080fd5b8201836020820111156105ba57600080fd5b803590602001918460208302840111640100000000831117156105dc57600080fd5b9193509150356115eb565b6101e0600480360360a08110156105fd57600080fd5b600160a060020a03823516916020810135916040820135919081019060808101606082013564010000000081111561063457600080fd5b82018360208201111561064657600080fd5b8035906020019184602083028401116401000000008311171561066857600080fd5b9193509150356119f9565b6101e06004803603604081101561068957600080fd5b50600160a060020a0381351690602001351515611e28565b610142600480360360208110156106b757600080fd5b5035611e96565b6101e0600480360360608110156106d457600080fd5b50600160a060020a038135169060208101359060400135611ea8565b6101426004803603602081101561070657600080fd5b5035612043565b6102096004803603604081101561072357600080fd5b50600160a060020a0381358116916020013516612055565b6101e0600480360360a081101561075157600080fd5b600160a060020a03823581169260208101359091169160408201359160608101359181019060a08101608082013564010000000081111561079157600080fd5b8201836020820111156107a357600080fd5b803590602001918460018302840111640100000000831117156107c557600080fd5b509092509050612083565b6000600160a060020a038316151561081c5760405160e560020a62461bcd02815260040180806020018281038252602b81526020018061318b602b913960400191505060405180910390fd5b506000818152600160209081526040808320600160a060020a03861684529091529020545b92915050565b600083815260046020526040812054116108955760405160e560020a62461bcd0281526004018080602001828103825260258152602001806131666025913960400191505060405180910390fd5b6000838152600360205260408120549081116108fb576040805160e560020a62461bcd02815260206004820152601a60248201527f636f6e646974696f6e206e6f7420707265706172656420796574000000000000604482015290519081900360640190fd5b600080600019600284900a01815b85811015610ab357600087878381811061091f57fe5b90506020020135905060008111801561093757508281105b151561098d576040805160e560020a62461bcd02815260206004820152601560248201527f676f7420696e76616c696420696e646578207365740000000000000000000000604482015290519081900360640190fd5b8a6109998b8b84612269565b6040516020018083600160a060020a0316600160a060020a0316606060020a02815260140182815260200192505050604051602081830303815290604052805190602001209350600080905060008090505b87811015610a4357600281900a831615610a3b5760008b81526003602052604090208054610a38919083908110610a1e57fe5b90600052602060002001548361229690919063ffffffff16565b91505b6001016109eb565b506000610a5033876107d0565b90506000811115610aa85760008b815260046020526040902054610a9b90610a8e90610a82848663ffffffff6122fa16565b9063ffffffff61235a16565b889063ffffffff61229616565b9650610aa83387836123c9565b505050600101610909565b506000831115610bf757871515610b9d57604080517fa9059cbb000000000000000000000000000000000000000000000000000000008152336004820152602481018590529051600160a060020a038b169163a9059cbb9160448083019260209291908290030181600087803b158015610b2c57600080fd5b505af1158015610b40573d6000803e3d6000fd5b505050506040513d6020811015610b5657600080fd5b50511515610b985760405160e560020a62461bcd02815260040180806020018281038252602b8152602001806131b6602b913960400191505060405180910390fd5b610bf7565b60408051606060020a600160a060020a038c160260208083019190915260348083018c90528351808403909101815260548301808552815191909201206074909201909252600082529250610bf790339084908690612464565b8789600160a060020a031633600160a060020a03167f2682012a4a4f1973119f1c9b90745d1bd91fa2bab387344f044cb3586864d18d8a8a8a8960405180858152602001806020018381526020018281038252858582818152602001925060200280828437600083820152604051601f909101601f191690920182900397509095505050505050a4505050505050505050565b600160e060020a03191660009081526020819052604090205460ff1690565b600360205281600052604060002081815481101515610cc457fe5b90600052602060002001600091509150505481565b848314610d1a5760405160e560020a62461bcd02815260040180806020018281038252602e815260200180613327602e913960400191505060405180910390fd5b600160a060020a0387161515610d645760405160e560020a62461bcd0281526004018080602001828103825260288152602001806131e16028913960400191505060405180910390fd5b600160a060020a038816331480610da35750600160a060020a038816600090815260026020908152604080832033845290915290205460ff1615156001145b1515610de35760405160e560020a62461bcd0281526004018080602001828103825260388152602001806133556038913960400191505060405180910390fd5b60005b85811015610f15576000878783818110610dfc57fe5b90506020020135905060008686848181101515610e1557fe5b905060200201359050610e67816001600085815260200190815260200160002060008e600160a060020a0316600160a060020a031681526020019081526020016000205461255790919063ffffffff16565b6001600084815260200190815260200160002060008d600160a060020a0316600160a060020a0316815260200190815260200160002081905550610eea6001600084815260200190815260200160002060008c600160a060020a0316600160a060020a03168152602001908152602001600020548261229690919063ffffffff16565b6000928352600160208181526040808620600160a060020a038f168752909152909320555001610de6565b5086600160a060020a031688600160a060020a031633600160a060020a03167f4a39dc06d4c0dbc64b70af90fd698a233a518aa5d07e595d983b8c0526c8f7fb898989896040518080602001806020018381038352878782818152602001925060200280828437600083820152601f01601f19169091018481038352858152602090810191508690860280828437600083820152604051601f909101601f19169092018290039850909650505050505050a461106b33898989898080602002602001604051908101604052809392919081815260200183836020028082843760009201919091525050604080516020808d0282810182019093528c82529093508c92508b91829185019084908082843760009201919091525050604080516020601f8c018190048102820181019092528a815292508a91508990819084018382808284376000920191909152506125b792505050565b5050505050505050565b80518251606091146110bb5760405160e560020a62461bcd02815260040180806020018281038252602e8152602001806132f9602e913960400191505060405180910390fd5b606083516040519080825280602002602001820160405280156110e8578160200160208202803883390190505b50905060005b84518110156111e057845160009086908390811061110857fe5b60209081029091010151600160a060020a0316141561115b5760405160e560020a62461bcd0281526004018080602001828103825260348152602001806132a46034913960400191505060405180910390fd5b60016000858381518110151561116d57fe5b9060200190602002015181526020019081526020016000206000868381518110151561119557fe5b90602001906020020151600160a060020a0316600160a060020a031681526020019081526020016000205482828151811015156111ce57fe5b602090810290910101526001016110ee565b509392505050565b60008111611240576040805160e560020a62461bcd02815260206004820152600d60248201527f726573756c747320656d70747900000000000000000000000000000000000000604482015290519081900360640190fd5b6020810615611299576040805160e560020a62461bcd02815260206004820152601b60248201527f726573756c7473206e6f742033322d6279746520616c69676e65640000000000604482015290519081900360640190fd5b602081046101008111156112f7576040805160e560020a62461bcd02815260206004820152601660248201527f746f6f206d616e79206f7574636f6d6520736c6f747300000000000000000000604482015290519081900360640190fd5b60408051606060020a3302602080830191909152603482018790526054808301859052835180840390910181526074909201835281519181019190912060008181526003909252919020548214611398576040805160e560020a62461bcd02815260206004820152601b60248201527f6e756d626572206f66206f7574636f6d6573206d69736d617463680000000000604482015290519081900360640190fd5b600081815260046020526040902054156113fc576040805160e560020a62461bcd02815260206004820152601e60248201527f7061796f75742064656e6f6d696e61746f7220616c7265616479207365740000604482015290519081900360640190fd5b60005b828110156114e457600082815260046020908152604090912054908202606401359061142b9082612296565b600084815260046020908152604080832093909355600390522080548390811061145157fe5b600091825260209091200154156114b2576040805160e560020a62461bcd02815260206004820152601c60248201527f7061796f7574206e756d657261746f7220616c72656164792073657400000000604482015290519081900360640190fd5b60008381526003602052604090208054829190849081106114cf57fe5b600091825260209091200155506001016113ff565b5060008181526004602052604081205411611549576040805160e560020a62461bcd02815260206004820152601460248201527f7061796f757420697320616c6c207a65726f6573000000000000000000000000604482015290519081900360640190fd5b8433600160a060020a0316827fb44d84d3289691f71497564b85d4233648d9dbae8cbdbb4329f301c3a01858948560036000878152602001908152602001600020604051808381526020018060200182810382528381815481526020019150805480156115d557602002820191906000526020600020905b8154815260200190600101908083116115c1575b5050935050505060405180910390a45050505050565b600084815260036020526040812054908111611651576040805160e560020a62461bcd02815260206004820152601a60248201527f636f6e646974696f6e206e6f7420707265706172656420796574000000000000604482015290519081900360640190fd5b6000600019600283900a0180825b868110156117bc57600088888381811061167557fe5b90506020020135905060008111801561168d57508381105b15156116e3576040805160e560020a62461bcd02815260206004820152601560248201527f676f7420696e76616c696420696e646578207365740000000000000000000000604482015290519081900360640190fd5b828116811461173c576040805160e560020a62461bcd02815260206004820152601660248201527f706172746974696f6e206e6f74206469736a6f696e7400000000000000000000604482015290519081900360640190fd5b918218918b61174c8c8c84612269565b6040516020018083600160a060020a0316600160a060020a0316606060020a028152601401828152602001925050506040516020818303038152906040528051906020012094506117b3338660019004896020604051908101604052806000815250612464565b5060010161165f565b508015156118f8578815156118aa57604080517f23b872dd000000000000000000000000000000000000000000000000000000008152336004820152306024820152604481018790529051600160a060020a038c16916323b872dd9160648083019260209291908290030181600087803b15801561183957600080fd5b505af115801561184d573d6000803e3d6000fd5b505050506040513d602081101561186357600080fd5b505115156118a55760405160e560020a62461bcd0281526004018080602001828103825260238152602001806132816023913960400191505060405180910390fd5b6118f3565b60408051606060020a600160a060020a038d160260208083019190915260348083018d9052835180840390910181526054909201909252805191012092506118f33384876123c9565b61195c565b896119068a8a848618612269565b6040516020018083600160a060020a0316600160a060020a0316606060020a0281526014018281526020019250505060405160208183030381529060405280519060200120925061195c338460019004876123c9565b878933600160a060020a03167f2e6bb91f8cbcda0c93623c54d0403a43514fabc40084ec96b6d5379a747862988d8b8b8b6040518085600160a060020a0316600160a060020a03168152602001806020018381526020018281038252858582818152602001925060200280828437600083820152604051601f909101601f191690920182900397509095505050505050a450505050505050505050565b600084815260036020526040812054908111611a5f576040805160e560020a62461bcd02815260206004820152601a60248201527f636f6e646974696f6e206e6f7420707265706172656420796574000000000000604482015290519081900360640190fd5b6000600019600283900a0180825b86811015611bb9576000888883818110611a8357fe5b905060200201359050600081118015611a9b57508381105b1515611af1576040805160e560020a62461bcd02815260206004820152601560248201527f676f7420696e76616c696420696e646578207365740000000000000000000000604482015290519081900360640190fd5b8281168114611b4a576040805160e560020a62461bcd02815260206004820152601660248201527f706172746974696f6e206e6f74206469736a6f696e7400000000000000000000604482015290519081900360640190fd5b918218918b611b5a8c8c84612269565b6040516020018083600160a060020a0316600160a060020a0316606060020a02815260140182815260200192505050604051602081830303815290604052805190602001209450611bb0338660019004896123c9565b50600101611a6d565b50801515611d1657881515611cb757604080517fa9059cbb000000000000000000000000000000000000000000000000000000008152336004820152602481018790529051600160a060020a038c169163a9059cbb9160448083019260209291908290030181600087803b158015611c3057600080fd5b505af1158015611c44573d6000803e3d6000fd5b505050506040513d6020811015611c5a57600080fd5b50511515611cb2576040805160e560020a62461bcd02815260206004820181905260248201527f636f756c64206e6f742073656e6420636f6c6c61746572616c20746f6b656e73604482015290519081900360640190fd5b611d11565b60408051606060020a600160a060020a038d160260208083019190915260348083018d90528351808403909101815260548301808552815191909201206074909201909252600082529350611d1190339085908890612464565b611d8b565b89611d248a8a848618612269565b6040516020018083600160a060020a0316600160a060020a0316606060020a02815260140182815260200192505050604051602081830303815290604052805190602001209250611d8b338460019004876020604051908101604052806000815250612464565b878933600160a060020a03167f6f13ca62553fcc2bcd2372180a43949c1e4cebba603901ede2f4e14f36b282ca8d8b8b8b6040518085600160a060020a0316600160a060020a03168152602001806020018381526020018281038252858582818152602001925060200280828437600083820152604051601f909101601f191690920182900397509095505050505050a450505050505050505050565b336000818152600260209081526040808320600160a060020a03871680855290835292819020805460ff1916861515908117909155815190815290519293927f17307eab39ab6107e8899845ad3d59bd9653f200f220920489ca2b5937696c31929181900390910190a35050565b60009081526003602052604090205490565b610100811115611f02576040805160e560020a62461bcd02815260206004820152601660248201527f746f6f206d616e79206f7574636f6d6520736c6f747300000000000000000000604482015290519081900360640190fd5b60408051606060020a600160a060020a038616026020808301919091526034820185905260548083018590528351808403909101815260749092018352815191810191909120600081815260039092529190205415611fab576040805160e560020a62461bcd02815260206004820152601a60248201527f636f6e646974696f6e20616c7265616479207072657061726564000000000000604482015290519081900360640190fd5b81604051908082528060200260200182016040528015611fd5578160200160208202803883390190505b5060008281526003602090815260409091208251611ff993919291909101906130fd565b508284600160a060020a0316827fab3760c3bd2bb38b5bcf54dc79802ed67338b4cf29f3054ded67ed24661e4177856040518082815260200191505060405180910390a450505050565b60046020526000908152604090205481565b600160a060020a03918216600090815260026020908152604080832093909416825291909152205460ff1690565b600160a060020a03851615156120cd5760405160e560020a62461bcd0281526004018080602001828103825260288152602001806131e16028913960400191505060405180910390fd5b600160a060020a03861633148061210c5750600160a060020a038616600090815260026020908152604080832033845290915290205460ff1615156001145b151561214c5760405160e560020a62461bcd0281526004018080602001828103825260388152602001806133556038913960400191505060405180910390fd5b6000848152600160209081526040808320600160a060020a038a16845290915290205461217f908463ffffffff61255716565b6000858152600160209081526040808320600160a060020a038b811685529252808320939093558716815220546121b7908490612296565b6000858152600160209081526040808320600160a060020a03808b16808652918452938290209490945580518881529182018790528051928a169233927fc3d58168c5ae7397731d063d5bbf3d657854427343f4c083240f7aacaa2d0f6292908290030190a4612261338787878787878080601f016020809104026020016040519081016040528093929190818152602001838380828437600092019190915250612bd992505050565b505050505050565b60408051602080820194909452808201929092528051808303820181526060909201905280519101200190565b6000828201838110156122f3576040805160e560020a62461bcd02815260206004820152601b60248201527f536166654d6174683a206164646974696f6e206f766572666c6f770000000000604482015290519081900360640190fd5b9392505050565b600082151561230b57506000610841565b82820282848281151561231a57fe5b04146122f35760405160e560020a62461bcd0281526004018080602001828103825260218152602001806132d86021913960400191505060405180910390fd5b60008082116123b3576040805160e560020a62461bcd02815260206004820152601a60248201527f536166654d6174683a206469766973696f6e206279207a65726f000000000000604482015290519081900360640190fd5b600082848115156123c057fe5b04949350505050565b6000828152600160209081526040808320600160a060020a03871684529091529020546123fc908263ffffffff61255716565b6000838152600160209081526040808320600160a060020a038816808552908352818420949094558051868152918201859052805192939233927fc3d58168c5ae7397731d063d5bbf3d657854427343f4c083240f7aacaa2d0f6292908290030190a4505050565b600160a060020a03841615156124ae5760405160e560020a62461bcd0281526004018080602001828103825260218152602001806133ca6021913960400191505060405180910390fd5b6000838152600160209081526040808320600160a060020a03881684529091529020546124e290839063ffffffff61229616565b6000848152600160209081526040808320600160a060020a038916808552908352818420949094558051878152918201869052805133927fc3d58168c5ae7397731d063d5bbf3d657854427343f4c083240f7aacaa2d0f6292908290030190a461255133600086868686612bd9565b50505050565b6000828211156125b1576040805160e560020a62461bcd02815260206004820152601e60248201527f536166654d6174683a207375627472616374696f6e206f766572666c6f770000604482015290519081900360640190fd5b50900390565b6125c984600160a060020a03166130f5565b156122615760408051600481526024810182526020810180517bffffffffffffffffffffffffffffffffffffffffffffffffffffffff1660e160020a6306c892210217815291518151600093606093600160a060020a038a16939092909182918083835b6020831061264c5780518252601f19909201916020918201910161262d565b6001836020036101000a038019825116818451168082178552505050505050905001915050600060405180830381855afa9150503d80600081146126ac576040519150601f19603f3d011682016040523d82523d6000602084013e6126b1565b606091505b50915091508180156126c4575060008151115b80156126fa5750805160e160020a6306c892210290602080840191908110156126ec57600080fd5b5051600160e060020a031916145b156128e6576040517fbc197c8100000000000000000000000000000000000000000000000000000000808252600160a060020a038a8116600484019081528a8216602485015260a060448501908152895160a486015289519394928b169363bc197c81938e938e938d938d938d9392916064820191608481019160c4909101906020808a01910280838360005b8381101561279f578181015183820152602001612787565b50505050905001848103835286818151815260200191508051906020019060200280838360005b838110156127de5781810151838201526020016127c6565b50505050905001848103825285818151815260200191508051906020019080838360005b8381101561281a578181015183820152602001612802565b50505050905090810190601f1680156128475780820380516001836020036101000a031916815260200191505b5098505050505050505050602060405180830381600087803b15801561286c57600080fd5b505af1158015612880573d6000803e3d6000fd5b505050506040513d602081101561289657600080fd5b5051600160e060020a031916146128e15760405160e560020a62461bcd02815260040180806020018281038252603681526020018061324b6036913960400191505060405180910390fd5b61106b565b604080518082018252601481527f45524331313535546f6b656e526563656976657200000000000000000000000060209182015281517faabbb8ca000000000000000000000000000000000000000000000000000000008152600160a060020a03891660048201527f78eca591ab61c5e7d150a4c8756b2645287be0b2a3dc046cb359858001cc658760248201529151600092731820a4b7618bde71dce8cdc73aab6c95905fad249263aabbb8ca92604480840193829003018186803b1580156129af57600080fd5b505afa1580156129c3573d6000803e3d6000fd5b505050506040513d60208110156129d957600080fd5b50519050600160a060020a03811615612bce576040517fbc197c8100000000000000000000000000000000000000000000000000000000808252600160a060020a038b8116600484019081528b8216602485015260a0604485019081528a5160a48601528a5193949286169363bc197c81938f938f938e938e938e9392916064820191608481019160c4909101906020808a01910280838360005b83811015612a8c578181015183820152602001612a74565b50505050905001848103835286818151815260200191508051906020019060200280838360005b83811015612acb578181015183820152602001612ab3565b50505050905001848103825285818151815260200191508051906020019080838360005b83811015612b07578181015183820152602001612aef565b50505050905090810190601f168015612b345780820380516001836020036101000a031916815260200191505b5098505050505050505050602060405180830381600087803b158015612b5957600080fd5b505af1158015612b6d573d6000803e3d6000fd5b505050506040513d6020811015612b8357600080fd5b5051600160e060020a03191614612bce5760405160e560020a62461bcd0281526004018080602001828103825260428152602001806132096042913960600191505060405180910390fd5b505050505050505050565b612beb84600160a060020a03166130f5565b156122615760408051600481526024810182526020810180517bffffffffffffffffffffffffffffffffffffffffffffffffffffffff1660e160020a6306c892210217815291518151600093606093600160a060020a038a16939092909182918083835b60208310612c6e5780518252601f199092019160209182019101612c4f565b6001836020036101000a038019825116818451168082178552505050505050905001915050600060405180830381855afa9150503d8060008114612cce576040519150601f19603f3d011682016040523d82523d6000602084013e612cd3565b606091505b5091509150818015612ce6575060008151115b8015612d1c5750805160e160020a6306c89221029060208084019190811015612d0e57600080fd5b5051600160e060020a031916145b15612e88576040517ff23a6e6100000000000000000000000000000000000000000000000000000000808252600160a060020a038a8116600484019081528a82166024850152604484018990526064840188905260a060848501908152875160a486015287519394928b169363f23a6e61938e938e938d938d938d93929160c490910190602085019080838360005b83811015612dc3578181015183820152602001612dab565b50505050905090810190601f168015612df05780820380516001836020036101000a031916815260200191505b509650505050505050602060405180830381600087803b158015612e1357600080fd5b505af1158015612e27573d6000803e3d6000fd5b505050506040513d6020811015612e3d57600080fd5b5051600160e060020a031916146128e15760405160e560020a62461bcd0281526004018080602001828103825260318152602001806133eb6031913960400191505060405180910390fd5b604080518082018252601481527f45524331313535546f6b656e526563656976657200000000000000000000000060209182015281517faabbb8ca000000000000000000000000000000000000000000000000000000008152600160a060020a03891660048201527f78eca591ab61c5e7d150a4c8756b2645287be0b2a3dc046cb359858001cc658760248201529151600092731820a4b7618bde71dce8cdc73aab6c95905fad249263aabbb8ca92604480840193829003018186803b158015612f5157600080fd5b505afa158015612f65573d6000803e3d6000fd5b505050506040513d6020811015612f7b57600080fd5b50519050600160a060020a03811615612bce576040517ff23a6e6100000000000000000000000000000000000000000000000000000000808252600160a060020a038b8116600484019081528b82166024850152604484018a90526064840189905260a060848501908152885160a4860152885193949286169363f23a6e61938f938f938e938e938e93929160c490910190602085019080838360005b83811015613030578181015183820152602001613018565b50505050905090810190601f16801561305d5780820380516001836020036101000a031916815260200191505b509650505050505050602060405180830381600087803b15801561308057600080fd5b505af1158015613094573d6000803e3d6000fd5b505050506040513d60208110156130aa57600080fd5b5051600160e060020a03191614612bce5760405160e560020a62461bcd02815260040180806020018281038252603d81526020018061338d603d913960400191505060405180910390fd5b6000903b1190565b828054828255906000526020600020908101928215613138579160200282015b8281111561313857825182559160200191906001019061311d565b50613144929150613148565b5090565b61316291905b80821115613144576000815560010161314e565b9056fe726573756c7420666f7220636f6e646974696f6e206e6f7420726563656976656420796574455243313135353a2062616c616e636520717565727920666f7220746865207a65726f2061646472657373636f756c64206e6f74207472616e73666572207061796f757420746f206d6573736167652073656e646572455243313135353a207461726765742061646472657373206d757374206265206e6f6e2d7a65726f455243313135353a20676f7420756e6b6e6f776e2076616c75652066726f6d20696d706c656d656e746564206f6e4552433131353542617463685265636569766564455243313135353a20676f7420756e6b6e6f776e2076616c75652066726f6d206f6e4552433131353542617463685265636569766564636f756c64206e6f74207265636569766520636f6c6c61746572616c20746f6b656e73455243313135353a20736f6d65206164647265737320696e2062617463682062616c616e6365207175657279206973207a65726f536166654d6174683a206d756c7469706c69636174696f6e206f766572666c6f77455243313135353a206f776e65727320616e6420494473206d75737420686176652073616d65206c656e67746873455243313135353a2049447320616e642076616c756573206d75737420686176652073616d65206c656e67746873455243313135353a206e656564206f70657261746f7220617070726f76616c20666f7220337264207061727479207472616e73666572732e455243313135353a20676f7420756e6b6e6f776e2076616c75652066726f6d20696d706c656d656e746564206f6e455243313135355265636569766564455243313135353a206d696e7420746f20746865207a65726f2061646472657373455243313135353a20676f7420756e6b6e6f776e2076616c75652066726f6d206f6e455243313135355265636569766564a165627a7a72305820179aa295ffccd96c2439e5b46441cb2534ea800a34c0d7f63fae5f813f6914cd0029",
    "sourcePath": "c:/Users/franc/Desktop/ReMuS/example_content/contracts/ConditionalCoupon.sol",
    "compiler": {
        "name": "solc",
        "version": "0.5.2+commit.1df8f40c"
    },
    "functionHashes": {
        "balanceOf(address,uint256)": "00fdd58e",
        "balanceOfBatch(address[],uint256[])": "4e1273f4",
        "getOutcomeSlotCount(bytes32)": "d42dc0c2",
        "isApprovedForAll(address,address)": "e985e9c5",
        "mergePositions(address,bytes32,bytes32,uint256[],uint256)": "9e7212ad",
        "payoutDenominator(bytes32)": "dd34de67",
        "payoutNumerators(bytes32,uint256)": "0504c814",
        "prepareCondition(address,bytes32,uint256)": "d96ee754",
        "receiveResult(bytes32,bytes)": "5dd80855",
        "redeemPositions(address,bytes32,bytes32,uint256[])": "01b7037c",
        "safeBatchTransferFrom(address,address,uint256[],uint256[],bytes)": "2eb2c2d6",
        "safeTransferFrom(address,address,uint256,uint256,bytes)": "f242432a",
        "setApprovalForAll(address,bool)": "a22cb465",
        "splitPosition(address,bytes32,bytes32,uint256[],uint256)": "72ce4275",
        "supportsInterface(bytes4)": "01ffc9a7"
    },
    "gasEstimates": {
        "creation": {
            "codeDepositCost": "2676600",
            "executionCost": "infinite",
            "totalCost": "infinite"
        },
        "external": {
            "balanceOf(address,uint256)": "infinite",
            "balanceOfBatch(address[],uint256[])": "infinite",
            "getOutcomeSlotCount(bytes32)": "600",
            "isApprovedForAll(address,address)": "847",
            "mergePositions(address,bytes32,bytes32,uint256[],uint256)": "infinite",
            "payoutDenominator(bytes32)": "555",
            "payoutNumerators(bytes32,uint256)": "847",
            "prepareCondition(address,bytes32,uint256)": "infinite",
            "receiveResult(bytes32,bytes)": "infinite",
            "redeemPositions(address,bytes32,bytes32,uint256[])": "infinite",
            "safeBatchTransferFrom(address,address,uint256[],uint256[],bytes)": "infinite",
            "safeTransferFrom(address,address,uint256,uint256,bytes)": "infinite",
            "setApprovalForAll(address,bool)": "22643",
            "splitPosition(address,bytes32,bytes32,uint256[],uint256)": "infinite",
            "supportsInterface(bytes4)": "750"
        }
    }
}