{
    "contractName": "Coupon",
    "abi": [
        {
            "constant": true,
            "inputs": [],
            "name": "name",
            "outputs": [
                {
                    "name": "",
                    "type": "string"
                }
            ],
            "payable": false,
            "stateMutability": "view",
            "type": "function"
        },
        {
            "constant": false,
            "inputs": [
                {
                    "name": "spender",
                    "type": "address"
                },
                {
                    "name": "value",
                    "type": "uint256"
                }
            ],
            "name": "approve",
            "outputs": [
                {
                    "name": "",
                    "type": "bool"
                }
            ],
            "payable": false,
            "stateMutability": "nonpayable",
            "type": "function"
        },
        {
            "constant": true,
            "inputs": [],
            "name": "totalSupply",
            "outputs": [
                {
                    "name": "",
                    "type": "uint256"
                }
            ],
            "payable": false,
            "stateMutability": "view",
            "type": "function"
        },
        {
            "constant": false,
            "inputs": [
                {
                    "name": "sender",
                    "type": "address"
                },
                {
                    "name": "recipient",
                    "type": "address"
                },
                {
                    "name": "amount",
                    "type": "uint256"
                }
            ],
            "name": "transferFrom",
            "outputs": [
                {
                    "name": "",
                    "type": "bool"
                }
            ],
            "payable": false,
            "stateMutability": "nonpayable",
            "type": "function"
        },
        {
            "constant": true,
            "inputs": [],
            "name": "decimals",
            "outputs": [
                {
                    "name": "",
                    "type": "uint8"
                }
            ],
            "payable": false,
            "stateMutability": "view",
            "type": "function"
        },
        {
            "constant": false,
            "inputs": [
                {
                    "name": "spender",
                    "type": "address"
                },
                {
                    "name": "addedValue",
                    "type": "uint256"
                }
            ],
            "name": "increaseAllowance",
            "outputs": [
                {
                    "name": "",
                    "type": "bool"
                }
            ],
            "payable": false,
            "stateMutability": "nonpayable",
            "type": "function"
        },
        {
            "constant": false,
            "inputs": [
                {
                    "name": "account",
                    "type": "address"
                },
                {
                    "name": "amount",
                    "type": "uint256"
                }
            ],
            "name": "mint",
            "outputs": [
                {
                    "name": "",
                    "type": "bool"
                }
            ],
            "payable": false,
            "stateMutability": "nonpayable",
            "type": "function"
        },
        {
            "constant": false,
            "inputs": [
                {
                    "name": "amount",
                    "type": "uint256"
                }
            ],
            "name": "burn",
            "outputs": [],
            "payable": false,
            "stateMutability": "nonpayable",
            "type": "function"
        },
        {
            "constant": true,
            "inputs": [],
            "name": "version",
            "outputs": [
                {
                    "name": "",
                    "type": "string"
                }
            ],
            "payable": false,
            "stateMutability": "view",
            "type": "function"
        },
        {
            "constant": true,
            "inputs": [
                {
                    "name": "account",
                    "type": "address"
                }
            ],
            "name": "balanceOf",
            "outputs": [
                {
                    "name": "",
                    "type": "uint256"
                }
            ],
            "payable": false,
            "stateMutability": "view",
            "type": "function"
        },
        {
            "constant": false,
            "inputs": [],
            "name": "renounceOwnership",
            "outputs": [],
            "payable": false,
            "stateMutability": "nonpayable",
            "type": "function"
        },
        {
            "constant": false,
            "inputs": [
                {
                    "name": "account",
                    "type": "address"
                },
                {
                    "name": "amount",
                    "type": "uint256"
                }
            ],
            "name": "burnFrom",
            "outputs": [],
            "payable": false,
            "stateMutability": "nonpayable",
            "type": "function"
        },
        {
            "constant": true,
            "inputs": [],
            "name": "owner",
            "outputs": [
                {
                    "name": "",
                    "type": "address"
                }
            ],
            "payable": false,
            "stateMutability": "view",
            "type": "function"
        },
        {
            "constant": true,
            "inputs": [],
            "name": "isOwner",
            "outputs": [
                {
                    "name": "",
                    "type": "bool"
                }
            ],
            "payable": false,
            "stateMutability": "view",
            "type": "function"
        },
        {
            "constant": true,
            "inputs": [],
            "name": "nominalPrice",
            "outputs": [
                {
                    "name": "",
                    "type": "uint256"
                }
            ],
            "payable": false,
            "stateMutability": "view",
            "type": "function"
        },
        {
            "constant": true,
            "inputs": [],
            "name": "symbol",
            "outputs": [
                {
                    "name": "",
                    "type": "string"
                }
            ],
            "payable": false,
            "stateMutability": "view",
            "type": "function"
        },
        {
            "constant": false,
            "inputs": [
                {
                    "name": "account",
                    "type": "address"
                }
            ],
            "name": "addMinter",
            "outputs": [],
            "payable": false,
            "stateMutability": "nonpayable",
            "type": "function"
        },
        {
            "constant": false,
            "inputs": [],
            "name": "renounceMinter",
            "outputs": [],
            "payable": false,
            "stateMutability": "nonpayable",
            "type": "function"
        },
        {
            "constant": false,
            "inputs": [
                {
                    "name": "spender",
                    "type": "address"
                },
                {
                    "name": "subtractedValue",
                    "type": "uint256"
                }
            ],
            "name": "decreaseAllowance",
            "outputs": [
                {
                    "name": "",
                    "type": "bool"
                }
            ],
            "payable": false,
            "stateMutability": "nonpayable",
            "type": "function"
        },
        {
            "constant": false,
            "inputs": [
                {
                    "name": "recipient",
                    "type": "address"
                },
                {
                    "name": "amount",
                    "type": "uint256"
                }
            ],
            "name": "transfer",
            "outputs": [
                {
                    "name": "",
                    "type": "bool"
                }
            ],
            "payable": false,
            "stateMutability": "nonpayable",
            "type": "function"
        },
        {
            "constant": true,
            "inputs": [
                {
                    "name": "account",
                    "type": "address"
                }
            ],
            "name": "isMinter",
            "outputs": [
                {
                    "name": "",
                    "type": "bool"
                }
            ],
            "payable": false,
            "stateMutability": "view",
            "type": "function"
        },
        {
            "constant": true,
            "inputs": [
                {
                    "name": "owner",
                    "type": "address"
                },
                {
                    "name": "spender",
                    "type": "address"
                }
            ],
            "name": "allowance",
            "outputs": [
                {
                    "name": "",
                    "type": "uint256"
                }
            ],
            "payable": false,
            "stateMutability": "view",
            "type": "function"
        },
        {
            "constant": false,
            "inputs": [
                {
                    "name": "newOwner",
                    "type": "address"
                }
            ],
            "name": "transferOwnership",
            "outputs": [],
            "payable": false,
            "stateMutability": "nonpayable",
            "type": "function"
        },
        {
            "inputs": [
                {
                    "name": "_price",
                    "type": "uint256"
                }
            ],
            "payable": false,
            "stateMutability": "nonpayable",
            "type": "constructor"
        },
        {
            "anonymous": false,
            "inputs": [
                {
                    "indexed": true,
                    "name": "previousOwner",
                    "type": "address"
                },
                {
                    "indexed": true,
                    "name": "newOwner",
                    "type": "address"
                }
            ],
            "name": "OwnershipTransferred",
            "type": "event"
        },
        {
            "anonymous": false,
            "inputs": [
                {
                    "indexed": true,
                    "name": "account",
                    "type": "address"
                }
            ],
            "name": "MinterAdded",
            "type": "event"
        },
        {
            "anonymous": false,
            "inputs": [
                {
                    "indexed": true,
                    "name": "account",
                    "type": "address"
                }
            ],
            "name": "MinterRemoved",
            "type": "event"
        },
        {
            "anonymous": false,
            "inputs": [
                {
                    "indexed": true,
                    "name": "from",
                    "type": "address"
                },
                {
                    "indexed": true,
                    "name": "to",
                    "type": "address"
                },
                {
                    "indexed": false,
                    "name": "value",
                    "type": "uint256"
                }
            ],
            "name": "Transfer",
            "type": "event"
        },
        {
            "anonymous": false,
            "inputs": [
                {
                    "indexed": true,
                    "name": "owner",
                    "type": "address"
                },
                {
                    "indexed": true,
                    "name": "spender",
                    "type": "address"
                },
                {
                    "indexed": false,
                    "name": "value",
                    "type": "uint256"
                }
            ],
            "name": "Approval",
            "type": "event"
        }
    ],
    "bytecode": "60c0604052600c60808190527f416c69636520436f75706f6e000000000000000000000000000000000000000060a0908152620000409160059190620002f4565b506006805460ff191660021790556040805180820190915260038082527f414c43000000000000000000000000000000000000000000000000000000000060209092019182526200009491600791620002f4565b506040805180820190915260078082527f414c4320312e30000000000000000000000000000000000000000000000000006020909201918252620000db91600891620002f4565b50348015620000e957600080fd5b506040516020806200165e833981018060405260208110156200010b57600080fd5b5051620001213364010000000062000176810204565b60048054600160a060020a031916331790819055604051600160a060020a0391909116906000907f8be0079c531659141344cd1fd0a4f28419497f9722a3daafe3b4186f6b6457e0908290a360095562000399565b620001916003826401000000006200102f620001c882021704565b604051600160a060020a038216907f6ae172837ea30b801fbfcdd4108aa1d5bf8ff775444fd70256b44e6bf3dfc3f690600090a250565b620001dd82826401000000006200026f810204565b156200024a57604080517f08c379a000000000000000000000000000000000000000000000000000000000815260206004820152601f60248201527f526f6c65733a206163636f756e7420616c72656164792068617320726f6c6500604482015290519081900360640190fd5b600160a060020a0316600090815260209190915260409020805460ff19166001179055565b6000600160a060020a0382161515620002d4576040517f08c379a00000000000000000000000000000000000000000000000000000000081526004018080602001828103825260228152602001806200163c6022913960400191505060405180910390fd5b50600160a060020a03166000908152602091909152604090205460ff1690565b828054600181600116156101000203166002900490600052602060002090601f016020900481019282601f106200033757805160ff191683800117855562000367565b8280016001018555821562000367579182015b82811115620003675782518255916020019190600101906200034a565b506200037592915062000379565b5090565b6200039691905b8082111562000375576000815560010162000380565b90565b61129380620003a96000396000f3fe608060405234801561001057600080fd5b506004361061016a576000357c01000000000000000000000000000000000000000000000000000000009004806379cc6790116100e0578063986502751161009957806398650275146103d5578063a457c2d7146103dd578063a9059cbb14610409578063aa271e1a14610435578063dd62ed3e1461045b578063f2fde38b146104895761016a565b806379cc6790146103475780638da5cb5b146103735780638f32d59b146103975780639131fde21461039f57806395d89b41146103a7578063983b2d56146103af5761016a565b80633950935111610132578063395093511461029a57806340c10f19146102c657806342966c68146102f257806354fd4d501461031157806370a0823114610319578063715018a61461033f5761016a565b806306fdde031461016f578063095ea7b3146101ec57806318160ddd1461022c57806323b872dd14610246578063313ce5671461027c575b600080fd5b6101776104af565b6040805160208082528351818301528351919283929083019185019080838360005b838110156101b1578181015183820152602001610199565b50505050905090810190601f1680156101de5780820380516001836020036101000a031916815260200191505b509250505060405180910390f35b6102186004803603604081101561020257600080fd5b50600160a060020a03813516906020013561053d565b604080519115158252519081900360200190f35b610234610553565b60408051918252519081900360200190f35b6102186004803603606081101561025c57600080fd5b50600160a060020a03813581169160208101359091169060400135610559565b6102846105b0565b6040805160ff9092168252519081900360200190f35b610218600480360360408110156102b057600080fd5b50600160a060020a0381351690602001356105b9565b610218600480360360408110156102dc57600080fd5b50600160a060020a0381351690602001356105f5565b61030f6004803603602081101561030857600080fd5b503561064a565b005b610177610657565b6102346004803603602081101561032f57600080fd5b5035600160a060020a03166106b2565b61030f6106cd565b61030f6004803603604081101561035d57600080fd5b50600160a060020a038135169060200135610782565b61037b610790565b60408051600160a060020a039092168252519081900360200190f35b61021861079f565b6102346107b0565b6101776107b6565b61030f600480360360208110156103c557600080fd5b5035600160a060020a0316610811565b61030f610863565b610218600480360360408110156103f357600080fd5b50600160a060020a03813516906020013561086e565b6102186004803603604081101561041f57600080fd5b50600160a060020a0381351690602001356108aa565b6102186004803603602081101561044b57600080fd5b5035600160a060020a03166108b7565b6102346004803603604081101561047157600080fd5b50600160a060020a03813581169160200135166108d0565b61030f6004803603602081101561049f57600080fd5b5035600160a060020a03166108fb565b6005805460408051602060026001851615610100026000190190941693909304601f810184900484028201840190925281815292918301828280156105355780601f1061050a57610100808354040283529160200191610535565b820191906000526020600020905b81548152906001019060200180831161051857829003601f168201915b505050505081565b600061054a338484610962565b50600192915050565b60025490565b6000610566848484610a58565b600160a060020a0384166000908152600160209081526040808320338085529252909120546105a69186916105a1908663ffffffff610ba416565b610962565b5060019392505050565b60065460ff1681565b336000818152600160209081526040808320600160a060020a0387168452909152812054909161054a9185906105a1908663ffffffff610c0416565b6000610600336108b7565b15156106405760405160e560020a62461bcd02815260040180806020018281038252603081526020018061118b6030913960400191505060405180910390fd5b61054a8383610c68565b6106543382610d5d565b50565b6008805460408051602060026001851615610100026000190190941693909304601f810184900484028201840190925281815292918301828280156105355780601f1061050a57610100808354040283529160200191610535565b600160a060020a031660009081526020819052604090205490565b6106d561079f565b151561072b576040805160e560020a62461bcd02815260206004820181905260248201527f4f776e61626c653a2063616c6c6572206973206e6f7420746865206f776e6572604482015290519081900360640190fd5b600454604051600091600160a060020a0316907f8be0079c531659141344cd1fd0a4f28419497f9722a3daafe3b4186f6b6457e0908390a36004805473ffffffffffffffffffffffffffffffffffffffff19169055565b61078c8282610e3b565b5050565b600454600160a060020a031690565b600454600160a060020a0316331490565b60095481565b6007805460408051602060026001851615610100026000190190941693909304601f810184900484028201840190925281815292918301828280156105355780601f1061050a57610100808354040283529160200191610535565b61081a336108b7565b151561085a5760405160e560020a62461bcd02815260040180806020018281038252603081526020018061118b6030913960400191505060405180910390fd5b61065481610e80565b61086c33610ec8565b565b336000818152600160209081526040808320600160a060020a0387168452909152812054909161054a9185906105a1908663ffffffff610ba416565b600061054a338484610a58565b60006108ca60038363ffffffff610f1016565b92915050565b600160a060020a03918216600090815260016020908152604080832093909416825291909152205490565b61090361079f565b1515610959576040805160e560020a62461bcd02815260206004820181905260248201527f4f776e61626c653a2063616c6c6572206973206e6f7420746865206f776e6572604482015290519081900360640190fd5b61065481610f7c565b600160a060020a03831615156109ac5760405160e560020a62461bcd0281526004018080602001828103825260248152602001806112446024913960400191505060405180910390fd5b600160a060020a03821615156109f65760405160e560020a62461bcd0281526004018080602001828103825260228152602001806111696022913960400191505060405180910390fd5b600160a060020a03808416600081815260016020908152604080832094871680845294825291829020859055815185815291517f8c5be1e5ebec7d5bd14f71427d1e84f3dd0314c0f7b2291e5b200ac8c7c3b9259281900390910190a3505050565b600160a060020a0383161515610aa25760405160e560020a62461bcd02815260040180806020018281038252602581526020018061121f6025913960400191505060405180910390fd5b600160a060020a0382161515610aec5760405160e560020a62461bcd0281526004018080602001828103825260238152602001806111206023913960400191505060405180910390fd5b600160a060020a038316600090815260208190526040902054610b15908263ffffffff610ba416565b600160a060020a038085166000908152602081905260408082209390935590841681522054610b4a908263ffffffff610c0416565b600160a060020a038084166000818152602081815260409182902094909455805185815290519193928716927fddf252ad1be2c89b69c2b068fc378daa952ba7f163c4a11628f55a4df523b3ef92918290030190a3505050565b600082821115610bfe576040805160e560020a62461bcd02815260206004820152601e60248201527f536166654d6174683a207375627472616374696f6e206f766572666c6f770000604482015290519081900360640190fd5b50900390565b600082820183811015610c61576040805160e560020a62461bcd02815260206004820152601b60248201527f536166654d6174683a206164646974696f6e206f766572666c6f770000000000604482015290519081900360640190fd5b9392505050565b600160a060020a0382161515610cc8576040805160e560020a62461bcd02815260206004820152601f60248201527f45524332303a206d696e7420746f20746865207a65726f206164647265737300604482015290519081900360640190fd5b600254610cdb908263ffffffff610c0416565b600255600160a060020a038216600090815260208190526040902054610d07908263ffffffff610c0416565b600160a060020a0383166000818152602081815260408083209490945583518581529351929391927fddf252ad1be2c89b69c2b068fc378daa952ba7f163c4a11628f55a4df523b3ef9281900390910190a35050565b600160a060020a0382161515610da75760405160e560020a62461bcd0281526004018080602001828103825260218152602001806111fe6021913960400191505060405180910390fd5b600254610dba908263ffffffff610ba416565b600255600160a060020a038216600090815260208190526040902054610de6908263ffffffff610ba416565b600160a060020a038316600081815260208181526040808320949094558351858152935191937fddf252ad1be2c89b69c2b068fc378daa952ba7f163c4a11628f55a4df523b3ef929081900390910190a35050565b610e458282610d5d565b600160a060020a03821660009081526001602090815260408083203380855292529091205461078c9184916105a1908563ffffffff610ba416565b610e9160038263ffffffff61102f16565b604051600160a060020a038216907f6ae172837ea30b801fbfcdd4108aa1d5bf8ff775444fd70256b44e6bf3dfc3f690600090a250565b610ed960038263ffffffff6110b316565b604051600160a060020a038216907fe94479a9f7e1952cc78f2d6baab678adc1b772d936c6583def489e524cb6669290600090a250565b6000600160a060020a0382161515610f5c5760405160e560020a62461bcd0281526004018080602001828103825260228152602001806111dc6022913960400191505060405180910390fd5b50600160a060020a03166000908152602091909152604090205460ff1690565b600160a060020a0381161515610fc65760405160e560020a62461bcd0281526004018080602001828103825260268152602001806111436026913960400191505060405180910390fd5b600454604051600160a060020a038084169216907f8be0079c531659141344cd1fd0a4f28419497f9722a3daafe3b4186f6b6457e090600090a36004805473ffffffffffffffffffffffffffffffffffffffff1916600160a060020a0392909216919091179055565b6110398282610f10565b1561108e576040805160e560020a62461bcd02815260206004820152601f60248201527f526f6c65733a206163636f756e7420616c72656164792068617320726f6c6500604482015290519081900360640190fd5b600160a060020a0316600090815260209190915260409020805460ff19166001179055565b6110bd8282610f10565b15156110fd5760405160e560020a62461bcd0281526004018080602001828103825260218152602001806111bb6021913960400191505060405180910390fd5b600160a060020a0316600090815260209190915260409020805460ff1916905556fe45524332303a207472616e7366657220746f20746865207a65726f20616464726573734f776e61626c653a206e6577206f776e657220697320746865207a65726f206164647265737345524332303a20617070726f766520746f20746865207a65726f20616464726573734d696e746572526f6c653a2063616c6c657220646f6573206e6f74206861766520746865204d696e74657220726f6c65526f6c65733a206163636f756e7420646f6573206e6f74206861766520726f6c65526f6c65733a206163636f756e7420697320746865207a65726f206164647265737345524332303a206275726e2066726f6d20746865207a65726f206164647265737345524332303a207472616e736665722066726f6d20746865207a65726f206164647265737345524332303a20617070726f76652066726f6d20746865207a65726f2061646472657373a165627a7a7230582072d43f05f03d03b36a060e9488a200f9f362c002844694d1f8b0d065d2ab49a00029526f6c65733a206163636f756e7420697320746865207a65726f2061646472657373",
    "sourcePath": "c:/Users/franc/Desktop/ReMuS/example_content/contracts/Coupon.sol",
    "compiler": {
        "name": "solc",
        "version": "0.5.2+commit.1df8f40c"
    },
    "functionHashes": {
        "addMinter(address)": "983b2d56",
        "allowance(address,address)": "dd62ed3e",
        "approve(address,uint256)": "095ea7b3",
        "balanceOf(address)": "70a08231",
        "burn(uint256)": "42966c68",
        "burnFrom(address,uint256)": "79cc6790",
        "decimals()": "313ce567",
        "decreaseAllowance(address,uint256)": "a457c2d7",
        "increaseAllowance(address,uint256)": "39509351",
        "isMinter(address)": "aa271e1a",
        "isOwner()": "8f32d59b",
        "mint(address,uint256)": "40c10f19",
        "name()": "06fdde03",
        "nominalPrice()": "9131fde2",
        "owner()": "8da5cb5b",
        "renounceMinter()": "98650275",
        "renounceOwnership()": "715018a6",
        "symbol()": "95d89b41",
        "totalSupply()": "18160ddd",
        "transfer(address,uint256)": "a9059cbb",
        "transferFrom(address,address,uint256)": "23b872dd",
        "transferOwnership(address)": "f2fde38b",
        "version()": "54fd4d50"
    },
    "gasEstimates": {
        "creation": {
            "codeDepositCost": "951000",
            "executionCost": "infinite",
            "totalCost": "infinite"
        },
        "external": {
            "addMinter(address)": "infinite",
            "allowance(address,address)": "879",
            "approve(address,uint256)": "infinite",
            "balanceOf(address)": "775",
            "burn(uint256)": "infinite",
            "burnFrom(address,uint256)": "infinite",
            "decimals()": "530",
            "decreaseAllowance(address,uint256)": "infinite",
            "increaseAllowance(address,uint256)": "infinite",
            "isMinter(address)": "infinite",
            "isOwner()": "556",
            "mint(address,uint256)": "infinite",
            "name()": "infinite",
            "nominalPrice()": "492",
            "owner()": "601",
            "renounceMinter()": "infinite",
            "renounceOwnership()": "22635",
            "symbol()": "infinite",
            "totalSupply()": "471",
            "transfer(address,uint256)": "infinite",
            "transferFrom(address,address,uint256)": "infinite",
            "transferOwnership(address)": "infinite",
            "version()": "infinite"
        }
    }
}