{
    "contractName": "CuratedTransfers",
    "abi": [
        {
            "constant": false,
            "inputs": [
                {
                    "name": "_transferId",
                    "type": "uint256"
                }
            ],
            "name": "confirmTransfer",
            "outputs": [],
            "payable": false,
            "stateMutability": "nonpayable",
            "type": "function"
        },
        {
            "constant": false,
            "inputs": [
                {
                    "name": "token",
                    "type": "address"
                },
                {
                    "name": "to",
                    "type": "address"
                },
                {
                    "name": "value",
                    "type": "uint256"
                }
            ],
            "name": "proposeTransfer",
            "outputs": [
                {
                    "name": "",
                    "type": "uint256"
                }
            ],
            "payable": false,
            "stateMutability": "nonpayable",
            "type": "function"
        },
        {
            "constant": false,
            "inputs": [
                {
                    "name": "_transferId",
                    "type": "uint256"
                }
            ],
            "name": "resumeTransfer",
            "outputs": [],
            "payable": false,
            "stateMutability": "nonpayable",
            "type": "function"
        },
        {
            "constant": false,
            "inputs": [
                {
                    "name": "_transferId",
                    "type": "uint256"
                }
            ],
            "name": "blockTransfer",
            "outputs": [],
            "payable": false,
            "stateMutability": "nonpayable",
            "type": "function"
        },
        {
            "constant": true,
            "inputs": [],
            "name": "curator",
            "outputs": [
                {
                    "name": "",
                    "type": "address"
                }
            ],
            "payable": false,
            "stateMutability": "view",
            "type": "function"
        },
        {
            "inputs": [
                {
                    "name": "_curator",
                    "type": "address"
                },
                {
                    "name": "_proposers",
                    "type": "address[]"
                },
                {
                    "name": "_validators",
                    "type": "address[]"
                }
            ],
            "payable": false,
            "stateMutability": "nonpayable",
            "type": "constructor"
        },
        {
            "anonymous": false,
            "inputs": [
                {
                    "indexed": true,
                    "name": "id",
                    "type": "uint256"
                },
                {
                    "indexed": true,
                    "name": "token",
                    "type": "address"
                },
                {
                    "indexed": true,
                    "name": "to",
                    "type": "address"
                },
                {
                    "indexed": false,
                    "name": "value",
                    "type": "uint256"
                }
            ],
            "name": "TransferProposed",
            "type": "event"
        },
        {
            "anonymous": false,
            "inputs": [
                {
                    "indexed": true,
                    "name": "id",
                    "type": "uint256"
                },
                {
                    "indexed": true,
                    "name": "token",
                    "type": "address"
                },
                {
                    "indexed": true,
                    "name": "to",
                    "type": "address"
                },
                {
                    "indexed": false,
                    "name": "value",
                    "type": "uint256"
                }
            ],
            "name": "TransferConfirmed",
            "type": "event"
        }
    ],
    "bytecode": "6080604052600160035534801561001557600080fd5b5060405161065f38038061065f8339810180604052606081101561003857600080fd5b81516020830180519193928301929164010000000081111561005957600080fd5b8201602081018481111561006c57600080fd5b815185602082028301116401000000008211171561008957600080fd5b505092919060200180516401000000008111156100a557600080fd5b820160208101848111156100b857600080fd5b81518560208202830111640100000000821117156100d557600080fd5b5050929190505050818160008251111561014f576000805460ff191660011781555b825181101561014d576001806000858481518110151561011357fe5b602090810291909101810151600160a060020a03168252810191909152604001600020805460ff19169115159190911790556001016100f7565b505b6000815111156101c2576000805461ff0019166101001781555b81518110156101c057600160026000848481518110151561018657fe5b602090810291909101810151600160a060020a03168252810191909152604001600020805460ff1916911515919091179055600101610169565b505b505060068054600160a060020a03909416600160a060020a0319909416939093179092555050610468806101f76000396000f3fe608060405234801561001057600080fd5b5060043610610073577c010000000000000000000000000000000000000000000000000000000060003504632c48e7db811461007857806364a8a0a014610097578063996d310d146100df578063c0a39fb0146100fc578063e66f53b714610119575b600080fd5b6100956004803603602081101561008e57600080fd5b503561013d565b005b6100cd600480360360608110156100ad57600080fd5b50600160a060020a03813581169160208101359091169060400135610196565b60408051918252519081900360200190f35b610095600480360360208110156100f557600080fd5b5035610289565b6100956004803603602081101561011257600080fd5b50356102b8565b6101216102ea565b60408051600160a060020a039092168252519081900360200190f35b600054610100900460ff16158061016357503360009081526002602052604090205460ff165b151561016e57600080fd5b60008181526005602052604090205460ff161561018a57600080fd5b610193816102f9565b50565b6000805460ff1615806101b857503360009081526001602052604090205460ff165b15156101c357600080fd5b60038054600180820190925560408051606081018252600160a060020a0380891680835288821660208085018281528587018b81526000898152600484528890209651875490871673ffffffffffffffffffffffffffffffffffffffff19918216178855915199870180549a9096169990911698909817909355955160029093019290925582518781529251939493919285927f38ad22e5704952fc5eaf855fe6a8193abeeae5963626b72a552fe2584d053e4e929181900390910190a4949350505050565b600654600160a060020a031633146102a057600080fd5b6000908152600560205260409020805460ff19169055565b600654600160a060020a031633146102cf57600080fd5b6000908152600560205260409020805460ff19166001179055565b600654600160a060020a031681565b600054610100900460ff16158061031f57503360009081526002602052604090205460ff165b151561032a57600080fd5b600081815260046020818152604080842080546001820154600283015484517fa9059cbb000000000000000000000000000000000000000000000000000000008152600160a060020a039283169781019790975260248701529251919592169363a9059cbb936044808301949193928390030190829087803b1580156103af57600080fd5b505af11580156103c3573d6000803e3d6000fd5b505050506040513d60208110156103d957600080fd5b505115156103e657600080fd5b6001810154815460028301546040805191825251600160a060020a0393841693929092169185917fba8f27a7f85d193b2e0c15d54a1e1d5254b3c86afe31ab91987d39cff6df258c919081900360200190a4505056fea165627a7a72305820d4726a5720b154e66cd3916769eac17f2a56f44167ca9b9be7266d571329d36b0029",
    "sourcePath": "c:/Users/franc/Desktop/ReMuS/example_content/contracts/CuratedTransfers.sol",
    "compiler": {
        "name": "solc",
        "version": "0.5.2+commit.1df8f40c"
    },
    "functionHashes": {
        "blockTransfer(uint256)": "c0a39fb0",
        "confirmTransfer(uint256)": "2c48e7db",
        "curator()": "e66f53b7",
        "proposeTransfer(address,address,uint256)": "64a8a0a0",
        "resumeTransfer(uint256)": "996d310d"
    },
    "gasEstimates": {
        "creation": {
            "codeDepositCost": "225600",
            "executionCost": "infinite",
            "totalCost": "infinite"
        },
        "external": {
            "blockTransfer(uint256)": "20819",
            "confirmTransfer(uint256)": "infinite",
            "curator()": "619",
            "proposeTransfer(address,address,uint256)": "84091",
            "resumeTransfer(uint256)": "20791"
        }
    }
}