{
    "contractName": "DemoToken",
    "abi": [
        {
            "constant": true,
            "inputs": [],
            "name": "name",
            "outputs": [
                {
                    "name": "",
                    "type": "string"
                }
            ],
            "payable": false,
            "stateMutability": "view",
            "type": "function"
        },
        {
            "constant": false,
            "inputs": [
                {
                    "name": "spender",
                    "type": "address"
                },
                {
                    "name": "value",
                    "type": "uint256"
                }
            ],
            "name": "approve",
            "outputs": [
                {
                    "name": "",
                    "type": "bool"
                }
            ],
            "payable": false,
            "stateMutability": "nonpayable",
            "type": "function"
        },
        {
            "constant": true,
            "inputs": [],
            "name": "totalSupply",
            "outputs": [
                {
                    "name": "",
                    "type": "uint256"
                }
            ],
            "payable": false,
            "stateMutability": "view",
            "type": "function"
        },
        {
            "constant": false,
            "inputs": [
                {
                    "name": "sender",
                    "type": "address"
                },
                {
                    "name": "recipient",
                    "type": "address"
                },
                {
                    "name": "amount",
                    "type": "uint256"
                }
            ],
            "name": "transferFrom",
            "outputs": [
                {
                    "name": "",
                    "type": "bool"
                }
            ],
            "payable": false,
            "stateMutability": "nonpayable",
            "type": "function"
        },
        {
            "constant": true,
            "inputs": [],
            "name": "decimals",
            "outputs": [
                {
                    "name": "",
                    "type": "uint8"
                }
            ],
            "payable": false,
            "stateMutability": "view",
            "type": "function"
        },
        {
            "constant": false,
            "inputs": [
                {
                    "name": "spender",
                    "type": "address"
                },
                {
                    "name": "addedValue",
                    "type": "uint256"
                }
            ],
            "name": "increaseAllowance",
            "outputs": [
                {
                    "name": "",
                    "type": "bool"
                }
            ],
            "payable": false,
            "stateMutability": "nonpayable",
            "type": "function"
        },
        {
            "constant": true,
            "inputs": [],
            "name": "version",
            "outputs": [
                {
                    "name": "",
                    "type": "string"
                }
            ],
            "payable": false,
            "stateMutability": "view",
            "type": "function"
        },
        {
            "constant": true,
            "inputs": [
                {
                    "name": "account",
                    "type": "address"
                }
            ],
            "name": "balanceOf",
            "outputs": [
                {
                    "name": "",
                    "type": "uint256"
                }
            ],
            "payable": false,
            "stateMutability": "view",
            "type": "function"
        },
        {
            "constant": true,
            "inputs": [],
            "name": "symbol",
            "outputs": [
                {
                    "name": "",
                    "type": "string"
                }
            ],
            "payable": false,
            "stateMutability": "view",
            "type": "function"
        },
        {
            "constant": false,
            "inputs": [
                {
                    "name": "amount",
                    "type": "uint256"
                }
            ],
            "name": "mint",
            "outputs": [
                {
                    "name": "",
                    "type": "bool"
                }
            ],
            "payable": false,
            "stateMutability": "nonpayable",
            "type": "function"
        },
        {
            "constant": false,
            "inputs": [
                {
                    "name": "spender",
                    "type": "address"
                },
                {
                    "name": "subtractedValue",
                    "type": "uint256"
                }
            ],
            "name": "decreaseAllowance",
            "outputs": [
                {
                    "name": "",
                    "type": "bool"
                }
            ],
            "payable": false,
            "stateMutability": "nonpayable",
            "type": "function"
        },
        {
            "constant": false,
            "inputs": [
                {
                    "name": "recipient",
                    "type": "address"
                },
                {
                    "name": "amount",
                    "type": "uint256"
                }
            ],
            "name": "transfer",
            "outputs": [
                {
                    "name": "",
                    "type": "bool"
                }
            ],
            "payable": false,
            "stateMutability": "nonpayable",
            "type": "function"
        },
        {
            "constant": true,
            "inputs": [
                {
                    "name": "owner",
                    "type": "address"
                },
                {
                    "name": "spender",
                    "type": "address"
                }
            ],
            "name": "allowance",
            "outputs": [
                {
                    "name": "",
                    "type": "uint256"
                }
            ],
            "payable": false,
            "stateMutability": "view",
            "type": "function"
        },
        {
            "anonymous": false,
            "inputs": [
                {
                    "indexed": true,
                    "name": "from",
                    "type": "address"
                },
                {
                    "indexed": true,
                    "name": "to",
                    "type": "address"
                },
                {
                    "indexed": false,
                    "name": "value",
                    "type": "uint256"
                }
            ],
            "name": "Transfer",
            "type": "event"
        },
        {
            "anonymous": false,
            "inputs": [
                {
                    "indexed": true,
                    "name": "owner",
                    "type": "address"
                },
                {
                    "indexed": true,
                    "name": "spender",
                    "type": "address"
                },
                {
                    "indexed": false,
                    "name": "value",
                    "type": "uint256"
                }
            ],
            "name": "Approval",
            "type": "event"
        }
    ],
    "bytecode": "60c0604052600a60808190527f44656d6f20546f6b656e0000000000000000000000000000000000000000000060a090815261003e91600391906100e8565b506004805460ff191660121790556040805180820190915260038082527f444d4f00000000000000000000000000000000000000000000000000000000006020909201918252610090916005916100e8565b506040805180820190915260078082527f444d4f20312e300000000000000000000000000000000000000000000000000060209092019182526100d5916006916100e8565b503480156100e257600080fd5b50610183565b828054600181600116156101000203166002900490600052602060002090601f016020900481019282601f1061012957805160ff1916838001178555610156565b82800160010185558215610156579182015b8281111561015657825182559160200191906001019061013b565b50610162929150610166565b5090565b61018091905b80821115610162576000815560010161016c565b90565b610a75806101926000396000f3fe608060405234801561001057600080fd5b50600436106100ec576000357c01000000000000000000000000000000000000000000000000000000009004806354fd4d50116100a9578063a0712d6811610083578063a0712d681461027e578063a457c2d71461029b578063a9059cbb146102c7578063dd62ed3e146102f3576100ec565b806354fd4d501461024857806370a082311461025057806395d89b4114610276576100ec565b806306fdde03146100f1578063095ea7b31461016e57806318160ddd146101ae57806323b872dd146101c8578063313ce567146101fe578063395093511461021c575b600080fd5b6100f9610321565b6040805160208082528351818301528351919283929083019185019080838360005b8381101561013357818101518382015260200161011b565b50505050905090810190601f1680156101605780820380516001836020036101000a031916815260200191505b509250505060405180910390f35b61019a6004803603604081101561018457600080fd5b50600160a060020a0381351690602001356103af565b604080519115158252519081900360200190f35b6101b66103c5565b60408051918252519081900360200190f35b61019a600480360360608110156101de57600080fd5b50600160a060020a038135811691602081013590911690604001356103cb565b610206610422565b6040805160ff9092168252519081900360200190f35b61019a6004803603604081101561023257600080fd5b50600160a060020a03813516906020013561042b565b6100f9610467565b6101b66004803603602081101561026657600080fd5b5035600160a060020a03166104c2565b6100f96104dd565b61019a6004803603602081101561029457600080fd5b5035610538565b61019a600480360360408110156102b157600080fd5b50600160a060020a03813516906020013561054c565b61019a600480360360408110156102dd57600080fd5b50600160a060020a038135169060200135610588565b6101b66004803603604081101561030957600080fd5b50600160a060020a0381358116916020013516610595565b6003805460408051602060026001851615610100026000190190941693909304601f810184900484028201840190925281815292918301828280156103a75780601f1061037c576101008083540402835291602001916103a7565b820191906000526020600020905b81548152906001019060200180831161038a57829003601f168201915b505050505081565b60006103bc3384846105c0565b50600192915050565b60025490565b60006103d88484846106b6565b600160a060020a038416600090815260016020908152604080832033808552925290912054610418918691610413908663ffffffff61080216565b6105c0565b5060019392505050565b60045460ff1681565b336000818152600160209081526040808320600160a060020a038716845290915281205490916103bc918590610413908663ffffffff61086216565b6006805460408051602060026001851615610100026000190190941693909304601f810184900484028201840190925281815292918301828280156103a75780601f1061037c576101008083540402835291602001916103a7565b600160a060020a031660009081526020819052604090205490565b6005805460408051602060026001851615610100026000190190941693909304601f810184900484028201840190925281815292918301828280156103a75780601f1061037c576101008083540402835291602001916103a7565b600061054433836108c6565b506001919050565b336000818152600160209081526040808320600160a060020a038716845290915281205490916103bc918590610413908663ffffffff61080216565b60006103bc3384846106b6565b600160a060020a03918216600090815260016020908152604080832093909416825291909152205490565b600160a060020a038316151561060a5760405160e560020a62461bcd028152600401808060200182810382526024815260200180610a266024913960400191505060405180910390fd5b600160a060020a03821615156106545760405160e560020a62461bcd0281526004018080602001828103825260228152602001806109df6022913960400191505060405180910390fd5b600160a060020a03808416600081815260016020908152604080832094871680845294825291829020859055815185815291517f8c5be1e5ebec7d5bd14f71427d1e84f3dd0314c0f7b2291e5b200ac8c7c3b9259281900390910190a3505050565b600160a060020a03831615156107005760405160e560020a62461bcd028152600401808060200182810382526025815260200180610a016025913960400191505060405180910390fd5b600160a060020a038216151561074a5760405160e560020a62461bcd0281526004018080602001828103825260238152602001806109bc6023913960400191505060405180910390fd5b600160a060020a038316600090815260208190526040902054610773908263ffffffff61080216565b600160a060020a0380851660009081526020819052604080822093909355908416815220546107a8908263ffffffff61086216565b600160a060020a038084166000818152602081815260409182902094909455805185815290519193928716927fddf252ad1be2c89b69c2b068fc378daa952ba7f163c4a11628f55a4df523b3ef92918290030190a3505050565b60008282111561085c576040805160e560020a62461bcd02815260206004820152601e60248201527f536166654d6174683a207375627472616374696f6e206f766572666c6f770000604482015290519081900360640190fd5b50900390565b6000828201838110156108bf576040805160e560020a62461bcd02815260206004820152601b60248201527f536166654d6174683a206164646974696f6e206f766572666c6f770000000000604482015290519081900360640190fd5b9392505050565b600160a060020a0382161515610926576040805160e560020a62461bcd02815260206004820152601f60248201527f45524332303a206d696e7420746f20746865207a65726f206164647265737300604482015290519081900360640190fd5b600254610939908263ffffffff61086216565b600255600160a060020a038216600090815260208190526040902054610965908263ffffffff61086216565b600160a060020a0383166000818152602081815260408083209490945583518581529351929391927fddf252ad1be2c89b69c2b068fc378daa952ba7f163c4a11628f55a4df523b3ef9281900390910190a3505056fe45524332303a207472616e7366657220746f20746865207a65726f206164647265737345524332303a20617070726f766520746f20746865207a65726f206164647265737345524332303a207472616e736665722066726f6d20746865207a65726f206164647265737345524332303a20617070726f76652066726f6d20746865207a65726f2061646472657373a165627a7a723058203cb989a7aaec964abe096f16a5d864ee101ab9a8143ba731be42c5a2a07d05440029",
    "sourcePath": "c:/Users/franc/Desktop/ReMuS/example_content/contracts/DemoToken.sol",
    "compiler": {
        "name": "solc",
        "version": "0.5.2+commit.1df8f40c"
    },
    "functionHashes": {
        "allowance(address,address)": "dd62ed3e",
        "approve(address,uint256)": "095ea7b3",
        "balanceOf(address)": "70a08231",
        "decimals()": "313ce567",
        "decreaseAllowance(address,uint256)": "a457c2d7",
        "increaseAllowance(address,uint256)": "39509351",
        "mint(uint256)": "a0712d68",
        "name()": "06fdde03",
        "symbol()": "95d89b41",
        "totalSupply()": "18160ddd",
        "transfer(address,uint256)": "a9059cbb",
        "transferFrom(address,address,uint256)": "23b872dd",
        "version()": "54fd4d50"
    },
    "gasEstimates": {
        "creation": {
            "codeDepositCost": "535400",
            "executionCost": "infinite",
            "totalCost": "infinite"
        },
        "external": {
            "allowance(address,address)": "857",
            "approve(address,uint256)": "infinite",
            "balanceOf(address)": "709",
            "decimals()": "507",
            "decreaseAllowance(address,uint256)": "infinite",
            "increaseAllowance(address,uint256)": "infinite",
            "mint(uint256)": "infinite",
            "name()": "infinite",
            "symbol()": "infinite",
            "totalSupply()": "448",
            "transfer(address,uint256)": "infinite",
            "transferFrom(address,address,uint256)": "infinite",
            "version()": "infinite"
        }
    }
}