{
    "contractName": "DemoInvestmentWallet",
    "abi": [
        {
            "constant": false,
            "inputs": [
                {
                    "name": "_amount",
                    "type": "uint256"
                },
                {
                    "name": "_projectName",
                    "type": "string"
                }
            ],
            "name": "invest",
            "outputs": [],
            "payable": false,
            "stateMutability": "nonpayable",
            "type": "function"
        },
        {
            "constant": false,
            "inputs": [
                {
                    "name": "_token",
                    "type": "address"
                },
                {
                    "name": "_amount",
                    "type": "uint256"
                }
            ],
            "name": "refund",
            "outputs": [],
            "payable": false,
            "stateMutability": "nonpayable",
            "type": "function"
        },
        {
            "constant": false,
            "inputs": [],
            "name": "renounceOwnership",
            "outputs": [],
            "payable": false,
            "stateMutability": "nonpayable",
            "type": "function"
        },
        {
            "constant": false,
            "inputs": [
                {
                    "name": "_amount",
                    "type": "uint256"
                },
                {
                    "name": "_projectName",
                    "type": "string"
                }
            ],
            "name": "donate",
            "outputs": [],
            "payable": false,
            "stateMutability": "nonpayable",
            "type": "function"
        },
        {
            "constant": true,
            "inputs": [],
            "name": "owner",
            "outputs": [
                {
                    "name": "",
                    "type": "address"
                }
            ],
            "payable": false,
            "stateMutability": "view",
            "type": "function"
        },
        {
            "constant": true,
            "inputs": [],
            "name": "isOwner",
            "outputs": [
                {
                    "name": "",
                    "type": "bool"
                }
            ],
            "payable": false,
            "stateMutability": "view",
            "type": "function"
        },
        {
            "constant": false,
            "inputs": [
                {
                    "name": "_token",
                    "type": "address"
                },
                {
                    "name": "_amount",
                    "type": "uint256"
                }
            ],
            "name": "requestTokens",
            "outputs": [],
            "payable": false,
            "stateMutability": "nonpayable",
            "type": "function"
        },
        {
            "constant": false,
            "inputs": [
                {
                    "name": "_amount",
                    "type": "uint256"
                },
                {
                    "name": "_projectName",
                    "type": "string"
                }
            ],
            "name": "redeemCoupons",
            "outputs": [],
            "payable": false,
            "stateMutability": "nonpayable",
            "type": "function"
        },
        {
            "constant": true,
            "inputs": [
                {
                    "name": "_token",
                    "type": "address"
                }
            ],
            "name": "balance",
            "outputs": [
                {
                    "name": "",
                    "type": "uint256"
                }
            ],
            "payable": false,
            "stateMutability": "view",
            "type": "function"
        },
        {
            "constant": false,
            "inputs": [
                {
                    "name": "newOwner",
                    "type": "address"
                }
            ],
            "name": "transferOwnership",
            "outputs": [],
            "payable": false,
            "stateMutability": "nonpayable",
            "type": "function"
        },
        {
            "inputs": [
                {
                    "name": "_projectCatalog",
                    "type": "address"
                }
            ],
            "payable": false,
            "stateMutability": "nonpayable",
            "type": "constructor"
        },
        {
            "anonymous": false,
            "inputs": [
                {
                    "indexed": true,
                    "name": "owner",
                    "type": "address"
                }
            ],
            "name": "WalletCreated",
            "type": "event"
        },
        {
            "anonymous": false,
            "inputs": [
                {
                    "indexed": true,
                    "name": "previousOwner",
                    "type": "address"
                },
                {
                    "indexed": true,
                    "name": "newOwner",
                    "type": "address"
                }
            ],
            "name": "OwnershipTransferred",
            "type": "event"
        }
    ],
    "bytecode": "608060405234801561001057600080fd5b506040516020806111ba8339810180604052602081101561003057600080fd5b505160008054600160a060020a031916331780825560405183928392600160a060020a0316917f8be0079c531659141344cd1fd0a4f28419497f9722a3daafe3b4186f6b6457e0908290a360018054600160a060020a031916600160a060020a039290921691909117905560405133907f234cf33b32239d80b54161e2396c80cdeaf4d34161300e54d8bc01eb7c0ea55390600090a250506110e3806100d76000396000f3fe608060405234801561001057600080fd5b50600436106100a25760003560e060020a900480638f32d59b1161006a5780638f32d59b1461025b578063af42156414610277578063b916c5ff146102a3578063e3d670d714610350578063f2fde38b14610388576100a2565b80631a5eba21146100a7578063410085df14610156578063715018a6146101825780638d59d1f11461018a5780638da5cb5b14610237575b600080fd5b610154600480360360408110156100bd57600080fd5b813591908101906040810160208201356401000000008111156100df57600080fd5b8201836020820111156100f157600080fd5b8035906020019184600183028401116401000000008311171561011357600080fd5b91908080601f0160208091040260200160405190810160405280939291908181526020018383808284376000920191909152509295506103ae945050505050565b005b6101546004803603604081101561016c57600080fd5b50600160a060020a038135169060200135610682565b610154610768565b610154600480360360408110156101a057600080fd5b813591908101906040810160208201356401000000008111156101c257600080fd5b8201836020820111156101d457600080fd5b803590602001918460018302840111640100000000831117156101f657600080fd5b91908080601f01602080910402602001604051908101604052809392919081815260200183838082843760009201919091525092955061080b945050505050565b61023f610ac1565b60408051600160a060020a039092168252519081900360200190f35b610263610ad0565b604080519115158252519081900360200190f35b6101546004803603604081101561028d57600080fd5b50600160a060020a038135169060200135610ae1565b610154600480360360408110156102b957600080fd5b813591908101906040810160208201356401000000008111156102db57600080fd5b8201836020820111156102ed57600080fd5b8035906020019184600183028401116401000000008311171561030f57600080fd5b91908080601f016020809104026020016040519081016040528093929190818152602001838380828437600092019190915250929550610b76945050505050565b6103766004803603602081101561036657600080fd5b5035600160a060020a0316610ed2565b60408051918252519081900360200190f35b6101546004803603602081101561039e57600080fd5b5035600160a060020a0316610f67565b6103b6610ad0565b15156103fa576040805160e560020a62461bcd0281526020600482018190526024820152600080516020611098833981519152604482015290519081900360640190fd5b6001546040517fe750b5c0000000000000000000000000000000000000000000000000000000008152602060048201818152845160248401528451600094600160a060020a03169363e750b5c0938793928392604401918501908083838b5b83811015610471578181015183820152602001610459565b50505050905090810190601f16801561049e5780820380516001836020036101000a031916815260200191505b509250505060206040518083038186803b1580156104bb57600080fd5b505afa1580156104cf573d6000803e3d6000fd5b505050506040513d60208110156104e557600080fd5b50519050600160a060020a03811615156104fe57600080fd5b600081600160a060020a03166321df0da76040518163ffffffff1660e060020a02815260040160206040518083038186803b15801561053c57600080fd5b505afa158015610550573d6000803e3d6000fd5b505050506040513d602081101561056657600080fd5b5051604080517f095ea7b3000000000000000000000000000000000000000000000000000000008152600160a060020a0385811660048301526024820188905291519293509083169163095ea7b3916044808201926020929091908290030181600087803b1580156105d757600080fd5b505af11580156105eb573d6000803e3d6000fd5b505050506040513d602081101561060157600080fd5b5050604080517ff747b744000000000000000000000000000000000000000000000000000000008152600481018690529051600160a060020a0384169163f747b74491602480830192600092919082900301818387803b15801561066457600080fd5b505af1158015610678573d6000803e3d6000fd5b5050505050505050565b61068a610ad0565b15156106ce576040805160e560020a62461bcd0281526020600482018190526024820152600080516020611098833981519152604482015290519081900360640190fd5b81600160a060020a031663a9059cbb6106e5610ac1565b836040518363ffffffff1660e060020a0281526004018083600160a060020a0316600160a060020a0316815260200182815260200192505050602060405180830381600087803b15801561073857600080fd5b505af115801561074c573d6000803e3d6000fd5b505050506040513d602081101561076257600080fd5b50505050565b610770610ad0565b15156107b4576040805160e560020a62461bcd0281526020600482018190526024820152600080516020611098833981519152604482015290519081900360640190fd5b60008054604051600160a060020a03909116907f8be0079c531659141344cd1fd0a4f28419497f9722a3daafe3b4186f6b6457e0908390a36000805473ffffffffffffffffffffffffffffffffffffffff19169055565b610813610ad0565b1515610857576040805160e560020a62461bcd0281526020600482018190526024820152600080516020611098833981519152604482015290519081900360640190fd5b6001546040517fe750b5c0000000000000000000000000000000000000000000000000000000008152602060048201818152845160248401528451600094600160a060020a03169363e750b5c0938793928392604401918501908083838b5b838110156108ce5781810151838201526020016108b6565b50505050905090810190601f1680156108fb5780820380516001836020036101000a031916815260200191505b509250505060206040518083038186803b15801561091857600080fd5b505afa15801561092c573d6000803e3d6000fd5b505050506040513d602081101561094257600080fd5b50519050600160a060020a038116151561095b57600080fd5b600081600160a060020a03166321df0da76040518163ffffffff1660e060020a02815260040160206040518083038186803b15801561099957600080fd5b505afa1580156109ad573d6000803e3d6000fd5b505050506040513d60208110156109c357600080fd5b5051604080517f095ea7b3000000000000000000000000000000000000000000000000000000008152600160a060020a0385811660048301526024820188905291519293509083169163095ea7b3916044808201926020929091908290030181600087803b158015610a3457600080fd5b505af1158015610a48573d6000803e3d6000fd5b505050506040513d6020811015610a5e57600080fd5b5050604080517fa94385a0000000000000000000000000000000000000000000000000000000008152600481018690529051600160a060020a0384169163a94385a091602480830192600092919082900301818387803b15801561066457600080fd5b600054600160a060020a031690565b600054600160a060020a0316331490565b610ae9610ad0565b1515610b2d576040805160e560020a62461bcd0281526020600482018190526024820152600080516020611098833981519152604482015290519081900360640190fd5b81600160a060020a031663a0712d68826040518263ffffffff1660e060020a02815260040180828152602001915050602060405180830381600087803b15801561073857600080fd5b610b7e610ad0565b1515610bc2576040805160e560020a62461bcd0281526020600482018190526024820152600080516020611098833981519152604482015290519081900360640190fd5b6001546040517fe750b5c0000000000000000000000000000000000000000000000000000000008152602060048201818152845160248401528451600094600160a060020a03169363e750b5c0938793928392604401918501908083838b5b83811015610c39578181015183820152602001610c21565b50505050905090810190601f168015610c665780820380516001836020036101000a031916815260200191505b509250505060206040518083038186803b158015610c8357600080fd5b505afa158015610c97573d6000803e3d6000fd5b505050506040513d6020811015610cad57600080fd5b50519050600160a060020a0381161515610cc657600080fd5b6000819050600081600160a060020a03166307634cbe6040518163ffffffff1660e060020a02815260040160206040518083038186803b158015610d0957600080fd5b505afa158015610d1d573d6000803e3d6000fd5b505050506040513d6020811015610d3357600080fd5b5051604080517f70a0823100000000000000000000000000000000000000000000000000000000815230600482015290519192508691600160a060020a038416916370a08231916024808301926020929190829003018186803b158015610d9957600080fd5b505afa158015610dad573d6000803e3d6000fd5b505050506040513d6020811015610dc357600080fd5b50511015610dd057600080fd5b80600160a060020a031663095ea7b383876040518363ffffffff1660e060020a0281526004018083600160a060020a0316600160a060020a0316815260200182815260200192505050602060405180830381600087803b158015610e3357600080fd5b505af1158015610e47573d6000803e3d6000fd5b505050506040513d6020811015610e5d57600080fd5b50511515610e6a57600080fd5b81600160a060020a031663c5bd9089866040518263ffffffff1660e060020a02815260040180828152602001915050600060405180830381600087803b158015610eb357600080fd5b505af1158015610ec7573d6000803e3d6000fd5b505050505050505050565b604080517f70a082310000000000000000000000000000000000000000000000000000000081523060048201529051600091600160a060020a038416916370a0823191602480820192602092909190829003018186803b158015610f3557600080fd5b505afa158015610f49573d6000803e3d6000fd5b505050506040513d6020811015610f5f57600080fd5b505192915050565b610f6f610ad0565b1515610fb3576040805160e560020a62461bcd0281526020600482018190526024820152600080516020611098833981519152604482015290519081900360640190fd5b610fbc81610fbf565b50565b600160a060020a03811615156110095760405160e560020a62461bcd0281526004018080602001828103825260268152602001806110726026913960400191505060405180910390fd5b60008054604051600160a060020a03808516939216917f8be0079c531659141344cd1fd0a4f28419497f9722a3daafe3b4186f6b6457e091a36000805473ffffffffffffffffffffffffffffffffffffffff1916600160a060020a039290921691909117905556fe4f776e61626c653a206e6577206f776e657220697320746865207a65726f20616464726573734f776e61626c653a2063616c6c6572206973206e6f7420746865206f776e6572a165627a7a723058207e67fb54e52a61e04c2f29e6bb5be2ca3b53087804615bb1d0fc8738614cfb200029",
    "sourcePath": "c:/Users/franc/Desktop/ReMuS/example_content/contracts/DemoInvestmentWallet.sol",
    "compiler": {
        "name": "solc",
        "version": "0.5.2+commit.1df8f40c"
    },
    "functionHashes": {
        "balance(address)": "e3d670d7",
        "donate(uint256,string)": "8d59d1f1",
        "invest(uint256,string)": "1a5eba21",
        "isOwner()": "8f32d59b",
        "owner()": "8da5cb5b",
        "redeemCoupons(uint256,string)": "b916c5ff",
        "refund(address,uint256)": "410085df",
        "renounceOwnership()": "715018a6",
        "requestTokens(address,uint256)": "af421564",
        "transferOwnership(address)": "f2fde38b"
    },
    "gasEstimates": {
        "creation": {
            "codeDepositCost": "864600",
            "executionCost": "44411",
            "totalCost": "909011"
        },
        "external": {
            "balance(address)": "infinite",
            "donate(uint256,string)": "infinite",
            "invest(uint256,string)": "infinite",
            "isOwner()": "552",
            "owner()": "708",
            "redeemCoupons(uint256,string)": "infinite",
            "refund(address,uint256)": "infinite",
            "renounceOwnership()": "infinite",
            "requestTokens(address,uint256)": "infinite",
            "transferOwnership(address)": "infinite"
        }
    }
}