{
    "contractName": "DigitalGBPToken",
    "abi": [
        {
            "constant": true,
            "inputs": [],
            "name": "name",
            "outputs": [
                {
                    "name": "",
                    "type": "string"
                }
            ],
            "payable": false,
            "stateMutability": "view",
            "type": "function"
        },
        {
            "constant": false,
            "inputs": [
                {
                    "name": "spender",
                    "type": "address"
                },
                {
                    "name": "value",
                    "type": "uint256"
                }
            ],
            "name": "approve",
            "outputs": [
                {
                    "name": "",
                    "type": "bool"
                }
            ],
            "payable": false,
            "stateMutability": "nonpayable",
            "type": "function"
        },
        {
            "constant": true,
            "inputs": [],
            "name": "totalSupply",
            "outputs": [
                {
                    "name": "",
                    "type": "uint256"
                }
            ],
            "payable": false,
            "stateMutability": "view",
            "type": "function"
        },
        {
            "constant": false,
            "inputs": [
                {
                    "name": "sender",
                    "type": "address"
                },
                {
                    "name": "recipient",
                    "type": "address"
                },
                {
                    "name": "amount",
                    "type": "uint256"
                }
            ],
            "name": "transferFrom",
            "outputs": [
                {
                    "name": "",
                    "type": "bool"
                }
            ],
            "payable": false,
            "stateMutability": "nonpayable",
            "type": "function"
        },
        {
            "constant": true,
            "inputs": [],
            "name": "decimals",
            "outputs": [
                {
                    "name": "",
                    "type": "uint8"
                }
            ],
            "payable": false,
            "stateMutability": "view",
            "type": "function"
        },
        {
            "constant": false,
            "inputs": [
                {
                    "name": "spender",
                    "type": "address"
                },
                {
                    "name": "addedValue",
                    "type": "uint256"
                }
            ],
            "name": "increaseAllowance",
            "outputs": [
                {
                    "name": "",
                    "type": "bool"
                }
            ],
            "payable": false,
            "stateMutability": "nonpayable",
            "type": "function"
        },
        {
            "constant": false,
            "inputs": [
                {
                    "name": "account",
                    "type": "address"
                },
                {
                    "name": "amount",
                    "type": "uint256"
                }
            ],
            "name": "mint",
            "outputs": [
                {
                    "name": "",
                    "type": "bool"
                }
            ],
            "payable": false,
            "stateMutability": "nonpayable",
            "type": "function"
        },
        {
            "constant": false,
            "inputs": [
                {
                    "name": "amount",
                    "type": "uint256"
                }
            ],
            "name": "burn",
            "outputs": [],
            "payable": false,
            "stateMutability": "nonpayable",
            "type": "function"
        },
        {
            "constant": true,
            "inputs": [],
            "name": "version",
            "outputs": [
                {
                    "name": "",
                    "type": "string"
                }
            ],
            "payable": false,
            "stateMutability": "view",
            "type": "function"
        },
        {
            "constant": true,
            "inputs": [
                {
                    "name": "account",
                    "type": "address"
                }
            ],
            "name": "balanceOf",
            "outputs": [
                {
                    "name": "",
                    "type": "uint256"
                }
            ],
            "payable": false,
            "stateMutability": "view",
            "type": "function"
        },
        {
            "constant": false,
            "inputs": [
                {
                    "name": "account",
                    "type": "address"
                },
                {
                    "name": "amount",
                    "type": "uint256"
                }
            ],
            "name": "burnFrom",
            "outputs": [],
            "payable": false,
            "stateMutability": "nonpayable",
            "type": "function"
        },
        {
            "constant": true,
            "inputs": [],
            "name": "symbol",
            "outputs": [
                {
                    "name": "",
                    "type": "string"
                }
            ],
            "payable": false,
            "stateMutability": "view",
            "type": "function"
        },
        {
            "constant": false,
            "inputs": [
                {
                    "name": "account",
                    "type": "address"
                }
            ],
            "name": "addMinter",
            "outputs": [],
            "payable": false,
            "stateMutability": "nonpayable",
            "type": "function"
        },
        {
            "constant": false,
            "inputs": [],
            "name": "renounceMinter",
            "outputs": [],
            "payable": false,
            "stateMutability": "nonpayable",
            "type": "function"
        },
        {
            "constant": false,
            "inputs": [
                {
                    "name": "spender",
                    "type": "address"
                },
                {
                    "name": "subtractedValue",
                    "type": "uint256"
                }
            ],
            "name": "decreaseAllowance",
            "outputs": [
                {
                    "name": "",
                    "type": "bool"
                }
            ],
            "payable": false,
            "stateMutability": "nonpayable",
            "type": "function"
        },
        {
            "constant": false,
            "inputs": [
                {
                    "name": "recipient",
                    "type": "address"
                },
                {
                    "name": "amount",
                    "type": "uint256"
                }
            ],
            "name": "transfer",
            "outputs": [
                {
                    "name": "",
                    "type": "bool"
                }
            ],
            "payable": false,
            "stateMutability": "nonpayable",
            "type": "function"
        },
        {
            "constant": true,
            "inputs": [
                {
                    "name": "account",
                    "type": "address"
                }
            ],
            "name": "isMinter",
            "outputs": [
                {
                    "name": "",
                    "type": "bool"
                }
            ],
            "payable": false,
            "stateMutability": "view",
            "type": "function"
        },
        {
            "constant": true,
            "inputs": [
                {
                    "name": "owner",
                    "type": "address"
                },
                {
                    "name": "spender",
                    "type": "address"
                }
            ],
            "name": "allowance",
            "outputs": [
                {
                    "name": "",
                    "type": "uint256"
                }
            ],
            "payable": false,
            "stateMutability": "view",
            "type": "function"
        },
        {
            "anonymous": false,
            "inputs": [
                {
                    "indexed": true,
                    "name": "account",
                    "type": "address"
                }
            ],
            "name": "MinterAdded",
            "type": "event"
        },
        {
            "anonymous": false,
            "inputs": [
                {
                    "indexed": true,
                    "name": "account",
                    "type": "address"
                }
            ],
            "name": "MinterRemoved",
            "type": "event"
        },
        {
            "anonymous": false,
            "inputs": [
                {
                    "indexed": true,
                    "name": "from",
                    "type": "address"
                },
                {
                    "indexed": true,
                    "name": "to",
                    "type": "address"
                },
                {
                    "indexed": false,
                    "name": "value",
                    "type": "uint256"
                }
            ],
            "name": "Transfer",
            "type": "event"
        },
        {
            "anonymous": false,
            "inputs": [
                {
                    "indexed": true,
                    "name": "owner",
                    "type": "address"
                },
                {
                    "indexed": true,
                    "name": "spender",
                    "type": "address"
                },
                {
                    "indexed": false,
                    "name": "value",
                    "type": "uint256"
                }
            ],
            "name": "Approval",
            "type": "event"
        }
    ],
    "bytecode": "60c0604052600f60808190527f4469676974616c474250546f6b656e000000000000000000000000000000000060a090815262000040916004919062000274565b506005805460ff191660021790556040805180820190915260048082527f44474250000000000000000000000000000000000000000000000000000000006020909201918252620000949160069162000274565b506040805180820190915260088082527f4447425020312e300000000000000000000000000000000000000000000000006020909201918252620000db9160079162000274565b50620000f033640100000000620000f6810204565b62000319565b6200011160038264010000000062000da16200014882021704565b604051600160a060020a038216907f6ae172837ea30b801fbfcdd4108aa1d5bf8ff775444fd70256b44e6bf3dfc3f690600090a250565b6200015d8282640100000000620001ef810204565b15620001ca57604080517f08c379a000000000000000000000000000000000000000000000000000000000815260206004820152601f60248201527f526f6c65733a206163636f756e7420616c72656164792068617320726f6c6500604482015290519081900360640190fd5b600160a060020a0316600090815260209190915260409020805460ff19166001179055565b6000600160a060020a038216151562000254576040517f08c379a0000000000000000000000000000000000000000000000000000000008152600401808060200182810382526022815260200180620013086022913960400191505060405180910390fd5b50600160a060020a03166000908152602091909152604090205460ff1690565b828054600181600116156101000203166002900490600052602060002090601f016020900481019282601f10620002b757805160ff1916838001178555620002e7565b82800160010185558215620002e7579182015b82811115620002e7578251825591602001919060010190620002ca565b50620002f5929150620002f9565b5090565b6200031691905b80821115620002f5576000815560010162000300565b90565b610fdf80620003296000396000f3fe608060405234801561001057600080fd5b5060043610610133576000357c01000000000000000000000000000000000000000000000000000000009004806370a08231116100bf578063986502751161008e5780639865027514610362578063a457c2d71461036a578063a9059cbb14610396578063aa271e1a146103c2578063dd62ed3e146103e857610133565b806370a08231146102e257806379cc67901461030857806395d89b4114610334578063983b2d561461033c57610133565b8063313ce56711610106578063313ce56714610245578063395093511461026357806340c10f191461028f57806342966c68146102bb57806354fd4d50146102da57610133565b806306fdde0314610138578063095ea7b3146101b557806318160ddd146101f557806323b872dd1461020f575b600080fd5b610140610416565b6040805160208082528351818301528351919283929083019185019080838360005b8381101561017a578181015183820152602001610162565b50505050905090810190601f1680156101a75780820380516001836020036101000a031916815260200191505b509250505060405180910390f35b6101e1600480360360408110156101cb57600080fd5b50600160a060020a0381351690602001356104a4565b604080519115158252519081900360200190f35b6101fd6104ba565b60408051918252519081900360200190f35b6101e16004803603606081101561022557600080fd5b50600160a060020a038135811691602081013590911690604001356104c0565b61024d610517565b6040805160ff9092168252519081900360200190f35b6101e16004803603604081101561027957600080fd5b50600160a060020a038135169060200135610520565b6101e1600480360360408110156102a557600080fd5b50600160a060020a03813516906020013561055c565b6102d8600480360360208110156102d157600080fd5b50356105b1565b005b6101406105be565b6101fd600480360360208110156102f857600080fd5b5035600160a060020a0316610619565b6102d86004803603604081101561031e57600080fd5b50600160a060020a038135169060200135610634565b610140610642565b6102d86004803603602081101561035257600080fd5b5035600160a060020a031661069d565b6102d86106ef565b6101e16004803603604081101561038057600080fd5b50600160a060020a0381351690602001356106fa565b6101e1600480360360408110156103ac57600080fd5b50600160a060020a038135169060200135610736565b6101e1600480360360208110156103d857600080fd5b5035600160a060020a0316610743565b6101fd600480360360408110156103fe57600080fd5b50600160a060020a038135811691602001351661075c565b6004805460408051602060026001851615610100026000190190941693909304601f8101849004840282018401909252818152929183018282801561049c5780601f106104715761010080835404028352916020019161049c565b820191906000526020600020905b81548152906001019060200180831161047f57829003601f168201915b505050505081565b60006104b1338484610787565b50600192915050565b60025490565b60006104cd84848461087d565b600160a060020a03841660009081526001602090815260408083203380855292529091205461050d918691610508908663ffffffff6109c916565b610787565b5060019392505050565b60055460ff1681565b336000818152600160209081526040808320600160a060020a038716845290915281205490916104b1918590610508908663ffffffff610a2916565b600061056733610743565b15156105a75760405160e560020a62461bcd028152600401808060200182810382526030815260200180610ed76030913960400191505060405180910390fd5b6104b18383610a8d565b6105bb3382610b82565b50565b6007805460408051602060026001851615610100026000190190941693909304601f8101849004840282018401909252818152929183018282801561049c5780601f106104715761010080835404028352916020019161049c565b600160a060020a031660009081526020819052604090205490565b61063e8282610c60565b5050565b6006805460408051602060026001851615610100026000190190941693909304601f8101849004840282018401909252818152929183018282801561049c5780601f106104715761010080835404028352916020019161049c565b6106a633610743565b15156106e65760405160e560020a62461bcd028152600401808060200182810382526030815260200180610ed76030913960400191505060405180910390fd5b6105bb81610ca5565b6106f833610ced565b565b336000818152600160209081526040808320600160a060020a038716845290915281205490916104b1918590610508908663ffffffff6109c916565b60006104b133848461087d565b600061075660038363ffffffff610d3516565b92915050565b600160a060020a03918216600090815260016020908152604080832093909416825291909152205490565b600160a060020a03831615156107d15760405160e560020a62461bcd028152600401808060200182810382526024815260200180610f906024913960400191505060405180910390fd5b600160a060020a038216151561081b5760405160e560020a62461bcd028152600401808060200182810382526022815260200180610eb56022913960400191505060405180910390fd5b600160a060020a03808416600081815260016020908152604080832094871680845294825291829020859055815185815291517f8c5be1e5ebec7d5bd14f71427d1e84f3dd0314c0f7b2291e5b200ac8c7c3b9259281900390910190a3505050565b600160a060020a03831615156108c75760405160e560020a62461bcd028152600401808060200182810382526025815260200180610f6b6025913960400191505060405180910390fd5b600160a060020a03821615156109115760405160e560020a62461bcd028152600401808060200182810382526023815260200180610e926023913960400191505060405180910390fd5b600160a060020a03831660009081526020819052604090205461093a908263ffffffff6109c916565b600160a060020a03808516600090815260208190526040808220939093559084168152205461096f908263ffffffff610a2916565b600160a060020a038084166000818152602081815260409182902094909455805185815290519193928716927fddf252ad1be2c89b69c2b068fc378daa952ba7f163c4a11628f55a4df523b3ef92918290030190a3505050565b600082821115610a23576040805160e560020a62461bcd02815260206004820152601e60248201527f536166654d6174683a207375627472616374696f6e206f766572666c6f770000604482015290519081900360640190fd5b50900390565b600082820183811015610a86576040805160e560020a62461bcd02815260206004820152601b60248201527f536166654d6174683a206164646974696f6e206f766572666c6f770000000000604482015290519081900360640190fd5b9392505050565b600160a060020a0382161515610aed576040805160e560020a62461bcd02815260206004820152601f60248201527f45524332303a206d696e7420746f20746865207a65726f206164647265737300604482015290519081900360640190fd5b600254610b00908263ffffffff610a2916565b600255600160a060020a038216600090815260208190526040902054610b2c908263ffffffff610a2916565b600160a060020a0383166000818152602081815260408083209490945583518581529351929391927fddf252ad1be2c89b69c2b068fc378daa952ba7f163c4a11628f55a4df523b3ef9281900390910190a35050565b600160a060020a0382161515610bcc5760405160e560020a62461bcd028152600401808060200182810382526021815260200180610f4a6021913960400191505060405180910390fd5b600254610bdf908263ffffffff6109c916565b600255600160a060020a038216600090815260208190526040902054610c0b908263ffffffff6109c916565b600160a060020a038316600081815260208181526040808320949094558351858152935191937fddf252ad1be2c89b69c2b068fc378daa952ba7f163c4a11628f55a4df523b3ef929081900390910190a35050565b610c6a8282610b82565b600160a060020a03821660009081526001602090815260408083203380855292529091205461063e918491610508908563ffffffff6109c916565b610cb660038263ffffffff610da116565b604051600160a060020a038216907f6ae172837ea30b801fbfcdd4108aa1d5bf8ff775444fd70256b44e6bf3dfc3f690600090a250565b610cfe60038263ffffffff610e2516565b604051600160a060020a038216907fe94479a9f7e1952cc78f2d6baab678adc1b772d936c6583def489e524cb6669290600090a250565b6000600160a060020a0382161515610d815760405160e560020a62461bcd028152600401808060200182810382526022815260200180610f286022913960400191505060405180910390fd5b50600160a060020a03166000908152602091909152604090205460ff1690565b610dab8282610d35565b15610e00576040805160e560020a62461bcd02815260206004820152601f60248201527f526f6c65733a206163636f756e7420616c72656164792068617320726f6c6500604482015290519081900360640190fd5b600160a060020a0316600090815260209190915260409020805460ff19166001179055565b610e2f8282610d35565b1515610e6f5760405160e560020a62461bcd028152600401808060200182810382526021815260200180610f076021913960400191505060405180910390fd5b600160a060020a0316600090815260209190915260409020805460ff1916905556fe45524332303a207472616e7366657220746f20746865207a65726f206164647265737345524332303a20617070726f766520746f20746865207a65726f20616464726573734d696e746572526f6c653a2063616c6c657220646f6573206e6f74206861766520746865204d696e74657220726f6c65526f6c65733a206163636f756e7420646f6573206e6f74206861766520726f6c65526f6c65733a206163636f756e7420697320746865207a65726f206164647265737345524332303a206275726e2066726f6d20746865207a65726f206164647265737345524332303a207472616e736665722066726f6d20746865207a65726f206164647265737345524332303a20617070726f76652066726f6d20746865207a65726f2061646472657373a165627a7a7230582064ae54bda8c3d9b677d1a543a0d273038b7212864aae1c174a0c58e450d8f9a40029526f6c65733a206163636f756e7420697320746865207a65726f2061646472657373",
    "sourcePath": "c:/Users/franc/Desktop/ReMuS/example_content/contracts/DigitalGBPToken.sol",
    "compiler": {
        "name": "solc",
        "version": "0.5.2+commit.1df8f40c"
    },
    "functionHashes": {
        "addMinter(address)": "983b2d56",
        "allowance(address,address)": "dd62ed3e",
        "approve(address,uint256)": "095ea7b3",
        "balanceOf(address)": "70a08231",
        "burn(uint256)": "42966c68",
        "burnFrom(address,uint256)": "79cc6790",
        "decimals()": "313ce567",
        "decreaseAllowance(address,uint256)": "a457c2d7",
        "increaseAllowance(address,uint256)": "39509351",
        "isMinter(address)": "aa271e1a",
        "mint(address,uint256)": "40c10f19",
        "name()": "06fdde03",
        "renounceMinter()": "98650275",
        "symbol()": "95d89b41",
        "totalSupply()": "18160ddd",
        "transfer(address,uint256)": "a9059cbb",
        "transferFrom(address,address,uint256)": "23b872dd",
        "version()": "54fd4d50"
    },
    "gasEstimates": {
        "creation": {
            "codeDepositCost": "812600",
            "executionCost": "infinite",
            "totalCost": "infinite"
        },
        "external": {
            "addMinter(address)": "infinite",
            "allowance(address,address)": "879",
            "approve(address,uint256)": "infinite",
            "balanceOf(address)": "687",
            "burn(uint256)": "infinite",
            "burnFrom(address,uint256)": "infinite",
            "decimals()": "441",
            "decreaseAllowance(address,uint256)": "infinite",
            "increaseAllowance(address,uint256)": "infinite",
            "isMinter(address)": "infinite",
            "mint(address,uint256)": "infinite",
            "name()": "infinite",
            "renounceMinter()": "infinite",
            "symbol()": "infinite",
            "totalSupply()": "471",
            "transfer(address,uint256)": "infinite",
            "transferFrom(address,address,uint256)": "infinite",
            "version()": "infinite"
        }
    }
}