{
    "contractName": "DonationWallet",
    "abi": [
        {
            "constant": false,
            "inputs": [
                {
                    "name": "_token",
                    "type": "address"
                },
                {
                    "name": "_amount",
                    "type": "uint256"
                }
            ],
            "name": "refund",
            "outputs": [],
            "payable": false,
            "stateMutability": "nonpayable",
            "type": "function"
        },
        {
            "constant": false,
            "inputs": [],
            "name": "renounceOwnership",
            "outputs": [],
            "payable": false,
            "stateMutability": "nonpayable",
            "type": "function"
        },
        {
            "constant": false,
            "inputs": [
                {
                    "name": "_amount",
                    "type": "uint256"
                },
                {
                    "name": "_projectName",
                    "type": "string"
                }
            ],
            "name": "donate",
            "outputs": [],
            "payable": false,
            "stateMutability": "nonpayable",
            "type": "function"
        },
        {
            "constant": true,
            "inputs": [],
            "name": "owner",
            "outputs": [
                {
                    "name": "",
                    "type": "address"
                }
            ],
            "payable": false,
            "stateMutability": "view",
            "type": "function"
        },
        {
            "constant": true,
            "inputs": [],
            "name": "isOwner",
            "outputs": [
                {
                    "name": "",
                    "type": "bool"
                }
            ],
            "payable": false,
            "stateMutability": "view",
            "type": "function"
        },
        {
            "constant": true,
            "inputs": [
                {
                    "name": "_token",
                    "type": "address"
                }
            ],
            "name": "balance",
            "outputs": [
                {
                    "name": "",
                    "type": "uint256"
                }
            ],
            "payable": false,
            "stateMutability": "view",
            "type": "function"
        },
        {
            "constant": false,
            "inputs": [
                {
                    "name": "newOwner",
                    "type": "address"
                }
            ],
            "name": "transferOwnership",
            "outputs": [],
            "payable": false,
            "stateMutability": "nonpayable",
            "type": "function"
        },
        {
            "inputs": [
                {
                    "name": "_projectCatalog",
                    "type": "address"
                }
            ],
            "payable": false,
            "stateMutability": "nonpayable",
            "type": "constructor"
        },
        {
            "anonymous": false,
            "inputs": [
                {
                    "indexed": true,
                    "name": "previousOwner",
                    "type": "address"
                },
                {
                    "indexed": true,
                    "name": "newOwner",
                    "type": "address"
                }
            ],
            "name": "OwnershipTransferred",
            "type": "event"
        }
    ],
    "bytecode": "608060405234801561001057600080fd5b5060405160208061093f8339810180604052602081101561003057600080fd5b505160008054600160a060020a0319163317808255604051600160a060020a039190911691907f8be0079c531659141344cd1fd0a4f28419497f9722a3daafe3b4186f6b6457e0908290a360018054600160a060020a031916600160a060020a0392909216919091179055610895806100aa6000396000f3fe608060405234801561001057600080fd5b50600436106100815760003560e060020a900480638da5cb5b1161005f5780638da5cb5b146101695780638f32d59b1461018d578063e3d670d7146101a9578063f2fde38b146101e157610081565b8063410085df14610086578063715018a6146100b45780638d59d1f1146100bc575b600080fd5b6100b26004803603604081101561009c57600080fd5b50600160a060020a038135169060200135610207565b005b6100b26102ed565b6100b2600480360360408110156100d257600080fd5b813591908101906040810160208201356401000000008111156100f457600080fd5b82018360208201111561010657600080fd5b8035906020019184600183028401116401000000008311171561012857600080fd5b91908080601f016020809104026020016040519081016040528093929190818152602001838380828437600092019190915250929550610390945050505050565b610171610664565b60408051600160a060020a039092168252519081900360200190f35b610195610673565b604080519115158252519081900360200190f35b6101cf600480360360208110156101bf57600080fd5b5035600160a060020a0316610684565b60408051918252519081900360200190f35b6100b2600480360360208110156101f757600080fd5b5035600160a060020a0316610719565b61020f610673565b1515610253576040805160e560020a62461bcd028152602060048201819052602482015260008051602061084a833981519152604482015290519081900360640190fd5b81600160a060020a031663a9059cbb61026a610664565b836040518363ffffffff1660e060020a0281526004018083600160a060020a0316600160a060020a0316815260200182815260200192505050602060405180830381600087803b1580156102bd57600080fd5b505af11580156102d1573d6000803e3d6000fd5b505050506040513d60208110156102e757600080fd5b50505050565b6102f5610673565b1515610339576040805160e560020a62461bcd028152602060048201819052602482015260008051602061084a833981519152604482015290519081900360640190fd5b60008054604051600160a060020a03909116907f8be0079c531659141344cd1fd0a4f28419497f9722a3daafe3b4186f6b6457e0908390a36000805473ffffffffffffffffffffffffffffffffffffffff19169055565b610398610673565b15156103dc576040805160e560020a62461bcd028152602060048201819052602482015260008051602061084a833981519152604482015290519081900360640190fd5b6001546040517fe750b5c0000000000000000000000000000000000000000000000000000000008152602060048201818152845160248401528451600094600160a060020a03169363e750b5c0938793928392604401918501908083838b5b8381101561045357818101518382015260200161043b565b50505050905090810190601f1680156104805780820380516001836020036101000a031916815260200191505b509250505060206040518083038186803b15801561049d57600080fd5b505afa1580156104b1573d6000803e3d6000fd5b505050506040513d60208110156104c757600080fd5b50519050600160a060020a03811615156104e057600080fd5b600081600160a060020a03166321df0da76040518163ffffffff1660e060020a02815260040160206040518083038186803b15801561051e57600080fd5b505afa158015610532573d6000803e3d6000fd5b505050506040513d602081101561054857600080fd5b5051604080517f095ea7b3000000000000000000000000000000000000000000000000000000008152600160a060020a0385811660048301526024820188905291519293509083169163095ea7b3916044808201926020929091908290030181600087803b1580156105b957600080fd5b505af11580156105cd573d6000803e3d6000fd5b505050506040513d60208110156105e357600080fd5b5050604080517fa94385a0000000000000000000000000000000000000000000000000000000008152600481018690529051600160a060020a0384169163a94385a091602480830192600092919082900301818387803b15801561064657600080fd5b505af115801561065a573d6000803e3d6000fd5b5050505050505050565b600054600160a060020a031690565b600054600160a060020a0316331490565b604080517f70a082310000000000000000000000000000000000000000000000000000000081523060048201529051600091600160a060020a038416916370a0823191602480820192602092909190829003018186803b1580156106e757600080fd5b505afa1580156106fb573d6000803e3d6000fd5b505050506040513d602081101561071157600080fd5b505192915050565b610721610673565b1515610765576040805160e560020a62461bcd028152602060048201819052602482015260008051602061084a833981519152604482015290519081900360640190fd5b61076e81610771565b50565b600160a060020a03811615156107bb5760405160e560020a62461bcd0281526004018080602001828103825260268152602001806108246026913960400191505060405180910390fd5b60008054604051600160a060020a03808516939216917f8be0079c531659141344cd1fd0a4f28419497f9722a3daafe3b4186f6b6457e091a36000805473ffffffffffffffffffffffffffffffffffffffff1916600160a060020a039290921691909117905556fe4f776e61626c653a206e6577206f776e657220697320746865207a65726f20616464726573734f776e61626c653a2063616c6c6572206973206e6f7420746865206f776e6572a165627a7a72305820e6c04e83861fbe7afbeee641b59963f8d9612e5ef2034165287c7b505e4efc7b0029",
    "sourcePath": "c:/Users/franc/Desktop/ReMuS/example_content/contracts/DonationWallet.sol",
    "compiler": {
        "name": "solc",
        "version": "0.5.2+commit.1df8f40c"
    },
    "functionHashes": {
        "balance(address)": "e3d670d7",
        "donate(uint256,string)": "8d59d1f1",
        "isOwner()": "8f32d59b",
        "owner()": "8da5cb5b",
        "refund(address,uint256)": "410085df",
        "renounceOwnership()": "715018a6",
        "transferOwnership(address)": "f2fde38b"
    },
    "gasEstimates": {
        "creation": {
            "codeDepositCost": "439400",
            "executionCost": "42830",
            "totalCost": "482230"
        },
        "external": {
            "balance(address)": "infinite",
            "donate(uint256,string)": "infinite",
            "isOwner()": "574",
            "owner()": "619",
            "refund(address,uint256)": "infinite",
            "renounceOwnership()": "infinite",
            "transferOwnership(address)": "infinite"
        }
    }
}