{
    "contractName": "Escapable",
    "abi": [
        {
            "constant": true,
            "inputs": [],
            "name": "escapeController",
            "outputs": [
                {
                    "name": "",
                    "type": "address"
                }
            ],
            "payable": false,
            "stateMutability": "view",
            "type": "function"
        },
        {
            "constant": false,
            "inputs": [
                {
                    "name": "_newEscapeController",
                    "type": "address"
                }
            ],
            "name": "changeEscapeController",
            "outputs": [],
            "payable": false,
            "stateMutability": "nonpayable",
            "type": "function"
        },
        {
            "constant": false,
            "inputs": [
                {
                    "name": "token",
                    "type": "address"
                }
            ],
            "name": "escape",
            "outputs": [],
            "payable": false,
            "stateMutability": "nonpayable",
            "type": "function"
        },
        {
            "constant": true,
            "inputs": [],
            "name": "escapeTarget",
            "outputs": [
                {
                    "name": "",
                    "type": "address"
                }
            ],
            "payable": false,
            "stateMutability": "view",
            "type": "function"
        },
        {
            "inputs": [
                {
                    "name": "_escapeController",
                    "type": "address"
                },
                {
                    "name": "_escapeTarget",
                    "type": "address"
                }
            ],
            "payable": false,
            "stateMutability": "nonpayable",
            "type": "constructor"
        },
        {
            "anonymous": false,
            "inputs": [
                {
                    "indexed": true,
                    "name": "destination",
                    "type": "address"
                },
                {
                    "indexed": true,
                    "name": "amount",
                    "type": "uint256"
                }
            ],
            "name": "FundsEscaped",
            "type": "event"
        }
    ],
    "bytecode": "608060405234801561001057600080fd5b506040516040806103748339810180604052604081101561003057600080fd5b50805160209091015160008054600160a060020a03938416600160a060020a031991821617909155600180549390921692169190911790556102fd806100776000396000f3fe608060405234801561001057600080fd5b5060043610610068577c0100000000000000000000000000000000000000000000000000000000600035046323201a8b811461006d578063961891d5146100915780639cb6ed7e146100b95780639ecc4dff146100df575b600080fd5b6100756100e7565b60408051600160a060020a039092168252519081900360200190f35b6100b7600480360360208110156100a757600080fd5b5035600160a060020a03166100f6565b005b6100b7600480360360208110156100cf57600080fd5b5035600160a060020a031661013c565b6100756102c2565b600054600160a060020a031681565b600054600160a060020a0316331461010d57600080fd5b6000805473ffffffffffffffffffffffffffffffffffffffff1916600160a060020a0392909216919091179055565b600054600160a060020a0316331461015357600080fd5b604080517f70a082310000000000000000000000000000000000000000000000000000000081523060048201529051600091600160a060020a038416916370a0823191602480820192602092909190829003018186803b1580156101b657600080fd5b505afa1580156101ca573d6000803e3d6000fd5b505050506040513d60208110156101e057600080fd5b5051600154604080517fa9059cbb000000000000000000000000000000000000000000000000000000008152600160a060020a0392831660048201526024810184905290519293509084169163a9059cbb916044808201926020929091908290030181600087803b15801561025457600080fd5b505af1158015610268573d6000803e3d6000fd5b505050506040513d602081101561027e57600080fd5b5051156102be576001546040518291600160a060020a0316907f29b2e01e4c5cbc139f8f4422fb8d86e4a65bac3c321735321f5867c4860b127090600090a35b5050565b600154600160a060020a03168156fea165627a7a72305820c24e7c0415d99a9ad1bd1382c9ac381d34c03256bcf91dc69ec2a68d930e62920029",
    "sourcePath": "c:/Users/franc/Desktop/ReMuS/example_content/contracts/Escapable.sol",
    "compiler": {
        "name": "solc",
        "version": "0.5.2+commit.1df8f40c"
    },
    "functionHashes": {
        "changeEscapeController(address)": "961891d5",
        "escape(address)": "9cb6ed7e",
        "escapeController()": "23201a8b",
        "escapeTarget()": "9ecc4dff"
    },
    "gasEstimates": {
        "creation": {
            "codeDepositCost": "153000",
            "executionCost": "40906",
            "totalCost": "193906"
        },
        "external": {
            "changeEscapeController(address)": "20874",
            "escape(address)": "infinite",
            "escapeController()": "531",
            "escapeTarget()": "597"
        }
    }
}