{
    "contractName": "FlexibleImpactLinker",
    "abi": [
        {
            "constant": false,
            "inputs": [
                {
                    "name": "_value",
                    "type": "uint256"
                }
            ],
            "name": "updateUnit",
            "outputs": [],
            "payable": false,
            "stateMutability": "nonpayable",
            "type": "function"
        },
        {
            "constant": false,
            "inputs": [],
            "name": "renounceOwnership",
            "outputs": [],
            "payable": false,
            "stateMutability": "nonpayable",
            "type": "function"
        },
        {
            "constant": true,
            "inputs": [],
            "name": "registry",
            "outputs": [
                {
                    "name": "",
                    "type": "address"
                }
            ],
            "payable": false,
            "stateMutability": "view",
            "type": "function"
        },
        {
            "constant": false,
            "inputs": [
                {
                    "name": "_claimId",
                    "type": "bytes32"
                }
            ],
            "name": "linkImpact",
            "outputs": [],
            "payable": false,
            "stateMutability": "nonpayable",
            "type": "function"
        },
        {
            "constant": true,
            "inputs": [],
            "name": "owner",
            "outputs": [
                {
                    "name": "",
                    "type": "address"
                }
            ],
            "payable": false,
            "stateMutability": "view",
            "type": "function"
        },
        {
            "constant": true,
            "inputs": [],
            "name": "isOwner",
            "outputs": [
                {
                    "name": "",
                    "type": "bool"
                }
            ],
            "payable": false,
            "stateMutability": "view",
            "type": "function"
        },
        {
            "constant": true,
            "inputs": [],
            "name": "unit",
            "outputs": [
                {
                    "name": "",
                    "type": "uint256"
                }
            ],
            "payable": false,
            "stateMutability": "view",
            "type": "function"
        },
        {
            "constant": false,
            "inputs": [
                {
                    "name": "newOwner",
                    "type": "address"
                }
            ],
            "name": "transferOwnership",
            "outputs": [],
            "payable": false,
            "stateMutability": "nonpayable",
            "type": "function"
        },
        {
            "inputs": [
                {
                    "name": "_impactRegistry",
                    "type": "address"
                },
                {
                    "name": "_unit",
                    "type": "uint256"
                }
            ],
            "payable": false,
            "stateMutability": "nonpayable",
            "type": "constructor"
        },
        {
            "anonymous": false,
            "inputs": [
                {
                    "indexed": true,
                    "name": "previousOwner",
                    "type": "address"
                },
                {
                    "indexed": true,
                    "name": "newOwner",
                    "type": "address"
                }
            ],
            "name": "OwnershipTransferred",
            "type": "event"
        }
    ],
    "bytecode": "608060405234801561001057600080fd5b506040516040806109758339810180604052604081101561003057600080fd5b50805160209091015160008054600160a060020a03191633178082556040518492600160a060020a039290921691907f8be0079c531659141344cd1fd0a4f28419497f9722a3daafe3b4186f6b6457e0908290a360018054600160a060020a031916600160a060020a0392909216919091179055600255506108be806100b76000396000f3fe608060405234801561001057600080fd5b50600436106100a5576000357c0100000000000000000000000000000000000000000000000000000000900480638da5cb5b116100785780638da5cb5b146101125780638f32d59b1461011a578063907af6c014610136578063f2fde38b14610150576100a5565b806340da948f146100aa578063715018a6146100c95780637b103999146100d157806386e875e3146100f5575b600080fd5b6100c7600480360360208110156100c057600080fd5b5035610176565b005b6100c76101d9565b6100d961028e565b60408051600160a060020a039092168252519081900360200190f35b6100c76004803603602081101561010b57600080fd5b503561029d565b6100d96106ca565b6101226106d9565b604080519115158252519081900360200190f35b61013e6106ea565b60408051918252519081900360200190f35b6100c76004803603602081101561016657600080fd5b5035600160a060020a03166106f0565b61017e6106d9565b15156101d4576040805160e560020a62461bcd02815260206004820181905260248201527f4f776e61626c653a2063616c6c6572206973206e6f7420746865206f776e6572604482015290519081900360640190fd5b600255565b6101e16106d9565b1515610237576040805160e560020a62461bcd02815260206004820181905260248201527f4f776e61626c653a2063616c6c6572206973206e6f7420746865206f776e6572604482015290519081900360640190fd5b60008054604051600160a060020a03909116907f8be0079c531659141344cd1fd0a4f28419497f9722a3daafe3b4186f6b6457e0908390a36000805473ffffffffffffffffffffffffffffffffffffffff19169055565b600154600160a060020a031681565b600154600160a060020a031633146102b457600080fd5b600154604080517f14d23b82000000000000000000000000000000000000000000000000000000008152600481018490529051600092600160a060020a0316916314d23b82916024808301926020929190829003018186803b15801561031957600080fd5b505afa15801561032d573d6000803e3d6000fd5b505050506040513d602081101561034357600080fd5b5051600154604080517f44d75c0b000000000000000000000000000000000000000000000000000000008152600481018690529051929350600092600160a060020a03909216916344d75c0b91602480820192602092909190829003018186803b1580156103b057600080fd5b505afa1580156103c4573d6000803e3d6000fd5b505050506040513d60208110156103da57600080fd5b5051905060006103f0838363ffffffff61075a16565b905060008111156106c45760008481526004602081815260408084205460015482517fce88b1450000000000000000000000000000000000000000000000000000000081529485018290529151909493600160a060020a039092169263ce88b1459260248082019391829003018186803b15801561046d57600080fd5b505afa158015610481573d6000803e3d6000fd5b505050506040513d602081101561049757600080fd5b5051600154604080517ff8b2cb4f000000000000000000000000000000000000000000000000000000008152600160a060020a0380851660048301529151939450600093919092169163f8b2cb4f916024808301926020929190829003018186803b15801561050557600080fd5b505afa158015610519573d6000803e3d6000fd5b505050506040513d602081101561052f57600080fd5b50519050600081106106c05780848111156105475750835b60025481111561055657506002545b600154604080517fc5592071000000000000000000000000000000000000000000000000000000008152600481018b905260248101879052604481018490529051600160a060020a039092169163c55920719160648082019260009290919082900301818387803b1580156105ca57600080fd5b505af11580156105de573d6000803e3d6000fd5b50505050808214156105f257600019909301925b600154604080517f770e31060000000000000000000000000000000000000000000000000000000081529051600092600160a060020a03169163770e3106916004808301926020929190829003018186803b15801561065057600080fd5b505afa158015610664573d6000803e3d6000fd5b505050506040513d602081101561067a57600080fd5b5051905060008111156106ad57808560010181151561069557fe5b60008b815260046020526040902091900690556106bd565b6000898152600460205260408120555b50505b5050505b50505050565b600054600160a060020a031690565b600054600160a060020a0316331490565b60025481565b6106f86106d9565b151561074e576040805160e560020a62461bcd02815260206004820181905260248201527f4f776e61626c653a2063616c6c6572206973206e6f7420746865206f776e6572604482015290519081900360640190fd5b610757816107ba565b50565b6000828211156107b4576040805160e560020a62461bcd02815260206004820152601e60248201527f536166654d6174683a207375627472616374696f6e206f766572666c6f770000604482015290519081900360640190fd5b50900390565b600160a060020a03811615156108045760405160e560020a62461bcd02815260040180806020018281038252602681526020018061086d6026913960400191505060405180910390fd5b60008054604051600160a060020a03808516939216917f8be0079c531659141344cd1fd0a4f28419497f9722a3daafe3b4186f6b6457e091a36000805473ffffffffffffffffffffffffffffffffffffffff1916600160a060020a039290921691909117905556fe4f776e61626c653a206e6577206f776e657220697320746865207a65726f2061646472657373a165627a7a72305820c284aef901392e346d5e1ac6926b50388930c2ab27b63e5743b23a9b952ff09a0029",
    "sourcePath": "c:/Users/franc/Desktop/ReMuS/example_content/contracts/FlexibleImpactLinker.sol",
    "compiler": {
        "name": "solc",
        "version": "0.5.2+commit.1df8f40c"
    },
    "functionHashes": {
        "isOwner()": "8f32d59b",
        "linkImpact(bytes32)": "86e875e3",
        "owner()": "8da5cb5b",
        "registry()": "7b103999",
        "renounceOwnership()": "715018a6",
        "transferOwnership(address)": "f2fde38b",
        "unit()": "907af6c0",
        "updateUnit(uint256)": "40da948f"
    },
    "gasEstimates": {
        "creation": {
            "codeDepositCost": "447600",
            "executionCost": "62868",
            "totalCost": "510468"
        },
        "external": {
            "isOwner()": "511",
            "linkImpact(bytes32)": "infinite",
            "owner()": "556",
            "registry()": "601",
            "renounceOwnership()": "22528",
            "transferOwnership(address)": "infinite",
            "unit()": "447",
            "updateUnit(uint256)": "20525"
        }
    }
}