{
    "contractName": "ImpactRegistry",
    "abi": [
        {
            "constant": true,
            "inputs": [],
            "name": "linker",
            "outputs": [
                {
                    "name": "",
                    "type": "address"
                }
            ],
            "payable": false,
            "stateMutability": "view",
            "type": "function"
        },
        {
            "constant": true,
            "inputs": [
                {
                    "name": "_claimId",
                    "type": "bytes32"
                }
            ],
            "name": "getImpactTotalValue",
            "outputs": [
                {
                    "name": "",
                    "type": "uint256"
                }
            ],
            "payable": false,
            "stateMutability": "view",
            "type": "function"
        },
        {
            "constant": false,
            "inputs": [
                {
                    "name": "_contractAddress",
                    "type": "address"
                }
            ],
            "name": "setMasterContract",
            "outputs": [],
            "payable": false,
            "stateMutability": "nonpayable",
            "type": "function"
        },
        {
            "constant": false,
            "inputs": [
                {
                    "name": "_from",
                    "type": "address"
                },
                {
                    "name": "_value",
                    "type": "uint256"
                }
            ],
            "name": "registerDonation",
            "outputs": [],
            "payable": false,
            "stateMutability": "nonpayable",
            "type": "function"
        },
        {
            "constant": true,
            "inputs": [
                {
                    "name": "_claimId",
                    "type": "bytes32"
                }
            ],
            "name": "getImpactLinked",
            "outputs": [
                {
                    "name": "",
                    "type": "uint256"
                }
            ],
            "payable": false,
            "stateMutability": "view",
            "type": "function"
        },
        {
            "constant": true,
            "inputs": [
                {
                    "name": "_claimId",
                    "type": "bytes32"
                }
            ],
            "name": "getImpactCount",
            "outputs": [
                {
                    "name": "",
                    "type": "uint256"
                }
            ],
            "payable": false,
            "stateMutability": "view",
            "type": "function"
        },
        {
            "constant": false,
            "inputs": [
                {
                    "name": "_claimId",
                    "type": "bytes32"
                },
                {
                    "name": "_value",
                    "type": "uint256"
                }
            ],
            "name": "registerOutcome",
            "outputs": [],
            "payable": false,
            "stateMutability": "nonpayable",
            "type": "function"
        },
        {
            "constant": true,
            "inputs": [
                {
                    "name": "_claimId",
                    "type": "bytes32"
                }
            ],
            "name": "getImpactUnmatchedValue",
            "outputs": [
                {
                    "name": "",
                    "type": "uint256"
                }
            ],
            "payable": false,
            "stateMutability": "view",
            "type": "function"
        },
        {
            "constant": false,
            "inputs": [
                {
                    "name": "_account",
                    "type": "address"
                }
            ],
            "name": "payBack",
            "outputs": [],
            "payable": false,
            "stateMutability": "nonpayable",
            "type": "function"
        },
        {
            "constant": false,
            "inputs": [],
            "name": "renounceOwnership",
            "outputs": [],
            "payable": false,
            "stateMutability": "nonpayable",
            "type": "function"
        },
        {
            "constant": true,
            "inputs": [],
            "name": "getAccountsCount",
            "outputs": [
                {
                    "name": "",
                    "type": "uint256"
                }
            ],
            "payable": false,
            "stateMutability": "view",
            "type": "function"
        },
        {
            "constant": false,
            "inputs": [
                {
                    "name": "_claimId",
                    "type": "bytes32"
                }
            ],
            "name": "linkImpact",
            "outputs": [],
            "payable": false,
            "stateMutability": "nonpayable",
            "type": "function"
        },
        {
            "constant": true,
            "inputs": [
                {
                    "name": "_claimId",
                    "type": "bytes32"
                },
                {
                    "name": "index",
                    "type": "uint256"
                }
            ],
            "name": "getImpactDonor",
            "outputs": [
                {
                    "name": "",
                    "type": "address"
                }
            ],
            "payable": false,
            "stateMutability": "view",
            "type": "function"
        },
        {
            "constant": true,
            "inputs": [],
            "name": "owner",
            "outputs": [
                {
                    "name": "",
                    "type": "address"
                }
            ],
            "payable": false,
            "stateMutability": "view",
            "type": "function"
        },
        {
            "constant": true,
            "inputs": [],
            "name": "isOwner",
            "outputs": [
                {
                    "name": "",
                    "type": "bool"
                }
            ],
            "payable": false,
            "stateMutability": "view",
            "type": "function"
        },
        {
            "constant": true,
            "inputs": [
                {
                    "name": "_claimId",
                    "type": "bytes32"
                },
                {
                    "name": "addr",
                    "type": "address"
                }
            ],
            "name": "getImpactValue",
            "outputs": [
                {
                    "name": "",
                    "type": "uint256"
                }
            ],
            "payable": false,
            "stateMutability": "view",
            "type": "function"
        },
        {
            "constant": false,
            "inputs": [
                {
                    "name": "_claimId",
                    "type": "bytes32"
                },
                {
                    "name": "_accountIndex",
                    "type": "uint256"
                },
                {
                    "name": "_linkedValue",
                    "type": "uint256"
                }
            ],
            "name": "registerImpact",
            "outputs": [],
            "payable": false,
            "stateMutability": "nonpayable",
            "type": "function"
        },
        {
            "constant": true,
            "inputs": [],
            "name": "masterContract",
            "outputs": [
                {
                    "name": "",
                    "type": "address"
                }
            ],
            "payable": false,
            "stateMutability": "view",
            "type": "function"
        },
        {
            "constant": true,
            "inputs": [
                {
                    "name": "_index",
                    "type": "uint256"
                }
            ],
            "name": "getAccount",
            "outputs": [
                {
                    "name": "",
                    "type": "address"
                }
            ],
            "payable": false,
            "stateMutability": "view",
            "type": "function"
        },
        {
            "constant": false,
            "inputs": [
                {
                    "name": "_linker",
                    "type": "address"
                }
            ],
            "name": "setLinker",
            "outputs": [],
            "payable": false,
            "stateMutability": "nonpayable",
            "type": "function"
        },
        {
            "constant": false,
            "inputs": [
                {
                    "name": "newOwner",
                    "type": "address"
                }
            ],
            "name": "transferOwnership",
            "outputs": [],
            "payable": false,
            "stateMutability": "nonpayable",
            "type": "function"
        },
        {
            "constant": true,
            "inputs": [
                {
                    "name": "_donorAddress",
                    "type": "address"
                }
            ],
            "name": "getBalance",
            "outputs": [
                {
                    "name": "",
                    "type": "uint256"
                }
            ],
            "payable": false,
            "stateMutability": "view",
            "type": "function"
        },
        {
            "inputs": [
                {
                    "name": "_masterContract",
                    "type": "address"
                }
            ],
            "payable": false,
            "stateMutability": "nonpayable",
            "type": "constructor"
        },
        {
            "anonymous": false,
            "inputs": [
                {
                    "indexed": true,
                    "name": "previousOwner",
                    "type": "address"
                },
                {
                    "indexed": true,
                    "name": "newOwner",
                    "type": "address"
                }
            ],
            "name": "OwnershipTransferred",
            "type": "event"
        }
    ],
    "bytecode": "608060405234801561001057600080fd5b50604051602080610f178339810180604052602081101561003057600080fd5b505160008054600160a060020a0319163317808255604051600160a060020a039190911691907f8be0079c531659141344cd1fd0a4f28419497f9722a3daafe3b4186f6b6457e0908290a360018054600160a060020a031916600160a060020a0392909216919091179055610e6d806100aa6000396000f3fe608060405234801561001057600080fd5b506004361061015f576000357c01000000000000000000000000000000000000000000000000000000009004806386e875e3116100d5578063c559207111610099578063c55920711461034b578063cd446e2214610374578063ce88b1451461037c578063f25e42c014610399578063f2fde38b146103bf578063f8b2cb4f146103e55761015f565b806386e875e3146102bb5780638792f855146102d85780638da5cb5b146102fb5780638f32d59b14610303578063bba565ee1461031f5761015f565b80634e92bc4b116101275780634e92bc4b1461022857806356ffeee4146102455780635dd9d9fa146102685780636293fd1e14610285578063715018a6146102ab578063770e3106146102b35761015f565b80630d0b79a41461016457806314d23b82146101885780632a3a236f146101b75780633c49dde4146101df57806344d75c0b1461020b575b600080fd5b61016c61040b565b60408051600160a060020a039092168252519081900360200190f35b6101a56004803603602081101561019e57600080fd5b503561041a565b60408051918252519081900360200190f35b6101dd600480360360208110156101cd57600080fd5b5035600160a060020a031661042c565b005b6101dd600480360360408110156101f557600080fd5b50600160a060020a03813516906020013561049a565b6101a56004803603602081101561022157600080fd5b503561058a565b6101a56004803603602081101561023e57600080fd5b503561059f565b6101dd6004803603604081101561025b57600080fd5b50803590602001356105b4565b6101a56004803603602081101561027e57600080fd5b503561062c565b6101dd6004803603602081101561029b57600080fd5b5035600160a060020a0316610656565b6101dd6106ac565b6101a5610742565b6101dd600480360360208110156102d157600080fd5b5035610749565b61016c600480360360408110156102ee57600080fd5b5080359060200135610816565b61016c610840565b61030b61084f565b604080519115158252519081900360200190f35b6101a56004803603604081101561033557600080fd5b5080359060200135600160a060020a0316610860565b6101dd6004803603606081101561036157600080fd5b508035906020810135906040013561088c565b61016c610a27565b61016c6004803603602081101561039257600080fd5b5035610a36565b6101dd600480360360208110156103af57600080fd5b5035600160a060020a0316610a62565b6101dd600480360360208110156103d557600080fd5b5035600160a060020a0316610ad0565b6101a5600480360360208110156103fb57600080fd5b5035600160a060020a0316610b28565b600254600160a060020a031681565b60009081526005602052604090205490565b61043461084f565b1515610478576040805160e560020a62461bcd0281526020600482018190526024820152600080516020610e22833981519152604482015290519081900360640190fd5b60018054600160a060020a031916600160a060020a0392909216919091179055565b6104a2610840565b600160a060020a031633600160a060020a031614806104cb5750600154600160a060020a031633145b15156104d657600080fd5b600160a060020a038216600090815260036020526040902054151561054157600480546001810182556000919091527f8a35acfbc15ff81a39ae7d344fd709f28e8600b4aa8c65c6b64bfe7fe36bd19b018054600160a060020a031916600160a060020a0384161790555b600160a060020a03821660009081526003602052604090205461056a908263ffffffff610b4316565b600160a060020a0390921660009081526003602052604090209190915550565b60009081526005602052604090206001015490565b60009081526005602052604090206002015490565b6105bc610840565b600160a060020a031633600160a060020a031614806105e55750600154600160a060020a031633145b15156105f057600080fd5b60408051606081018252918252600060208084018281528484018381529583526005909152919020915182555160018201559051600290910155565b6000818152600560205260408120600181015490546106509163ffffffff610ba716565b92915050565b61065e610840565b600160a060020a031633600160a060020a031614806106875750600154600160a060020a031633145b151561069257600080fd5b600160a060020a0316600090815260036020526040812055565b6106b461084f565b15156106f8576040805160e560020a62461bcd0281526020600482018190526024820152600080516020610e22833981519152604482015290519081900360640190fd5b60008054604051600160a060020a03909116907f8be0079c531659141344cd1fd0a4f28419497f9722a3daafe3b4186f6b6457e0908390a360008054600160a060020a0319169055565b6004545b90565b61075161084f565b1515610795576040805160e560020a62461bcd0281526020600482018190526024820152600080516020610e22833981519152604482015290519081900360640190fd5b600254604080517f86e875e3000000000000000000000000000000000000000000000000000000008152600481018490529051600160a060020a03909216916386e875e39160248082019260009290919082900301818387803b1580156107fb57600080fd5b505af115801561080f573d6000803e3d6000fd5b5050505050565b600091825260056020908152604080842092845260039092019052902054600160a060020a031690565b600054600160a060020a031690565b600054600160a060020a0316331490565b6000828152600560209081526040808320600160a060020a038516845260040190915290205492915050565b600254600160a060020a031633146108a357600080fd5b600083815260056020908152604080832081517fce88b145000000000000000000000000000000000000000000000000000000008152600481018790529151909392309263ce88b1459260248083019392829003018186803b15801561090857600080fd5b505afa15801561091c573d6000803e3d6000fd5b505050506040513d602081101561093257600080fd5b5051600160a060020a0381166000908152600484016020526040902054909150151561098f5760028201805460018101909155600090815260038301602052604090208054600160a060020a031916600160a060020a0383161790555b6001820154825484916109a8919063ffffffff610ba716565b10156109b357600080fd5b6109bd8484610c07565b600160a060020a03811660009081526004830160205260409020546109e8908463ffffffff610b4316565b600160a060020a03821660009081526004840160205260409020556001820154610a18908463ffffffff610b4316565b82600101819055505050505050565b600154600160a060020a031681565b6000600482815481101515610a4757fe5b600091825260209091200154600160a060020a031692915050565b610a6a61084f565b1515610aae576040805160e560020a62461bcd0281526020600482018190526024820152600080516020610e22833981519152604482015290519081900360640190fd5b60028054600160a060020a031916600160a060020a0392909216919091179055565b610ad861084f565b1515610b1c576040805160e560020a62461bcd0281526020600482018190526024820152600080516020610e22833981519152604482015290519081900360640190fd5b610b2581610d0f565b50565b600160a060020a031660009081526003602052604090205490565b600082820183811015610ba0576040805160e560020a62461bcd02815260206004820152601b60248201527f536166654d6174683a206164646974696f6e206f766572666c6f770000000000604482015290519081900360640190fd5b9392505050565b600082821115610c01576040805160e560020a62461bcd02815260206004820152601e60248201527f536166654d6174683a207375627472616374696f6e206f766572666c6f770000604482015290519081900360640190fd5b50900390565b600060036000600485815481101515610c1c57fe5b6000918252602080832090910154600160a060020a031683528201929092526040018120549150610c53828463ffffffff610ba716565b90508060036000600487815481101515610c6957fe5b6000918252602080832090910154600160a060020a03168352820192909252604001902055801515610d0957600480546000198101908110610ca757fe5b60009182526020909120015460048054600160a060020a039092169186908110610ccd57fe5b60009182526020909120018054600160a060020a031916600160a060020a039290921691909117905560048054600019019061080f9082610db4565b50505050565b600160a060020a0381161515610d595760405160e560020a62461bcd028152600401808060200182810382526026815260200180610dfc6026913960400191505060405180910390fd5b60008054604051600160a060020a03808516939216917f8be0079c531659141344cd1fd0a4f28419497f9722a3daafe3b4186f6b6457e091a360008054600160a060020a031916600160a060020a0392909216919091179055565b815481835581811115610dd857600083815260209020610dd8918101908301610ddd565b505050565b61074691905b80821115610df75760008155600101610de3565b509056fe4f776e61626c653a206e6577206f776e657220697320746865207a65726f20616464726573734f776e61626c653a2063616c6c6572206973206e6f7420746865206f776e6572a165627a7a7230582033f8243bce108370302fcdae6ff0670523c2b87a9367a46c787819e45b8b614f0029",
    "sourcePath": "c:/Users/franc/Desktop/ReMuS/example_content/contracts/ImpactRegistry.sol",
    "compiler": {
        "name": "solc",
        "version": "0.5.2+commit.1df8f40c"
    },
    "functionHashes": {
        "getAccount(uint256)": "ce88b145",
        "getAccountsCount()": "770e3106",
        "getBalance(address)": "f8b2cb4f",
        "getImpactCount(bytes32)": "4e92bc4b",
        "getImpactDonor(bytes32,uint256)": "8792f855",
        "getImpactLinked(bytes32)": "44d75c0b",
        "getImpactTotalValue(bytes32)": "14d23b82",
        "getImpactUnmatchedValue(bytes32)": "5dd9d9fa",
        "getImpactValue(bytes32,address)": "bba565ee",
        "isOwner()": "8f32d59b",
        "linkImpact(bytes32)": "86e875e3",
        "linker()": "0d0b79a4",
        "masterContract()": "cd446e22",
        "owner()": "8da5cb5b",
        "payBack(address)": "6293fd1e",
        "registerDonation(address,uint256)": "3c49dde4",
        "registerImpact(bytes32,uint256,uint256)": "c5592071",
        "registerOutcome(bytes32,uint256)": "56ffeee4",
        "renounceOwnership()": "715018a6",
        "setLinker(address)": "f25e42c0",
        "setMasterContract(address)": "2a3a236f",
        "transferOwnership(address)": "f2fde38b"
    },
    "gasEstimates": {
        "creation": {
            "codeDepositCost": "738600",
            "executionCost": "43129",
            "totalCost": "781729"
        },
        "external": {
            "getAccount(uint256)": "966",
            "getAccountsCount()": "537",
            "getBalance(address)": "793",
            "getImpactCount(bytes32)": "540",
            "getImpactDonor(bytes32,uint256)": "805",
            "getImpactLinked(bytes32)": "629",
            "getImpactTotalValue(bytes32)": "557",
            "getImpactUnmatchedValue(bytes32)": "infinite",
            "getImpactValue(bytes32,address)": "872",
            "isOwner()": "578",
            "linkImpact(bytes32)": "infinite",
            "linker()": "580",
            "masterContract()": "600",
            "owner()": "623",
            "payBack(address)": "6281",
            "registerDonation(address,uint256)": "infinite",
            "registerImpact(bytes32,uint256,uint256)": "infinite",
            "registerOutcome(bytes32,uint256)": "31228",
            "renounceOwnership()": "infinite",
            "setLinker(address)": "infinite",
            "setMasterContract(address)": "infinite",
            "transferOwnership(address)": "infinite"
        },
        "internal": {
            "updateBalance(uint256,uint256)": "infinite"
        }
    }
}