{
    "contractName": "InvestmentWallet",
    "abi": [
        {
            "constant": false,
            "inputs": [
                {
                    "name": "_amount",
                    "type": "uint256"
                },
                {
                    "name": "_projectName",
                    "type": "string"
                }
            ],
            "name": "invest",
            "outputs": [],
            "payable": false,
            "stateMutability": "nonpayable",
            "type": "function"
        },
        {
            "constant": false,
            "inputs": [
                {
                    "name": "_token",
                    "type": "address"
                },
                {
                    "name": "_amount",
                    "type": "uint256"
                }
            ],
            "name": "refund",
            "outputs": [],
            "payable": false,
            "stateMutability": "nonpayable",
            "type": "function"
        },
        {
            "constant": false,
            "inputs": [],
            "name": "renounceOwnership",
            "outputs": [],
            "payable": false,
            "stateMutability": "nonpayable",
            "type": "function"
        },
        {
            "constant": false,
            "inputs": [
                {
                    "name": "_amount",
                    "type": "uint256"
                },
                {
                    "name": "_projectName",
                    "type": "string"
                }
            ],
            "name": "donate",
            "outputs": [],
            "payable": false,
            "stateMutability": "nonpayable",
            "type": "function"
        },
        {
            "constant": true,
            "inputs": [],
            "name": "owner",
            "outputs": [
                {
                    "name": "",
                    "type": "address"
                }
            ],
            "payable": false,
            "stateMutability": "view",
            "type": "function"
        },
        {
            "constant": true,
            "inputs": [],
            "name": "isOwner",
            "outputs": [
                {
                    "name": "",
                    "type": "bool"
                }
            ],
            "payable": false,
            "stateMutability": "view",
            "type": "function"
        },
        {
            "constant": false,
            "inputs": [
                {
                    "name": "_amount",
                    "type": "uint256"
                },
                {
                    "name": "_projectName",
                    "type": "string"
                }
            ],
            "name": "redeemCoupons",
            "outputs": [],
            "payable": false,
            "stateMutability": "nonpayable",
            "type": "function"
        },
        {
            "constant": true,
            "inputs": [
                {
                    "name": "_token",
                    "type": "address"
                }
            ],
            "name": "balance",
            "outputs": [
                {
                    "name": "",
                    "type": "uint256"
                }
            ],
            "payable": false,
            "stateMutability": "view",
            "type": "function"
        },
        {
            "constant": false,
            "inputs": [
                {
                    "name": "newOwner",
                    "type": "address"
                }
            ],
            "name": "transferOwnership",
            "outputs": [],
            "payable": false,
            "stateMutability": "nonpayable",
            "type": "function"
        },
        {
            "inputs": [
                {
                    "name": "_projectCatalog",
                    "type": "address"
                }
            ],
            "payable": false,
            "stateMutability": "nonpayable",
            "type": "constructor"
        },
        {
            "anonymous": false,
            "inputs": [
                {
                    "indexed": true,
                    "name": "owner",
                    "type": "address"
                }
            ],
            "name": "WalletCreated",
            "type": "event"
        },
        {
            "anonymous": false,
            "inputs": [
                {
                    "indexed": true,
                    "name": "previousOwner",
                    "type": "address"
                },
                {
                    "indexed": true,
                    "name": "newOwner",
                    "type": "address"
                }
            ],
            "name": "OwnershipTransferred",
            "type": "event"
        }
    ],
    "bytecode": "608060405234801561001057600080fd5b506040516020806110ef8339810180604052602081101561003057600080fd5b505160008054600160a060020a03191633178082556040518392600160a060020a039290921691907f8be0079c531659141344cd1fd0a4f28419497f9722a3daafe3b4186f6b6457e0908290a360018054600160a060020a031916600160a060020a039290921691909117905560405133907f234cf33b32239d80b54161e2396c80cdeaf4d34161300e54d8bc01eb7c0ea55390600090a250611017806100d86000396000f3fe608060405234801561001057600080fd5b50600436106100975760003560e060020a900480638da5cb5b1161006a5780638da5cb5b1461022c5780638f32d59b14610250578063b916c5ff1461026c578063e3d670d714610319578063f2fde38b1461035157610097565b80631a5eba211461009c578063410085df1461014b578063715018a6146101775780638d59d1f11461017f575b600080fd5b610149600480360360408110156100b257600080fd5b813591908101906040810160208201356401000000008111156100d457600080fd5b8201836020820111156100e657600080fd5b8035906020019184600183028401116401000000008311171561010857600080fd5b91908080601f016020809104026020016040519081016040528093929190818152602001838380828437600092019190915250929550610377945050505050565b005b6101496004803603604081101561016157600080fd5b50600160a060020a03813516906020013561064b565b610149610731565b6101496004803603604081101561019557600080fd5b813591908101906040810160208201356401000000008111156101b757600080fd5b8201836020820111156101c957600080fd5b803590602001918460018302840111640100000000831117156101eb57600080fd5b91908080601f0160208091040260200160405190810160405280939291908181526020018383808284376000920191909152509295506107d4945050505050565b610234610a8a565b60408051600160a060020a039092168252519081900360200190f35b610258610a99565b604080519115158252519081900360200190f35b6101496004803603604081101561028257600080fd5b813591908101906040810160208201356401000000008111156102a457600080fd5b8201836020820111156102b657600080fd5b803590602001918460018302840111640100000000831117156102d857600080fd5b91908080601f016020809104026020016040519081016040528093929190818152602001838380828437600092019190915250929550610aaa945050505050565b61033f6004803603602081101561032f57600080fd5b5035600160a060020a0316610e06565b60408051918252519081900360200190f35b6101496004803603602081101561036757600080fd5b5035600160a060020a0316610e9b565b61037f610a99565b15156103c3576040805160e560020a62461bcd0281526020600482018190526024820152600080516020610fcc833981519152604482015290519081900360640190fd5b6001546040517fe750b5c0000000000000000000000000000000000000000000000000000000008152602060048201818152845160248401528451600094600160a060020a03169363e750b5c0938793928392604401918501908083838b5b8381101561043a578181015183820152602001610422565b50505050905090810190601f1680156104675780820380516001836020036101000a031916815260200191505b509250505060206040518083038186803b15801561048457600080fd5b505afa158015610498573d6000803e3d6000fd5b505050506040513d60208110156104ae57600080fd5b50519050600160a060020a03811615156104c757600080fd5b600081600160a060020a03166321df0da76040518163ffffffff1660e060020a02815260040160206040518083038186803b15801561050557600080fd5b505afa158015610519573d6000803e3d6000fd5b505050506040513d602081101561052f57600080fd5b5051604080517f095ea7b3000000000000000000000000000000000000000000000000000000008152600160a060020a0385811660048301526024820188905291519293509083169163095ea7b3916044808201926020929091908290030181600087803b1580156105a057600080fd5b505af11580156105b4573d6000803e3d6000fd5b505050506040513d60208110156105ca57600080fd5b5050604080517ff747b744000000000000000000000000000000000000000000000000000000008152600481018690529051600160a060020a0384169163f747b74491602480830192600092919082900301818387803b15801561062d57600080fd5b505af1158015610641573d6000803e3d6000fd5b5050505050505050565b610653610a99565b1515610697576040805160e560020a62461bcd0281526020600482018190526024820152600080516020610fcc833981519152604482015290519081900360640190fd5b81600160a060020a031663a9059cbb6106ae610a8a565b836040518363ffffffff1660e060020a0281526004018083600160a060020a0316600160a060020a0316815260200182815260200192505050602060405180830381600087803b15801561070157600080fd5b505af1158015610715573d6000803e3d6000fd5b505050506040513d602081101561072b57600080fd5b50505050565b610739610a99565b151561077d576040805160e560020a62461bcd0281526020600482018190526024820152600080516020610fcc833981519152604482015290519081900360640190fd5b60008054604051600160a060020a03909116907f8be0079c531659141344cd1fd0a4f28419497f9722a3daafe3b4186f6b6457e0908390a36000805473ffffffffffffffffffffffffffffffffffffffff19169055565b6107dc610a99565b1515610820576040805160e560020a62461bcd0281526020600482018190526024820152600080516020610fcc833981519152604482015290519081900360640190fd5b6001546040517fe750b5c0000000000000000000000000000000000000000000000000000000008152602060048201818152845160248401528451600094600160a060020a03169363e750b5c0938793928392604401918501908083838b5b8381101561089757818101518382015260200161087f565b50505050905090810190601f1680156108c45780820380516001836020036101000a031916815260200191505b509250505060206040518083038186803b1580156108e157600080fd5b505afa1580156108f5573d6000803e3d6000fd5b505050506040513d602081101561090b57600080fd5b50519050600160a060020a038116151561092457600080fd5b600081600160a060020a03166321df0da76040518163ffffffff1660e060020a02815260040160206040518083038186803b15801561096257600080fd5b505afa158015610976573d6000803e3d6000fd5b505050506040513d602081101561098c57600080fd5b5051604080517f095ea7b3000000000000000000000000000000000000000000000000000000008152600160a060020a0385811660048301526024820188905291519293509083169163095ea7b3916044808201926020929091908290030181600087803b1580156109fd57600080fd5b505af1158015610a11573d6000803e3d6000fd5b505050506040513d6020811015610a2757600080fd5b5050604080517fa94385a0000000000000000000000000000000000000000000000000000000008152600481018690529051600160a060020a0384169163a94385a091602480830192600092919082900301818387803b15801561062d57600080fd5b600054600160a060020a031690565b600054600160a060020a0316331490565b610ab2610a99565b1515610af6576040805160e560020a62461bcd0281526020600482018190526024820152600080516020610fcc833981519152604482015290519081900360640190fd5b6001546040517fe750b5c0000000000000000000000000000000000000000000000000000000008152602060048201818152845160248401528451600094600160a060020a03169363e750b5c0938793928392604401918501908083838b5b83811015610b6d578181015183820152602001610b55565b50505050905090810190601f168015610b9a5780820380516001836020036101000a031916815260200191505b509250505060206040518083038186803b158015610bb757600080fd5b505afa158015610bcb573d6000803e3d6000fd5b505050506040513d6020811015610be157600080fd5b50519050600160a060020a0381161515610bfa57600080fd5b6000819050600081600160a060020a03166307634cbe6040518163ffffffff1660e060020a02815260040160206040518083038186803b158015610c3d57600080fd5b505afa158015610c51573d6000803e3d6000fd5b505050506040513d6020811015610c6757600080fd5b5051604080517f70a0823100000000000000000000000000000000000000000000000000000000815230600482015290519192508691600160a060020a038416916370a08231916024808301926020929190829003018186803b158015610ccd57600080fd5b505afa158015610ce1573d6000803e3d6000fd5b505050506040513d6020811015610cf757600080fd5b50511015610d0457600080fd5b80600160a060020a031663095ea7b383876040518363ffffffff1660e060020a0281526004018083600160a060020a0316600160a060020a0316815260200182815260200192505050602060405180830381600087803b158015610d6757600080fd5b505af1158015610d7b573d6000803e3d6000fd5b505050506040513d6020811015610d9157600080fd5b50511515610d9e57600080fd5b81600160a060020a031663c5bd9089866040518263ffffffff1660e060020a02815260040180828152602001915050600060405180830381600087803b158015610de757600080fd5b505af1158015610dfb573d6000803e3d6000fd5b505050505050505050565b604080517f70a082310000000000000000000000000000000000000000000000000000000081523060048201529051600091600160a060020a038416916370a0823191602480820192602092909190829003018186803b158015610e6957600080fd5b505afa158015610e7d573d6000803e3d6000fd5b505050506040513d6020811015610e9357600080fd5b505192915050565b610ea3610a99565b1515610ee7576040805160e560020a62461bcd0281526020600482018190526024820152600080516020610fcc833981519152604482015290519081900360640190fd5b610ef081610ef3565b50565b600160a060020a0381161515610f3d5760405160e560020a62461bcd028152600401808060200182810382526026815260200180610fa66026913960400191505060405180910390fd5b60008054604051600160a060020a03808516939216917f8be0079c531659141344cd1fd0a4f28419497f9722a3daafe3b4186f6b6457e091a36000805473ffffffffffffffffffffffffffffffffffffffff1916600160a060020a039290921691909117905556fe4f776e61626c653a206e6577206f776e657220697320746865207a65726f20616464726573734f776e61626c653a2063616c6c6572206973206e6f7420746865206f776e6572a165627a7a72305820d8932f272d3c034fef89e8972b44f9088b71762c1d9186b7e5351ac7a212db260029",
    "sourcePath": "c:/Users/franc/Desktop/ReMuS/example_content/contracts/InvestmentWallet.sol",
    "compiler": {
        "name": "solc",
        "version": "0.5.2+commit.1df8f40c"
    },
    "functionHashes": {
        "balance(address)": "e3d670d7",
        "donate(uint256,string)": "8d59d1f1",
        "invest(uint256,string)": "1a5eba21",
        "isOwner()": "8f32d59b",
        "owner()": "8da5cb5b",
        "redeemCoupons(uint256,string)": "b916c5ff",
        "refund(address,uint256)": "410085df",
        "renounceOwnership()": "715018a6",
        "transferOwnership(address)": "f2fde38b"
    },
    "gasEstimates": {
        "creation": {
            "codeDepositCost": "823800",
            "executionCost": "44369",
            "totalCost": "868169"
        },
        "external": {
            "balance(address)": "infinite",
            "donate(uint256,string)": "infinite",
            "invest(uint256,string)": "infinite",
            "isOwner()": "574",
            "owner()": "619",
            "redeemCoupons(uint256,string)": "infinite",
            "refund(address,uint256)": "infinite",
            "renounceOwnership()": "infinite",
            "transferOwnership(address)": "infinite"
        }
    }
}