{
    "contractName": "MockValidation",
    "abi": [
        {
            "constant": true,
            "inputs": [
                {
                    "name": "index",
                    "type": "uint256"
                }
            ],
            "name": "getValidatorByIndex",
            "outputs": [
                {
                    "name": "validator",
                    "type": "address"
                }
            ],
            "payable": false,
            "stateMutability": "view",
            "type": "function"
        },
        {
            "constant": false,
            "inputs": [
                {
                    "name": "outcome",
                    "type": "string"
                },
                {
                    "name": "value",
                    "type": "uint256"
                }
            ],
            "name": "validate",
            "outputs": [],
            "payable": false,
            "stateMutability": "nonpayable",
            "type": "function"
        },
        {
            "constant": true,
            "inputs": [],
            "name": "getValidationsCount",
            "outputs": [
                {
                    "name": "count",
                    "type": "uint256"
                }
            ],
            "payable": false,
            "stateMutability": "view",
            "type": "function"
        },
        {
            "constant": true,
            "inputs": [
                {
                    "name": "index",
                    "type": "uint256"
                }
            ],
            "name": "getValueByIndex",
            "outputs": [
                {
                    "name": "value",
                    "type": "uint256"
                }
            ],
            "payable": false,
            "stateMutability": "view",
            "type": "function"
        },
        {
            "constant": true,
            "inputs": [
                {
                    "name": "index",
                    "type": "uint256"
                }
            ],
            "name": "getOutcomeByIndex",
            "outputs": [
                {
                    "name": "outcome",
                    "type": "string"
                }
            ],
            "payable": false,
            "stateMutability": "view",
            "type": "function"
        },
        {
            "anonymous": false,
            "inputs": [
                {
                    "indexed": false,
                    "name": "time",
                    "type": "uint256"
                },
                {
                    "indexed": true,
                    "name": "validator",
                    "type": "address"
                },
                {
                    "indexed": false,
                    "name": "outcome",
                    "type": "string"
                },
                {
                    "indexed": false,
                    "name": "value",
                    "type": "uint256"
                }
            ],
            "name": "ValidationEvent",
            "type": "event"
        }
    ],
    "bytecode": "608060405234801561001057600080fd5b5061063b806100206000396000f3fe608060405234801561001057600080fd5b5060043610610073577c0100000000000000000000000000000000000000000000000000000000600035046330af41b381146100785780637ee0cda4146100be57806381e8927b14610168578063dbaf724714610182578063df4adb941461019f575b600080fd5b6100956004803603602081101561008e57600080fd5b5035610231565b6040805173ffffffffffffffffffffffffffffffffffffffff9092168252519081900360200190f35b610166600480360360408110156100d457600080fd5b8101906020810181356401000000008111156100ef57600080fd5b82018360208201111561010157600080fd5b8035906020019184600183028401116401000000008311171561012357600080fd5b91908080601f0160208091040260200160405190810160405280939291908181526020018383808284376000920191909152509295505091359250610271915050565b005b610170610453565b60408051918252519081900360200190f35b6101706004803603602081101561019857600080fd5b503561045a565b6101bc600480360360208110156101b557600080fd5b5035610483565b6040805160208082528351818301528351919283929083019185019080838360005b838110156101f65781810151838201526020016101de565b50505050905090810190601f1680156102235780820380516001836020036101000a031916815260200191505b509250505060405180910390f35b6000808281548110151561024157fe5b600091825260209091206004909102016001015473ffffffffffffffffffffffffffffffffffffffff1692915050565b610279610538565b506040805160808101825242815233602080830191825292820185815260608301859052600080546001810180835591805284517f290decd9548b62a8d60345a988386fc84ba6bc95484008f6362f93160ef3e563600490920291820190815593517f290decd9548b62a8d60345a988386fc84ba6bc95484008f6362f93160ef3e5648201805473ffffffffffffffffffffffffffffffffffffffff191673ffffffffffffffffffffffffffffffffffffffff9092169190911790559151805194959194869493610370937f290decd9548b62a8d60345a988386fc84ba6bc95484008f6362f93160ef3e565909101920190610577565b5060608201518160030155505050806020015173ffffffffffffffffffffffffffffffffffffffff167f9ab76df04fa8bcd90e76e368031d77fc34a93a7d86fcf2b098aa02850ad7c6638260000151836040015184606001516040518084815260200180602001838152602001828103825284818151815260200191508051906020019080838360005b838110156104125781810151838201526020016103fa565b50505050905090810190601f16801561043f5780820380516001836020036101000a031916815260200191505b5094505050505060405180910390a2505050565b6000545b90565b6000808281548110151561046a57fe5b9060005260206000209060040201600301549050919050565b606060008281548110151561049457fe5b600091825260209182902060026004909202018101805460408051601f60001961010060018616150201909316949094049182018590048502840185019052808352919290919083018282801561052c5780601f106105015761010080835404028352916020019161052c565b820191906000526020600020905b81548152906001019060200180831161050f57829003601f168201915b50505050509050919050565b60806040519081016040528060008152602001600073ffffffffffffffffffffffffffffffffffffffff16815260200160608152602001600081525090565b828054600181600116156101000203166002900490600052602060002090601f016020900481019282601f106105b857805160ff19168380011785556105e5565b828001600101855582156105e5579182015b828111156105e55782518255916020019190600101906105ca565b506105f19291506105f5565b5090565b61045791905b808211156105f157600081556001016105fb56fea165627a7a7230582083b13635b87438190577e97dab423fa9e355db7f329d9a8e3dab3f5f7e5e04530029",
    "sourcePath": "c:/Users/franc/Desktop/ReMuS/example_content/contracts/MockValidation.sol",
    "compiler": {
        "name": "solc",
        "version": "0.5.2+commit.1df8f40c"
    },
    "functionHashes": {
        "getOutcomeByIndex(uint256)": "df4adb94",
        "getValidationsCount()": "81e8927b",
        "getValidatorByIndex(uint256)": "30af41b3",
        "getValueByIndex(uint256)": "dbaf7247",
        "validate(string,uint256)": "7ee0cda4"
    },
    "gasEstimates": {
        "creation": {
            "codeDepositCost": "319000",
            "executionCost": "355",
            "totalCost": "319355"
        },
        "external": {
            "getOutcomeByIndex(uint256)": "infinite",
            "getValidationsCount()": "423",
            "getValidatorByIndex(uint256)": "757",
            "getValueByIndex(uint256)": "802",
            "validate(string,uint256)": "infinite"
        }
    }
}