{
    "contractName": "MoratoriumTransfers",
    "abi": [
        {
            "constant": false,
            "inputs": [
                {
                    "name": "_transferId",
                    "type": "uint256"
                }
            ],
            "name": "confirmTransfer",
            "outputs": [],
            "payable": false,
            "stateMutability": "nonpayable",
            "type": "function"
        },
        {
            "constant": true,
            "inputs": [],
            "name": "moratoriumPeriod",
            "outputs": [
                {
                    "name": "",
                    "type": "uint256"
                }
            ],
            "payable": false,
            "stateMutability": "view",
            "type": "function"
        },
        {
            "constant": false,
            "inputs": [
                {
                    "name": "token",
                    "type": "address"
                },
                {
                    "name": "to",
                    "type": "address"
                },
                {
                    "name": "value",
                    "type": "uint256"
                }
            ],
            "name": "proposeTransfer",
            "outputs": [
                {
                    "name": "",
                    "type": "uint256"
                }
            ],
            "payable": false,
            "stateMutability": "nonpayable",
            "type": "function"
        },
        {
            "inputs": [
                {
                    "name": "_moratoriumPeriod",
                    "type": "uint256"
                },
                {
                    "name": "_proposers",
                    "type": "address[]"
                },
                {
                    "name": "_validators",
                    "type": "address[]"
                }
            ],
            "payable": false,
            "stateMutability": "nonpayable",
            "type": "constructor"
        },
        {
            "anonymous": false,
            "inputs": [
                {
                    "indexed": true,
                    "name": "id",
                    "type": "uint256"
                },
                {
                    "indexed": true,
                    "name": "token",
                    "type": "address"
                },
                {
                    "indexed": true,
                    "name": "to",
                    "type": "address"
                },
                {
                    "indexed": false,
                    "name": "value",
                    "type": "uint256"
                }
            ],
            "name": "TransferProposed",
            "type": "event"
        },
        {
            "anonymous": false,
            "inputs": [
                {
                    "indexed": true,
                    "name": "id",
                    "type": "uint256"
                },
                {
                    "indexed": true,
                    "name": "token",
                    "type": "address"
                },
                {
                    "indexed": true,
                    "name": "to",
                    "type": "address"
                },
                {
                    "indexed": false,
                    "name": "value",
                    "type": "uint256"
                }
            ],
            "name": "TransferConfirmed",
            "type": "event"
        }
    ],
    "bytecode": "6080604052600160035534801561001557600080fd5b506040516105f93803806105f98339810180604052606081101561003857600080fd5b81516020830180519193928301929164010000000081111561005957600080fd5b8201602081018481111561006c57600080fd5b815185602082028301116401000000008211171561008957600080fd5b505092919060200180516401000000008111156100a557600080fd5b820160208101848111156100b857600080fd5b81518560208202830111640100000000821117156100d557600080fd5b5050929190505050818160008251111561014f576000805460ff191660011781555b825181101561014d576001806000858481518110151561011357fe5b602090810291909101810151600160a060020a03168252810191909152604001600020805460ff19169115159190911790556001016100f7565b505b6000815111156101c2576000805461ff0019166101001781555b81518110156101c057600160026000848481518110151561018657fe5b602090810291909101810151600160a060020a03168252810191909152604001600020805460ff1916911515919091179055600101610169565b505b5050506006919091555061041e806101db6000396000f3fe608060405234801561001057600080fd5b506004361061005d577c010000000000000000000000000000000000000000000000000000000060003504632c48e7db8114610062578063300e5d1f1461008157806364a8a0a01461009b575b600080fd5b61007f6004803603602081101561007857600080fd5b50356100de565b005b610089610135565b60408051918252519081900360200190f35b610089600480360360608110156100b157600080fd5b5073ffffffffffffffffffffffffffffffffffffffff81358116916020810135909116906040013561013b565b600054610100900460ff16158061010457503360009081526002602052604090205460ff165b151561010f57600080fd5b600081815260056020526040902054421161012957600080fd5b61013281610195565b50565b60065481565b6000805460ff16158061015d57503360009081526001602052604090205460ff165b151561016857600080fd5b60006101758585856102f2565b600654600091825260056020526040909120429091019055509392505050565b600054610100900460ff1615806101bb57503360009081526002602052604090205460ff165b15156101c657600080fd5b600081815260046020818152604080842080546001820154600283015484517fa9059cbb00000000000000000000000000000000000000000000000000000000815273ffffffffffffffffffffffffffffffffffffffff9283169781019790975260248701529251919592169363a9059cbb936044808301949193928390030190829087803b15801561025857600080fd5b505af115801561026c573d6000803e3d6000fd5b505050506040513d602081101561028257600080fd5b5051151561028f57600080fd5b600181015481546002830154604080519182525173ffffffffffffffffffffffffffffffffffffffff93841693929092169185917fba8f27a7f85d193b2e0c15d54a1e1d5254b3c86afe31ab91987d39cff6df258c919081900360200190a45050565b6000805460ff16158061031457503360009081526001602052604090205460ff165b151561031f57600080fd5b6003805460018082019092556040805160608101825273ffffffffffffffffffffffffffffffffffffffff80891680835288821660208085018281528587018b81526000898152600484528890209651875490871673ffffffffffffffffffffffffffffffffffffffff19918216178855915199870180549a9096169990911698909817909355955160029093019290925582518781529251939493919285927f38ad22e5704952fc5eaf855fe6a8193abeeae5963626b72a552fe2584d053e4e929181900390910190a494935050505056fea165627a7a723058205fc4cd737c6d208e07616bd2ef1a44e0051b9a2fa1ea7416fd8c920e8a97e83e0029",
    "sourcePath": "c:/Users/franc/Desktop/ReMuS/example_content/contracts/MoratoriumTransfers.sol",
    "compiler": {
        "name": "solc",
        "version": "0.5.2+commit.1df8f40c"
    },
    "functionHashes": {
        "confirmTransfer(uint256)": "2c48e7db",
        "moratoriumPeriod()": "300e5d1f",
        "proposeTransfer(address,address,uint256)": "64a8a0a0"
    },
    "gasEstimates": {
        "creation": {
            "codeDepositCost": "210800",
            "executionCost": "infinite",
            "totalCost": "infinite"
        },
        "external": {
            "confirmTransfer(uint256)": "infinite",
            "moratoriumPeriod()": "400",
            "proposeTransfer(address,address,uint256)": "104845"
        }
    }
}