{
    "contractName": "OffChainImpactLinker",
    "abi": [
        {
            "constant": false,
            "inputs": [],
            "name": "renounceOwnership",
            "outputs": [],
            "payable": false,
            "stateMutability": "nonpayable",
            "type": "function"
        },
        {
            "constant": true,
            "inputs": [],
            "name": "registry",
            "outputs": [
                {
                    "name": "",
                    "type": "address"
                }
            ],
            "payable": false,
            "stateMutability": "view",
            "type": "function"
        },
        {
            "constant": false,
            "inputs": [
                {
                    "name": "",
                    "type": "bytes32"
                }
            ],
            "name": "linkImpact",
            "outputs": [],
            "payable": false,
            "stateMutability": "nonpayable",
            "type": "function"
        },
        {
            "constant": true,
            "inputs": [],
            "name": "owner",
            "outputs": [
                {
                    "name": "",
                    "type": "address"
                }
            ],
            "payable": false,
            "stateMutability": "view",
            "type": "function"
        },
        {
            "constant": true,
            "inputs": [],
            "name": "isOwner",
            "outputs": [
                {
                    "name": "",
                    "type": "bool"
                }
            ],
            "payable": false,
            "stateMutability": "view",
            "type": "function"
        },
        {
            "constant": false,
            "inputs": [
                {
                    "name": "_claimId",
                    "type": "bytes32"
                },
                {
                    "name": "_accountIndex",
                    "type": "uint256"
                },
                {
                    "name": "_impactVal",
                    "type": "uint256"
                }
            ],
            "name": "linkDirectly",
            "outputs": [],
            "payable": false,
            "stateMutability": "nonpayable",
            "type": "function"
        },
        {
            "constant": false,
            "inputs": [
                {
                    "name": "newOwner",
                    "type": "address"
                }
            ],
            "name": "transferOwnership",
            "outputs": [],
            "payable": false,
            "stateMutability": "nonpayable",
            "type": "function"
        },
        {
            "inputs": [
                {
                    "name": "_impactRegistry",
                    "type": "address"
                }
            ],
            "payable": false,
            "stateMutability": "nonpayable",
            "type": "constructor"
        },
        {
            "anonymous": false,
            "inputs": [
                {
                    "indexed": true,
                    "name": "previousOwner",
                    "type": "address"
                },
                {
                    "indexed": true,
                    "name": "newOwner",
                    "type": "address"
                }
            ],
            "name": "OwnershipTransferred",
            "type": "event"
        }
    ],
    "bytecode": "608060405234801561001057600080fd5b506040516020806105488339810180604052602081101561003057600080fd5b505160008054600160a060020a03191633178082556040518392600160a060020a039290921691907f8be0079c531659141344cd1fd0a4f28419497f9722a3daafe3b4186f6b6457e0908290a360018054600160a060020a031916600160a060020a03929092169190911790555061049b806100ad6000396000f3fe608060405234801561001057600080fd5b506004361061009a576000357c0100000000000000000000000000000000000000000000000000000000900480638da5cb5b116100785780638da5cb5b146100ea5780638f32d59b146100f2578063c06b730f1461010e578063f2fde38b146101375761009a565b8063715018a61461009f5780637b103999146100a957806386e875e3146100cd575b600080fd5b6100a761015d565b005b6100b1610212565b60408051600160a060020a039092168252519081900360200190f35b6100a7600480360360208110156100e357600080fd5b5035610221565b6100b1610226565b6100fa610235565b604080519115158252519081900360200190f35b6100a76004803603606081101561012457600080fd5b5080359060208101359060400135610246565b6100a76004803603602081101561014d57600080fd5b5035600160a060020a0316610335565b610165610235565b15156101bb576040805160e560020a62461bcd02815260206004820181905260248201527f4f776e61626c653a2063616c6c6572206973206e6f7420746865206f776e6572604482015290519081900360640190fd5b60008054604051600160a060020a03909116907f8be0079c531659141344cd1fd0a4f28419497f9722a3daafe3b4186f6b6457e0908390a36000805473ffffffffffffffffffffffffffffffffffffffff19169055565b600154600160a060020a031681565bfe5b50565b600054600160a060020a031690565b600054600160a060020a0316331490565b61024e610235565b15156102a4576040805160e560020a62461bcd02815260206004820181905260248201527f4f776e61626c653a2063616c6c6572206973206e6f7420746865206f776e6572604482015290519081900360640190fd5b600154604080517fc55920710000000000000000000000000000000000000000000000000000000081526004810186905260248101859052604481018490529051600160a060020a039092169163c55920719160648082019260009290919082900301818387803b15801561031857600080fd5b505af115801561032c573d6000803e3d6000fd5b50505050505050565b61033d610235565b1515610393576040805160e560020a62461bcd02815260206004820181905260248201527f4f776e61626c653a2063616c6c6572206973206e6f7420746865206f776e6572604482015290519081900360640190fd5b61022381600160a060020a03811615156103e15760405160e560020a62461bcd02815260040180806020018281038252602681526020018061044a6026913960400191505060405180910390fd5b60008054604051600160a060020a03808516939216917f8be0079c531659141344cd1fd0a4f28419497f9722a3daafe3b4186f6b6457e091a36000805473ffffffffffffffffffffffffffffffffffffffff1916600160a060020a039290921691909117905556fe4f776e61626c653a206e6577206f776e657220697320746865207a65726f2061646472657373a165627a7a723058202e32b77644c5e2f594638afe6d8cdde9973bca2732d7e748c3d0220a3c63fce60029",
    "sourcePath": "c:/Users/franc/Desktop/ReMuS/example_content/contracts/OffChainImpactLinker.sol",
    "compiler": {
        "name": "solc",
        "version": "0.5.2+commit.1df8f40c"
    },
    "functionHashes": {
        "isOwner()": "8f32d59b",
        "linkDirectly(bytes32,uint256,uint256)": "c06b730f",
        "linkImpact(bytes32)": "86e875e3",
        "owner()": "8da5cb5b",
        "registry()": "7b103999",
        "renounceOwnership()": "715018a6",
        "transferOwnership(address)": "f2fde38b"
    },
    "gasEstimates": {
        "creation": {
            "codeDepositCost": "235800",
            "executionCost": "42639",
            "totalCost": "278439"
        },
        "external": {
            "isOwner()": "511",
            "linkDirectly(bytes32,uint256,uint256)": "infinite",
            "linkImpact(bytes32)": "227",
            "owner()": "556",
            "registry()": "579",
            "renounceOwnership()": "22506",
            "transferOwnership(address)": "infinite"
        }
    }
}