{
    "contractName": "OwnableWithRecovery",
    "abi": [
        {
            "constant": true,
            "inputs": [],
            "name": "minVoteCount",
            "outputs": [
                {
                    "name": "",
                    "type": "uint8"
                }
            ],
            "payable": false,
            "stateMutability": "view",
            "type": "function"
        },
        {
            "constant": true,
            "inputs": [
                {
                    "name": "",
                    "type": "address"
                }
            ],
            "name": "voteCount",
            "outputs": [
                {
                    "name": "",
                    "type": "uint256"
                }
            ],
            "payable": false,
            "stateMutability": "view",
            "type": "function"
        },
        {
            "constant": true,
            "inputs": [
                {
                    "name": "",
                    "type": "address"
                }
            ],
            "name": "recoveryVote",
            "outputs": [
                {
                    "name": "",
                    "type": "address"
                }
            ],
            "payable": false,
            "stateMutability": "view",
            "type": "function"
        },
        {
            "constant": false,
            "inputs": [],
            "name": "renounceOwnership",
            "outputs": [],
            "payable": false,
            "stateMutability": "nonpayable",
            "type": "function"
        },
        {
            "constant": true,
            "inputs": [],
            "name": "owner",
            "outputs": [
                {
                    "name": "",
                    "type": "address"
                }
            ],
            "payable": false,
            "stateMutability": "view",
            "type": "function"
        },
        {
            "constant": true,
            "inputs": [],
            "name": "isOwner",
            "outputs": [
                {
                    "name": "",
                    "type": "bool"
                }
            ],
            "payable": false,
            "stateMutability": "view",
            "type": "function"
        },
        {
            "constant": false,
            "inputs": [
                {
                    "name": "_newOwner",
                    "type": "address"
                }
            ],
            "name": "transferOwnership",
            "outputs": [],
            "payable": false,
            "stateMutability": "nonpayable",
            "type": "function"
        },
        {
            "inputs": [
                {
                    "name": "_recoveryAddresses",
                    "type": "address[]"
                },
                {
                    "name": "_minVoteCount",
                    "type": "uint8"
                }
            ],
            "payable": false,
            "stateMutability": "nonpayable",
            "type": "constructor"
        },
        {
            "anonymous": false,
            "inputs": [
                {
                    "indexed": true,
                    "name": "fromRecoveryAddress",
                    "type": "address"
                },
                {
                    "indexed": true,
                    "name": "newOwner",
                    "type": "address"
                }
            ],
            "name": "OwnershipTransferAttempt",
            "type": "event"
        },
        {
            "anonymous": false,
            "inputs": [
                {
                    "indexed": true,
                    "name": "previousOwner",
                    "type": "address"
                },
                {
                    "indexed": true,
                    "name": "newOwner",
                    "type": "address"
                }
            ],
            "name": "OwnershipTransferred",
            "type": "event"
        }
    ],
    "bytecode": "608060405234801561001057600080fd5b506040516106ad3803806106ad8339810180604052604081101561003357600080fd5b81019080805164010000000081111561004b57600080fd5b8201602081018481111561005e57600080fd5b815185602082028301116401000000008211171561007b57600080fd5b505060209091015160008054600160a060020a0319163317808255604051939550919350600160a060020a0391909116917f8be0079c531659141344cd1fd0a4f28419497f9722a3daafe3b4186f6b6457e0908290a360028251101580156100e55750600a825111155b15156100f057600080fd5b6003805460ff191660ff831617905560005b82518110156101725761011c6401000000006101ac810204565b60016000858481518110151561012e57fe5b602090810291909101810151600160a060020a039081168352908201929092526040016000208054600160a060020a03191692909116919091179055600101610102565b5081516002600061018a6401000000006101ac810204565b600160a060020a03168152602081019190915260400160002055506101bb9050565b600054600160a060020a031690565b6104e3806101ca6000396000f3fe608060405234801561001057600080fd5b506004361061009a576000357c010000000000000000000000000000000000000000000000000000000090048063715018a611610078578063715018a6146101375780638da5cb5b146101415780638f32d59b14610149578063f2fde38b146101655761009a565b806340be28831461009f5780635e3cd7bc146100bd5780635fecc16e146100f5575b600080fd5b6100a761018b565b6040805160ff9092168252519081900360200190f35b6100e3600480360360208110156100d357600080fd5b5035600160a060020a0316610194565b60408051918252519081900360200190f35b61011b6004803603602081101561010b57600080fd5b5035600160a060020a03166101a6565b60408051600160a060020a039092168252519081900360200190f35b61013f6101c1565b005b61011b61028d565b61015161029c565b604080519115158252519081900360200190f35b61013f6004803603602081101561017b57600080fd5b5035600160a060020a03166102ad565b60035460ff1681565b60026020526000908152604090205481565b600160205260009081526040902054600160a060020a031681565b6101c961029c565b151561023657604080517f08c379a000000000000000000000000000000000000000000000000000000000815260206004820181905260248201527f4f776e61626c653a2063616c6c6572206973206e6f7420746865206f776e6572604482015290519081900360640190fd5b60008054604051600160a060020a03909116907f8be0079c531659141344cd1fd0a4f28419497f9722a3daafe3b4186f6b6457e0908390a36000805473ffffffffffffffffffffffffffffffffffffffff19169055565b600054600160a060020a031690565b600054600160a060020a0316331490565b600160a060020a03811615156102c257600080fd5b33600090815260016020526040902054600160a060020a031615156102e657600080fd5b33600090815260016020526040902054600160a060020a038281169116141561030e57600080fd5b3360008181526001602081815260408084208054600160a060020a03908116865260029093528185208054600019019055805473ffffffffffffffffffffffffffffffffffffffff19169287169283179055818452808420805490930190925590519092917fe23770e582d495f05b7535789a779ac44989f1417a0b463e885a2bc0ad67a8f091a3600354600160a060020a03821660009081526002602052604090205460ff909116116103c5576103c5816103c8565b50565b600160a060020a0381161515610429576040517f08c379a00000000000000000000000000000000000000000000000000000000081526004018080602001828103825260268152602001806104926026913960400191505060405180910390fd5b60008054604051600160a060020a03808516939216917f8be0079c531659141344cd1fd0a4f28419497f9722a3daafe3b4186f6b6457e091a36000805473ffffffffffffffffffffffffffffffffffffffff1916600160a060020a039290921691909117905556fe4f776e61626c653a206e6577206f776e657220697320746865207a65726f2061646472657373a165627a7a72305820590390517aa88c1a56cf72df922f27247c9f5c44d919a5468a6d33ec152678e00029",
    "sourcePath": "c:/Users/franc/Desktop/ReMuS/example_content/contracts/OwnableWithRecovery.sol",
    "compiler": {
        "name": "solc",
        "version": "0.5.2+commit.1df8f40c"
    },
    "functionHashes": {
        "isOwner()": "8f32d59b",
        "minVoteCount()": "40be2883",
        "owner()": "8da5cb5b",
        "recoveryVote(address)": "5fecc16e",
        "renounceOwnership()": "715018a6",
        "transferOwnership(address)": "f2fde38b",
        "voteCount(address)": "5e3cd7bc"
    },
    "gasEstimates": {
        "creation": {
            "codeDepositCost": "250200",
            "executionCost": "infinite",
            "totalCost": "infinite"
        },
        "external": {
            "isOwner()": "533",
            "minVoteCount()": "419",
            "owner()": "578",
            "recoveryVote(address)": "784",
            "renounceOwnership()": "22505",
            "transferOwnership(address)": "infinite",
            "voteCount(address)": "609"
        }
    }
}