{
    "contractName": "Privileged",
    "abi": [
        {
            "constant": false,
            "inputs": [
                {
                    "name": "_privilegeName",
                    "type": "string"
                },
                {
                    "name": "_owner",
                    "type": "address"
                },
                {
                    "name": "_controller",
                    "type": "address"
                }
            ],
            "name": "createPrivilege",
            "outputs": [],
            "payable": false,
            "stateMutability": "nonpayable",
            "type": "function"
        },
        {
            "constant": false,
            "inputs": [
                {
                    "name": "_privilegeName",
                    "type": "string"
                }
            ],
            "name": "revokePrivilege",
            "outputs": [],
            "payable": false,
            "stateMutability": "nonpayable",
            "type": "function"
        },
        {
            "constant": true,
            "inputs": [],
            "name": "owner",
            "outputs": [
                {
                    "name": "",
                    "type": "address"
                }
            ],
            "payable": false,
            "stateMutability": "view",
            "type": "function"
        },
        {
            "constant": false,
            "inputs": [
                {
                    "name": "_privilege",
                    "type": "string"
                },
                {
                    "name": "_newOwner",
                    "type": "address"
                }
            ],
            "name": "transferPrivilege",
            "outputs": [],
            "payable": false,
            "stateMutability": "nonpayable",
            "type": "function"
        },
        {
            "anonymous": false,
            "inputs": [
                {
                    "indexed": false,
                    "name": "privilege",
                    "type": "string"
                },
                {
                    "indexed": true,
                    "name": "previousOwner",
                    "type": "address"
                },
                {
                    "indexed": true,
                    "name": "newOwner",
                    "type": "address"
                }
            ],
            "name": "PrivilegeTransferred",
            "type": "event"
        }
    ],
    "bytecode": "608060405234801561001057600080fd5b506108d5806100206000396000f3fe608060405234801561001057600080fd5b5060043610610068577c0100000000000000000000000000000000000000000000000000000000600035046345d4cf2b811461006d5780638ae4200a1461012b5780638da5cb5b146101d1578063a7cd21ea146101f5575b600080fd5b6101296004803603606081101561008357600080fd5b81019060208101813564010000000081111561009e57600080fd5b8201836020820111156100b057600080fd5b803590602001918460018302840111640100000000831117156100d257600080fd5b91908080601f01602080910402602001604051908101604052809392919081815260200183838082843760009201919091525092955050600160a060020a0383358116945060209093013590921691506102a69050565b005b6101296004803603602081101561014157600080fd5b81019060208101813564010000000081111561015c57600080fd5b82018360208201111561016e57600080fd5b8035906020019184600183028401116401000000008311171561019057600080fd5b91908080601f01602080910402602001604051908101604052809392919081815260200183838082843760009201919091525092955061048f945050505050565b6101d96106e0565b60408051600160a060020a039092168252519081900360200190f35b6101296004803603604081101561020b57600080fd5b81019060208101813564010000000081111561022657600080fd5b82018360208201111561023857600080fd5b8035906020019184600183028401116401000000008311171561025a57600080fd5b91908080601f01602080910402602001604051908101604052809392919081815260200183838082843760009201919091525092955050509035600160a060020a031691506106ef9050565b6000600160a060020a03166001846040518082805190602001908083835b602083106102e35780518252601f1990920191602091820191016102c4565b51815160209384036101000a6000190180199092169116179052920194855250604051938490030190922054600160a060020a0316929092149150610329905057600080fd5b604080519081016040528083600160a060020a0316815260200182600160a060020a03168152506001846040518082805190602001908083835b602083106103825780518252601f199092019160209182019101610363565b51815160209384036101000a60001901801990921691161790529201948552506040805194859003820185208651815473ffffffffffffffffffffffffffffffffffffffff19908116600160a060020a039283161783559784015160019092018054909816918116919091179096558185528851858301528851958816956000957faabc91c2877621ea57f56ae624a16e39a420b278ab743f7a3a4816412f8628d395508a9450928392830191908501908083838a5b83811015610450578181015183820152602001610438565b50505050905090810190601f16801561047d5780820380516001836020036101000a031916815260200191505b509250505060405180910390a3505050565b6001816040518082805190602001908083835b602083106104c15780518252601f1990920191602091820191016104a2565b51815160209384036101000a6000190180199092169116179052920194855250604051938490030190922060010154600160a060020a031633149150610508905057600080fd5b6000600160a060020a03166001826040518082805190602001908083835b602083106105455780518252601f199092019160209182019101610526565b51815160209384036101000a6000190180199092169116179052920194855250604080519485900382018520548286528751868401528751600160a060020a03909116957faabc91c2877621ea57f56ae624a16e39a420b278ab743f7a3a4816412f8628d395508894509283928301919085019080838360005b838110156105d75781810151838201526020016105bf565b50505050905090810190601f1680156106045780820380516001836020036101000a031916815260200191505b509250505060405180910390a360408051908101604052806000600160a060020a031681526020016000600160a060020a03168152506001826040518082805190602001908083835b6020831061066c5780518252601f19909201916020918201910161064d565b51815160209384036101000a60001901801990921691161790529201948552506040519384900381019093208451815473ffffffffffffffffffffffffffffffffffffffff19908116600160a060020a03928316178355959094015160019091018054909516931692909217909255505050565b600054600160a060020a031681565b6001826040518082805190602001908083835b602083106107215780518252601f199092019160209182019101610702565b51815160209384036101000a6000190180199092169116179052920194855250604051938490030190922060010154600160a060020a031633149150610768905057600080fd5b600160a060020a038116151561077d57600080fd5b806001836040518082805190602001908083835b602083106107b05780518252601f199092019160209182019101610791565b51815160209384036101000a6000190180199092169116179052920194855250604080519485900382018520805473ffffffffffffffffffffffffffffffffffffffff1916600160a060020a039788161790556000805483875289518785015289518989169891909116967faabc91c2877621ea57f56ae624a16e39a420b278ab743f7a3a4816412f8628d396508a955093849384019290860191908190849084905b8381101561086b578181015183820152602001610853565b50505050905090810190601f1680156108985780820380516001836020036101000a031916815260200191505b509250505060405180910390a3505056fea165627a7a723058209ac92c673bc60d9c7e40477a35d3e1199128f585fa5b23a6e472582b466064460029",
    "sourcePath": "c:/Users/franc/Desktop/ReMuS/example_content/contracts/Privileged.sol",
    "compiler": {
        "name": "solc",
        "version": "0.5.2+commit.1df8f40c"
    },
    "functionHashes": {
        "createPrivilege(string,address,address)": "45d4cf2b",
        "owner()": "8da5cb5b",
        "revokePrivilege(string)": "8ae4200a",
        "transferPrivilege(string,address)": "a7cd21ea"
    },
    "gasEstimates": {
        "creation": {
            "codeDepositCost": "452200",
            "executionCost": "486",
            "totalCost": "452686"
        },
        "external": {
            "createPrivilege(string,address,address)": "infinite",
            "owner()": "575",
            "revokePrivilege(string)": "infinite",
            "transferPrivilege(string,address)": "infinite"
        }
    }
}