{
    "contractName": "ProjectWithBonds",
    "abi": [
        {
            "constant": true,
            "inputs": [],
            "name": "name",
            "outputs": [
                {
                    "name": "",
                    "type": "string"
                }
            ],
            "payable": false,
            "stateMutability": "view",
            "type": "function"
        },
        {
            "constant": true,
            "inputs": [],
            "name": "getCoupon",
            "outputs": [
                {
                    "name": "",
                    "type": "address"
                }
            ],
            "payable": false,
            "stateMutability": "view",
            "type": "function"
        },
        {
            "constant": true,
            "inputs": [],
            "name": "getValidatedLiability",
            "outputs": [
                {
                    "name": "",
                    "type": "uint256"
                }
            ],
            "payable": false,
            "stateMutability": "view",
            "type": "function"
        },
        {
            "constant": false,
            "inputs": [
                {
                    "name": "_validatorAddress",
                    "type": "address"
                }
            ],
            "name": "setValidator",
            "outputs": [],
            "payable": false,
            "stateMutability": "nonpayable",
            "type": "function"
        },
        {
            "constant": false,
            "inputs": [
                {
                    "name": "_token",
                    "type": "address"
                }
            ],
            "name": "setToken",
            "outputs": [],
            "payable": false,
            "stateMutability": "nonpayable",
            "type": "function"
        },
        {
            "constant": false,
            "inputs": [
                {
                    "name": "_beneficiaryAddress",
                    "type": "address"
                }
            ],
            "name": "setBeneficiary",
            "outputs": [],
            "payable": false,
            "stateMutability": "nonpayable",
            "type": "function"
        },
        {
            "constant": true,
            "inputs": [],
            "name": "CLAIMS_REGISTRY",
            "outputs": [
                {
                    "name": "",
                    "type": "address"
                }
            ],
            "payable": false,
            "stateMutability": "view",
            "type": "function"
        },
        {
            "constant": true,
            "inputs": [],
            "name": "getToken",
            "outputs": [
                {
                    "name": "",
                    "type": "address"
                }
            ],
            "payable": false,
            "stateMutability": "view",
            "type": "function"
        },
        {
            "constant": false,
            "inputs": [
                {
                    "name": "_from",
                    "type": "address"
                },
                {
                    "name": "_amount",
                    "type": "uint256"
                }
            ],
            "name": "notify",
            "outputs": [],
            "payable": false,
            "stateMutability": "nonpayable",
            "type": "function"
        },
        {
            "constant": true,
            "inputs": [
                {
                    "name": "_value",
                    "type": "uint256"
                }
            ],
            "name": "getPriceWithInterests",
            "outputs": [
                {
                    "name": "",
                    "type": "uint256"
                }
            ],
            "payable": false,
            "stateMutability": "view",
            "type": "function"
        },
        {
            "constant": true,
            "inputs": [],
            "name": "total",
            "outputs": [
                {
                    "name": "",
                    "type": "uint256"
                }
            ],
            "payable": false,
            "stateMutability": "view",
            "type": "function"
        },
        {
            "constant": true,
            "inputs": [],
            "name": "validatorAddress",
            "outputs": [
                {
                    "name": "",
                    "type": "address"
                }
            ],
            "payable": false,
            "stateMutability": "view",
            "type": "function"
        },
        {
            "constant": false,
            "inputs": [
                {
                    "name": "impactRegistryAddress",
                    "type": "address"
                }
            ],
            "name": "setImpactRegistry",
            "outputs": [],
            "payable": false,
            "stateMutability": "nonpayable",
            "type": "function"
        },
        {
            "constant": true,
            "inputs": [
                {
                    "name": "",
                    "type": "bytes32"
                }
            ],
            "name": "isClaimValidated",
            "outputs": [
                {
                    "name": "",
                    "type": "bool"
                }
            ],
            "payable": false,
            "stateMutability": "view",
            "type": "function"
        },
        {
            "constant": true,
            "inputs": [],
            "name": "upfrontPaymentPercentage",
            "outputs": [
                {
                    "name": "",
                    "type": "uint8"
                }
            ],
            "payable": false,
            "stateMutability": "view",
            "type": "function"
        },
        {
            "constant": false,
            "inputs": [
                {
                    "name": "account",
                    "type": "address"
                }
            ],
            "name": "payBack",
            "outputs": [],
            "payable": false,
            "stateMutability": "nonpayable",
            "type": "function"
        },
        {
            "constant": true,
            "inputs": [],
            "name": "liability",
            "outputs": [
                {
                    "name": "",
                    "type": "uint256"
                }
            ],
            "payable": false,
            "stateMutability": "view",
            "type": "function"
        },
        {
            "constant": false,
            "inputs": [],
            "name": "renounceOwnership",
            "outputs": [],
            "payable": false,
            "stateMutability": "nonpayable",
            "type": "function"
        },
        {
            "constant": true,
            "inputs": [],
            "name": "owner",
            "outputs": [
                {
                    "name": "",
                    "type": "address"
                }
            ],
            "payable": false,
            "stateMutability": "view",
            "type": "function"
        },
        {
            "constant": true,
            "inputs": [],
            "name": "isOwner",
            "outputs": [
                {
                    "name": "",
                    "type": "bool"
                }
            ],
            "payable": false,
            "stateMutability": "view",
            "type": "function"
        },
        {
            "constant": false,
            "inputs": [
                {
                    "name": "escapeAddress",
                    "type": "address"
                }
            ],
            "name": "escape",
            "outputs": [],
            "payable": false,
            "stateMutability": "nonpayable",
            "type": "function"
        },
        {
            "constant": false,
            "inputs": [
                {
                    "name": "_amount",
                    "type": "uint256"
                }
            ],
            "name": "donateFromWallet",
            "outputs": [],
            "payable": false,
            "stateMutability": "nonpayable",
            "type": "function"
        },
        {
            "constant": false,
            "inputs": [
                {
                    "name": "_claimId",
                    "type": "bytes32"
                },
                {
                    "name": "_value",
                    "type": "uint256"
                }
            ],
            "name": "validateOutcome",
            "outputs": [],
            "payable": false,
            "stateMutability": "nonpayable",
            "type": "function"
        },
        {
            "constant": true,
            "inputs": [],
            "name": "couponNominalPrice",
            "outputs": [
                {
                    "name": "",
                    "type": "uint256"
                }
            ],
            "payable": false,
            "stateMutability": "view",
            "type": "function"
        },
        {
            "constant": false,
            "inputs": [
                {
                    "name": "_alternativeToken",
                    "type": "address"
                },
                {
                    "name": "_targetAddress",
                    "type": "address"
                },
                {
                    "name": "_value",
                    "type": "uint256"
                }
            ],
            "name": "reclaimAlternativeTokens",
            "outputs": [],
            "payable": false,
            "stateMutability": "nonpayable",
            "type": "function"
        },
        {
            "constant": false,
            "inputs": [
                {
                    "name": "_amount",
                    "type": "uint256"
                }
            ],
            "name": "redeemCoupons",
            "outputs": [],
            "payable": false,
            "stateMutability": "nonpayable",
            "type": "function"
        },
        {
            "constant": false,
            "inputs": [
                {
                    "name": "_value",
                    "type": "uint256"
                }
            ],
            "name": "fund",
            "outputs": [],
            "payable": false,
            "stateMutability": "nonpayable",
            "type": "function"
        },
        {
            "constant": true,
            "inputs": [],
            "name": "IMPACT_REGISTRY_ADDRESS",
            "outputs": [
                {
                    "name": "",
                    "type": "address"
                }
            ],
            "payable": false,
            "stateMutability": "view",
            "type": "function"
        },
        {
            "constant": true,
            "inputs": [],
            "name": "beneficiaryAddress",
            "outputs": [
                {
                    "name": "",
                    "type": "address"
                }
            ],
            "payable": false,
            "stateMutability": "view",
            "type": "function"
        },
        {
            "constant": false,
            "inputs": [
                {
                    "name": "newOwner",
                    "type": "address"
                }
            ],
            "name": "transferOwnership",
            "outputs": [],
            "payable": false,
            "stateMutability": "nonpayable",
            "type": "function"
        },
        {
            "constant": true,
            "inputs": [],
            "name": "getLiability",
            "outputs": [
                {
                    "name": "",
                    "type": "uint256"
                }
            ],
            "payable": false,
            "stateMutability": "view",
            "type": "function"
        },
        {
            "constant": false,
            "inputs": [
                {
                    "name": "_amount",
                    "type": "uint256"
                }
            ],
            "name": "investFromWallet",
            "outputs": [],
            "payable": false,
            "stateMutability": "nonpayable",
            "type": "function"
        },
        {
            "constant": true,
            "inputs": [
                {
                    "name": "_donor",
                    "type": "address"
                }
            ],
            "name": "getBalance",
            "outputs": [
                {
                    "name": "balance",
                    "type": "uint256"
                }
            ],
            "payable": false,
            "stateMutability": "view",
            "type": "function"
        },
        {
            "constant": true,
            "inputs": [],
            "name": "validatedLiability",
            "outputs": [
                {
                    "name": "",
                    "type": "uint256"
                }
            ],
            "payable": false,
            "stateMutability": "view",
            "type": "function"
        },
        {
            "constant": true,
            "inputs": [],
            "name": "couponInterestRate",
            "outputs": [
                {
                    "name": "",
                    "type": "uint256"
                }
            ],
            "payable": false,
            "stateMutability": "view",
            "type": "function"
        },
        {
            "constant": false,
            "inputs": [
                {
                    "name": "_claimsRegistry",
                    "type": "address"
                }
            ],
            "name": "setClaimsRegistry",
            "outputs": [],
            "payable": false,
            "stateMutability": "nonpayable",
            "type": "function"
        },
        {
            "inputs": [
                {
                    "name": "_name",
                    "type": "string"
                },
                {
                    "name": "_upfrontPaymentPercentage",
                    "type": "uint8"
                },
                {
                    "name": "_couponNominalPrice",
                    "type": "uint256"
                },
                {
                    "name": "_couponInterestRate",
                    "type": "uint256"
                }
            ],
            "payable": false,
            "stateMutability": "nonpayable",
            "type": "constructor"
        },
        {
            "anonymous": false,
            "inputs": [
                {
                    "indexed": true,
                    "name": "to",
                    "type": "address"
                },
                {
                    "indexed": false,
                    "name": "value",
                    "type": "uint256"
                }
            ],
            "name": "CouponIssuedEvent",
            "type": "event"
        },
        {
            "anonymous": false,
            "inputs": [
                {
                    "indexed": true,
                    "name": "from",
                    "type": "address"
                },
                {
                    "indexed": false,
                    "name": "value",
                    "type": "uint256"
                }
            ],
            "name": "CouponRedeemEvent",
            "type": "event"
        },
        {
            "anonymous": false,
            "inputs": [
                {
                    "indexed": false,
                    "name": "claimId",
                    "type": "bytes32"
                },
                {
                    "indexed": false,
                    "name": "value",
                    "type": "uint256"
                }
            ],
            "name": "OutcomeEvent",
            "type": "event"
        },
        {
            "anonymous": false,
            "inputs": [
                {
                    "indexed": true,
                    "name": "from",
                    "type": "address"
                },
                {
                    "indexed": false,
                    "name": "value",
                    "type": "uint256"
                }
            ],
            "name": "DonationEvent",
            "type": "event"
        },
        {
            "anonymous": false,
            "inputs": [
                {
                    "indexed": true,
                    "name": "previousOwner",
                    "type": "address"
                },
                {
                    "indexed": true,
                    "name": "newOwner",
                    "type": "address"
                }
            ],
            "name": "OwnershipTransferred",
            "type": "event"
        }
    ],
    "bytecode": "60806040523480156200001157600080fd5b50604051620034c4380380620034c4833981018060405260808110156200003757600080fd5b8101908080516401000000008111156200005057600080fd5b820160208101848111156200006457600080fd5b81516401000000008111828201871017156200007f57600080fd5b5050602082015160408084015160609094015160008054600160a060020a031916331780825592519497509295509286928692600160a060020a0316917f8be0079c531659141344cd1fd0a4f28419497f9722a3daafe3b4186f6b6457e0908290a360008160ff1610158015620000f9575060648160ff16105b15156200010557600080fd5b81516200011a906001906020850190620001b3565b506005805460ff909216740100000000000000000000000000000000000000000260a060020a60ff021990921691909117905550600b829055600a819055816200016362000238565b90815260405190819003602001906000f08015801562000187573d6000803e3d6000fd5b50600e8054600160a060020a031916600160a060020a0392909216919091179055506200026992505050565b828054600181600116156101000203166002900490600052602060002090601f016020900481019282601f10620001f657805160ff191683800117855562000226565b8280016001018555821562000226579182015b828111156200022657825182559160200191906001019062000209565b506200023492915062000249565b5090565b60405161165e8062001e6683390190565b6200026691905b8082111562000234576000815560010162000250565b90565b611bed80620002796000396000f3fe608060405234801561001057600080fd5b50600436106102205760003560e060020a900480638da5cb5b11610129578063d81ad101116100b1578063f747b74411610080578063f747b74414610594578063f8b2cb4f146105b1578063f9f04666146105d7578063fadfdb66146105df578063fb36105f146105e757610220565b8063d81ad10114610556578063d9c4870e1461055e578063f2fde38b14610566578063f3c15f491461058c57610220565b8063abaabcf0116100f8578063abaabcf0146104bb578063bc565f18146104de578063bfbfb439146104e6578063c5bd90891461051c578063ca1d209d1461053957610220565b80638da5cb5b146104685780638f32d59b146104705780639cb6ed7e14610478578063a94385a01461049e57610220565b80632a9f0fb2116101ac5780635588306a1161017b5780635588306a146103e357806360500064146104145780636293fd1e14610432578063705727b514610458578063715018a61461046057610220565b80632a9f0fb2146103905780632ddbd13a146103ad5780633fe4676e146103b55780635102ad69146103bd57610220565b8063144fa6d7116101f3578063144fa6d7146103085780631c31f7101461032e578063203899e11461035457806321df0da71461035c57806325fda1761461036457610220565b806306fdde031461022557806307634cbe146102a25780630f610c06146102c65780631327d3d8146102e0575b600080fd5b61022d61060d565b6040805160208082528351818301528351919283929083019185019080838360005b8381101561026757818101518382015260200161024f565b50505050905090810190601f1680156102945780820380516001836020036101000a031916815260200191505b509250505060405180910390f35b6102aa61069a565b60408051600160a060020a039092168252519081900360200190f35b6102ce6106a9565b60408051918252519081900360200190f35b610306600480360360208110156102f657600080fd5b5035600160a060020a03166106af565b005b6103066004803603602081101561031e57600080fd5b5035600160a060020a031661071d565b6103066004803603602081101561034457600080fd5b5035600160a060020a031661078b565b6102aa6107f9565b6102aa610808565b6103066004803603604081101561037a57600080fd5b50600160a060020a038135169060200135610817565b6102ce600480360360208110156103a657600080fd5b5035610893565b6102ce6108d2565b6102aa6108d8565b610306600480360360208110156103d357600080fd5b5035600160a060020a03166108e7565b610400600480360360208110156103f957600080fd5b5035610955565b604080519115158252519081900360200190f35b61041c61096a565b6040805160ff9092168252519081900360200190f35b6103066004803603602081101561044857600080fd5b5035600160a060020a031661098b565b6102ce610b20565b610306610b26565b6102aa610bbc565b610400610bcb565b6103066004803603602081101561048e57600080fd5b5035600160a060020a0316610bdc565b610306600480360360208110156104b457600080fd5b5035610cc8565b610306600480360360408110156104d157600080fd5b5080359060200135610d7b565b6102ce610f88565b610306600480360360608110156104fc57600080fd5b50600160a060020a03813581169160208101359091169060400135610f8e565b6103066004803603602081101561053257600080fd5b503561119c565b6103066004803603602081101561054f57600080fd5b503561134e565b6102aa6113b3565b6102aa6113c2565b6103066004803603602081101561057c57600080fd5b5035600160a060020a03166113d1565b6102ce611426565b610306600480360360208110156105aa57600080fd5b503561142c565b6102ce600480360360208110156105c757600080fd5b5035600160a060020a03166115ed565b6102ce61168b565b6102ce611691565b610306600480360360208110156105fd57600080fd5b5035600160a060020a0316611697565b60018054604080516020600284861615610100026000190190941693909304601f810184900484028201840190925281815292918301828280156106925780601f1061066757610100808354040283529160200191610692565b820191906000526020600020905b81548152906001019060200180831161067557829003601f168201915b505050505081565b600e54600160a060020a031690565b600d5490565b6106b7610bcb565b15156106fb576040805160e560020a62461bcd0281526020600482018190526024820152600080516020611ba2833981519152604482015290519081900360640190fd5b60028054600160a060020a031916600160a060020a0392909216919091179055565b610725610bcb565b1515610769576040805160e560020a62461bcd0281526020600482018190526024820152600080516020611ba2833981519152604482015290519081900360640190fd5b60098054600160a060020a031916600160a060020a0392909216919091179055565b610793610bcb565b15156107d7576040805160e560020a62461bcd0281526020600482018190526024820152600080516020611ba2833981519152604482015290519081900360640190fd5b60038054600160a060020a031916600160a060020a0392909216919091179055565b600554600160a060020a031681565b600954600160a060020a031690565b61081f610bcb565b1515610863576040805160e560020a62461bcd0281526020600482018190526024820152600080516020611ba2833981519152604482015290519081900360640190fd5b600160a060020a038216151561087857600080fd5b6000811161088557600080fd5b61088f8282611705565b5050565b60006108cc6108bf6127106108b3600a54866118a890919063ffffffff16565b9063ffffffff61190f16565b839063ffffffff61197e16565b92915050565b60085481565b600254600160a060020a031681565b6108ef610bcb565b1515610933576040805160e560020a62461bcd0281526020600482018190526024820152600080516020611ba2833981519152604482015290519081900360640190fd5b60048054600160a060020a031916600160a060020a0392909216919091179055565b60076020526000908152604090205460ff1681565b60055474010000000000000000000000000000000000000000900460ff1681565b610993610bcb565b15156109d7576040805160e560020a62461bcd0281526020600482018190526024820152600080516020611ba2833981519152604482015290519081900360640190fd5b60006109e2826115ed565b9050600081111561088f576109f5610808565b600160a060020a031663a9059cbb83836040518363ffffffff1660e060020a0281526004018083600160a060020a0316600160a060020a0316815260200182815260200192505050602060405180830381600087803b158015610a5757600080fd5b505af1158015610a6b573d6000803e3d6000fd5b505050506040513d6020811015610a8157600080fd5b5050600854610a96908263ffffffff6119db16565b60085560048054604080517f6293fd1e000000000000000000000000000000000000000000000000000000008152600160a060020a038681169482019490945290519290911691636293fd1e9160248082019260009290919082900301818387803b158015610b0457600080fd5b505af1158015610b18573d6000803e3d6000fd5b505050505050565b600c5481565b610b2e610bcb565b1515610b72576040805160e560020a62461bcd0281526020600482018190526024820152600080516020611ba2833981519152604482015290519081900360640190fd5b60008054604051600160a060020a03909116907f8be0079c531659141344cd1fd0a4f28419497f9722a3daafe3b4186f6b6457e0908390a360008054600160a060020a0319169055565b600054600160a060020a031690565b600054600160a060020a0316331490565b610be4610bcb565b1515610c28576040805160e560020a62461bcd0281526020600482018190526024820152600080516020611ba2833981519152604482015290519081900360640190fd5b610c30610808565b600160a060020a031663a9059cbb826008546040518363ffffffff1660e060020a0281526004018083600160a060020a0316600160a060020a0316815260200182815260200192505050602060405180830381600087803b158015610c9457600080fd5b505af1158015610ca8573d6000803e3d6000fd5b505050506040513d6020811015610cbe57600080fd5b5050600060085550565b610cd0610808565b604080517f23b872dd000000000000000000000000000000000000000000000000000000008152336004820152306024820152604481018490529051600160a060020a0392909216916323b872dd916064808201926020929091908290030181600087803b158015610d4157600080fd5b505af1158015610d55573d6000803e3d6000fd5b505050506040513d6020811015610d6b57600080fd5b50610d7890503382611705565b50565b600254600160a060020a03163314610d9257600080fd5b600854811115610da157600080fd5b6000610dba600d54600c546119db90919063ffffffff16565b905080821115610e98576000610dd6838363ffffffff6119db16565b9050610de0610808565b600354604080517fa9059cbb000000000000000000000000000000000000000000000000000000008152600160a060020a039283166004820152602481018590529051929091169163a9059cbb916044808201926020929091908290030181600087803b158015610e5057600080fd5b505af1158015610e64573d6000803e3d6000fd5b505050506040513d6020811015610e7a57600080fd5b5050600d54610e8f908363ffffffff61197e16565b600d5550610eaf565b600d54610eab908363ffffffff61197e16565b600d555b600854610ec2908363ffffffff6119db16565b60085560048054604080517f56ffeee40000000000000000000000000000000000000000000000000000000081529283018690526024830185905251600160a060020a03909116916356ffeee491604480830192600092919082900301818387803b158015610f3057600080fd5b505af1158015610f44573d6000803e3d6000fd5b5050604080518681526020810186905281517fe838531c29460bbe6ed403e0118d4d31b3e5f5a254b51af85e57893acc9d050c9450908190039091019150a1505050565b600b5481565b610f96610bcb565b1515610fda576040805160e560020a62461bcd0281526020600482018190526024820152600080516020611ba2833981519152604482015290519081900360640190fd5b600160a060020a038316151561103a576040805160e560020a62461bcd02815260206004820152601660248201527f556e646566696e656420455243323020746f6b656e7300000000000000000000604482015290519081900360640190fd5b604080517f70a0823100000000000000000000000000000000000000000000000000000000815230600482015290518291600160a060020a038616916370a0823191602480820192602092909190829003018186803b15801561109c57600080fd5b505afa1580156110b0573d6000803e3d6000fd5b505050506040513d60208110156110c657600080fd5b505110156111085760405160e560020a62461bcd02815260040180806020018281038252602c815260200180611b55602c913960400191505060405180910390fd5b82600160a060020a031663a9059cbb83836040518363ffffffff1660e060020a0281526004018083600160a060020a0316600160a060020a0316815260200182815260200192505050602060405180830381600087803b15801561116b57600080fd5b505af115801561117f573d6000803e3d6000fd5b505050506040513d602081101561119557600080fd5b5050505050565b60006111bb6111b6600b54846118a890919063ffffffff16565b610893565b905080600d54101515156111ce57600080fd5b600e54604080517f79cc6790000000000000000000000000000000000000000000000000000000008152336004820152602481018590529051600160a060020a03909216916379cc67909160448082019260009290919082900301818387803b15801561123a57600080fd5b505af115801561124e573d6000803e3d6000fd5b5050505061125a610808565b600160a060020a031663a9059cbb33836040518363ffffffff1660e060020a0281526004018083600160a060020a0316600160a060020a0316815260200182815260200192505050602060405180830381600087803b1580156112bc57600080fd5b505af11580156112d0573d6000803e3d6000fd5b505050506040513d60208110156112e657600080fd5b5050600c546112fb908263ffffffff6119db16565b600c55600d54611311908263ffffffff6119db16565b600d5560408051838152905133917f0f7120f7dce45c07e188220c5ae14d3cc122e2eb24ab313dcf162e6a13ced5e5919081900360200190a25050565b611356610bcb565b151561139a576040805160e560020a62461bcd0281526020600482018190526024820152600080516020611ba2833981519152604482015290519081900360640190fd5b6008546113ad908263ffffffff61197e16565b60085550565b600454600160a060020a031681565b600354600160a060020a031681565b6113d9610bcb565b151561141d576040805160e560020a62461bcd0281526020600482018190526024820152600080516020611ba2833981519152604482015290519081900360640190fd5b610d7881611a3b565b600c5490565b611434610808565b600354604080517f23b872dd000000000000000000000000000000000000000000000000000000008152336004820152600160a060020a03928316602482015260448101859052905192909116916323b872dd916064808201926020929091908290030181600087803b1580156114aa57600080fd5b505af11580156114be573d6000803e3d6000fd5b505050506040513d60208110156114d457600080fd5b505115156114e157600080fd5b60006114f8600b548361190f90919063ffffffff16565b600e54604080517f40c10f19000000000000000000000000000000000000000000000000000000008152336004820152602481018490529051929350600160a060020a03909116916340c10f19916044808201926020929091908290030181600087803b15801561156857600080fd5b505af115801561157c573d6000803e3d6000fd5b505050506040513d602081101561159257600080fd5b506115b090506115a183610893565b600c549063ffffffff61197e16565b600c5560408051828152905133917f1b3f8104a161cbc0dd2620d8a13f2583997e245ef64e1df46b9fc9d6fda12c9d919081900360200190a25050565b60048054604080517ff8b2cb4f000000000000000000000000000000000000000000000000000000008152600160a060020a038581169482019490945290516000939092169163f8b2cb4f91602480820192602092909190829003018186803b15801561165957600080fd5b505afa15801561166d573d6000803e3d6000fd5b505050506040513d602081101561168357600080fd5b505192915050565b600d5481565b600a5481565b61169f610bcb565b15156116e3576040805160e560020a62461bcd0281526020600482018190526024820152600080516020611ba2833981519152604482015290519081900360640190fd5b60058054600160a060020a031916600160a060020a0392909216919091179055565b60008061171183611ae0565b9150915060008211156117c357611726610808565b600354604080517fa9059cbb000000000000000000000000000000000000000000000000000000008152600160a060020a039283166004820152602481018690529051929091169163a9059cbb916044808201926020929091908290030181600087803b15801561179657600080fd5b505af11580156117aa573d6000803e3d6000fd5b505050506040513d60208110156117c057600080fd5b50505b6008546117d6908263ffffffff61197e16565b60085560048054604080517f3c49dde4000000000000000000000000000000000000000000000000000000008152600160a060020a03888116948201949094526024810185905290519290911691633c49dde49160448082019260009290919082900301818387803b15801561184b57600080fd5b505af115801561185f573d6000803e3d6000fd5b5050604080518681529051600160a060020a03881693507f8b7fe5be5699654fd637d2250cb0d47e88205730710745e78e9d8bcaf8aad8f192509081900360200190a250505050565b60008215156118b9575060006108cc565b8282028284828115156118c857fe5b04146119085760405160e560020a62461bcd028152600401808060200182810382526021815260200180611b816021913960400191505060405180910390fd5b9392505050565b6000808211611968576040805160e560020a62461bcd02815260206004820152601a60248201527f536166654d6174683a206469766973696f6e206279207a65726f000000000000604482015290519081900360640190fd5b6000828481151561197557fe5b04949350505050565b600082820183811015611908576040805160e560020a62461bcd02815260206004820152601b60248201527f536166654d6174683a206164646974696f6e206f766572666c6f770000000000604482015290519081900360640190fd5b600082821115611a35576040805160e560020a62461bcd02815260206004820152601e60248201527f536166654d6174683a207375627472616374696f6e206f766572666c6f770000604482015290519081900360640190fd5b50900390565b600160a060020a0381161515611a855760405160e560020a62461bcd028152600401808060200182810382526026815260200180611b2f6026913960400191505060405180910390fd5b60008054604051600160a060020a03808516939216917f8be0079c531659141344cd1fd0a4f28419497f9722a3daafe3b4186f6b6457e091a360008054600160a060020a031916600160a060020a0392909216919091179055565b6005546000908190611b15906064906108b390869074010000000000000000000000000000000000000000900460ff166118a8565b9150611b27838363ffffffff6119db16565b905091509156fe4f776e61626c653a206e6577206f776e657220697320746865207a65726f2061646472657373496e73756666696369656e742066756e6473206465706f7369746564206f6e2074686520636f6e7472616374536166654d6174683a206d756c7469706c69636174696f6e206f766572666c6f774f776e61626c653a2063616c6c6572206973206e6f7420746865206f776e6572a165627a7a723058201de110b99b788de57f29bec001dffaab5190f093ffa094d453a3de46d626339f002960c0604052600c60808190527f416c69636520436f75706f6e000000000000000000000000000000000000000060a0908152620000409160059190620002f4565b506006805460ff191660021790556040805180820190915260038082527f414c43000000000000000000000000000000000000000000000000000000000060209092019182526200009491600791620002f4565b506040805180820190915260078082527f414c4320312e30000000000000000000000000000000000000000000000000006020909201918252620000db91600891620002f4565b50348015620000e957600080fd5b506040516020806200165e833981018060405260208110156200010b57600080fd5b5051620001213364010000000062000176810204565b60048054600160a060020a031916331790819055604051600160a060020a0391909116906000907f8be0079c531659141344cd1fd0a4f28419497f9722a3daafe3b4186f6b6457e0908290a360095562000399565b620001916003826401000000006200102f620001c882021704565b604051600160a060020a038216907f6ae172837ea30b801fbfcdd4108aa1d5bf8ff775444fd70256b44e6bf3dfc3f690600090a250565b620001dd82826401000000006200026f810204565b156200024a57604080517f08c379a000000000000000000000000000000000000000000000000000000000815260206004820152601f60248201527f526f6c65733a206163636f756e7420616c72656164792068617320726f6c6500604482015290519081900360640190fd5b600160a060020a0316600090815260209190915260409020805460ff19166001179055565b6000600160a060020a0382161515620002d4576040517f08c379a00000000000000000000000000000000000000000000000000000000081526004018080602001828103825260228152602001806200163c6022913960400191505060405180910390fd5b50600160a060020a03166000908152602091909152604090205460ff1690565b828054600181600116156101000203166002900490600052602060002090601f016020900481019282601f106200033757805160ff191683800117855562000367565b8280016001018555821562000367579182015b82811115620003675782518255916020019190600101906200034a565b506200037592915062000379565b5090565b6200039691905b8082111562000375576000815560010162000380565b90565b61129380620003a96000396000f3fe608060405234801561001057600080fd5b506004361061016a576000357c01000000000000000000000000000000000000000000000000000000009004806379cc6790116100e0578063986502751161009957806398650275146103d5578063a457c2d7146103dd578063a9059cbb14610409578063aa271e1a14610435578063dd62ed3e1461045b578063f2fde38b146104895761016a565b806379cc6790146103475780638da5cb5b146103735780638f32d59b146103975780639131fde21461039f57806395d89b41146103a7578063983b2d56146103af5761016a565b80633950935111610132578063395093511461029a57806340c10f19146102c657806342966c68146102f257806354fd4d501461031157806370a0823114610319578063715018a61461033f5761016a565b806306fdde031461016f578063095ea7b3146101ec57806318160ddd1461022c57806323b872dd14610246578063313ce5671461027c575b600080fd5b6101776104af565b6040805160208082528351818301528351919283929083019185019080838360005b838110156101b1578181015183820152602001610199565b50505050905090810190601f1680156101de5780820380516001836020036101000a031916815260200191505b509250505060405180910390f35b6102186004803603604081101561020257600080fd5b50600160a060020a03813516906020013561053d565b604080519115158252519081900360200190f35b610234610553565b60408051918252519081900360200190f35b6102186004803603606081101561025c57600080fd5b50600160a060020a03813581169160208101359091169060400135610559565b6102846105b0565b6040805160ff9092168252519081900360200190f35b610218600480360360408110156102b057600080fd5b50600160a060020a0381351690602001356105b9565b610218600480360360408110156102dc57600080fd5b50600160a060020a0381351690602001356105f5565b61030f6004803603602081101561030857600080fd5b503561064a565b005b610177610657565b6102346004803603602081101561032f57600080fd5b5035600160a060020a03166106b2565b61030f6106cd565b61030f6004803603604081101561035d57600080fd5b50600160a060020a038135169060200135610782565b61037b610790565b60408051600160a060020a039092168252519081900360200190f35b61021861079f565b6102346107b0565b6101776107b6565b61030f600480360360208110156103c557600080fd5b5035600160a060020a0316610811565b61030f610863565b610218600480360360408110156103f357600080fd5b50600160a060020a03813516906020013561086e565b6102186004803603604081101561041f57600080fd5b50600160a060020a0381351690602001356108aa565b6102186004803603602081101561044b57600080fd5b5035600160a060020a03166108b7565b6102346004803603604081101561047157600080fd5b50600160a060020a03813581169160200135166108d0565b61030f6004803603602081101561049f57600080fd5b5035600160a060020a03166108fb565b6005805460408051602060026001851615610100026000190190941693909304601f810184900484028201840190925281815292918301828280156105355780601f1061050a57610100808354040283529160200191610535565b820191906000526020600020905b81548152906001019060200180831161051857829003601f168201915b505050505081565b600061054a338484610962565b50600192915050565b60025490565b6000610566848484610a58565b600160a060020a0384166000908152600160209081526040808320338085529252909120546105a69186916105a1908663ffffffff610ba416565b610962565b5060019392505050565b60065460ff1681565b336000818152600160209081526040808320600160a060020a0387168452909152812054909161054a9185906105a1908663ffffffff610c0416565b6000610600336108b7565b15156106405760405160e560020a62461bcd02815260040180806020018281038252603081526020018061118b6030913960400191505060405180910390fd5b61054a8383610c68565b6106543382610d5d565b50565b6008805460408051602060026001851615610100026000190190941693909304601f810184900484028201840190925281815292918301828280156105355780601f1061050a57610100808354040283529160200191610535565b600160a060020a031660009081526020819052604090205490565b6106d561079f565b151561072b576040805160e560020a62461bcd02815260206004820181905260248201527f4f776e61626c653a2063616c6c6572206973206e6f7420746865206f776e6572604482015290519081900360640190fd5b600454604051600091600160a060020a0316907f8be0079c531659141344cd1fd0a4f28419497f9722a3daafe3b4186f6b6457e0908390a36004805473ffffffffffffffffffffffffffffffffffffffff19169055565b61078c8282610e3b565b5050565b600454600160a060020a031690565b600454600160a060020a0316331490565b60095481565b6007805460408051602060026001851615610100026000190190941693909304601f810184900484028201840190925281815292918301828280156105355780601f1061050a57610100808354040283529160200191610535565b61081a336108b7565b151561085a5760405160e560020a62461bcd02815260040180806020018281038252603081526020018061118b6030913960400191505060405180910390fd5b61065481610e80565b61086c33610ec8565b565b336000818152600160209081526040808320600160a060020a0387168452909152812054909161054a9185906105a1908663ffffffff610ba416565b600061054a338484610a58565b60006108ca60038363ffffffff610f1016565b92915050565b600160a060020a03918216600090815260016020908152604080832093909416825291909152205490565b61090361079f565b1515610959576040805160e560020a62461bcd02815260206004820181905260248201527f4f776e61626c653a2063616c6c6572206973206e6f7420746865206f776e6572604482015290519081900360640190fd5b61065481610f7c565b600160a060020a03831615156109ac5760405160e560020a62461bcd0281526004018080602001828103825260248152602001806112446024913960400191505060405180910390fd5b600160a060020a03821615156109f65760405160e560020a62461bcd0281526004018080602001828103825260228152602001806111696022913960400191505060405180910390fd5b600160a060020a03808416600081815260016020908152604080832094871680845294825291829020859055815185815291517f8c5be1e5ebec7d5bd14f71427d1e84f3dd0314c0f7b2291e5b200ac8c7c3b9259281900390910190a3505050565b600160a060020a0383161515610aa25760405160e560020a62461bcd02815260040180806020018281038252602581526020018061121f6025913960400191505060405180910390fd5b600160a060020a0382161515610aec5760405160e560020a62461bcd0281526004018080602001828103825260238152602001806111206023913960400191505060405180910390fd5b600160a060020a038316600090815260208190526040902054610b15908263ffffffff610ba416565b600160a060020a038085166000908152602081905260408082209390935590841681522054610b4a908263ffffffff610c0416565b600160a060020a038084166000818152602081815260409182902094909455805185815290519193928716927fddf252ad1be2c89b69c2b068fc378daa952ba7f163c4a11628f55a4df523b3ef92918290030190a3505050565b600082821115610bfe576040805160e560020a62461bcd02815260206004820152601e60248201527f536166654d6174683a207375627472616374696f6e206f766572666c6f770000604482015290519081900360640190fd5b50900390565b600082820183811015610c61576040805160e560020a62461bcd02815260206004820152601b60248201527f536166654d6174683a206164646974696f6e206f766572666c6f770000000000604482015290519081900360640190fd5b9392505050565b600160a060020a0382161515610cc8576040805160e560020a62461bcd02815260206004820152601f60248201527f45524332303a206d696e7420746f20746865207a65726f206164647265737300604482015290519081900360640190fd5b600254610cdb908263ffffffff610c0416565b600255600160a060020a038216600090815260208190526040902054610d07908263ffffffff610c0416565b600160a060020a0383166000818152602081815260408083209490945583518581529351929391927fddf252ad1be2c89b69c2b068fc378daa952ba7f163c4a11628f55a4df523b3ef9281900390910190a35050565b600160a060020a0382161515610da75760405160e560020a62461bcd0281526004018080602001828103825260218152602001806111fe6021913960400191505060405180910390fd5b600254610dba908263ffffffff610ba416565b600255600160a060020a038216600090815260208190526040902054610de6908263ffffffff610ba416565b600160a060020a038316600081815260208181526040808320949094558351858152935191937fddf252ad1be2c89b69c2b068fc378daa952ba7f163c4a11628f55a4df523b3ef929081900390910190a35050565b610e458282610d5d565b600160a060020a03821660009081526001602090815260408083203380855292529091205461078c9184916105a1908563ffffffff610ba416565b610e9160038263ffffffff61102f16565b604051600160a060020a038216907f6ae172837ea30b801fbfcdd4108aa1d5bf8ff775444fd70256b44e6bf3dfc3f690600090a250565b610ed960038263ffffffff6110b316565b604051600160a060020a038216907fe94479a9f7e1952cc78f2d6baab678adc1b772d936c6583def489e524cb6669290600090a250565b6000600160a060020a0382161515610f5c5760405160e560020a62461bcd0281526004018080602001828103825260228152602001806111dc6022913960400191505060405180910390fd5b50600160a060020a03166000908152602091909152604090205460ff1690565b600160a060020a0381161515610fc65760405160e560020a62461bcd0281526004018080602001828103825260268152602001806111436026913960400191505060405180910390fd5b600454604051600160a060020a038084169216907f8be0079c531659141344cd1fd0a4f28419497f9722a3daafe3b4186f6b6457e090600090a36004805473ffffffffffffffffffffffffffffffffffffffff1916600160a060020a0392909216919091179055565b6110398282610f10565b1561108e576040805160e560020a62461bcd02815260206004820152601f60248201527f526f6c65733a206163636f756e7420616c72656164792068617320726f6c6500604482015290519081900360640190fd5b600160a060020a0316600090815260209190915260409020805460ff19166001179055565b6110bd8282610f10565b15156110fd5760405160e560020a62461bcd0281526004018080602001828103825260218152602001806111bb6021913960400191505060405180910390fd5b600160a060020a0316600090815260209190915260409020805460ff1916905556fe45524332303a207472616e7366657220746f20746865207a65726f20616464726573734f776e61626c653a206e6577206f776e657220697320746865207a65726f206164647265737345524332303a20617070726f766520746f20746865207a65726f20616464726573734d696e746572526f6c653a2063616c6c657220646f6573206e6f74206861766520746865204d696e74657220726f6c65526f6c65733a206163636f756e7420646f6573206e6f74206861766520726f6c65526f6c65733a206163636f756e7420697320746865207a65726f206164647265737345524332303a206275726e2066726f6d20746865207a65726f206164647265737345524332303a207472616e736665722066726f6d20746865207a65726f206164647265737345524332303a20617070726f76652066726f6d20746865207a65726f2061646472657373a165627a7a7230582072d43f05f03d03b36a060e9488a200f9f362c002844694d1f8b0d065d2ab49a00029526f6c65733a206163636f756e7420697320746865207a65726f2061646472657373",
    "sourcePath": "c:/Users/franc/Desktop/ReMuS/example_content/contracts/ProjectWithBonds.sol",
    "compiler": {
        "name": "solc",
        "version": "0.5.2+commit.1df8f40c"
    },
    "functionHashes": {
        "CLAIMS_REGISTRY()": "203899e1",
        "IMPACT_REGISTRY_ADDRESS()": "d81ad101",
        "beneficiaryAddress()": "d9c4870e",
        "couponInterestRate()": "fadfdb66",
        "couponNominalPrice()": "bc565f18",
        "donateFromWallet(uint256)": "a94385a0",
        "escape(address)": "9cb6ed7e",
        "fund(uint256)": "ca1d209d",
        "getBalance(address)": "f8b2cb4f",
        "getCoupon()": "07634cbe",
        "getLiability()": "f3c15f49",
        "getPriceWithInterests(uint256)": "2a9f0fb2",
        "getToken()": "21df0da7",
        "getValidatedLiability()": "0f610c06",
        "investFromWallet(uint256)": "f747b744",
        "isClaimValidated(bytes32)": "5588306a",
        "isOwner()": "8f32d59b",
        "liability()": "705727b5",
        "name()": "06fdde03",
        "notify(address,uint256)": "25fda176",
        "owner()": "8da5cb5b",
        "payBack(address)": "6293fd1e",
        "reclaimAlternativeTokens(address,address,uint256)": "bfbfb439",
        "redeemCoupons(uint256)": "c5bd9089",
        "renounceOwnership()": "715018a6",
        "setBeneficiary(address)": "1c31f710",
        "setClaimsRegistry(address)": "fb36105f",
        "setImpactRegistry(address)": "5102ad69",
        "setToken(address)": "144fa6d7",
        "setValidator(address)": "1327d3d8",
        "total()": "2ddbd13a",
        "transferOwnership(address)": "f2fde38b",
        "upfrontPaymentPercentage()": "60500064",
        "validateOutcome(bytes32,uint256)": "abaabcf0",
        "validatedLiability()": "f9f04666",
        "validatorAddress()": "3fe4676e"
    },
    "gasEstimates": {
        "creation": {
            "codeDepositCost": "1429800",
            "executionCost": "infinite",
            "totalCost": "infinite"
        },
        "external": {
            "CLAIMS_REGISTRY()": "709",
            "IMPACT_REGISTRY_ADDRESS()": "664",
            "beneficiaryAddress()": "686",
            "couponInterestRate()": "576",
            "couponNominalPrice()": "533",
            "donateFromWallet(uint256)": "infinite",
            "escape(address)": "infinite",
            "fund(uint256)": "infinite",
            "getBalance(address)": "infinite",
            "getCoupon()": "688",
            "getLiability()": "577",
            "getPriceWithInterests(uint256)": "infinite",
            "getToken()": "731",
            "getValidatedLiability()": "557",
            "investFromWallet(uint256)": "infinite",
            "isClaimValidated(bytes32)": "631",
            "isOwner()": "620",
            "liability()": "577",
            "name()": "infinite",
            "notify(address,uint256)": "infinite",
            "owner()": "665",
            "payBack(address)": "infinite",
            "reclaimAlternativeTokens(address,address,uint256)": "infinite",
            "redeemCoupons(uint256)": "infinite",
            "renounceOwnership()": "infinite",
            "setBeneficiary(address)": "infinite",
            "setClaimsRegistry(address)": "infinite",
            "setImpactRegistry(address)": "infinite",
            "setToken(address)": "infinite",
            "setValidator(address)": "infinite",
            "total()": "534",
            "transferOwnership(address)": "infinite",
            "upfrontPaymentPercentage()": "559",
            "validateOutcome(bytes32,uint256)": "infinite",
            "validatedLiability()": "554",
            "validatorAddress()": "709"
        }
    }
}