{
    "contractName": "ProjectCatalog",
    "abi": [
        {
            "constant": false,
            "inputs": [],
            "name": "renounceOwnership",
            "outputs": [],
            "payable": false,
            "stateMutability": "nonpayable",
            "type": "function"
        },
        {
            "constant": true,
            "inputs": [],
            "name": "owner",
            "outputs": [
                {
                    "name": "",
                    "type": "address"
                }
            ],
            "payable": false,
            "stateMutability": "view",
            "type": "function"
        },
        {
            "constant": true,
            "inputs": [],
            "name": "isOwner",
            "outputs": [
                {
                    "name": "",
                    "type": "bool"
                }
            ],
            "payable": false,
            "stateMutability": "view",
            "type": "function"
        },
        {
            "constant": true,
            "inputs": [
                {
                    "name": "",
                    "type": "bytes32"
                }
            ],
            "name": "projects",
            "outputs": [
                {
                    "name": "",
                    "type": "address"
                }
            ],
            "payable": false,
            "stateMutability": "view",
            "type": "function"
        },
        {
            "constant": false,
            "inputs": [
                {
                    "name": "_name",
                    "type": "string"
                },
                {
                    "name": "_projectAddress",
                    "type": "address"
                }
            ],
            "name": "addProject",
            "outputs": [],
            "payable": false,
            "stateMutability": "nonpayable",
            "type": "function"
        },
        {
            "constant": true,
            "inputs": [
                {
                    "name": "_name",
                    "type": "string"
                }
            ],
            "name": "getProjectAddress",
            "outputs": [
                {
                    "name": "",
                    "type": "address"
                }
            ],
            "payable": false,
            "stateMutability": "view",
            "type": "function"
        },
        {
            "constant": false,
            "inputs": [
                {
                    "name": "newOwner",
                    "type": "address"
                }
            ],
            "name": "transferOwnership",
            "outputs": [],
            "payable": false,
            "stateMutability": "nonpayable",
            "type": "function"
        },
        {
            "anonymous": false,
            "inputs": [
                {
                    "indexed": false,
                    "name": "key",
                    "type": "bytes32"
                },
                {
                    "indexed": false,
                    "name": "_to",
                    "type": "address"
                }
            ],
            "name": "AddedProject",
            "type": "event"
        },
        {
            "anonymous": false,
            "inputs": [
                {
                    "indexed": true,
                    "name": "previousOwner",
                    "type": "address"
                },
                {
                    "indexed": true,
                    "name": "newOwner",
                    "type": "address"
                }
            ],
            "name": "OwnershipTransferred",
            "type": "event"
        }
    ],
    "bytecode": "6080604081905260008054600160a060020a0319163317808255600160a060020a0316917f8be0079c531659141344cd1fd0a4f28419497f9722a3daafe3b4186f6b6457e0908290a3610617806100576000396000f3fe608060405234801561001057600080fd5b506004361061009a576000357c010000000000000000000000000000000000000000000000000000000090048063b96ea12d11610078578063b96ea12d146100e9578063cc90e72514610106578063e750b5c0146101b7578063f2fde38b1461025d5761009a565b8063715018a61461009f5780638da5cb5b146100a95780638f32d59b146100cd575b600080fd5b6100a7610283565b005b6100b1610338565b60408051600160a060020a039092168252519081900360200190f35b6100d5610347565b604080519115158252519081900360200190f35b6100b1600480360360208110156100ff57600080fd5b5035610358565b6100a76004803603604081101561011c57600080fd5b81019060208101813564010000000081111561013757600080fd5b82018360208201111561014957600080fd5b8035906020019184600183028401116401000000008311171561016b57600080fd5b91908080601f01602080910402602001604051908101604052809392919081815260200183838082843760009201919091525092955050509035600160a060020a031691506103739050565b6100b1600480360360208110156101cd57600080fd5b8101906020810181356401000000008111156101e857600080fd5b8201836020820111156101fa57600080fd5b8035906020019184600183028401116401000000008311171561021c57600080fd5b91908080601f016020809104026020016040519081016040528093929190818152602001838380828437600092019190915250929550610477945050505050565b6100a76004803603602081101561027357600080fd5b5035600160a060020a03166104a2565b61028b610347565b15156102e1576040805160e560020a62461bcd02815260206004820181905260248201527f4f776e61626c653a2063616c6c6572206973206e6f7420746865206f776e6572604482015290519081900360640190fd5b60008054604051600160a060020a03909116907f8be0079c531659141344cd1fd0a4f28419497f9722a3daafe3b4186f6b6457e0908390a36000805473ffffffffffffffffffffffffffffffffffffffff19169055565b600054600160a060020a031690565b600054600160a060020a0316331490565b600160205260009081526040902054600160a060020a031681565b61037b610347565b15156103d1576040805160e560020a62461bcd02815260206004820181905260248201527f4f776e61626c653a2063616c6c6572206973206e6f7420746865206f776e6572604482015290519081900360640190fd5b60006103dc8361050c565b600081815260016020526040902054909150600160a060020a03161561040157600080fd5b600081815260016020908152604091829020805473ffffffffffffffffffffffffffffffffffffffff1916600160a060020a03861690811790915582518481529182015281517f2fe89c4dc773a17e063ab5ad90de6ebb7f976b82708b17c6990dcfefe03122cc929181900390910190a1505050565b6000806104838361050c565b600090815260016020526040902054600160a060020a03169392505050565b6104aa610347565b1515610500576040805160e560020a62461bcd02815260206004820181905260248201527f4f776e61626c653a2063616c6c6572206973206e6f7420746865206f776e6572604482015290519081900360640190fd5b61050981610513565b50565b6020015190565b600160a060020a038116151561055d5760405160e560020a62461bcd0281526004018080602001828103825260268152602001806105c66026913960400191505060405180910390fd5b60008054604051600160a060020a03808516939216917f8be0079c531659141344cd1fd0a4f28419497f9722a3daafe3b4186f6b6457e091a36000805473ffffffffffffffffffffffffffffffffffffffff1916600160a060020a039290921691909117905556fe4f776e61626c653a206e6577206f776e657220697320746865207a65726f2061646472657373a165627a7a723058202e0f556b4bf734bd16140a39fcedbde37974f4c549140986a1ae792b9ab547410029",
    "sourcePath": "c:/Users/franc/Desktop/ReMuS/example_content/contracts/ProjectCatalog.sol",
    "compiler": {
        "name": "solc",
        "version": "0.5.2+commit.1df8f40c"
    },
    "functionHashes": {
        "addProject(string,address)": "cc90e725",
        "getProjectAddress(string)": "e750b5c0",
        "isOwner()": "8f32d59b",
        "owner()": "8da5cb5b",
        "projects(bytes32)": "b96ea12d",
        "renounceOwnership()": "715018a6",
        "transferOwnership(address)": "f2fde38b"
    },
    "gasEstimates": {
        "creation": {
            "codeDepositCost": "311800",
            "executionCost": "22216",
            "totalCost": "334016"
        },
        "external": {
            "addProject(string,address)": "infinite",
            "getProjectAddress(string)": "infinite",
            "isOwner()": "534",
            "owner()": "579",
            "projects(bytes32)": "664",
            "renounceOwnership()": "22506",
            "transferOwnership(address)": "infinite"
        }
    }
}