{
    "contractName": "Project",
    "abi": [
        {
            "constant": true,
            "inputs": [],
            "name": "name",
            "outputs": [
                {
                    "name": "",
                    "type": "string"
                }
            ],
            "payable": false,
            "stateMutability": "view",
            "type": "function"
        },
        {
            "constant": false,
            "inputs": [
                {
                    "name": "_validatorAddress",
                    "type": "address"
                }
            ],
            "name": "setValidator",
            "outputs": [],
            "payable": false,
            "stateMutability": "nonpayable",
            "type": "function"
        },
        {
            "constant": false,
            "inputs": [
                {
                    "name": "_token",
                    "type": "address"
                }
            ],
            "name": "setToken",
            "outputs": [],
            "payable": false,
            "stateMutability": "nonpayable",
            "type": "function"
        },
        {
            "constant": false,
            "inputs": [
                {
                    "name": "_beneficiaryAddress",
                    "type": "address"
                }
            ],
            "name": "setBeneficiary",
            "outputs": [],
            "payable": false,
            "stateMutability": "nonpayable",
            "type": "function"
        },
        {
            "constant": true,
            "inputs": [],
            "name": "CLAIMS_REGISTRY",
            "outputs": [
                {
                    "name": "",
                    "type": "address"
                }
            ],
            "payable": false,
            "stateMutability": "view",
            "type": "function"
        },
        {
            "constant": true,
            "inputs": [],
            "name": "getToken",
            "outputs": [
                {
                    "name": "",
                    "type": "address"
                }
            ],
            "payable": false,
            "stateMutability": "view",
            "type": "function"
        },
        {
            "constant": false,
            "inputs": [
                {
                    "name": "_from",
                    "type": "address"
                },
                {
                    "name": "_amount",
                    "type": "uint256"
                }
            ],
            "name": "notify",
            "outputs": [],
            "payable": false,
            "stateMutability": "nonpayable",
            "type": "function"
        },
        {
            "constant": true,
            "inputs": [],
            "name": "total",
            "outputs": [
                {
                    "name": "",
                    "type": "uint256"
                }
            ],
            "payable": false,
            "stateMutability": "view",
            "type": "function"
        },
        {
            "constant": true,
            "inputs": [],
            "name": "validatorAddress",
            "outputs": [
                {
                    "name": "",
                    "type": "address"
                }
            ],
            "payable": false,
            "stateMutability": "view",
            "type": "function"
        },
        {
            "constant": false,
            "inputs": [
                {
                    "name": "impactRegistryAddress",
                    "type": "address"
                }
            ],
            "name": "setImpactRegistry",
            "outputs": [],
            "payable": false,
            "stateMutability": "nonpayable",
            "type": "function"
        },
        {
            "constant": true,
            "inputs": [
                {
                    "name": "",
                    "type": "bytes32"
                }
            ],
            "name": "isClaimValidated",
            "outputs": [
                {
                    "name": "",
                    "type": "bool"
                }
            ],
            "payable": false,
            "stateMutability": "view",
            "type": "function"
        },
        {
            "constant": true,
            "inputs": [],
            "name": "upfrontPaymentPercentage",
            "outputs": [
                {
                    "name": "",
                    "type": "uint8"
                }
            ],
            "payable": false,
            "stateMutability": "view",
            "type": "function"
        },
        {
            "constant": false,
            "inputs": [
                {
                    "name": "account",
                    "type": "address"
                }
            ],
            "name": "payBack",
            "outputs": [],
            "payable": false,
            "stateMutability": "nonpayable",
            "type": "function"
        },
        {
            "constant": false,
            "inputs": [],
            "name": "renounceOwnership",
            "outputs": [],
            "payable": false,
            "stateMutability": "nonpayable",
            "type": "function"
        },
        {
            "constant": true,
            "inputs": [],
            "name": "owner",
            "outputs": [
                {
                    "name": "",
                    "type": "address"
                }
            ],
            "payable": false,
            "stateMutability": "view",
            "type": "function"
        },
        {
            "constant": true,
            "inputs": [],
            "name": "isOwner",
            "outputs": [
                {
                    "name": "",
                    "type": "bool"
                }
            ],
            "payable": false,
            "stateMutability": "view",
            "type": "function"
        },
        {
            "constant": false,
            "inputs": [
                {
                    "name": "escapeAddress",
                    "type": "address"
                }
            ],
            "name": "escape",
            "outputs": [],
            "payable": false,
            "stateMutability": "nonpayable",
            "type": "function"
        },
        {
            "constant": false,
            "inputs": [
                {
                    "name": "_amount",
                    "type": "uint256"
                }
            ],
            "name": "donateFromWallet",
            "outputs": [],
            "payable": false,
            "stateMutability": "nonpayable",
            "type": "function"
        },
        {
            "constant": false,
            "inputs": [
                {
                    "name": "_claimId",
                    "type": "bytes32"
                },
                {
                    "name": "_value",
                    "type": "uint256"
                }
            ],
            "name": "validateOutcome",
            "outputs": [],
            "payable": false,
            "stateMutability": "nonpayable",
            "type": "function"
        },
        {
            "constant": false,
            "inputs": [
                {
                    "name": "_alternativeToken",
                    "type": "address"
                },
                {
                    "name": "_targetAddress",
                    "type": "address"
                },
                {
                    "name": "_value",
                    "type": "uint256"
                }
            ],
            "name": "reclaimAlternativeTokens",
            "outputs": [],
            "payable": false,
            "stateMutability": "nonpayable",
            "type": "function"
        },
        {
            "constant": false,
            "inputs": [
                {
                    "name": "_value",
                    "type": "uint256"
                }
            ],
            "name": "fund",
            "outputs": [],
            "payable": false,
            "stateMutability": "nonpayable",
            "type": "function"
        },
        {
            "constant": true,
            "inputs": [],
            "name": "IMPACT_REGISTRY_ADDRESS",
            "outputs": [
                {
                    "name": "",
                    "type": "address"
                }
            ],
            "payable": false,
            "stateMutability": "view",
            "type": "function"
        },
        {
            "constant": true,
            "inputs": [],
            "name": "beneficiaryAddress",
            "outputs": [
                {
                    "name": "",
                    "type": "address"
                }
            ],
            "payable": false,
            "stateMutability": "view",
            "type": "function"
        },
        {
            "constant": false,
            "inputs": [
                {
                    "name": "newOwner",
                    "type": "address"
                }
            ],
            "name": "transferOwnership",
            "outputs": [],
            "payable": false,
            "stateMutability": "nonpayable",
            "type": "function"
        },
        {
            "constant": true,
            "inputs": [
                {
                    "name": "_donor",
                    "type": "address"
                }
            ],
            "name": "getBalance",
            "outputs": [
                {
                    "name": "balance",
                    "type": "uint256"
                }
            ],
            "payable": false,
            "stateMutability": "view",
            "type": "function"
        },
        {
            "constant": false,
            "inputs": [
                {
                    "name": "_claimsRegistry",
                    "type": "address"
                }
            ],
            "name": "setClaimsRegistry",
            "outputs": [],
            "payable": false,
            "stateMutability": "nonpayable",
            "type": "function"
        },
        {
            "inputs": [
                {
                    "name": "_name",
                    "type": "string"
                },
                {
                    "name": "_upfrontPaymentPercentage",
                    "type": "uint8"
                }
            ],
            "payable": false,
            "stateMutability": "nonpayable",
            "type": "constructor"
        },
        {
            "anonymous": false,
            "inputs": [
                {
                    "indexed": false,
                    "name": "claimId",
                    "type": "bytes32"
                },
                {
                    "indexed": false,
                    "name": "value",
                    "type": "uint256"
                }
            ],
            "name": "OutcomeEvent",
            "type": "event"
        },
        {
            "anonymous": false,
            "inputs": [
                {
                    "indexed": true,
                    "name": "from",
                    "type": "address"
                },
                {
                    "indexed": false,
                    "name": "value",
                    "type": "uint256"
                }
            ],
            "name": "DonationEvent",
            "type": "event"
        },
        {
            "anonymous": false,
            "inputs": [
                {
                    "indexed": true,
                    "name": "previousOwner",
                    "type": "address"
                },
                {
                    "indexed": true,
                    "name": "newOwner",
                    "type": "address"
                }
            ],
            "name": "OwnershipTransferred",
            "type": "event"
        }
    ],
    "bytecode": "60806040523480156200001157600080fd5b506040516200199338038062001993833981018060405260408110156200003757600080fd5b8101908080516401000000008111156200005057600080fd5b820160208101848111156200006457600080fd5b81516401000000008111828201871017156200007f57600080fd5b505060209091015160008054600160a060020a0319163317808255604051939550919350600160a060020a0391909116917f8be0079c531659141344cd1fd0a4f28419497f9722a3daafe3b4186f6b6457e0908290a360008160ff1610158015620000ed575060648160ff16105b1515620000f957600080fd5b81516200010e90600190602085019062000148565b506005805460ff909216740100000000000000000000000000000000000000000260a060020a60ff021990921691909117905550620001ed565b828054600181600116156101000203166002900490600052602060002090601f016020900481019282601f106200018b57805160ff1916838001178555620001bb565b82800160010185558215620001bb579182015b82811115620001bb5782518255916020019190600101906200019e565b50620001c9929150620001cd565b5090565b620001ea91905b80821115620001c95760008155600101620001d4565b90565b61179680620001fd6000396000f3fe608060405234801561001057600080fd5b50600436106101925760003560e060020a90048063715018a6116100e2578063bfbfb4391161009b578063d9c4870e11610075578063d9c4870e14610476578063f2fde38b1461047e578063f8b2cb4f146104a4578063fb36105f146104ca57610192565b8063bfbfb4391461041b578063ca1d209d14610451578063d81ad1011461046e57610192565b8063715018a61461039d5780638da5cb5b146103a55780638f32d59b146103ad5780639cb6ed7e146103b5578063a94385a0146103db578063abaabcf0146103f857610192565b806325fda1761161014f5780635102ad69116101295780635102ad69146103025780635588306a1461032857806360500064146103595780636293fd1e1461037757610192565b806325fda176146102b45780632ddbd13a146102e05780633fe4676e146102fa57610192565b806306fdde03146101975780631327d3d814610214578063144fa6d71461023c5780631c31f71014610262578063203899e11461028857806321df0da7146102ac575b600080fd5b61019f6104f0565b6040805160208082528351818301528351919283929083019185019080838360005b838110156101d95781810151838201526020016101c1565b50505050905090810190601f1680156102065780820380516001836020036101000a031916815260200191505b509250505060405180910390f35b61023a6004803603602081101561022a57600080fd5b5035600160a060020a031661057d565b005b61023a6004803603602081101561025257600080fd5b5035600160a060020a03166105eb565b61023a6004803603602081101561027857600080fd5b5035600160a060020a0316610659565b6102906106c7565b60408051600160a060020a039092168252519081900360200190f35b6102906106d6565b61023a600480360360408110156102ca57600080fd5b50600160a060020a0381351690602001356106e5565b6102e8610761565b60408051918252519081900360200190f35b610290610767565b61023a6004803603602081101561031857600080fd5b5035600160a060020a0316610776565b6103456004803603602081101561033e57600080fd5b50356107e4565b604080519115158252519081900360200190f35b6103616107f9565b6040805160ff9092168252519081900360200190f35b61023a6004803603602081101561038d57600080fd5b5035600160a060020a031661081a565b61023a6109af565b610290610a45565b610345610a54565b61023a600480360360208110156103cb57600080fd5b5035600160a060020a0316610a65565b61023a600480360360208110156103f157600080fd5b5035610b51565b61023a6004803603604081101561040e57600080fd5b5080359060200135610c04565b61023a6004803603606081101561043157600080fd5b50600160a060020a03813581169160208101359091169060400135610eab565b61023a6004803603602081101561046757600080fd5b50356110b9565b61029061111e565b61029061112d565b61023a6004803603602081101561049457600080fd5b5035600160a060020a031661113c565b6102e8600480360360208110156104ba57600080fd5b5035600160a060020a0316611191565b61023a600480360360208110156104e057600080fd5b5035600160a060020a031661122f565b60018054604080516020600284861615610100026000190190941693909304601f810184900484028201840190925281815292918301828280156105755780601f1061054a57610100808354040283529160200191610575565b820191906000526020600020905b81548152906001019060200180831161055857829003601f168201915b505050505081565b610585610a54565b15156105c9576040805160e560020a62461bcd028152602060048201819052602482015260008051602061174b833981519152604482015290519081900360640190fd5b60028054600160a060020a031916600160a060020a0392909216919091179055565b6105f3610a54565b1515610637576040805160e560020a62461bcd028152602060048201819052602482015260008051602061174b833981519152604482015290519081900360640190fd5b60098054600160a060020a031916600160a060020a0392909216919091179055565b610661610a54565b15156106a5576040805160e560020a62461bcd028152602060048201819052602482015260008051602061174b833981519152604482015290519081900360640190fd5b60038054600160a060020a031916600160a060020a0392909216919091179055565b600554600160a060020a031681565b600954600160a060020a031690565b6106ed610a54565b1515610731576040805160e560020a62461bcd028152602060048201819052602482015260008051602061174b833981519152604482015290519081900360640190fd5b600160a060020a038216151561074657600080fd5b6000811161075357600080fd5b61075d828261129d565b5050565b60085481565b600254600160a060020a031681565b61077e610a54565b15156107c2576040805160e560020a62461bcd028152602060048201819052602482015260008051602061174b833981519152604482015290519081900360640190fd5b60048054600160a060020a031916600160a060020a0392909216919091179055565b60076020526000908152604090205460ff1681565b60055474010000000000000000000000000000000000000000900460ff1681565b610822610a54565b1515610866576040805160e560020a62461bcd028152602060048201819052602482015260008051602061174b833981519152604482015290519081900360640190fd5b600061087182611191565b9050600081111561075d576108846106d6565b600160a060020a031663a9059cbb83836040518363ffffffff1660e060020a0281526004018083600160a060020a0316600160a060020a0316815260200182815260200192505050602060405180830381600087803b1580156108e657600080fd5b505af11580156108fa573d6000803e3d6000fd5b505050506040513d602081101561091057600080fd5b5050600854610925908263ffffffff61144016565b60085560048054604080517f6293fd1e000000000000000000000000000000000000000000000000000000008152600160a060020a038681169482019490945290519290911691636293fd1e9160248082019260009290919082900301818387803b15801561099357600080fd5b505af11580156109a7573d6000803e3d6000fd5b505050505050565b6109b7610a54565b15156109fb576040805160e560020a62461bcd028152602060048201819052602482015260008051602061174b833981519152604482015290519081900360640190fd5b60008054604051600160a060020a03909116907f8be0079c531659141344cd1fd0a4f28419497f9722a3daafe3b4186f6b6457e0908390a360008054600160a060020a0319169055565b600054600160a060020a031690565b600054600160a060020a0316331490565b610a6d610a54565b1515610ab1576040805160e560020a62461bcd028152602060048201819052602482015260008051602061174b833981519152604482015290519081900360640190fd5b610ab96106d6565b600160a060020a031663a9059cbb826008546040518363ffffffff1660e060020a0281526004018083600160a060020a0316600160a060020a0316815260200182815260200192505050602060405180830381600087803b158015610b1d57600080fd5b505af1158015610b31573d6000803e3d6000fd5b505050506040513d6020811015610b4757600080fd5b5050600060085550565b610b596106d6565b604080517f23b872dd000000000000000000000000000000000000000000000000000000008152336004820152306024820152604481018490529051600160a060020a0392909216916323b872dd916064808201926020929091908290030181600087803b158015610bca57600080fd5b505af1158015610bde573d6000803e3d6000fd5b505050506040513d6020811015610bf457600080fd5b50610c019050338261129d565b50565b600254600160a060020a03163314610c1b57600080fd5b60008281526007602052604090205460ff1615610c3757600080fd5b600554600160a060020a031615610cfe57600554600354604080517fe1661eff000000000000000000000000000000000000000000000000000000008152600160a060020a039283166004820152306024820152604481018690529051600093929092169163e1661eff91606480820192602092909190829003018186803b158015610cc257600080fd5b505afa158015610cd6573d6000803e3d6000fd5b505050506040513d6020811015610cec57600080fd5b50519050818114610cfc57600080fd5b505b600081118015610d1057506008548111155b1515610d1b57600080fd5b610d236106d6565b600354604080517fa9059cbb000000000000000000000000000000000000000000000000000000008152600160a060020a039283166004820152602481018590529051929091169163a9059cbb916044808201926020929091908290030181600087803b158015610d9357600080fd5b505af1158015610da7573d6000803e3d6000fd5b505050506040513d6020811015610dbd57600080fd5b5050600854610dd2908263ffffffff61144016565b600855600082815260076020526040808220805460ff191660011790556004805482517f56ffeee4000000000000000000000000000000000000000000000000000000008152918201869052602482018590529151600160a060020a03909216926356ffeee49260448084019382900301818387803b158015610e5457600080fd5b505af1158015610e68573d6000803e3d6000fd5b5050604080518581526020810185905281517fe838531c29460bbe6ed403e0118d4d31b3e5f5a254b51af85e57893acc9d050c9450908190039091019150a15050565b610eb3610a54565b1515610ef7576040805160e560020a62461bcd028152602060048201819052602482015260008051602061174b833981519152604482015290519081900360640190fd5b600160a060020a0383161515610f57576040805160e560020a62461bcd02815260206004820152601660248201527f556e646566696e656420455243323020746f6b656e7300000000000000000000604482015290519081900360640190fd5b604080517f70a0823100000000000000000000000000000000000000000000000000000000815230600482015290518291600160a060020a038616916370a0823191602480820192602092909190829003018186803b158015610fb957600080fd5b505afa158015610fcd573d6000803e3d6000fd5b505050506040513d6020811015610fe357600080fd5b505110156110255760405160e560020a62461bcd02815260040180806020018281038252602c8152602001806116fe602c913960400191505060405180910390fd5b82600160a060020a031663a9059cbb83836040518363ffffffff1660e060020a0281526004018083600160a060020a0316600160a060020a0316815260200182815260200192505050602060405180830381600087803b15801561108857600080fd5b505af115801561109c573d6000803e3d6000fd5b505050506040513d60208110156110b257600080fd5b5050505050565b6110c1610a54565b1515611105576040805160e560020a62461bcd028152602060048201819052602482015260008051602061174b833981519152604482015290519081900360640190fd5b600854611118908263ffffffff6114a516565b60085550565b600454600160a060020a031681565b600354600160a060020a031681565b611144610a54565b1515611188576040805160e560020a62461bcd028152602060048201819052602482015260008051602061174b833981519152604482015290519081900360640190fd5b610c0181611509565b60048054604080517ff8b2cb4f000000000000000000000000000000000000000000000000000000008152600160a060020a038581169482019490945290516000939092169163f8b2cb4f91602480820192602092909190829003018186803b1580156111fd57600080fd5b505afa158015611211573d6000803e3d6000fd5b505050506040513d602081101561122757600080fd5b505192915050565b611237610a54565b151561127b576040805160e560020a62461bcd028152602060048201819052602482015260008051602061174b833981519152604482015290519081900360640190fd5b60058054600160a060020a031916600160a060020a0392909216919091179055565b6000806112a9836115ae565b91509150600082111561135b576112be6106d6565b600354604080517fa9059cbb000000000000000000000000000000000000000000000000000000008152600160a060020a039283166004820152602481018690529051929091169163a9059cbb916044808201926020929091908290030181600087803b15801561132e57600080fd5b505af1158015611342573d6000803e3d6000fd5b505050506040513d602081101561135857600080fd5b50505b60085461136e908263ffffffff6114a516565b60085560048054604080517f3c49dde4000000000000000000000000000000000000000000000000000000008152600160a060020a03888116948201949094526024810185905290519290911691633c49dde49160448082019260009290919082900301818387803b1580156113e357600080fd5b505af11580156113f7573d6000803e3d6000fd5b5050604080518681529051600160a060020a03881693507f8b7fe5be5699654fd637d2250cb0d47e88205730710745e78e9d8bcaf8aad8f192509081900360200190a250505050565b60008282111561149a576040805160e560020a62461bcd02815260206004820152601e60248201527f536166654d6174683a207375627472616374696f6e206f766572666c6f770000604482015290519081900360640190fd5b508082035b92915050565b600082820183811015611502576040805160e560020a62461bcd02815260206004820152601b60248201527f536166654d6174683a206164646974696f6e206f766572666c6f770000000000604482015290519081900360640190fd5b9392505050565b600160a060020a03811615156115535760405160e560020a62461bcd0281526004018080602001828103825260268152602001806116d86026913960400191505060405180910390fd5b60008054604051600160a060020a03808516939216917f8be0079c531659141344cd1fd0a4f28419497f9722a3daafe3b4186f6b6457e091a360008054600160a060020a031916600160a060020a0392909216919091179055565b60055460009081906115ef906064906115e390869074010000000000000000000000000000000000000000900460ff16611608565b9063ffffffff61166816565b9150611601838363ffffffff61144016565b9050915091565b60008215156116195750600061149f565b82820282848281151561162857fe5b04146115025760405160e560020a62461bcd02815260040180806020018281038252602181526020018061172a6021913960400191505060405180910390fd5b60008082116116c1576040805160e560020a62461bcd02815260206004820152601a60248201527f536166654d6174683a206469766973696f6e206279207a65726f000000000000604482015290519081900360640190fd5b600082848115156116ce57fe5b0494935050505056fe4f776e61626c653a206e6577206f776e657220697320746865207a65726f2061646472657373496e73756666696369656e742066756e6473206465706f7369746564206f6e2074686520636f6e7472616374536166654d6174683a206d756c7469706c69636174696f6e206f766572666c6f774f776e61626c653a2063616c6c6572206973206e6f7420746865206f776e6572a165627a7a72305820c4ae55b6aff45e6cd83295983a68566c97bb5a3f283426c2e3feca52f88fadd70029",
    "sourcePath": "c:/Users/franc/Desktop/ReMuS/example_content/contracts/Project.sol",
    "compiler": {
        "name": "solc",
        "version": "0.5.2+commit.1df8f40c"
    },
    "functionHashes": {
        "CLAIMS_REGISTRY()": "203899e1",
        "IMPACT_REGISTRY_ADDRESS()": "d81ad101",
        "beneficiaryAddress()": "d9c4870e",
        "donateFromWallet(uint256)": "a94385a0",
        "escape(address)": "9cb6ed7e",
        "fund(uint256)": "ca1d209d",
        "getBalance(address)": "f8b2cb4f",
        "getToken()": "21df0da7",
        "isClaimValidated(bytes32)": "5588306a",
        "isOwner()": "8f32d59b",
        "name()": "06fdde03",
        "notify(address,uint256)": "25fda176",
        "owner()": "8da5cb5b",
        "payBack(address)": "6293fd1e",
        "reclaimAlternativeTokens(address,address,uint256)": "bfbfb439",
        "renounceOwnership()": "715018a6",
        "setBeneficiary(address)": "1c31f710",
        "setClaimsRegistry(address)": "fb36105f",
        "setImpactRegistry(address)": "5102ad69",
        "setToken(address)": "144fa6d7",
        "setValidator(address)": "1327d3d8",
        "total()": "2ddbd13a",
        "transferOwnership(address)": "f2fde38b",
        "upfrontPaymentPercentage()": "60500064",
        "validateOutcome(bytes32,uint256)": "abaabcf0",
        "validatorAddress()": "3fe4676e"
    },
    "gasEstimates": {
        "creation": {
            "codeDepositCost": "1207600",
            "executionCost": "infinite",
            "totalCost": "infinite"
        },
        "external": {
            "CLAIMS_REGISTRY()": "731",
            "IMPACT_REGISTRY_ADDRESS()": "708",
            "beneficiaryAddress()": "663",
            "donateFromWallet(uint256)": "infinite",
            "escape(address)": "infinite",
            "fund(uint256)": "infinite",
            "getBalance(address)": "infinite",
            "getToken()": "753",
            "isClaimValidated(bytes32)": "653",
            "isOwner()": "619",
            "name()": "infinite",
            "notify(address,uint256)": "infinite",
            "owner()": "664",
            "payBack(address)": "infinite",
            "reclaimAlternativeTokens(address,address,uint256)": "infinite",
            "renounceOwnership()": "infinite",
            "setBeneficiary(address)": "infinite",
            "setClaimsRegistry(address)": "infinite",
            "setImpactRegistry(address)": "infinite",
            "setToken(address)": "infinite",
            "setValidator(address)": "infinite",
            "total()": "534",
            "transferOwnership(address)": "infinite",
            "upfrontPaymentPercentage()": "581",
            "validateOutcome(bytes32,uint256)": "infinite",
            "validatorAddress()": "709"
        },
        "internal": {
            "calculateUpfrontSplit(uint256)": "infinite",
            "registerDonation(address,uint256)": "infinite"
        }
    }
}