{
    "contractName": "SimpleContractRegistry",
    "abi": [
        {
            "constant": false,
            "inputs": [
                {
                    "name": "_name",
                    "type": "bytes32"
                },
                {
                    "name": "_contractAddress",
                    "type": "address"
                }
            ],
            "name": "registerContract",
            "outputs": [],
            "payable": false,
            "stateMutability": "nonpayable",
            "type": "function"
        },
        {
            "constant": false,
            "inputs": [],
            "name": "renounceOwnership",
            "outputs": [],
            "payable": false,
            "stateMutability": "nonpayable",
            "type": "function"
        },
        {
            "constant": true,
            "inputs": [],
            "name": "owner",
            "outputs": [
                {
                    "name": "",
                    "type": "address"
                }
            ],
            "payable": false,
            "stateMutability": "view",
            "type": "function"
        },
        {
            "constant": true,
            "inputs": [],
            "name": "isOwner",
            "outputs": [
                {
                    "name": "",
                    "type": "bool"
                }
            ],
            "payable": false,
            "stateMutability": "view",
            "type": "function"
        },
        {
            "constant": true,
            "inputs": [
                {
                    "name": "",
                    "type": "bytes32"
                }
            ],
            "name": "contracts",
            "outputs": [
                {
                    "name": "",
                    "type": "address"
                }
            ],
            "payable": false,
            "stateMutability": "view",
            "type": "function"
        },
        {
            "constant": false,
            "inputs": [
                {
                    "name": "newOwner",
                    "type": "address"
                }
            ],
            "name": "transferOwnership",
            "outputs": [],
            "payable": false,
            "stateMutability": "nonpayable",
            "type": "function"
        },
        {
            "anonymous": false,
            "inputs": [
                {
                    "indexed": true,
                    "name": "previousOwner",
                    "type": "address"
                },
                {
                    "indexed": true,
                    "name": "newOwner",
                    "type": "address"
                }
            ],
            "name": "OwnershipTransferred",
            "type": "event"
        }
    ],
    "bytecode": "6080604081905260008054600160a060020a0319163317808255600160a060020a0316917f8be0079c531659141344cd1fd0a4f28419497f9722a3daafe3b4186f6b6457e0908290a3610433806100576000396000f3fe608060405234801561001057600080fd5b506004361061007e577c01000000000000000000000000000000000000000000000000000000006000350463645c6fae8114610083578063715018a6146100b15780638da5cb5b146100b95780638f32d59b146100dd578063ec56a373146100f9578063f2fde38b14610116575b600080fd5b6100af6004803603604081101561009957600080fd5b5080359060200135600160a060020a031661013c565b005b6100af6101d5565b6100c161028a565b60408051600160a060020a039092168252519081900360200190f35b6100e5610299565b604080519115158252519081900360200190f35b6100c16004803603602081101561010f57600080fd5b50356102aa565b6100af6004803603602081101561012c57600080fd5b5035600160a060020a03166102c5565b610144610299565b151561019a576040805160e560020a62461bcd02815260206004820181905260248201527f4f776e61626c653a2063616c6c6572206973206e6f7420746865206f776e6572604482015290519081900360640190fd5b600091825260016020526040909120805473ffffffffffffffffffffffffffffffffffffffff1916600160a060020a03909216919091179055565b6101dd610299565b1515610233576040805160e560020a62461bcd02815260206004820181905260248201527f4f776e61626c653a2063616c6c6572206973206e6f7420746865206f776e6572604482015290519081900360640190fd5b60008054604051600160a060020a03909116907f8be0079c531659141344cd1fd0a4f28419497f9722a3daafe3b4186f6b6457e0908390a36000805473ffffffffffffffffffffffffffffffffffffffff19169055565b600054600160a060020a031690565b600054600160a060020a0316331490565b600160205260009081526040902054600160a060020a031681565b6102cd610299565b1515610323576040805160e560020a62461bcd02815260206004820181905260248201527f4f776e61626c653a2063616c6c6572206973206e6f7420746865206f776e6572604482015290519081900360640190fd5b61032c8161032f565b50565b600160a060020a03811615156103795760405160e560020a62461bcd0281526004018080602001828103825260268152602001806103e26026913960400191505060405180910390fd5b60008054604051600160a060020a03808516939216917f8be0079c531659141344cd1fd0a4f28419497f9722a3daafe3b4186f6b6457e091a36000805473ffffffffffffffffffffffffffffffffffffffff1916600160a060020a039290921691909117905556fe4f776e61626c653a206e6577206f776e657220697320746865207a65726f2061646472657373a165627a7a723058208c32335adb7444a2deca6300c40a5baac818a9b86e44815aae54a053902b1e2f0029",
    "sourcePath": "c:/Users/franc/Desktop/ReMuS/example_content/contracts/SimpleContractRegistry.sol",
    "compiler": {
        "name": "solc",
        "version": "0.5.2+commit.1df8f40c"
    },
    "functionHashes": {
        "contracts(bytes32)": "ec56a373",
        "isOwner()": "8f32d59b",
        "owner()": "8da5cb5b",
        "registerContract(bytes32,address)": "645c6fae",
        "renounceOwnership()": "715018a6",
        "transferOwnership(address)": "f2fde38b"
    },
    "gasEstimates": {
        "creation": {
            "codeDepositCost": "215000",
            "executionCost": "22124",
            "totalCost": "237124"
        },
        "external": {
            "contracts(bytes32)": "727",
            "isOwner()": "530",
            "owner()": "575",
            "registerContract(bytes32,address)": "20966",
            "renounceOwnership()": "22502",
            "transferOwnership(address)": "infinite"
        }
    }
}