{
    "contractName": "TwoPhaseTransfers",
    "abi": [
        {
            "constant": false,
            "inputs": [
                {
                    "name": "_transferId",
                    "type": "uint256"
                }
            ],
            "name": "confirmTransfer",
            "outputs": [],
            "payable": false,
            "stateMutability": "nonpayable",
            "type": "function"
        },
        {
            "constant": false,
            "inputs": [
                {
                    "name": "token",
                    "type": "address"
                },
                {
                    "name": "to",
                    "type": "address"
                },
                {
                    "name": "value",
                    "type": "uint256"
                }
            ],
            "name": "proposeTransfer",
            "outputs": [
                {
                    "name": "",
                    "type": "uint256"
                }
            ],
            "payable": false,
            "stateMutability": "nonpayable",
            "type": "function"
        },
        {
            "inputs": [
                {
                    "name": "_proposers",
                    "type": "address[]"
                },
                {
                    "name": "_validators",
                    "type": "address[]"
                }
            ],
            "payable": false,
            "stateMutability": "nonpayable",
            "type": "constructor"
        },
        {
            "anonymous": false,
            "inputs": [
                {
                    "indexed": true,
                    "name": "id",
                    "type": "uint256"
                },
                {
                    "indexed": true,
                    "name": "token",
                    "type": "address"
                },
                {
                    "indexed": true,
                    "name": "to",
                    "type": "address"
                },
                {
                    "indexed": false,
                    "name": "value",
                    "type": "uint256"
                }
            ],
            "name": "TransferProposed",
            "type": "event"
        },
        {
            "anonymous": false,
            "inputs": [
                {
                    "indexed": true,
                    "name": "id",
                    "type": "uint256"
                },
                {
                    "indexed": true,
                    "name": "token",
                    "type": "address"
                },
                {
                    "indexed": true,
                    "name": "to",
                    "type": "address"
                },
                {
                    "indexed": false,
                    "name": "value",
                    "type": "uint256"
                }
            ],
            "name": "TransferConfirmed",
            "type": "event"
        }
    ],
    "bytecode": "6080604052600160035534801561001557600080fd5b5060405161051c38038061051c8339810180604052604081101561003857600080fd5b81019080805164010000000081111561005057600080fd5b8201602081018481111561006357600080fd5b815185602082028301116401000000008211171561008057600080fd5b5050929190602001805164010000000081111561009c57600080fd5b820160208101848111156100af57600080fd5b81518560208202830111640100000000821117156100cc57600080fd5b5050929190505050600082511115610144576000805460ff191660011781555b8251811015610142576001806000858481518110151561010857fe5b602090810291909101810151600160a060020a03168252810191909152604001600020805460ff19169115159190911790556001016100ec565b505b6000815111156101b7576000805461ff0019166101001781555b81518110156101b557600160026000848481518110151561017b57fe5b602090810291909101810151600160a060020a03168252810191909152604001600020805460ff191691151591909117905560010161015e565b505b5050610354806101c86000396000f3fe608060405234801561001057600080fd5b5060043610610052577c010000000000000000000000000000000000000000000000000000000060003504632c48e7db811461005757806364a8a0a014610076575b600080fd5b6100746004803603602081101561006d57600080fd5b50356100cb565b005b6100b96004803603606081101561008c57600080fd5b5073ffffffffffffffffffffffffffffffffffffffff813581169160208101359091169060400135610228565b60408051918252519081900360200190f35b600054610100900460ff1615806100f157503360009081526002602052604090205460ff165b15156100fc57600080fd5b600081815260046020818152604080842080546001820154600283015484517fa9059cbb00000000000000000000000000000000000000000000000000000000815273ffffffffffffffffffffffffffffffffffffffff9283169781019790975260248701529251919592169363a9059cbb936044808301949193928390030190829087803b15801561018e57600080fd5b505af11580156101a2573d6000803e3d6000fd5b505050506040513d60208110156101b857600080fd5b505115156101c557600080fd5b600181015481546002830154604080519182525173ffffffffffffffffffffffffffffffffffffffff93841693929092169185917fba8f27a7f85d193b2e0c15d54a1e1d5254b3c86afe31ab91987d39cff6df258c919081900360200190a45050565b6000805460ff16158061024a57503360009081526001602052604090205460ff165b151561025557600080fd5b6003805460018082019092556040805160608101825273ffffffffffffffffffffffffffffffffffffffff80891680835288821660208085018281528587018b81526000898152600484528890209651875490871673ffffffffffffffffffffffffffffffffffffffff19918216178855915199870180549a9096169990911698909817909355955160029093019290925582518781529251939493919285927f38ad22e5704952fc5eaf855fe6a8193abeeae5963626b72a552fe2584d053e4e929181900390910190a494935050505056fea165627a7a723058201f3210cc7464e57a12f048db21b6a883c9826aff79ee1883edc374af3bf860ef0029",
    "sourcePath": "c:/Users/franc/Desktop/ReMuS/example_content/contracts/TwoPhaseTransfers.sol",
    "compiler": {
        "name": "solc",
        "version": "0.5.2+commit.1df8f40c"
    },
    "functionHashes": {
        "confirmTransfer(uint256)": "2c48e7db",
        "proposeTransfer(address,address,uint256)": "64a8a0a0"
    },
    "gasEstimates": {
        "creation": {
            "codeDepositCost": "170400",
            "executionCost": "infinite",
            "totalCost": "infinite"
        },
        "external": {
            "confirmTransfer(uint256)": "infinite",
            "proposeTransfer(address,address,uint256)": "83953"
        }
    }
}