{
    "contractName": "__unstable__TokenVault",
    "abi": [
        {
            "constant": false,
            "inputs": [
                {
                    "name": "recipient",
                    "type": "address"
                }
            ],
            "name": "transferPrimary",
            "outputs": [],
            "payable": false,
            "stateMutability": "nonpayable",
            "type": "function"
        },
        {
            "constant": false,
            "inputs": [
                {
                    "name": "token",
                    "type": "address"
                },
                {
                    "name": "to",
                    "type": "address"
                },
                {
                    "name": "amount",
                    "type": "uint256"
                }
            ],
            "name": "transfer",
            "outputs": [],
            "payable": false,
            "stateMutability": "nonpayable",
            "type": "function"
        },
        {
            "constant": true,
            "inputs": [],
            "name": "primary",
            "outputs": [
                {
                    "name": "",
                    "type": "address"
                }
            ],
            "payable": false,
            "stateMutability": "view",
            "type": "function"
        },
        {
            "anonymous": false,
            "inputs": [
                {
                    "indexed": false,
                    "name": "recipient",
                    "type": "address"
                }
            ],
            "name": "PrimaryTransferred",
            "type": "event"
        }
    ],
    "bytecode": "6080604081905260008054600160a060020a031916331790819055600160a060020a031681527f4101e71e974f68df5e9730cc223280b41654676bbb052cdcc735c3337e64d2d990602090a16103b08061005a6000396000f3fe608060405234801561001057600080fd5b506004361061005d577c010000000000000000000000000000000000000000000000000000000060003504632348238c8114610062578063beabacc81461008a578063c6dbdf61146100c0575b600080fd5b6100886004803603602081101561007857600080fd5b5035600160a060020a03166100e4565b005b610088600480360360608110156100a057600080fd5b50600160a060020a0381358116916020810135909116906040013561020f565b6100c861031f565b60408051600160a060020a039092168252519081900360200190f35b600054600160a060020a03163314610147576040517f08c379a000000000000000000000000000000000000000000000000000000000815260040180806020018281038252602c815260200180610359602c913960400191505060405180910390fd5b600160a060020a03811615156101a8576040517f08c379a000000000000000000000000000000000000000000000000000000000815260040180806020018281038252602a81526020018061032f602a913960400191505060405180910390fd5b6000805473ffffffffffffffffffffffffffffffffffffffff1916600160a060020a03838116919091179182905560408051929091168252517f4101e71e974f68df5e9730cc223280b41654676bbb052cdcc735c3337e64d2d9916020908290030190a150565b600054600160a060020a03163314610272576040517f08c379a000000000000000000000000000000000000000000000000000000000815260040180806020018281038252602c815260200180610359602c913960400191505060405180910390fd5b82600160a060020a031663a9059cbb83836040518363ffffffff167c01000000000000000000000000000000000000000000000000000000000281526004018083600160a060020a0316600160a060020a0316815260200182815260200192505050602060405180830381600087803b1580156102ee57600080fd5b505af1158015610302573d6000803e3d6000fd5b505050506040513d602081101561031857600080fd5b5050505050565b600054600160a060020a03169056fe5365636f6e646172793a206e6577207072696d61727920697320746865207a65726f20616464726573735365636f6e646172793a2063616c6c6572206973206e6f7420746865207072696d617279206163636f756e74a165627a7a72305820dcedb939bdcf1b99b2de0fa22fc1bffd2df3fb97bd74d1488bbbe3eb4ac0d7660029",
    "sourcePath": "c:/Users/franc/Desktop/ReMuS/example_content/contracts/openzeppelin-solidity/contracts/crowdsale/distribution/PostDeliveryCrowdsale.sol",
    "compiler": {
        "name": "solc",
        "version": "0.5.2+commit.1df8f40c"
    },
    "functionHashes": {
        "primary()": "c6dbdf61",
        "transfer(address,address,uint256)": "beabacc8",
        "transferPrimary(address)": "2348238c"
    },
    "gasEstimates": {
        "creation": {
            "codeDepositCost": "188800",
            "executionCost": "21611",
            "totalCost": "210411"
        },
        "external": {
            "primary()": "575",
            "transfer(address,address,uint256)": "infinite",
            "transferPrimary(address)": "infinite"
        }
    }
}