{
    "contractName": "WhitelistedRole",
    "abi": [
        {
            "constant": false,
            "inputs": [
                {
                    "name": "account",
                    "type": "address"
                }
            ],
            "name": "addWhitelisted",
            "outputs": [],
            "payable": false,
            "stateMutability": "nonpayable",
            "type": "function"
        },
        {
            "constant": false,
            "inputs": [
                {
                    "name": "account",
                    "type": "address"
                }
            ],
            "name": "removeWhitelisted",
            "outputs": [],
            "payable": false,
            "stateMutability": "nonpayable",
            "type": "function"
        },
        {
            "constant": true,
            "inputs": [
                {
                    "name": "account",
                    "type": "address"
                }
            ],
            "name": "isWhitelisted",
            "outputs": [
                {
                    "name": "",
                    "type": "bool"
                }
            ],
            "payable": false,
            "stateMutability": "view",
            "type": "function"
        },
        {
            "constant": false,
            "inputs": [],
            "name": "renounceWhitelistAdmin",
            "outputs": [],
            "payable": false,
            "stateMutability": "nonpayable",
            "type": "function"
        },
        {
            "constant": false,
            "inputs": [
                {
                    "name": "account",
                    "type": "address"
                }
            ],
            "name": "addWhitelistAdmin",
            "outputs": [],
            "payable": false,
            "stateMutability": "nonpayable",
            "type": "function"
        },
        {
            "constant": true,
            "inputs": [
                {
                    "name": "account",
                    "type": "address"
                }
            ],
            "name": "isWhitelistAdmin",
            "outputs": [
                {
                    "name": "",
                    "type": "bool"
                }
            ],
            "payable": false,
            "stateMutability": "view",
            "type": "function"
        },
        {
            "constant": false,
            "inputs": [],
            "name": "renounceWhitelisted",
            "outputs": [],
            "payable": false,
            "stateMutability": "nonpayable",
            "type": "function"
        },
        {
            "anonymous": false,
            "inputs": [
                {
                    "indexed": true,
                    "name": "account",
                    "type": "address"
                }
            ],
            "name": "WhitelistedAdded",
            "type": "event"
        },
        {
            "anonymous": false,
            "inputs": [
                {
                    "indexed": true,
                    "name": "account",
                    "type": "address"
                }
            ],
            "name": "WhitelistedRemoved",
            "type": "event"
        },
        {
            "anonymous": false,
            "inputs": [
                {
                    "indexed": true,
                    "name": "account",
                    "type": "address"
                }
            ],
            "name": "WhitelistAdminAdded",
            "type": "event"
        },
        {
            "anonymous": false,
            "inputs": [
                {
                    "indexed": true,
                    "name": "account",
                    "type": "address"
                }
            ],
            "name": "WhitelistAdminRemoved",
            "type": "event"
        }
    ],
    "bytecode": "60806040526100163364010000000061001b810204565b610191565b61003360008264010000000061044761006a82021704565b604051600160a060020a038216907f22380c05984257a1cb900161c713dd71d39e74820f1aea43bd3f1bdd2096129990600090a250565b61007d828264010000000061010e810204565b156100e957604080517f08c379a000000000000000000000000000000000000000000000000000000000815260206004820152601f60248201527f526f6c65733a206163636f756e7420616c72656164792068617320726f6c6500604482015290519081900360640190fd5b600160a060020a0316600090815260209190915260409020805460ff19166001179055565b6000600160a060020a0382161515610171576040517f08c379a00000000000000000000000000000000000000000000000000000000081526004018080602001828103825260228152602001806107866022913960400191505060405180910390fd5b50600160a060020a03166000908152602091909152604090205460ff1690565b6105e6806101a06000396000f3fe608060405234801561001057600080fd5b506004361061009a576000357c0100000000000000000000000000000000000000000000000000000000900480634c5a628c116100785780634c5a628c146101275780637362d9c81461012f578063bb5f747b14610155578063d6cd94731461017b5761009a565b806310154bad1461009f578063291d9549146100c75780633af32abf146100ed575b600080fd5b6100c5600480360360208110156100b557600080fd5b5035600160a060020a0316610183565b005b6100c5600480360360208110156100dd57600080fd5b5035600160a060020a03166101d8565b6101136004803603602081101561010357600080fd5b5035600160a060020a031661022a565b604080519115158252519081900360200190f35b6100c5610243565b6100c56004803603602081101561014557600080fd5b5035600160a060020a031661024e565b6101136004803603602081101561016b57600080fd5b5035600160a060020a03166102a0565b6100c56102b2565b61018c336102a0565b15156101cc5760405160e560020a62461bcd02815260040180806020018281038252604081526020018061057b6040913960400191505060405180910390fd5b6101d5816102bb565b50565b6101e1336102a0565b15156102215760405160e560020a62461bcd02815260040180806020018281038252604081526020018061057b6040913960400191505060405180910390fd5b6101d581610303565b600061023d60018363ffffffff61034b16565b92915050565b61024c336103b7565b565b610257336102a0565b15156102975760405160e560020a62461bcd02815260040180806020018281038252604081526020018061057b6040913960400191505060405180910390fd5b6101d5816103ff565b600061023d818363ffffffff61034b16565b61024c33610303565b6102cc60018263ffffffff61044716565b604051600160a060020a038216907fee1504a83b6d4a361f4c1dc78ab59bfa30d6a3b6612c403e86bb01ef2984295f90600090a250565b61031460018263ffffffff6104cb16565b604051600160a060020a038216907f270d9b30cf5b0793bbfd54c9d5b94aeb49462b8148399000265144a8722da6b690600090a250565b6000600160a060020a03821615156103975760405160e560020a62461bcd0281526004018080602001828103825260228152602001806105596022913960400191505060405180910390fd5b50600160a060020a03166000908152602091909152604090205460ff1690565b6103c860008263ffffffff6104cb16565b604051600160a060020a038216907f0a8eb35e5ca14b3d6f28e4abf2f128dbab231a58b56e89beb5d636115001e16590600090a250565b61041060008263ffffffff61044716565b604051600160a060020a038216907f22380c05984257a1cb900161c713dd71d39e74820f1aea43bd3f1bdd2096129990600090a250565b610451828261034b565b156104a6576040805160e560020a62461bcd02815260206004820152601f60248201527f526f6c65733a206163636f756e7420616c72656164792068617320726f6c6500604482015290519081900360640190fd5b600160a060020a0316600090815260209190915260409020805460ff19166001179055565b6104d5828261034b565b15156105155760405160e560020a62461bcd0281526004018080602001828103825260218152602001806105386021913960400191505060405180910390fd5b600160a060020a0316600090815260209190915260409020805460ff1916905556fe526f6c65733a206163636f756e7420646f6573206e6f74206861766520726f6c65526f6c65733a206163636f756e7420697320746865207a65726f206164647265737357686974656c69737441646d696e526f6c653a2063616c6c657220646f6573206e6f742068617665207468652057686974656c69737441646d696e20726f6c65a165627a7a723058207857cca4799dec91da9d0951190fccedc2fa70577cf4f047ca0edc5a02a7490b0029526f6c65733a206163636f756e7420697320746865207a65726f2061646472657373",
    "sourcePath": "c:/Users/franc/Desktop/ReMuS/example_content/contracts/openzeppelin-solidity/contracts/access/roles/WhitelistedRole.sol",
    "compiler": {
        "name": "solc",
        "version": "0.5.2+commit.1df8f40c"
    },
    "functionHashes": {
        "addWhitelistAdmin(address)": "7362d9c8",
        "addWhitelisted(address)": "10154bad",
        "isWhitelistAdmin(address)": "bb5f747b",
        "isWhitelisted(address)": "3af32abf",
        "removeWhitelisted(address)": "291d9549",
        "renounceWhitelistAdmin()": "4c5a628c",
        "renounceWhitelisted()": "d6cd9473"
    },
    "gasEstimates": {
        "creation": {
            "codeDepositCost": "302000",
            "executionCost": "infinite",
            "totalCost": "infinite"
        },
        "external": {
            "addWhitelistAdmin(address)": "infinite",
            "addWhitelisted(address)": "infinite",
            "isWhitelistAdmin(address)": "infinite",
            "isWhitelisted(address)": "infinite",
            "removeWhitelisted(address)": "infinite",
            "renounceWhitelistAdmin()": "infinite",
            "renounceWhitelisted()": "infinite"
        },
        "internal": {
            "_addWhitelisted(address)": "infinite",
            "_removeWhitelisted(address)": "infinite"
        }
    }
}