{
    "contractName": "ERC20Pausable",
    "abi": [
        {
            "constant": false,
            "inputs": [
                {
                    "name": "spender",
                    "type": "address"
                },
                {
                    "name": "value",
                    "type": "uint256"
                }
            ],
            "name": "approve",
            "outputs": [
                {
                    "name": "",
                    "type": "bool"
                }
            ],
            "payable": false,
            "stateMutability": "nonpayable",
            "type": "function"
        },
        {
            "constant": true,
            "inputs": [],
            "name": "totalSupply",
            "outputs": [
                {
                    "name": "",
                    "type": "uint256"
                }
            ],
            "payable": false,
            "stateMutability": "view",
            "type": "function"
        },
        {
            "constant": false,
            "inputs": [
                {
                    "name": "from",
                    "type": "address"
                },
                {
                    "name": "to",
                    "type": "address"
                },
                {
                    "name": "value",
                    "type": "uint256"
                }
            ],
            "name": "transferFrom",
            "outputs": [
                {
                    "name": "",
                    "type": "bool"
                }
            ],
            "payable": false,
            "stateMutability": "nonpayable",
            "type": "function"
        },
        {
            "constant": false,
            "inputs": [
                {
                    "name": "spender",
                    "type": "address"
                },
                {
                    "name": "addedValue",
                    "type": "uint256"
                }
            ],
            "name": "increaseAllowance",
            "outputs": [
                {
                    "name": "",
                    "type": "bool"
                }
            ],
            "payable": false,
            "stateMutability": "nonpayable",
            "type": "function"
        },
        {
            "constant": false,
            "inputs": [],
            "name": "unpause",
            "outputs": [],
            "payable": false,
            "stateMutability": "nonpayable",
            "type": "function"
        },
        {
            "constant": true,
            "inputs": [
                {
                    "name": "account",
                    "type": "address"
                }
            ],
            "name": "isPauser",
            "outputs": [
                {
                    "name": "",
                    "type": "bool"
                }
            ],
            "payable": false,
            "stateMutability": "view",
            "type": "function"
        },
        {
            "constant": true,
            "inputs": [],
            "name": "paused",
            "outputs": [
                {
                    "name": "",
                    "type": "bool"
                }
            ],
            "payable": false,
            "stateMutability": "view",
            "type": "function"
        },
        {
            "constant": false,
            "inputs": [],
            "name": "renouncePauser",
            "outputs": [],
            "payable": false,
            "stateMutability": "nonpayable",
            "type": "function"
        },
        {
            "constant": true,
            "inputs": [
                {
                    "name": "account",
                    "type": "address"
                }
            ],
            "name": "balanceOf",
            "outputs": [
                {
                    "name": "",
                    "type": "uint256"
                }
            ],
            "payable": false,
            "stateMutability": "view",
            "type": "function"
        },
        {
            "constant": false,
            "inputs": [
                {
                    "name": "account",
                    "type": "address"
                }
            ],
            "name": "addPauser",
            "outputs": [],
            "payable": false,
            "stateMutability": "nonpayable",
            "type": "function"
        },
        {
            "constant": false,
            "inputs": [],
            "name": "pause",
            "outputs": [],
            "payable": false,
            "stateMutability": "nonpayable",
            "type": "function"
        },
        {
            "constant": false,
            "inputs": [
                {
                    "name": "spender",
                    "type": "address"
                },
                {
                    "name": "subtractedValue",
                    "type": "uint256"
                }
            ],
            "name": "decreaseAllowance",
            "outputs": [
                {
                    "name": "",
                    "type": "bool"
                }
            ],
            "payable": false,
            "stateMutability": "nonpayable",
            "type": "function"
        },
        {
            "constant": false,
            "inputs": [
                {
                    "name": "to",
                    "type": "address"
                },
                {
                    "name": "value",
                    "type": "uint256"
                }
            ],
            "name": "transfer",
            "outputs": [
                {
                    "name": "",
                    "type": "bool"
                }
            ],
            "payable": false,
            "stateMutability": "nonpayable",
            "type": "function"
        },
        {
            "constant": true,
            "inputs": [
                {
                    "name": "owner",
                    "type": "address"
                },
                {
                    "name": "spender",
                    "type": "address"
                }
            ],
            "name": "allowance",
            "outputs": [
                {
                    "name": "",
                    "type": "uint256"
                }
            ],
            "payable": false,
            "stateMutability": "view",
            "type": "function"
        },
        {
            "anonymous": false,
            "inputs": [
                {
                    "indexed": false,
                    "name": "account",
                    "type": "address"
                }
            ],
            "name": "Paused",
            "type": "event"
        },
        {
            "anonymous": false,
            "inputs": [
                {
                    "indexed": false,
                    "name": "account",
                    "type": "address"
                }
            ],
            "name": "Unpaused",
            "type": "event"
        },
        {
            "anonymous": false,
            "inputs": [
                {
                    "indexed": true,
                    "name": "account",
                    "type": "address"
                }
            ],
            "name": "PauserAdded",
            "type": "event"
        },
        {
            "anonymous": false,
            "inputs": [
                {
                    "indexed": true,
                    "name": "account",
                    "type": "address"
                }
            ],
            "name": "PauserRemoved",
            "type": "event"
        },
        {
            "anonymous": false,
            "inputs": [
                {
                    "indexed": true,
                    "name": "from",
                    "type": "address"
                },
                {
                    "indexed": true,
                    "name": "to",
                    "type": "address"
                },
                {
                    "indexed": false,
                    "name": "value",
                    "type": "uint256"
                }
            ],
            "name": "Transfer",
            "type": "event"
        },
        {
            "anonymous": false,
            "inputs": [
                {
                    "indexed": true,
                    "name": "owner",
                    "type": "address"
                },
                {
                    "indexed": true,
                    "name": "spender",
                    "type": "address"
                },
                {
                    "indexed": false,
                    "name": "value",
                    "type": "uint256"
                }
            ],
            "name": "Approval",
            "type": "event"
        }
    ],
    "bytecode": "608060405261001633640100000000610025810204565b6004805460ff1916905561019b565b61003d600382640100000000610c7f61007482021704565b604051600160a060020a038216907f6719d08c1888103bea251a4ed56406bd0c3e69723c8a1686e017e7bbe159b6f890600090a250565b6100878282640100000000610118810204565b156100f357604080517f08c379a000000000000000000000000000000000000000000000000000000000815260206004820152601f60248201527f526f6c65733a206163636f756e7420616c72656164792068617320726f6c6500604482015290519081900360640190fd5b600160a060020a0316600090815260209190915260409020805460ff19166001179055565b6000600160a060020a038216151561017b576040517f08c379a0000000000000000000000000000000000000000000000000000000008152600401808060200182810382526022815260200180610ffa6022913960400191505060405180910390fd5b50600160a060020a03166000908152602091909152604090205460ff1690565b610e50806101aa6000396000f3fe608060405234801561001057600080fd5b5060043610610107576000357c0100000000000000000000000000000000000000000000000000000000900480636ef8d66d116100a95780638456cb59116100835780638456cb5914610254578063a457c2d71461025c578063a9059cbb14610288578063dd62ed3e146102b457610107565b80636ef8d66d1461020057806370a082311461020857806382dc1ec41461022e57610107565b806339509351116100e5578063395093511461019c5780633f4ba83a146101c857806346fbf68e146101d25780635c975abb146101f857610107565b8063095ea7b31461010c57806318160ddd1461014c57806323b872dd14610166575b600080fd5b6101386004803603604081101561012257600080fd5b50600160a060020a0381351690602001356102e2565b604080519115158252519081900360200190f35b61015461033f565b60408051918252519081900360200190f35b6101386004803603606081101561017c57600080fd5b50600160a060020a03813581169160208101359091169060400135610345565b610138600480360360408110156101b257600080fd5b50600160a060020a0381351690602001356103a4565b6101d06103fa565b005b610138600480360360208110156101e857600080fd5b5035600160a060020a03166104de565b6101386104f7565b6101d0610500565b6101546004803603602081101561021e57600080fd5b5035600160a060020a031661050b565b6101d06004803603602081101561024457600080fd5b5035600160a060020a0316610526565b6101d061057b565b6101386004803603604081101561027257600080fd5b50600160a060020a03813516906020013561064f565b6101386004803603604081101561029e57600080fd5b50600160a060020a0381351690602001356106a5565b610154600480360360408110156102ca57600080fd5b50600160a060020a03813581169160200135166106fb565b60045460009060ff161561032e576040805160e560020a62461bcd0281526020600482015260106024820152600080516020610de1833981519152604482015290519081900360640190fd5b6103388383610726565b9392505050565b60025490565b60045460009060ff1615610391576040805160e560020a62461bcd0281526020600482015260106024820152600080516020610de1833981519152604482015290519081900360640190fd5b61039c84848461073c565b949350505050565b60045460009060ff16156103f0576040805160e560020a62461bcd0281526020600482015260106024820152600080516020610de1833981519152604482015290519081900360640190fd5b6103388383610793565b610403336104de565b15156104435760405160e560020a62461bcd028152600401808060200182810382526030815260200180610d276030913960400191505060405180910390fd5b60045460ff16151561049f576040805160e560020a62461bcd02815260206004820152601460248201527f5061757361626c653a206e6f7420706175736564000000000000000000000000604482015290519081900360640190fd5b6004805460ff191690556040805133815290517f5db9ee0a495bf2e6ff9c91a7834c1ba4fdd244a5e8aa4e537bd38aeae4b073aa9181900360200190a1565b60006104f160038363ffffffff6107cf16565b92915050565b60045460ff1690565b6105093361083b565b565b600160a060020a031660009081526020819052604090205490565b61052f336104de565b151561056f5760405160e560020a62461bcd028152600401808060200182810382526030815260200180610d276030913960400191505060405180910390fd5b61057881610883565b50565b610584336104de565b15156105c45760405160e560020a62461bcd028152600401808060200182810382526030815260200180610d276030913960400191505060405180910390fd5b60045460ff161561060d576040805160e560020a62461bcd0281526020600482015260106024820152600080516020610de1833981519152604482015290519081900360640190fd5b6004805460ff191660011790556040805133815290517f62e78cea01bee320cd4e420270b5ea74000d11b0c9f74754ebdbfc544b05a2589181900360200190a1565b60045460009060ff161561069b576040805160e560020a62461bcd0281526020600482015260106024820152600080516020610de1833981519152604482015290519081900360640190fd5b61033883836108cb565b60045460009060ff16156106f1576040805160e560020a62461bcd0281526020600482015260106024820152600080516020610de1833981519152604482015290519081900360640190fd5b6103388383610907565b600160a060020a03918216600090815260016020908152604080832093909416825291909152205490565b6000610733338484610914565b50600192915050565b6000610749848484610a0a565b600160a060020a038416600090815260016020908152604080832033808552925290912054610789918691610784908663ffffffff610b5616565b610914565b5060019392505050565b336000818152600160209081526040808320600160a060020a03871684529091528120549091610733918590610784908663ffffffff610bb616565b6000600160a060020a038216151561081b5760405160e560020a62461bcd028152600401808060200182810382526022815260200180610d9a6022913960400191505060405180910390fd5b50600160a060020a03166000908152602091909152604090205460ff1690565b61084c60038263ffffffff610c1316565b604051600160a060020a038216907fcd265ebaf09df2871cc7bd4133404a235ba12eff2041bb89d9c714a2621c7c7e90600090a250565b61089460038263ffffffff610c7f16565b604051600160a060020a038216907f6719d08c1888103bea251a4ed56406bd0c3e69723c8a1686e017e7bbe159b6f890600090a250565b336000818152600160209081526040808320600160a060020a03871684529091528120549091610733918590610784908663ffffffff610b5616565b6000610733338484610a0a565b600160a060020a038316151561095e5760405160e560020a62461bcd028152600401808060200182810382526024815260200180610e016024913960400191505060405180910390fd5b600160a060020a03821615156109a85760405160e560020a62461bcd028152600401808060200182810382526022815260200180610d576022913960400191505060405180910390fd5b600160a060020a03808416600081815260016020908152604080832094871680845294825291829020859055815185815291517f8c5be1e5ebec7d5bd14f71427d1e84f3dd0314c0f7b2291e5b200ac8c7c3b9259281900390910190a3505050565b600160a060020a0383161515610a545760405160e560020a62461bcd028152600401808060200182810382526025815260200180610dbc6025913960400191505060405180910390fd5b600160a060020a0382161515610a9e5760405160e560020a62461bcd028152600401808060200182810382526023815260200180610d046023913960400191505060405180910390fd5b600160a060020a038316600090815260208190526040902054610ac7908263ffffffff610b5616565b600160a060020a038085166000908152602081905260408082209390935590841681522054610afc908263ffffffff610bb616565b600160a060020a038084166000818152602081815260409182902094909455805185815290519193928716927fddf252ad1be2c89b69c2b068fc378daa952ba7f163c4a11628f55a4df523b3ef92918290030190a3505050565b600082821115610bb0576040805160e560020a62461bcd02815260206004820152601e60248201527f536166654d6174683a207375627472616374696f6e206f766572666c6f770000604482015290519081900360640190fd5b50900390565b600082820183811015610338576040805160e560020a62461bcd02815260206004820152601b60248201527f536166654d6174683a206164646974696f6e206f766572666c6f770000000000604482015290519081900360640190fd5b610c1d82826107cf565b1515610c5d5760405160e560020a62461bcd028152600401808060200182810382526021815260200180610d796021913960400191505060405180910390fd5b600160a060020a0316600090815260209190915260409020805460ff19169055565b610c8982826107cf565b15610cde576040805160e560020a62461bcd02815260206004820152601f60248201527f526f6c65733a206163636f756e7420616c72656164792068617320726f6c6500604482015290519081900360640190fd5b600160a060020a0316600090815260209190915260409020805460ff1916600117905556fe45524332303a207472616e7366657220746f20746865207a65726f2061646472657373506175736572526f6c653a2063616c6c657220646f6573206e6f742068617665207468652050617573657220726f6c6545524332303a20617070726f766520746f20746865207a65726f2061646472657373526f6c65733a206163636f756e7420646f6573206e6f74206861766520726f6c65526f6c65733a206163636f756e7420697320746865207a65726f206164647265737345524332303a207472616e736665722066726f6d20746865207a65726f20616464726573735061757361626c653a207061757365640000000000000000000000000000000045524332303a20617070726f76652066726f6d20746865207a65726f2061646472657373a165627a7a7230582091dd6a80cc83280068ff911949b2c16d2475dcf8dd9635ba508bb32f236a92af0029526f6c65733a206163636f756e7420697320746865207a65726f2061646472657373",
    "sourcePath": "c:/Users/franc/Desktop/ReMuS/example_content/contracts/openzeppelin-solidity/contracts/token/ERC20/ERC20Pausable.sol",
    "compiler": {
        "name": "solc",
        "version": "0.5.2+commit.1df8f40c"
    },
    "functionHashes": {
        "addPauser(address)": "82dc1ec4",
        "allowance(address,address)": "dd62ed3e",
        "approve(address,uint256)": "095ea7b3",
        "balanceOf(address)": "70a08231",
        "decreaseAllowance(address,uint256)": "a457c2d7",
        "increaseAllowance(address,uint256)": "39509351",
        "isPauser(address)": "46fbf68e",
        "pause()": "8456cb59",
        "paused()": "5c975abb",
        "renouncePauser()": "6ef8d66d",
        "totalSupply()": "18160ddd",
        "transfer(address,uint256)": "a9059cbb",
        "transferFrom(address,address,uint256)": "23b872dd",
        "unpause()": "3f4ba83a"
    },
    "gasEstimates": {
        "creation": {
            "codeDepositCost": "732800",
            "executionCost": "infinite",
            "totalCost": "infinite"
        },
        "external": {
            "addPauser(address)": "infinite",
            "allowance(address,address)": "857",
            "approve(address,uint256)": "infinite",
            "balanceOf(address)": "709",
            "decreaseAllowance(address,uint256)": "infinite",
            "increaseAllowance(address,uint256)": "infinite",
            "isPauser(address)": "infinite",
            "pause()": "infinite",
            "paused()": "504",
            "renouncePauser()": "infinite",
            "totalSupply()": "449",
            "transfer(address,uint256)": "infinite",
            "transferFrom(address,address,uint256)": "infinite",
            "unpause()": "infinite"
        }
    }
}