{
    "contractName": "ERC20Metadata",
    "abi": [
        {
            "constant": true,
            "inputs": [],
            "name": "tokenURI",
            "outputs": [
                {
                    "name": "",
                    "type": "string"
                }
            ],
            "payable": false,
            "stateMutability": "view",
            "type": "function"
        },
        {
            "inputs": [
                {
                    "name": "tokenURI_",
                    "type": "string"
                }
            ],
            "payable": false,
            "stateMutability": "nonpayable",
            "type": "constructor"
        }
    ],
    "bytecode": "608060405234801561001057600080fd5b506040516102ea3803806102ea8339810180604052602081101561003357600080fd5b81019080805164010000000081111561004b57600080fd5b8201602081018481111561005e57600080fd5b815164010000000081118282018710171561007857600080fd5b50509291905050506100988161009e640100000000026401000000009004565b50610150565b80516100b19060009060208401906100b5565b5050565b828054600181600116156101000203166002900490600052602060002090601f016020900481019282601f106100f657805160ff1916838001178555610123565b82800160010185558215610123579182015b82811115610123578251825591602001919060010190610108565b5061012f929150610133565b5090565b61014d91905b8082111561012f5760008155600101610139565b90565b61018b8061015f6000396000f3fe608060405234801561001057600080fd5b5060043610610047577c010000000000000000000000000000000000000000000000000000000060003504633c130d90811461004c575b600080fd5b6100546100c9565b6040805160208082528351818301528351919283929083019185019080838360005b8381101561008e578181015183820152602001610076565b50505050905090810190601f1680156100bb5780820380516001836020036101000a031916815260200191505b509250505060405180910390f35b60008054604080516020601f60026000196101006001881615020190951694909404938401819004810282018101909252828152606093909290918301828280156101555780601f1061012a57610100808354040283529160200191610155565b820191906000526020600020905b81548152906001019060200180831161013857829003601f168201915b505050505090509056fea165627a7a72305820cf32c0794f12826bf398ee4270b7c4c8164e2c77e4b78239280c4a273731344d0029",
    "sourcePath": "c:/Users/franc/Desktop/ReMuS/example_content/contracts/openzeppelin-solidity/contracts/drafts/ERC1046/ERC20Metadata.sol",
    "compiler": {
        "name": "solc",
        "version": "0.5.2+commit.1df8f40c"
    },
    "functionHashes": {
        "tokenURI()": "3c130d90"
    },
    "gasEstimates": {
        "creation": {
            "codeDepositCost": "79000",
            "executionCost": "infinite",
            "totalCost": "infinite"
        },
        "external": {
            "tokenURI()": "infinite"
        },
        "internal": {
            "_setTokenURI(string memory)": "infinite"
        }
    }
}