{
    "contractName": "ERC721Enumerable",
    "abi": [
        {
            "constant": true,
            "inputs": [
                {
                    "name": "interfaceId",
                    "type": "bytes4"
                }
            ],
            "name": "supportsInterface",
            "outputs": [
                {
                    "name": "",
                    "type": "bool"
                }
            ],
            "payable": false,
            "stateMutability": "view",
            "type": "function"
        },
        {
            "constant": true,
            "inputs": [
                {
                    "name": "tokenId",
                    "type": "uint256"
                }
            ],
            "name": "getApproved",
            "outputs": [
                {
                    "name": "",
                    "type": "address"
                }
            ],
            "payable": false,
            "stateMutability": "view",
            "type": "function"
        },
        {
            "constant": false,
            "inputs": [
                {
                    "name": "to",
                    "type": "address"
                },
                {
                    "name": "tokenId",
                    "type": "uint256"
                }
            ],
            "name": "approve",
            "outputs": [],
            "payable": false,
            "stateMutability": "nonpayable",
            "type": "function"
        },
        {
            "constant": true,
            "inputs": [],
            "name": "totalSupply",
            "outputs": [
                {
                    "name": "",
                    "type": "uint256"
                }
            ],
            "payable": false,
            "stateMutability": "view",
            "type": "function"
        },
        {
            "constant": false,
            "inputs": [
                {
                    "name": "from",
                    "type": "address"
                },
                {
                    "name": "to",
                    "type": "address"
                },
                {
                    "name": "tokenId",
                    "type": "uint256"
                }
            ],
            "name": "transferFrom",
            "outputs": [],
            "payable": false,
            "stateMutability": "nonpayable",
            "type": "function"
        },
        {
            "constant": true,
            "inputs": [
                {
                    "name": "owner",
                    "type": "address"
                },
                {
                    "name": "index",
                    "type": "uint256"
                }
            ],
            "name": "tokenOfOwnerByIndex",
            "outputs": [
                {
                    "name": "",
                    "type": "uint256"
                }
            ],
            "payable": false,
            "stateMutability": "view",
            "type": "function"
        },
        {
            "constant": false,
            "inputs": [
                {
                    "name": "from",
                    "type": "address"
                },
                {
                    "name": "to",
                    "type": "address"
                },
                {
                    "name": "tokenId",
                    "type": "uint256"
                }
            ],
            "name": "safeTransferFrom",
            "outputs": [],
            "payable": false,
            "stateMutability": "nonpayable",
            "type": "function"
        },
        {
            "constant": true,
            "inputs": [
                {
                    "name": "index",
                    "type": "uint256"
                }
            ],
            "name": "tokenByIndex",
            "outputs": [
                {
                    "name": "",
                    "type": "uint256"
                }
            ],
            "payable": false,
            "stateMutability": "view",
            "type": "function"
        },
        {
            "constant": true,
            "inputs": [
                {
                    "name": "tokenId",
                    "type": "uint256"
                }
            ],
            "name": "ownerOf",
            "outputs": [
                {
                    "name": "",
                    "type": "address"
                }
            ],
            "payable": false,
            "stateMutability": "view",
            "type": "function"
        },
        {
            "constant": true,
            "inputs": [
                {
                    "name": "owner",
                    "type": "address"
                }
            ],
            "name": "balanceOf",
            "outputs": [
                {
                    "name": "",
                    "type": "uint256"
                }
            ],
            "payable": false,
            "stateMutability": "view",
            "type": "function"
        },
        {
            "constant": false,
            "inputs": [
                {
                    "name": "to",
                    "type": "address"
                },
                {
                    "name": "approved",
                    "type": "bool"
                }
            ],
            "name": "setApprovalForAll",
            "outputs": [],
            "payable": false,
            "stateMutability": "nonpayable",
            "type": "function"
        },
        {
            "constant": false,
            "inputs": [
                {
                    "name": "from",
                    "type": "address"
                },
                {
                    "name": "to",
                    "type": "address"
                },
                {
                    "name": "tokenId",
                    "type": "uint256"
                },
                {
                    "name": "_data",
                    "type": "bytes"
                }
            ],
            "name": "safeTransferFrom",
            "outputs": [],
            "payable": false,
            "stateMutability": "nonpayable",
            "type": "function"
        },
        {
            "constant": true,
            "inputs": [
                {
                    "name": "owner",
                    "type": "address"
                },
                {
                    "name": "operator",
                    "type": "address"
                }
            ],
            "name": "isApprovedForAll",
            "outputs": [
                {
                    "name": "",
                    "type": "bool"
                }
            ],
            "payable": false,
            "stateMutability": "view",
            "type": "function"
        },
        {
            "inputs": [],
            "payable": false,
            "stateMutability": "nonpayable",
            "type": "constructor"
        },
        {
            "anonymous": false,
            "inputs": [
                {
                    "indexed": true,
                    "name": "from",
                    "type": "address"
                },
                {
                    "indexed": true,
                    "name": "to",
                    "type": "address"
                },
                {
                    "indexed": true,
                    "name": "tokenId",
                    "type": "uint256"
                }
            ],
            "name": "Transfer",
            "type": "event"
        },
        {
            "anonymous": false,
            "inputs": [
                {
                    "indexed": true,
                    "name": "owner",
                    "type": "address"
                },
                {
                    "indexed": true,
                    "name": "approved",
                    "type": "address"
                },
                {
                    "indexed": true,
                    "name": "tokenId",
                    "type": "uint256"
                }
            ],
            "name": "Approval",
            "type": "event"
        },
        {
            "anonymous": false,
            "inputs": [
                {
                    "indexed": true,
                    "name": "owner",
                    "type": "address"
                },
                {
                    "indexed": true,
                    "name": "operator",
                    "type": "address"
                },
                {
                    "indexed": false,
                    "name": "approved",
                    "type": "bool"
                }
            ],
            "name": "ApprovalForAll",
            "type": "event"
        }
    ],
    "bytecode": "608060405234801561001057600080fd5b506100437f01ffc9a7000000000000000000000000000000000000000000000000000000006401000000006100ac810204565b6100757f80ac58cd000000000000000000000000000000000000000000000000000000006401000000006100ac810204565b6100a77f780e9d63000000000000000000000000000000000000000000000000000000006401000000006100ac810204565b61017a565b7fffffffff00000000000000000000000000000000000000000000000000000000808216141561013d57604080517f08c379a000000000000000000000000000000000000000000000000000000000815260206004820152601c60248201527f4552433136353a20696e76616c696420696e7465726661636520696400000000604482015290519081900360640190fd5b7fffffffff00000000000000000000000000000000000000000000000000000000166000908152602081905260409020805460ff19166001179055565b61115f806101896000396000f3fe608060405234801561001057600080fd5b50600436106100ec576000357c01000000000000000000000000000000000000000000000000000000009004806342842e0e116100a957806370a082311161008357806370a0823114610294578063a22cb465146102ba578063b88d4fde146102e8578063e985e9c5146103ae576100ec565b806342842e0e146102245780634f6ccce71461025a5780636352211e14610277576100ec565b806301ffc9a7146100f1578063081812fc14610141578063095ea7b31461017a57806318160ddd146101a857806323b872dd146101c25780632f745c59146101f8575b600080fd5b61012d6004803603602081101561010757600080fd5b50357bffffffffffffffffffffffffffffffffffffffffffffffffffffffff19166103dc565b604080519115158252519081900360200190f35b61015e6004803603602081101561015757600080fd5b5035610410565b60408051600160a060020a039092168252519081900360200190f35b6101a66004803603604081101561019057600080fd5b50600160a060020a038135169060200135610477565b005b6101b0610597565b60408051918252519081900360200190f35b6101a6600480360360608110156101d857600080fd5b50600160a060020a0381358116916020810135909116906040013561059e565b6101b06004803603604081101561020e57600080fd5b50600160a060020a0381351690602001356105f8565b6101a66004803603606081101561023a57600080fd5b50600160a060020a0381358116916020810135909116906040013561067a565b6101b06004803603602081101561027057600080fd5b5035610696565b61015e6004803603602081101561028d57600080fd5b5035610700565b6101b0600480360360208110156102aa57600080fd5b5035600160a060020a031661075f565b6101a6600480360360408110156102d057600080fd5b50600160a060020a03813516906020013515156107cc565b6101a6600480360360808110156102fe57600080fd5b600160a060020a0382358116926020810135909116916040820135919081019060808101606082013564010000000081111561033957600080fd5b82018360208201111561034b57600080fd5b8035906020019184600183028401116401000000008311171561036d57600080fd5b91908080601f01602080910402602001604051908101604052809392919081815260200183838082843760009201919091525092955061089b945050505050565b61012d600480360360408110156103c457600080fd5b50600160a060020a03813581169160200135166108f8565b7bffffffffffffffffffffffffffffffffffffffffffffffffffffffff191660009081526020819052604090205460ff1690565b600061041b82610926565b151561045b5760405160e560020a62461bcd02815260040180806020018281038252602c815260200180611061602c913960400191505060405180910390fd5b50600090815260026020526040902054600160a060020a031690565b600061048282610700565b9050600160a060020a0383811690821614156104d25760405160e560020a62461bcd0281526004018080602001828103825260218152602001806110b66021913960400191505060405180910390fd5b33600160a060020a03821614806104ee57506104ee81336108f8565b151561052e5760405160e560020a62461bcd028152600401808060200182810382526038815260200180610fd66038913960400191505060405180910390fd5b600082815260026020526040808220805473ffffffffffffffffffffffffffffffffffffffff1916600160a060020a0387811691821790925591518593918516917f8c5be1e5ebec7d5bd14f71427d1e84f3dd0314c0f7b2291e5b200ac8c7c3b92591a4505050565b6007545b90565b6105a83382610943565b15156105e85760405160e560020a62461bcd0281526004018080602001828103825260318152602001806110d76031913960400191505060405180910390fd5b6105f38383836109ec565b505050565b60006106038361075f565b82106106435760405160e560020a62461bcd02815260040180806020018281038252602b815260200180610f29602b913960400191505060405180910390fd5b600160a060020a038316600090815260056020526040902080548390811061066757fe5b9060005260206000200154905092915050565b6105f3838383602060405190810160405280600081525061089b565b60006106a0610597565b82106106e05760405160e560020a62461bcd02815260040180806020018281038252602c815260200180611108602c913960400191505060405180910390fd5b60078054839081106106ee57fe5b90600052602060002001549050919050565b600081815260016020526040812054600160a060020a03168015156107595760405160e560020a62461bcd0281526004018080602001828103825260298152602001806110386029913960400191505060405180910390fd5b92915050565b6000600160a060020a03821615156107ab5760405160e560020a62461bcd02815260040180806020018281038252602a81526020018061100e602a913960400191505060405180910390fd5b600160a060020a038216600090815260036020526040902061075990610a0b565b600160a060020a03821633141561082d576040805160e560020a62461bcd02815260206004820152601960248201527f4552433732313a20617070726f766520746f2063616c6c657200000000000000604482015290519081900360640190fd5b336000818152600460209081526040808320600160a060020a03871680855290835292819020805460ff1916861515908117909155815190815290519293927f17307eab39ab6107e8899845ad3d59bd9653f200f220920489ca2b5937696c31929181900390910190a35050565b6108a684848461059e565b6108b284848484610a0f565b15156108f25760405160e560020a62461bcd028152600401808060200182810382526032815260200180610f546032913960400191505060405180910390fd5b50505050565b600160a060020a03918216600090815260046020908152604080832093909416825291909152205460ff1690565b600090815260016020526040902054600160a060020a0316151590565b600061094e82610926565b151561098e5760405160e560020a62461bcd02815260040180806020018281038252602c815260200180610faa602c913960400191505060405180910390fd5b600061099983610700565b905080600160a060020a031684600160a060020a031614806109d4575083600160a060020a03166109c984610410565b600160a060020a0316145b806109e457506109e481856108f8565b949350505050565b6109f7838383610b8b565b610a018382610ce4565b6105f38282610ddb565b5490565b6000610a2384600160a060020a0316610e19565b1515610a31575060016109e4565b6040517f150b7a020000000000000000000000000000000000000000000000000000000081523360048201818152600160a060020a03888116602485015260448401879052608060648501908152865160848601528651600095928a169463150b7a029490938c938b938b939260a4019060208501908083838e5b83811015610ac4578181015183820152602001610aac565b50505050905090810190601f168015610af15780820380516001836020036101000a031916815260200191505b5095505050505050602060405180830381600087803b158015610b1357600080fd5b505af1158015610b27573d6000803e3d6000fd5b505050506040513d6020811015610b3d57600080fd5b50517bffffffffffffffffffffffffffffffffffffffffffffffffffffffff19167f150b7a020000000000000000000000000000000000000000000000000000000014915050949350505050565b82600160a060020a0316610b9e82610700565b600160a060020a031614610be65760405160e560020a62461bcd02815260040180806020018281038252602981526020018061108d6029913960400191505060405180910390fd5b600160a060020a0382161515610c305760405160e560020a62461bcd028152600401808060200182810382526024815260200180610f866024913960400191505060405180910390fd5b610c3981610e21565b600160a060020a0383166000908152600360205260409020610c5a90610e6b565b600160a060020a0382166000908152600360205260409020610c7b90610e82565b600081815260016020526040808220805473ffffffffffffffffffffffffffffffffffffffff1916600160a060020a0386811691821790925591518493918716917fddf252ad1be2c89b69c2b068fc378daa952ba7f163c4a11628f55a4df523b3ef91a4505050565b600160a060020a038216600090815260056020526040812054610d0e90600163ffffffff610e8b16565b600083815260066020526040902054909150808214610dab57600160a060020a0384166000908152600560205260408120805484908110610d4b57fe5b90600052602060002001549050806005600087600160a060020a0316600160a060020a0316815260200190815260200160002083815481101515610d8b57fe5b600091825260208083209091019290925591825260069052604090208190555b600160a060020a0384166000908152600560205260409020805490610dd4906000198301610eeb565b5050505050565b600160a060020a0390911660009081526005602081815260408084208054868652600684529185208290559282526001810183559183529091200155565b6000903b1190565b600081815260026020526040902054600160a060020a031615610e68576000818152600260205260409020805473ffffffffffffffffffffffffffffffffffffffff191690555b50565b8054610e7e90600163ffffffff610e8b16565b9055565b80546001019055565b600082821115610ee5576040805160e560020a62461bcd02815260206004820152601e60248201527f536166654d6174683a207375627472616374696f6e206f766572666c6f770000604482015290519081900360640190fd5b50900390565b8154818355818111156105f3576000838152602090206105f391810190830161059b91905b80821115610f245760008155600101610f10565b509056fe455243373231456e756d657261626c653a206f776e657220696e646578206f7574206f6620626f756e64734552433732313a207472616e7366657220746f206e6f6e20455243373231526563656976657220696d706c656d656e7465724552433732313a207472616e7366657220746f20746865207a65726f20616464726573734552433732313a206f70657261746f7220717565727920666f72206e6f6e6578697374656e7420746f6b656e4552433732313a20617070726f76652063616c6c6572206973206e6f74206f776e6572206e6f7220617070726f76656420666f7220616c6c4552433732313a2062616c616e636520717565727920666f7220746865207a65726f20616464726573734552433732313a206f776e657220717565727920666f72206e6f6e6578697374656e7420746f6b656e4552433732313a20617070726f76656420717565727920666f72206e6f6e6578697374656e7420746f6b656e4552433732313a207472616e73666572206f6620746f6b656e2074686174206973206e6f74206f776e4552433732313a20617070726f76616c20746f2063757272656e74206f776e65724552433732313a207472616e736665722063616c6c6572206973206e6f74206f776e6572206e6f7220617070726f766564455243373231456e756d657261626c653a20676c6f62616c20696e646578206f7574206f6620626f756e6473a165627a7a723058209c61be22b1d2b16fb4593726ce6126dd9a7468628ca4d5946448901d16fc661f0029",
    "sourcePath": "c:/Users/franc/Desktop/ReMuS/example_content/contracts/openzeppelin-solidity/contracts/token/ERC721/ERC721Enumerable.sol",
    "compiler": {
        "name": "solc",
        "version": "0.5.2+commit.1df8f40c"
    },
    "functionHashes": {
        "approve(address,uint256)": "095ea7b3",
        "balanceOf(address)": "70a08231",
        "getApproved(uint256)": "081812fc",
        "isApprovedForAll(address,address)": "e985e9c5",
        "ownerOf(uint256)": "6352211e",
        "safeTransferFrom(address,address,uint256)": "42842e0e",
        "safeTransferFrom(address,address,uint256,bytes)": "b88d4fde",
        "setApprovalForAll(address,bool)": "a22cb465",
        "supportsInterface(bytes4)": "01ffc9a7",
        "tokenByIndex(uint256)": "4f6ccce7",
        "tokenOfOwnerByIndex(address,uint256)": "2f745c59",
        "totalSupply()": "18160ddd",
        "transferFrom(address,address,uint256)": "23b872dd"
    },
    "gasEstimates": {
        "creation": {
            "codeDepositCost": "889400",
            "executionCost": "infinite",
            "totalCost": "infinite"
        },
        "external": {
            "approve(address,uint256)": "infinite",
            "balanceOf(address)": "infinite",
            "getApproved(uint256)": "infinite",
            "isApprovedForAll(address,address)": "869",
            "ownerOf(uint256)": "infinite",
            "safeTransferFrom(address,address,uint256)": "infinite",
            "safeTransferFrom(address,address,uint256,bytes)": "infinite",
            "setApprovalForAll(address,bool)": "22720",
            "supportsInterface(bytes4)": "545",
            "tokenByIndex(uint256)": "infinite",
            "tokenOfOwnerByIndex(address,uint256)": "infinite",
            "totalSupply()": "471",
            "transferFrom(address,address,uint256)": "infinite"
        },
        "internal": {
            "_addTokenToAllTokensEnumeration(uint256)": "infinite",
            "_addTokenToOwnerEnumeration(address,uint256)": "60524",
            "_burn(address,uint256)": "infinite",
            "_mint(address,uint256)": "infinite",
            "_removeTokenFromAllTokensEnumeration(uint256)": "infinite",
            "_removeTokenFromOwnerEnumeration(address,uint256)": "infinite",
            "_tokensOfOwner(address)": "infinite",
            "_transferFrom(address,address,uint256)": "infinite"
        }
    }
}