{
    "contractName": "ERC721Mintable",
    "abi": [
        {
            "constant": true,
            "inputs": [
                {
                    "name": "interfaceId",
                    "type": "bytes4"
                }
            ],
            "name": "supportsInterface",
            "outputs": [
                {
                    "name": "",
                    "type": "bool"
                }
            ],
            "payable": false,
            "stateMutability": "view",
            "type": "function"
        },
        {
            "constant": true,
            "inputs": [
                {
                    "name": "tokenId",
                    "type": "uint256"
                }
            ],
            "name": "getApproved",
            "outputs": [
                {
                    "name": "",
                    "type": "address"
                }
            ],
            "payable": false,
            "stateMutability": "view",
            "type": "function"
        },
        {
            "constant": false,
            "inputs": [
                {
                    "name": "to",
                    "type": "address"
                },
                {
                    "name": "tokenId",
                    "type": "uint256"
                }
            ],
            "name": "approve",
            "outputs": [],
            "payable": false,
            "stateMutability": "nonpayable",
            "type": "function"
        },
        {
            "constant": false,
            "inputs": [
                {
                    "name": "from",
                    "type": "address"
                },
                {
                    "name": "to",
                    "type": "address"
                },
                {
                    "name": "tokenId",
                    "type": "uint256"
                }
            ],
            "name": "transferFrom",
            "outputs": [],
            "payable": false,
            "stateMutability": "nonpayable",
            "type": "function"
        },
        {
            "constant": false,
            "inputs": [
                {
                    "name": "to",
                    "type": "address"
                },
                {
                    "name": "tokenId",
                    "type": "uint256"
                }
            ],
            "name": "mint",
            "outputs": [
                {
                    "name": "",
                    "type": "bool"
                }
            ],
            "payable": false,
            "stateMutability": "nonpayable",
            "type": "function"
        },
        {
            "constant": false,
            "inputs": [
                {
                    "name": "from",
                    "type": "address"
                },
                {
                    "name": "to",
                    "type": "address"
                },
                {
                    "name": "tokenId",
                    "type": "uint256"
                }
            ],
            "name": "safeTransferFrom",
            "outputs": [],
            "payable": false,
            "stateMutability": "nonpayable",
            "type": "function"
        },
        {
            "constant": true,
            "inputs": [
                {
                    "name": "tokenId",
                    "type": "uint256"
                }
            ],
            "name": "ownerOf",
            "outputs": [
                {
                    "name": "",
                    "type": "address"
                }
            ],
            "payable": false,
            "stateMutability": "view",
            "type": "function"
        },
        {
            "constant": true,
            "inputs": [
                {
                    "name": "owner",
                    "type": "address"
                }
            ],
            "name": "balanceOf",
            "outputs": [
                {
                    "name": "",
                    "type": "uint256"
                }
            ],
            "payable": false,
            "stateMutability": "view",
            "type": "function"
        },
        {
            "constant": false,
            "inputs": [
                {
                    "name": "account",
                    "type": "address"
                }
            ],
            "name": "addMinter",
            "outputs": [],
            "payable": false,
            "stateMutability": "nonpayable",
            "type": "function"
        },
        {
            "constant": false,
            "inputs": [],
            "name": "renounceMinter",
            "outputs": [],
            "payable": false,
            "stateMutability": "nonpayable",
            "type": "function"
        },
        {
            "constant": false,
            "inputs": [
                {
                    "name": "to",
                    "type": "address"
                },
                {
                    "name": "approved",
                    "type": "bool"
                }
            ],
            "name": "setApprovalForAll",
            "outputs": [],
            "payable": false,
            "stateMutability": "nonpayable",
            "type": "function"
        },
        {
            "constant": true,
            "inputs": [
                {
                    "name": "account",
                    "type": "address"
                }
            ],
            "name": "isMinter",
            "outputs": [
                {
                    "name": "",
                    "type": "bool"
                }
            ],
            "payable": false,
            "stateMutability": "view",
            "type": "function"
        },
        {
            "constant": false,
            "inputs": [
                {
                    "name": "from",
                    "type": "address"
                },
                {
                    "name": "to",
                    "type": "address"
                },
                {
                    "name": "tokenId",
                    "type": "uint256"
                },
                {
                    "name": "_data",
                    "type": "bytes"
                }
            ],
            "name": "safeTransferFrom",
            "outputs": [],
            "payable": false,
            "stateMutability": "nonpayable",
            "type": "function"
        },
        {
            "constant": true,
            "inputs": [
                {
                    "name": "owner",
                    "type": "address"
                },
                {
                    "name": "operator",
                    "type": "address"
                }
            ],
            "name": "isApprovedForAll",
            "outputs": [
                {
                    "name": "",
                    "type": "bool"
                }
            ],
            "payable": false,
            "stateMutability": "view",
            "type": "function"
        },
        {
            "anonymous": false,
            "inputs": [
                {
                    "indexed": true,
                    "name": "account",
                    "type": "address"
                }
            ],
            "name": "MinterAdded",
            "type": "event"
        },
        {
            "anonymous": false,
            "inputs": [
                {
                    "indexed": true,
                    "name": "account",
                    "type": "address"
                }
            ],
            "name": "MinterRemoved",
            "type": "event"
        },
        {
            "anonymous": false,
            "inputs": [
                {
                    "indexed": true,
                    "name": "from",
                    "type": "address"
                },
                {
                    "indexed": true,
                    "name": "to",
                    "type": "address"
                },
                {
                    "indexed": true,
                    "name": "tokenId",
                    "type": "uint256"
                }
            ],
            "name": "Transfer",
            "type": "event"
        },
        {
            "anonymous": false,
            "inputs": [
                {
                    "indexed": true,
                    "name": "owner",
                    "type": "address"
                },
                {
                    "indexed": true,
                    "name": "approved",
                    "type": "address"
                },
                {
                    "indexed": true,
                    "name": "tokenId",
                    "type": "uint256"
                }
            ],
            "name": "Approval",
            "type": "event"
        },
        {
            "anonymous": false,
            "inputs": [
                {
                    "indexed": true,
                    "name": "owner",
                    "type": "address"
                },
                {
                    "indexed": true,
                    "name": "operator",
                    "type": "address"
                },
                {
                    "indexed": false,
                    "name": "approved",
                    "type": "bool"
                }
            ],
            "name": "ApprovalForAll",
            "type": "event"
        }
    ],
    "bytecode": "6080604052620000387f01ffc9a70000000000000000000000000000000000000000000000000000000064010000000062000086810204565b6200006c7f80ac58cd0000000000000000000000000000000000000000000000000000000064010000000062000086810204565b620000803364010000000062000155810204565b620002d3565b7fffffffff0000000000000000000000000000000000000000000000000000000080821614156200011857604080517f08c379a000000000000000000000000000000000000000000000000000000000815260206004820152601c60248201527f4552433136353a20696e76616c696420696e7465726661636520696400000000604482015290519081900360640190fd5b7fffffffff00000000000000000000000000000000000000000000000000000000166000908152602081905260409020805460ff19166001179055565b6200017060058264010000000062000f97620001a782021704565b604051600160a060020a038216907f6ae172837ea30b801fbfcdd4108aa1d5bf8ff775444fd70256b44e6bf3dfc3f690600090a250565b620001bc82826401000000006200024e810204565b156200022957604080517f08c379a000000000000000000000000000000000000000000000000000000000815260206004820152601f60248201527f526f6c65733a206163636f756e7420616c72656164792068617320726f6c6500604482015290519081900360640190fd5b600160a060020a0316600090815260209190915260409020805460ff19166001179055565b6000600160a060020a0382161515620002b3576040517f08c379a0000000000000000000000000000000000000000000000000000000008152600401808060200182810382526022815260200180620016256022913960400191505060405180910390fd5b50600160a060020a03166000908152602091909152604090205460ff1690565b61134280620002e36000396000f3fe608060405234801561001057600080fd5b5060043610610107576000357c01000000000000000000000000000000000000000000000000000000009004806370a08231116100a9578063a22cb46511610083578063a22cb465146102de578063aa271e1a1461030c578063b88d4fde14610332578063e985e9c5146103f857610107565b806370a0823114610278578063983b2d56146102b057806398650275146102d657610107565b806323b872dd116100e557806323b872dd146101c357806340c10f19146101f957806342842e0e146102255780636352211e1461025b57610107565b806301ffc9a71461010c578063081812fc1461015c578063095ea7b314610195575b600080fd5b6101486004803603602081101561012257600080fd5b50357bffffffffffffffffffffffffffffffffffffffffffffffffffffffff1916610426565b604080519115158252519081900360200190f35b6101796004803603602081101561017257600080fd5b503561045a565b60408051600160a060020a039092168252519081900360200190f35b6101c1600480360360408110156101ab57600080fd5b50600160a060020a0381351690602001356104c1565b005b6101c1600480360360608110156101d957600080fd5b50600160a060020a038135811691602081013590911690604001356105e1565b6101486004803603604081101561020f57600080fd5b50600160a060020a03813516906020013561063b565b6101c16004803603606081101561023b57600080fd5b50600160a060020a03813581169160208101359091169060400135610699565b6101796004803603602081101561027157600080fd5b50356106b5565b61029e6004803603602081101561028e57600080fd5b5035600160a060020a0316610714565b60408051918252519081900360200190f35b6101c1600480360360208110156102c657600080fd5b5035600160a060020a0316610781565b6101c16107d6565b6101c1600480360360408110156102f457600080fd5b50600160a060020a03813516906020013515156107e1565b6101486004803603602081101561032257600080fd5b5035600160a060020a03166108b0565b6101c16004803603608081101561034857600080fd5b600160a060020a0382358116926020810135909116916040820135919081019060808101606082013564010000000081111561038357600080fd5b82018360208201111561039557600080fd5b803590602001918460018302840111640100000000831117156103b757600080fd5b91908080601f0160208091040260200160405190810160405280939291908181526020018383808284376000920191909152509295506108c3945050505050565b6101486004803603604081101561040e57600080fd5b50600160a060020a0381358116916020013516610920565b7bffffffffffffffffffffffffffffffffffffffffffffffffffffffff191660009081526020819052604090205460ff1690565b60006104658261094e565b15156104a55760405160e560020a62461bcd02815260040180806020018281038252602c81526020018061124e602c913960400191505060405180910390fd5b50600090815260026020526040902054600160a060020a031690565b60006104cc826106b5565b9050600160a060020a03838116908216141561051c5760405160e560020a62461bcd0281526004018080602001828103825260218152602001806112c56021913960400191505060405180910390fd5b33600160a060020a038216148061053857506105388133610920565b15156105785760405160e560020a62461bcd0281526004018080602001828103825260388152602001806111726038913960400191505060405180910390fd5b600082815260026020526040808220805473ffffffffffffffffffffffffffffffffffffffff1916600160a060020a0387811691821790925591518593918516917f8c5be1e5ebec7d5bd14f71427d1e84f3dd0314c0f7b2291e5b200ac8c7c3b92591a4505050565b6105eb338261096b565b151561062b5760405160e560020a62461bcd0281526004018080602001828103825260318152602001806112e66031913960400191505060405180910390fd5b610636838383610a14565b505050565b6000610646336108b0565b15156106865760405160e560020a62461bcd0281526004018080602001828103825260308152602001806111fd6030913960400191505060405180910390fd5b6106908383610b6d565b50600192915050565b61063683838360206040519081016040528060008152506108c3565b600081815260016020526040812054600160a060020a031680151561070e5760405160e560020a62461bcd0281526004018080602001828103825260298152602001806111d46029913960400191505060405180910390fd5b92915050565b6000600160a060020a03821615156107605760405160e560020a62461bcd02815260040180806020018281038252602a8152602001806111aa602a913960400191505060405180910390fd5b600160a060020a038216600090815260036020526040902061070e90610cb3565b61078a336108b0565b15156107ca5760405160e560020a62461bcd0281526004018080602001828103825260308152602001806111fd6030913960400191505060405180910390fd5b6107d381610cb7565b50565b6107df33610cff565b565b600160a060020a038216331415610842576040805160e560020a62461bcd02815260206004820152601960248201527f4552433732313a20617070726f766520746f2063616c6c657200000000000000604482015290519081900360640190fd5b336000818152600460209081526040808320600160a060020a03871680855290835292819020805460ff1916861515908117909155815190815290519293927f17307eab39ab6107e8899845ad3d59bd9653f200f220920489ca2b5937696c31929181900390910190a35050565b600061070e60058363ffffffff610d4716565b6108ce8484846105e1565b6108da84848484610db3565b151561091a5760405160e560020a62461bcd0281526004018080602001828103825260328152602001806110f06032913960400191505060405180910390fd5b50505050565b600160a060020a03918216600090815260046020908152604080832093909416825291909152205460ff1690565b600090815260016020526040902054600160a060020a0316151590565b60006109768261094e565b15156109b65760405160e560020a62461bcd02815260040180806020018281038252602c815260200180611146602c913960400191505060405180910390fd5b60006109c1836106b5565b905080600160a060020a031684600160a060020a031614806109fc575083600160a060020a03166109f18461045a565b600160a060020a0316145b80610a0c5750610a0c8185610920565b949350505050565b82600160a060020a0316610a27826106b5565b600160a060020a031614610a6f5760405160e560020a62461bcd02815260040180806020018281038252602981526020018061129c6029913960400191505060405180910390fd5b600160a060020a0382161515610ab95760405160e560020a62461bcd0281526004018080602001828103825260248152602001806111226024913960400191505060405180910390fd5b610ac281610f2f565b600160a060020a0383166000908152600360205260409020610ae390610f77565b600160a060020a0382166000908152600360205260409020610b0490610f8e565b600081815260016020526040808220805473ffffffffffffffffffffffffffffffffffffffff1916600160a060020a0386811691821790925591518493918716917fddf252ad1be2c89b69c2b068fc378daa952ba7f163c4a11628f55a4df523b3ef91a4505050565b600160a060020a0382161515610bcd576040805160e560020a62461bcd02815260206004820181905260248201527f4552433732313a206d696e7420746f20746865207a65726f2061646472657373604482015290519081900360640190fd5b610bd68161094e565b15610c2b576040805160e560020a62461bcd02815260206004820152601c60248201527f4552433732313a20746f6b656e20616c7265616479206d696e74656400000000604482015290519081900360640190fd5b6000818152600160209081526040808320805473ffffffffffffffffffffffffffffffffffffffff1916600160a060020a038716908117909155835260039091529020610c7790610f8e565b6040518190600160a060020a038416906000907fddf252ad1be2c89b69c2b068fc378daa952ba7f163c4a11628f55a4df523b3ef908290a45050565b5490565b610cc860058263ffffffff610f9716565b604051600160a060020a038216907f6ae172837ea30b801fbfcdd4108aa1d5bf8ff775444fd70256b44e6bf3dfc3f690600090a250565b610d1060058263ffffffff61101b16565b604051600160a060020a038216907fe94479a9f7e1952cc78f2d6baab678adc1b772d936c6583def489e524cb6669290600090a250565b6000600160a060020a0382161515610d935760405160e560020a62461bcd02815260040180806020018281038252602281526020018061127a6022913960400191505060405180910390fd5b50600160a060020a03166000908152602091909152604090205460ff1690565b6000610dc784600160a060020a0316611087565b1515610dd557506001610a0c565b6040517f150b7a020000000000000000000000000000000000000000000000000000000081523360048201818152600160a060020a03888116602485015260448401879052608060648501908152865160848601528651600095928a169463150b7a029490938c938b938b939260a4019060208501908083838e5b83811015610e68578181015183820152602001610e50565b50505050905090810190601f168015610e955780820380516001836020036101000a031916815260200191505b5095505050505050602060405180830381600087803b158015610eb757600080fd5b505af1158015610ecb573d6000803e3d6000fd5b505050506040513d6020811015610ee157600080fd5b50517bffffffffffffffffffffffffffffffffffffffffffffffffffffffff19167f150b7a020000000000000000000000000000000000000000000000000000000014915050949350505050565b600081815260026020526040902054600160a060020a0316156107d3576000908152600260205260409020805473ffffffffffffffffffffffffffffffffffffffff19169055565b8054610f8a90600163ffffffff61108f16565b9055565b80546001019055565b610fa18282610d47565b15610ff6576040805160e560020a62461bcd02815260206004820152601f60248201527f526f6c65733a206163636f756e7420616c72656164792068617320726f6c6500604482015290519081900360640190fd5b600160a060020a0316600090815260209190915260409020805460ff19166001179055565b6110258282610d47565b15156110655760405160e560020a62461bcd02815260040180806020018281038252602181526020018061122d6021913960400191505060405180910390fd5b600160a060020a0316600090815260209190915260409020805460ff19169055565b6000903b1190565b6000828211156110e9576040805160e560020a62461bcd02815260206004820152601e60248201527f536166654d6174683a207375627472616374696f6e206f766572666c6f770000604482015290519081900360640190fd5b5090039056fe4552433732313a207472616e7366657220746f206e6f6e20455243373231526563656976657220696d706c656d656e7465724552433732313a207472616e7366657220746f20746865207a65726f20616464726573734552433732313a206f70657261746f7220717565727920666f72206e6f6e6578697374656e7420746f6b656e4552433732313a20617070726f76652063616c6c6572206973206e6f74206f776e6572206e6f7220617070726f76656420666f7220616c6c4552433732313a2062616c616e636520717565727920666f7220746865207a65726f20616464726573734552433732313a206f776e657220717565727920666f72206e6f6e6578697374656e7420746f6b656e4d696e746572526f6c653a2063616c6c657220646f6573206e6f74206861766520746865204d696e74657220726f6c65526f6c65733a206163636f756e7420646f6573206e6f74206861766520726f6c654552433732313a20617070726f76656420717565727920666f72206e6f6e6578697374656e7420746f6b656e526f6c65733a206163636f756e7420697320746865207a65726f20616464726573734552433732313a207472616e73666572206f6620746f6b656e2074686174206973206e6f74206f776e4552433732313a20617070726f76616c20746f2063757272656e74206f776e65724552433732313a207472616e736665722063616c6c6572206973206e6f74206f776e6572206e6f7220617070726f766564a165627a7a72305820da8bca9531a0e5e13f749bc7869a3f4a39d98bfa7011eb7944ba847b0bd8806f0029526f6c65733a206163636f756e7420697320746865207a65726f2061646472657373",
    "sourcePath": "c:/Users/franc/Desktop/ReMuS/example_content/contracts/openzeppelin-solidity/contracts/token/ERC721/ERC721Mintable.sol",
    "compiler": {
        "name": "solc",
        "version": "0.5.2+commit.1df8f40c"
    },
    "functionHashes": {
        "addMinter(address)": "983b2d56",
        "approve(address,uint256)": "095ea7b3",
        "balanceOf(address)": "70a08231",
        "getApproved(uint256)": "081812fc",
        "isApprovedForAll(address,address)": "e985e9c5",
        "isMinter(address)": "aa271e1a",
        "mint(address,uint256)": "40c10f19",
        "ownerOf(uint256)": "6352211e",
        "renounceMinter()": "98650275",
        "safeTransferFrom(address,address,uint256)": "42842e0e",
        "safeTransferFrom(address,address,uint256,bytes)": "b88d4fde",
        "setApprovalForAll(address,bool)": "a22cb465",
        "supportsInterface(bytes4)": "01ffc9a7",
        "transferFrom(address,address,uint256)": "23b872dd"
    },
    "gasEstimates": {
        "creation": {
            "codeDepositCost": "986000",
            "executionCost": "infinite",
            "totalCost": "infinite"
        },
        "external": {
            "addMinter(address)": "infinite",
            "approve(address,uint256)": "infinite",
            "balanceOf(address)": "infinite",
            "getApproved(uint256)": "infinite",
            "isApprovedForAll(address,address)": "869",
            "isMinter(address)": "infinite",
            "mint(address,uint256)": "infinite",
            "ownerOf(uint256)": "infinite",
            "renounceMinter()": "infinite",
            "safeTransferFrom(address,address,uint256)": "infinite",
            "safeTransferFrom(address,address,uint256,bytes)": "infinite",
            "setApprovalForAll(address,bool)": "22698",
            "supportsInterface(bytes4)": "568",
            "transferFrom(address,address,uint256)": "infinite"
        }
    }
}