{
    "contractName": "ERC721Burnable",
    "abi": [
        {
            "constant": true,
            "inputs": [
                {
                    "name": "interfaceId",
                    "type": "bytes4"
                }
            ],
            "name": "supportsInterface",
            "outputs": [
                {
                    "name": "",
                    "type": "bool"
                }
            ],
            "payable": false,
            "stateMutability": "view",
            "type": "function"
        },
        {
            "constant": true,
            "inputs": [
                {
                    "name": "tokenId",
                    "type": "uint256"
                }
            ],
            "name": "getApproved",
            "outputs": [
                {
                    "name": "",
                    "type": "address"
                }
            ],
            "payable": false,
            "stateMutability": "view",
            "type": "function"
        },
        {
            "constant": false,
            "inputs": [
                {
                    "name": "to",
                    "type": "address"
                },
                {
                    "name": "tokenId",
                    "type": "uint256"
                }
            ],
            "name": "approve",
            "outputs": [],
            "payable": false,
            "stateMutability": "nonpayable",
            "type": "function"
        },
        {
            "constant": false,
            "inputs": [
                {
                    "name": "from",
                    "type": "address"
                },
                {
                    "name": "to",
                    "type": "address"
                },
                {
                    "name": "tokenId",
                    "type": "uint256"
                }
            ],
            "name": "transferFrom",
            "outputs": [],
            "payable": false,
            "stateMutability": "nonpayable",
            "type": "function"
        },
        {
            "constant": false,
            "inputs": [
                {
                    "name": "from",
                    "type": "address"
                },
                {
                    "name": "to",
                    "type": "address"
                },
                {
                    "name": "tokenId",
                    "type": "uint256"
                }
            ],
            "name": "safeTransferFrom",
            "outputs": [],
            "payable": false,
            "stateMutability": "nonpayable",
            "type": "function"
        },
        {
            "constant": false,
            "inputs": [
                {
                    "name": "tokenId",
                    "type": "uint256"
                }
            ],
            "name": "burn",
            "outputs": [],
            "payable": false,
            "stateMutability": "nonpayable",
            "type": "function"
        },
        {
            "constant": true,
            "inputs": [
                {
                    "name": "tokenId",
                    "type": "uint256"
                }
            ],
            "name": "ownerOf",
            "outputs": [
                {
                    "name": "",
                    "type": "address"
                }
            ],
            "payable": false,
            "stateMutability": "view",
            "type": "function"
        },
        {
            "constant": true,
            "inputs": [
                {
                    "name": "owner",
                    "type": "address"
                }
            ],
            "name": "balanceOf",
            "outputs": [
                {
                    "name": "",
                    "type": "uint256"
                }
            ],
            "payable": false,
            "stateMutability": "view",
            "type": "function"
        },
        {
            "constant": false,
            "inputs": [
                {
                    "name": "to",
                    "type": "address"
                },
                {
                    "name": "approved",
                    "type": "bool"
                }
            ],
            "name": "setApprovalForAll",
            "outputs": [],
            "payable": false,
            "stateMutability": "nonpayable",
            "type": "function"
        },
        {
            "constant": false,
            "inputs": [
                {
                    "name": "from",
                    "type": "address"
                },
                {
                    "name": "to",
                    "type": "address"
                },
                {
                    "name": "tokenId",
                    "type": "uint256"
                },
                {
                    "name": "_data",
                    "type": "bytes"
                }
            ],
            "name": "safeTransferFrom",
            "outputs": [],
            "payable": false,
            "stateMutability": "nonpayable",
            "type": "function"
        },
        {
            "constant": true,
            "inputs": [
                {
                    "name": "owner",
                    "type": "address"
                },
                {
                    "name": "operator",
                    "type": "address"
                }
            ],
            "name": "isApprovedForAll",
            "outputs": [
                {
                    "name": "",
                    "type": "bool"
                }
            ],
            "payable": false,
            "stateMutability": "view",
            "type": "function"
        },
        {
            "anonymous": false,
            "inputs": [
                {
                    "indexed": true,
                    "name": "from",
                    "type": "address"
                },
                {
                    "indexed": true,
                    "name": "to",
                    "type": "address"
                },
                {
                    "indexed": true,
                    "name": "tokenId",
                    "type": "uint256"
                }
            ],
            "name": "Transfer",
            "type": "event"
        },
        {
            "anonymous": false,
            "inputs": [
                {
                    "indexed": true,
                    "name": "owner",
                    "type": "address"
                },
                {
                    "indexed": true,
                    "name": "approved",
                    "type": "address"
                },
                {
                    "indexed": true,
                    "name": "tokenId",
                    "type": "uint256"
                }
            ],
            "name": "Approval",
            "type": "event"
        },
        {
            "anonymous": false,
            "inputs": [
                {
                    "indexed": true,
                    "name": "owner",
                    "type": "address"
                },
                {
                    "indexed": true,
                    "name": "operator",
                    "type": "address"
                },
                {
                    "indexed": false,
                    "name": "approved",
                    "type": "bool"
                }
            ],
            "name": "ApprovalForAll",
            "type": "event"
        }
    ],
    "bytecode": "60806040526100367f01ffc9a70000000000000000000000000000000000000000000000000000000064010000000061006d810204565b6100687f80ac58cd0000000000000000000000000000000000000000000000000000000064010000000061006d810204565b61013b565b7fffffffff0000000000000000000000000000000000000000000000000000000080821614156100fe57604080517f08c379a000000000000000000000000000000000000000000000000000000000815260206004820152601c60248201527f4552433136353a20696e76616c696420696e7465726661636520696400000000604482015290519081900360640190fd5b7fffffffff00000000000000000000000000000000000000000000000000000000166000908152602081905260409020805460ff19166001179055565b610fcc8061014a6000396000f3fe608060405234801561001057600080fd5b50600436106100c6576000357c01000000000000000000000000000000000000000000000000000000009004806342966c681161008e57806342966c68146101ee5780636352211e1461020b57806370a0823114610228578063a22cb46514610260578063b88d4fde1461028e578063e985e9c514610354576100c6565b806301ffc9a7146100cb578063081812fc1461011b578063095ea7b31461015457806323b872dd1461018257806342842e0e146101b8575b600080fd5b610107600480360360208110156100e157600080fd5b50357bffffffffffffffffffffffffffffffffffffffffffffffffffffffff1916610382565b604080519115158252519081900360200190f35b6101386004803603602081101561013157600080fd5b50356103b6565b60408051600160a060020a039092168252519081900360200190f35b6101806004803603604081101561016a57600080fd5b50600160a060020a03813516906020013561041d565b005b6101806004803603606081101561019857600080fd5b50600160a060020a0381358116916020810135909116906040013561053d565b610180600480360360608110156101ce57600080fd5b50600160a060020a03813581169160208101359091169060400135610597565b6101806004803603602081101561020457600080fd5b50356105b3565b6101386004803603602081101561022157600080fd5b5035610609565b61024e6004803603602081101561023e57600080fd5b5035600160a060020a0316610668565b60408051918252519081900360200190f35b6101806004803603604081101561027657600080fd5b50600160a060020a03813516906020013515156106d5565b610180600480360360808110156102a457600080fd5b600160a060020a038235811692602081013590911691604082013591908101906080810160608201356401000000008111156102df57600080fd5b8201836020820111156102f157600080fd5b8035906020019184600183028401116401000000008311171561031357600080fd5b91908080601f0160208091040260200160405190810160405280939291908181526020018383808284376000920191909152509295506107a4945050505050565b6101076004803603604081101561036a57600080fd5b50600160a060020a0381358116916020013516610801565b7bffffffffffffffffffffffffffffffffffffffffffffffffffffffff191660009081526020819052604090205460ff1690565b60006103c18261082f565b15156104015760405160e560020a62461bcd02815260040180806020018281038252602c815260200180610ea5602c913960400191505060405180910390fd5b50600090815260026020526040902054600160a060020a031690565b600061042882610609565b9050600160a060020a0383811690821614156104785760405160e560020a62461bcd028152600401808060200182810382526021815260200180610efa6021913960400191505060405180910390fd5b33600160a060020a038216148061049457506104948133610801565b15156104d45760405160e560020a62461bcd028152600401808060200182810382526038815260200180610e1a6038913960400191505060405180910390fd5b600082815260026020526040808220805473ffffffffffffffffffffffffffffffffffffffff1916600160a060020a0387811691821790925591518593918516917f8c5be1e5ebec7d5bd14f71427d1e84f3dd0314c0f7b2291e5b200ac8c7c3b92591a4505050565b610547338261084c565b15156105875760405160e560020a62461bcd028152600401808060200182810382526031815260200180610f1b6031913960400191505060405180910390fd5b6105928383836108f5565b505050565b61059283838360206040519081016040528060008152506107a4565b6105bd338261084c565b15156105fd5760405160e560020a62461bcd028152600401808060200182810382526030815260200180610f716030913960400191505060405180910390fd5b61060681610a4e565b50565b600081815260016020526040812054600160a060020a03168015156106625760405160e560020a62461bcd028152600401808060200182810382526029815260200180610e7c6029913960400191505060405180910390fd5b92915050565b6000600160a060020a03821615156106b45760405160e560020a62461bcd02815260040180806020018281038252602a815260200180610e52602a913960400191505060405180910390fd5b600160a060020a038216600090815260036020526040902061066290610a60565b600160a060020a038216331415610736576040805160e560020a62461bcd02815260206004820152601960248201527f4552433732313a20617070726f766520746f2063616c6c657200000000000000604482015290519081900360640190fd5b336000818152600460209081526040808320600160a060020a03871680855290835292819020805460ff1916861515908117909155815190815290519293927f17307eab39ab6107e8899845ad3d59bd9653f200f220920489ca2b5937696c31929181900390910190a35050565b6107af84848461053d565b6107bb84848484610a64565b15156107fb5760405160e560020a62461bcd028152600401808060200182810382526032815260200180610d986032913960400191505060405180910390fd5b50505050565b600160a060020a03918216600090815260046020908152604080832093909416825291909152205460ff1690565b600090815260016020526040902054600160a060020a0316151590565b60006108578261082f565b15156108975760405160e560020a62461bcd02815260040180806020018281038252602c815260200180610dee602c913960400191505060405180910390fd5b60006108a283610609565b905080600160a060020a031684600160a060020a031614806108dd575083600160a060020a03166108d2846103b6565b600160a060020a0316145b806108ed57506108ed8185610801565b949350505050565b82600160a060020a031661090882610609565b600160a060020a0316146109505760405160e560020a62461bcd028152600401808060200182810382526029815260200180610ed16029913960400191505060405180910390fd5b600160a060020a038216151561099a5760405160e560020a62461bcd028152600401808060200182810382526024815260200180610dca6024913960400191505060405180910390fd5b6109a381610be0565b600160a060020a03831660009081526003602052604090206109c490610c28565b600160a060020a03821660009081526003602052604090206109e590610c3f565b600081815260016020526040808220805473ffffffffffffffffffffffffffffffffffffffff1916600160a060020a0386811691821790925591518493918716917fddf252ad1be2c89b69c2b068fc378daa952ba7f163c4a11628f55a4df523b3ef91a4505050565b610606610a5a82610609565b82610c48565b5490565b6000610a7884600160a060020a0316610d2f565b1515610a86575060016108ed565b6040517f150b7a020000000000000000000000000000000000000000000000000000000081523360048201818152600160a060020a03888116602485015260448401879052608060648501908152865160848601528651600095928a169463150b7a029490938c938b938b939260a4019060208501908083838e5b83811015610b19578181015183820152602001610b01565b50505050905090810190601f168015610b465780820380516001836020036101000a031916815260200191505b5095505050505050602060405180830381600087803b158015610b6857600080fd5b505af1158015610b7c573d6000803e3d6000fd5b505050506040513d6020811015610b9257600080fd5b50517bffffffffffffffffffffffffffffffffffffffffffffffffffffffff19167f150b7a020000000000000000000000000000000000000000000000000000000014915050949350505050565b600081815260026020526040902054600160a060020a031615610606576000908152600260205260409020805473ffffffffffffffffffffffffffffffffffffffff19169055565b8054610c3b90600163ffffffff610d3716565b9055565b80546001019055565b81600160a060020a0316610c5b82610609565b600160a060020a031614610ca35760405160e560020a62461bcd028152600401808060200182810382526025815260200180610f4c6025913960400191505060405180910390fd5b610cac81610be0565b600160a060020a0382166000908152600360205260409020610ccd90610c28565b600081815260016020526040808220805473ffffffffffffffffffffffffffffffffffffffff1916905551829190600160a060020a038516907fddf252ad1be2c89b69c2b068fc378daa952ba7f163c4a11628f55a4df523b3ef908390a45050565b6000903b1190565b600082821115610d91576040805160e560020a62461bcd02815260206004820152601e60248201527f536166654d6174683a207375627472616374696f6e206f766572666c6f770000604482015290519081900360640190fd5b5090039056fe4552433732313a207472616e7366657220746f206e6f6e20455243373231526563656976657220696d706c656d656e7465724552433732313a207472616e7366657220746f20746865207a65726f20616464726573734552433732313a206f70657261746f7220717565727920666f72206e6f6e6578697374656e7420746f6b656e4552433732313a20617070726f76652063616c6c6572206973206e6f74206f776e6572206e6f7220617070726f76656420666f7220616c6c4552433732313a2062616c616e636520717565727920666f7220746865207a65726f20616464726573734552433732313a206f776e657220717565727920666f72206e6f6e6578697374656e7420746f6b656e4552433732313a20617070726f76656420717565727920666f72206e6f6e6578697374656e7420746f6b656e4552433732313a207472616e73666572206f6620746f6b656e2074686174206973206e6f74206f776e4552433732313a20617070726f76616c20746f2063757272656e74206f776e65724552433732313a207472616e736665722063616c6c6572206973206e6f74206f776e6572206e6f7220617070726f7665644552433732313a206275726e206f6620746f6b656e2074686174206973206e6f74206f776e4552433732314275726e61626c653a2063616c6c6572206973206e6f74206f776e6572206e6f7220617070726f766564a165627a7a72305820fc8e4e4ce13258e6160261d9f26c5577ebe050a05dc6b3788b9cac761e79e71b0029",
    "sourcePath": "c:/Users/franc/Desktop/ReMuS/example_content/contracts/openzeppelin-solidity/contracts/token/ERC721/ERC721Burnable.sol",
    "compiler": {
        "name": "solc",
        "version": "0.5.2+commit.1df8f40c"
    },
    "functionHashes": {
        "approve(address,uint256)": "095ea7b3",
        "balanceOf(address)": "70a08231",
        "burn(uint256)": "42966c68",
        "getApproved(uint256)": "081812fc",
        "isApprovedForAll(address,address)": "e985e9c5",
        "ownerOf(uint256)": "6352211e",
        "safeTransferFrom(address,address,uint256)": "42842e0e",
        "safeTransferFrom(address,address,uint256,bytes)": "b88d4fde",
        "setApprovalForAll(address,bool)": "a22cb465",
        "supportsInterface(bytes4)": "01ffc9a7",
        "transferFrom(address,address,uint256)": "23b872dd"
    },
    "gasEstimates": {
        "creation": {
            "codeDepositCost": "808800",
            "executionCost": "infinite",
            "totalCost": "infinite"
        },
        "external": {
            "approve(address,uint256)": "infinite",
            "balanceOf(address)": "infinite",
            "burn(uint256)": "infinite",
            "getApproved(uint256)": "infinite",
            "isApprovedForAll(address,address)": "891",
            "ownerOf(uint256)": "infinite",
            "safeTransferFrom(address,address,uint256)": "infinite",
            "safeTransferFrom(address,address,uint256,bytes)": "infinite",
            "setApprovalForAll(address,bool)": "22742",
            "supportsInterface(bytes4)": "545",
            "transferFrom(address,address,uint256)": "infinite"
        }
    }
}