{
    "contractName": "ERC721Pausable",
    "abi": [
        {
            "constant": true,
            "inputs": [
                {
                    "name": "interfaceId",
                    "type": "bytes4"
                }
            ],
            "name": "supportsInterface",
            "outputs": [
                {
                    "name": "",
                    "type": "bool"
                }
            ],
            "payable": false,
            "stateMutability": "view",
            "type": "function"
        },
        {
            "constant": true,
            "inputs": [
                {
                    "name": "tokenId",
                    "type": "uint256"
                }
            ],
            "name": "getApproved",
            "outputs": [
                {
                    "name": "",
                    "type": "address"
                }
            ],
            "payable": false,
            "stateMutability": "view",
            "type": "function"
        },
        {
            "constant": false,
            "inputs": [
                {
                    "name": "to",
                    "type": "address"
                },
                {
                    "name": "tokenId",
                    "type": "uint256"
                }
            ],
            "name": "approve",
            "outputs": [],
            "payable": false,
            "stateMutability": "nonpayable",
            "type": "function"
        },
        {
            "constant": false,
            "inputs": [
                {
                    "name": "from",
                    "type": "address"
                },
                {
                    "name": "to",
                    "type": "address"
                },
                {
                    "name": "tokenId",
                    "type": "uint256"
                }
            ],
            "name": "transferFrom",
            "outputs": [],
            "payable": false,
            "stateMutability": "nonpayable",
            "type": "function"
        },
        {
            "constant": false,
            "inputs": [],
            "name": "unpause",
            "outputs": [],
            "payable": false,
            "stateMutability": "nonpayable",
            "type": "function"
        },
        {
            "constant": false,
            "inputs": [
                {
                    "name": "from",
                    "type": "address"
                },
                {
                    "name": "to",
                    "type": "address"
                },
                {
                    "name": "tokenId",
                    "type": "uint256"
                }
            ],
            "name": "safeTransferFrom",
            "outputs": [],
            "payable": false,
            "stateMutability": "nonpayable",
            "type": "function"
        },
        {
            "constant": true,
            "inputs": [
                {
                    "name": "account",
                    "type": "address"
                }
            ],
            "name": "isPauser",
            "outputs": [
                {
                    "name": "",
                    "type": "bool"
                }
            ],
            "payable": false,
            "stateMutability": "view",
            "type": "function"
        },
        {
            "constant": true,
            "inputs": [],
            "name": "paused",
            "outputs": [
                {
                    "name": "",
                    "type": "bool"
                }
            ],
            "payable": false,
            "stateMutability": "view",
            "type": "function"
        },
        {
            "constant": true,
            "inputs": [
                {
                    "name": "tokenId",
                    "type": "uint256"
                }
            ],
            "name": "ownerOf",
            "outputs": [
                {
                    "name": "",
                    "type": "address"
                }
            ],
            "payable": false,
            "stateMutability": "view",
            "type": "function"
        },
        {
            "constant": false,
            "inputs": [],
            "name": "renouncePauser",
            "outputs": [],
            "payable": false,
            "stateMutability": "nonpayable",
            "type": "function"
        },
        {
            "constant": true,
            "inputs": [
                {
                    "name": "owner",
                    "type": "address"
                }
            ],
            "name": "balanceOf",
            "outputs": [
                {
                    "name": "",
                    "type": "uint256"
                }
            ],
            "payable": false,
            "stateMutability": "view",
            "type": "function"
        },
        {
            "constant": false,
            "inputs": [
                {
                    "name": "account",
                    "type": "address"
                }
            ],
            "name": "addPauser",
            "outputs": [],
            "payable": false,
            "stateMutability": "nonpayable",
            "type": "function"
        },
        {
            "constant": false,
            "inputs": [],
            "name": "pause",
            "outputs": [],
            "payable": false,
            "stateMutability": "nonpayable",
            "type": "function"
        },
        {
            "constant": false,
            "inputs": [
                {
                    "name": "to",
                    "type": "address"
                },
                {
                    "name": "approved",
                    "type": "bool"
                }
            ],
            "name": "setApprovalForAll",
            "outputs": [],
            "payable": false,
            "stateMutability": "nonpayable",
            "type": "function"
        },
        {
            "constant": false,
            "inputs": [
                {
                    "name": "from",
                    "type": "address"
                },
                {
                    "name": "to",
                    "type": "address"
                },
                {
                    "name": "tokenId",
                    "type": "uint256"
                },
                {
                    "name": "_data",
                    "type": "bytes"
                }
            ],
            "name": "safeTransferFrom",
            "outputs": [],
            "payable": false,
            "stateMutability": "nonpayable",
            "type": "function"
        },
        {
            "constant": true,
            "inputs": [
                {
                    "name": "owner",
                    "type": "address"
                },
                {
                    "name": "operator",
                    "type": "address"
                }
            ],
            "name": "isApprovedForAll",
            "outputs": [
                {
                    "name": "",
                    "type": "bool"
                }
            ],
            "payable": false,
            "stateMutability": "view",
            "type": "function"
        },
        {
            "anonymous": false,
            "inputs": [
                {
                    "indexed": false,
                    "name": "account",
                    "type": "address"
                }
            ],
            "name": "Paused",
            "type": "event"
        },
        {
            "anonymous": false,
            "inputs": [
                {
                    "indexed": false,
                    "name": "account",
                    "type": "address"
                }
            ],
            "name": "Unpaused",
            "type": "event"
        },
        {
            "anonymous": false,
            "inputs": [
                {
                    "indexed": true,
                    "name": "account",
                    "type": "address"
                }
            ],
            "name": "PauserAdded",
            "type": "event"
        },
        {
            "anonymous": false,
            "inputs": [
                {
                    "indexed": true,
                    "name": "account",
                    "type": "address"
                }
            ],
            "name": "PauserRemoved",
            "type": "event"
        },
        {
            "anonymous": false,
            "inputs": [
                {
                    "indexed": true,
                    "name": "from",
                    "type": "address"
                },
                {
                    "indexed": true,
                    "name": "to",
                    "type": "address"
                },
                {
                    "indexed": true,
                    "name": "tokenId",
                    "type": "uint256"
                }
            ],
            "name": "Transfer",
            "type": "event"
        },
        {
            "anonymous": false,
            "inputs": [
                {
                    "indexed": true,
                    "name": "owner",
                    "type": "address"
                },
                {
                    "indexed": true,
                    "name": "approved",
                    "type": "address"
                },
                {
                    "indexed": true,
                    "name": "tokenId",
                    "type": "uint256"
                }
            ],
            "name": "Approval",
            "type": "event"
        },
        {
            "anonymous": false,
            "inputs": [
                {
                    "indexed": true,
                    "name": "owner",
                    "type": "address"
                },
                {
                    "indexed": true,
                    "name": "operator",
                    "type": "address"
                },
                {
                    "indexed": false,
                    "name": "approved",
                    "type": "bool"
                }
            ],
            "name": "ApprovalForAll",
            "type": "event"
        }
    ],
    "bytecode": "6080604052620000387f01ffc9a70000000000000000000000000000000000000000000000000000000064010000000062000090810204565b6200006c7f80ac58cd0000000000000000000000000000000000000000000000000000000064010000000062000090810204565b62000080336401000000006200015f810204565b6006805460ff19169055620002dd565b7fffffffff0000000000000000000000000000000000000000000000000000000080821614156200012257604080517f08c379a000000000000000000000000000000000000000000000000000000000815260206004820152601c60248201527f4552433136353a20696e76616c696420696e7465726661636520696400000000604482015290519081900360640190fd5b7fffffffff00000000000000000000000000000000000000000000000000000000166000908152602081905260409020805460ff19166001179055565b6200017a600582640100000000620010b1620001b182021704565b604051600160a060020a038216907f6719d08c1888103bea251a4ed56406bd0c3e69723c8a1686e017e7bbe159b6f890600090a250565b620001c6828264010000000062000258810204565b156200023357604080517f08c379a000000000000000000000000000000000000000000000000000000000815260206004820152601f60248201527f526f6c65733a206163636f756e7420616c72656164792068617320726f6c6500604482015290519081900360640190fd5b600160a060020a0316600090815260209190915260409020805460ff19166001179055565b6000600160a060020a0382161515620002bd576040517f08c379a0000000000000000000000000000000000000000000000000000000008152600401808060200182810382526022815260200180620017656022913960400191505060405180910390fd5b50600160a060020a03166000908152602091909152604090205460ff1690565b61147880620002ed6000396000f3fe608060405234801561001057600080fd5b506004361061011d576000357c0100000000000000000000000000000000000000000000000000000000900480636352211e116100b45780638456cb59116100835780638456cb59146102fe578063a22cb46514610306578063b88d4fde14610334578063e985e9c5146103fa5761011d565b80636352211e1461027b5780636ef8d66d1461029857806370a08231146102a057806382dc1ec4146102d85761011d565b80633f4ba83a116100f05780633f4ba83a1461020f57806342842e0e1461021757806346fbf68e1461024d5780635c975abb146102735761011d565b806301ffc9a714610122578063081812fc14610172578063095ea7b3146101ab57806323b872dd146101d9575b600080fd5b61015e6004803603602081101561013857600080fd5b50357bffffffffffffffffffffffffffffffffffffffffffffffffffffffff1916610428565b604080519115158252519081900360200190f35b61018f6004803603602081101561018857600080fd5b503561045c565b60408051600160a060020a039092168252519081900360200190f35b6101d7600480360360408110156101c157600080fd5b50600160a060020a0381351690602001356104c3565b005b6101d7600480360360608110156101ef57600080fd5b50600160a060020a0381358116916020810135909116906040013561051a565b6101d7610573565b6101d76004803603606081101561022d57600080fd5b50600160a060020a03813581169160208101359091169060400135610657565b61015e6004803603602081101561026357600080fd5b5035600160a060020a0316610673565b61015e61068c565b61018f6004803603602081101561029157600080fd5b5035610695565b6101d76106ee565b6102c6600480360360208110156102b657600080fd5b5035600160a060020a03166106f9565b60408051918252519081900360200190f35b6101d7600480360360208110156102ee57600080fd5b5035600160a060020a0316610766565b6101d76107bb565b6101d76004803603604081101561031c57600080fd5b50600160a060020a038135169060200135151561088f565b6101d76004803603608081101561034a57600080fd5b600160a060020a0382358116926020810135909116916040820135919081019060808101606082013564010000000081111561038557600080fd5b82018360208201111561039757600080fd5b803590602001918460018302840111640100000000831117156103b957600080fd5b91908080601f0160208091040260200160405190810160405280939291908181526020018383808284376000920191909152509295506108e2945050505050565b61015e6004803603604081101561041057600080fd5b50600160a060020a038135811691602001351661093f565b7bffffffffffffffffffffffffffffffffffffffffffffffffffffffff191660009081526020819052604090205460ff1690565b60006104678261096d565b15156104a75760405160e560020a62461bcd02815260040180806020018281038252602c815260200180611364602c913960400191505060405180910390fd5b50600090815260026020526040902054600160a060020a031690565b60065460ff161561050c576040805160e560020a62461bcd02815260206004820152601060248201526000805160206113fc833981519152604482015290519081900360640190fd5b610516828261098a565b5050565b60065460ff1615610563576040805160e560020a62461bcd02815260206004820152601060248201526000805160206113fc833981519152604482015290519081900360640190fd5b61056e838383610aaa565b505050565b61057c33610673565b15156105bc5760405160e560020a62461bcd0281526004018080602001828103825260308152602001806112386030913960400191505060405180910390fd5b60065460ff161515610618576040805160e560020a62461bcd02815260206004820152601460248201527f5061757361626c653a206e6f7420706175736564000000000000000000000000604482015290519081900360640190fd5b6006805460ff191690556040805133815290517f5db9ee0a495bf2e6ff9c91a7834c1ba4fdd244a5e8aa4e537bd38aeae4b073aa9181900360200190a1565b61056e83838360206040519081016040528060008152506108e2565b600061068660058363ffffffff610aff16565b92915050565b60065460ff1690565b600081815260016020526040812054600160a060020a03168015156106865760405160e560020a62461bcd02815260040180806020018281038252602981526020018061131a6029913960400191505060405180910390fd5b6106f733610b6b565b565b6000600160a060020a03821615156107455760405160e560020a62461bcd02815260040180806020018281038252602a8152602001806112f0602a913960400191505060405180910390fd5b600160a060020a038216600090815260036020526040902061068690610bb3565b61076f33610673565b15156107af5760405160e560020a62461bcd0281526004018080602001828103825260308152602001806112386030913960400191505060405180910390fd5b6107b881610bb7565b50565b6107c433610673565b15156108045760405160e560020a62461bcd0281526004018080602001828103825260308152602001806112386030913960400191505060405180910390fd5b60065460ff161561084d576040805160e560020a62461bcd02815260206004820152601060248201526000805160206113fc833981519152604482015290519081900360640190fd5b6006805460ff191660011790556040805133815290517f62e78cea01bee320cd4e420270b5ea74000d11b0c9f74754ebdbfc544b05a2589181900360200190a1565b60065460ff16156108d8576040805160e560020a62461bcd02815260206004820152601060248201526000805160206113fc833981519152604482015290519081900360640190fd5b6105168282610bff565b6108ed84848461051a565b6108f984848484610cce565b15156109395760405160e560020a62461bcd0281526004018080602001828103825260328152602001806112066032913960400191505060405180910390fd5b50505050565b600160a060020a03918216600090815260046020908152604080832093909416825291909152205460ff1690565b600090815260016020526040902054600160a060020a0316151590565b600061099582610695565b9050600160a060020a0383811690821614156109e55760405160e560020a62461bcd0281526004018080602001828103825260218152602001806113db6021913960400191505060405180910390fd5b33600160a060020a0382161480610a015750610a01813361093f565b1515610a415760405160e560020a62461bcd0281526004018080602001828103825260388152602001806112b86038913960400191505060405180910390fd5b600082815260026020526040808220805473ffffffffffffffffffffffffffffffffffffffff1916600160a060020a0387811691821790925591518593918516917f8c5be1e5ebec7d5bd14f71427d1e84f3dd0314c0f7b2291e5b200ac8c7c3b92591a4505050565b610ab43382610e4b565b1515610af45760405160e560020a62461bcd02815260040180806020018281038252603181526020018061141c6031913960400191505060405180910390fd5b61056e838383610eec565b6000600160a060020a0382161515610b4b5760405160e560020a62461bcd0281526004018080602001828103825260228152602001806113906022913960400191505060405180910390fd5b50600160a060020a03166000908152602091909152604090205460ff1690565b610b7c60058263ffffffff61104516565b604051600160a060020a038216907fcd265ebaf09df2871cc7bd4133404a235ba12eff2041bb89d9c714a2621c7c7e90600090a250565b5490565b610bc860058263ffffffff6110b116565b604051600160a060020a038216907f6719d08c1888103bea251a4ed56406bd0c3e69723c8a1686e017e7bbe159b6f890600090a250565b600160a060020a038216331415610c60576040805160e560020a62461bcd02815260206004820152601960248201527f4552433732313a20617070726f766520746f2063616c6c657200000000000000604482015290519081900360640190fd5b336000818152600460209081526040808320600160a060020a03871680855290835292819020805460ff1916861515908117909155815190815290519293927f17307eab39ab6107e8899845ad3d59bd9653f200f220920489ca2b5937696c31929181900390910190a35050565b6000610ce284600160a060020a0316611135565b1515610cf057506001610e43565b6040517f150b7a020000000000000000000000000000000000000000000000000000000081523360048201818152600160a060020a03888116602485015260448401879052608060648501908152865160848601528651600095928a169463150b7a029490938c938b938b939260a4019060208501908083838e5b83811015610d83578181015183820152602001610d6b565b50505050905090810190601f168015610db05780820380516001836020036101000a031916815260200191505b5095505050505050602060405180830381600087803b158015610dd257600080fd5b505af1158015610de6573d6000803e3d6000fd5b505050506040513d6020811015610dfc57600080fd5b50517bffffffffffffffffffffffffffffffffffffffffffffffffffffffff19167f150b7a0200000000000000000000000000000000000000000000000000000000149150505b949350505050565b6000610e568261096d565b1515610e965760405160e560020a62461bcd02815260040180806020018281038252602c81526020018061128c602c913960400191505060405180910390fd5b6000610ea183610695565b905080600160a060020a031684600160a060020a03161480610edc575083600160a060020a0316610ed18461045c565b600160a060020a0316145b80610e435750610e43818561093f565b82600160a060020a0316610eff82610695565b600160a060020a031614610f475760405160e560020a62461bcd0281526004018080602001828103825260298152602001806113b26029913960400191505060405180910390fd5b600160a060020a0382161515610f915760405160e560020a62461bcd0281526004018080602001828103825260248152602001806112686024913960400191505060405180910390fd5b610f9a8161113d565b600160a060020a0383166000908152600360205260409020610fbb90611185565b600160a060020a0382166000908152600360205260409020610fdc9061119c565b600081815260016020526040808220805473ffffffffffffffffffffffffffffffffffffffff1916600160a060020a0386811691821790925591518493918716917fddf252ad1be2c89b69c2b068fc378daa952ba7f163c4a11628f55a4df523b3ef91a4505050565b61104f8282610aff565b151561108f5760405160e560020a62461bcd0281526004018080602001828103825260218152602001806113436021913960400191505060405180910390fd5b600160a060020a0316600090815260209190915260409020805460ff19169055565b6110bb8282610aff565b15611110576040805160e560020a62461bcd02815260206004820152601f60248201527f526f6c65733a206163636f756e7420616c72656164792068617320726f6c6500604482015290519081900360640190fd5b600160a060020a0316600090815260209190915260409020805460ff19166001179055565b6000903b1190565b600081815260026020526040902054600160a060020a0316156107b8576000908152600260205260409020805473ffffffffffffffffffffffffffffffffffffffff19169055565b805461119890600163ffffffff6111a516565b9055565b80546001019055565b6000828211156111ff576040805160e560020a62461bcd02815260206004820152601e60248201527f536166654d6174683a207375627472616374696f6e206f766572666c6f770000604482015290519081900360640190fd5b5090039056fe4552433732313a207472616e7366657220746f206e6f6e20455243373231526563656976657220696d706c656d656e746572506175736572526f6c653a2063616c6c657220646f6573206e6f742068617665207468652050617573657220726f6c654552433732313a207472616e7366657220746f20746865207a65726f20616464726573734552433732313a206f70657261746f7220717565727920666f72206e6f6e6578697374656e7420746f6b656e4552433732313a20617070726f76652063616c6c6572206973206e6f74206f776e6572206e6f7220617070726f76656420666f7220616c6c4552433732313a2062616c616e636520717565727920666f7220746865207a65726f20616464726573734552433732313a206f776e657220717565727920666f72206e6f6e6578697374656e7420746f6b656e526f6c65733a206163636f756e7420646f6573206e6f74206861766520726f6c654552433732313a20617070726f76656420717565727920666f72206e6f6e6578697374656e7420746f6b656e526f6c65733a206163636f756e7420697320746865207a65726f20616464726573734552433732313a207472616e73666572206f6620746f6b656e2074686174206973206e6f74206f776e4552433732313a20617070726f76616c20746f2063757272656e74206f776e65725061757361626c653a20706175736564000000000000000000000000000000004552433732313a207472616e736665722063616c6c6572206973206e6f74206f776e6572206e6f7220617070726f766564a165627a7a723058204812956d797277fd2b3728dc65a70b35146a8a606a93553b7baca96b4ef3dc6d0029526f6c65733a206163636f756e7420697320746865207a65726f2061646472657373",
    "sourcePath": "c:/Users/franc/Desktop/ReMuS/example_content/contracts/openzeppelin-solidity/contracts/token/ERC721/ERC721Pausable.sol",
    "compiler": {
        "name": "solc",
        "version": "0.5.2+commit.1df8f40c"
    },
    "functionHashes": {
        "addPauser(address)": "82dc1ec4",
        "approve(address,uint256)": "095ea7b3",
        "balanceOf(address)": "70a08231",
        "getApproved(uint256)": "081812fc",
        "isApprovedForAll(address,address)": "e985e9c5",
        "isPauser(address)": "46fbf68e",
        "ownerOf(uint256)": "6352211e",
        "pause()": "8456cb59",
        "paused()": "5c975abb",
        "renouncePauser()": "6ef8d66d",
        "safeTransferFrom(address,address,uint256)": "42842e0e",
        "safeTransferFrom(address,address,uint256,bytes)": "b88d4fde",
        "setApprovalForAll(address,bool)": "a22cb465",
        "supportsInterface(bytes4)": "01ffc9a7",
        "transferFrom(address,address,uint256)": "23b872dd",
        "unpause()": "3f4ba83a"
    },
    "gasEstimates": {
        "creation": {
            "codeDepositCost": "1048000",
            "executionCost": "infinite",
            "totalCost": "infinite"
        },
        "external": {
            "addPauser(address)": "infinite",
            "approve(address,uint256)": "infinite",
            "balanceOf(address)": "infinite",
            "getApproved(uint256)": "infinite",
            "isApprovedForAll(address,address)": "869",
            "isPauser(address)": "infinite",
            "ownerOf(uint256)": "infinite",
            "pause()": "infinite",
            "paused()": "504",
            "renouncePauser()": "infinite",
            "safeTransferFrom(address,address,uint256)": "infinite",
            "safeTransferFrom(address,address,uint256,bytes)": "infinite",
            "setApprovalForAll(address,bool)": "infinite",
            "supportsInterface(bytes4)": "568",
            "transferFrom(address,address,uint256)": "infinite",
            "unpause()": "infinite"
        }
    }
}